{
  "abi": [
    {
      "inputs": [
        {
          "internalType": "contract Game",
          "name": "ds",
          "type": "address"
        },
        {
          "internalType": "bytes24",
          "name": "buildingInstanceID",
          "type": "bytes24"
        },
        {
          "internalType": "bytes24",
          "name": "mobileUnitID",
          "type": "bytes24"
        },
        {
          "internalType": "bytes",
          "name": "payload",
          "type": "bytes"
        }
      ],
      "name": "construct",
      "outputs": [],
      "stateMutability": "nonpayable",
      "type": "function"
    },
    {
      "inputs": [],
      "name": "increment",
      "outputs": [],
      "stateMutability": "nonpayable",
      "type": "function"
    },
    {
      "inputs": [
        {
          "internalType": "contract Game",
          "name": "ds",
          "type": "address"
        },
        {
          "internalType": "bytes24",
          "name": "buildingInstanceID",
          "type": "bytes24"
        },
        {
          "internalType": "bytes24",
          "name": "mobileUnitID",
          "type": "bytes24"
        }
      ],
      "name": "onUnitArrive",
      "outputs": [],
      "stateMutability": "nonpayable",
      "type": "function"
    },
    {
      "inputs": [
        {
          "internalType": "contract Game",
          "name": "ds",
          "type": "address"
        },
        {
          "internalType": "bytes24",
          "name": "buildingInstanceID",
          "type": "bytes24"
        },
        {
          "internalType": "bytes24",
          "name": "mobileUnitID",
          "type": "bytes24"
        }
      ],
      "name": "onUnitLeave",
      "outputs": [],
      "stateMutability": "nonpayable",
      "type": "function"
    },
    {
      "inputs": [
        {
          "internalType": "contract Game",
          "name": "ds",
          "type": "address"
        },
        {
          "internalType": "bytes24",
          "name": "buildingInstance",
          "type": "bytes24"
        },
        {
          "internalType": "bytes24",
          "name": "",
          "type": "bytes24"
        },
        {
          "internalType": "bytes",
          "name": "payload",
          "type": "bytes"
        }
      ],
      "name": "use",
      "outputs": [],
      "stateMutability": "nonpayable",
      "type": "function"
    }
  ],
  "bytecode": {
    "object": "0x608060405234801561001057600080fd5b50610663806100206000396000f3fe608060405234801561001057600080fd5b50600436106100575760003560e01c806324fd46e81461005c57806367cace071461007157806391d83c571461005c578063d09de08a1461006f578063f03ad92f14610084575b600080fd5b61006f61006a3660046102ec565b505050565b005b61006f61007f366004610331565b610098565b61006f6100923660046103eb565b50505050565b63684ef04560e11b6100aa82846104d0565b6001600160e01b031916036100c3576100c385856100ca565b5050505050565b6000826001600160a01b0316631865c57d6040518163ffffffff1660e01b81526004016020604051808303816000875af115801561010c573d6000803e3d6000fd5b505050506040513d601f19601f820116820180604052508101906101309190610500565b90506000816001600160a01b03166324eae355846040518263ffffffff1660e01b81526004016101609190610524565b602060405180830381865afa15801561017d573d6000803e3d6000fd5b505050506040513d601f19601f820116820180604052508101906101a1919061055a565b60001c9050836001600160a01b031663ebb3d5896040518163ffffffff1660e01b81526004016020604051808303816000875af11580156101e6573d6000803e3d6000fd5b505050506040513d601f19601f8201168201806040525081019061020a9190610500565b6001600160a01b031663ab7fff1884610224846001610573565b60405161023592919060240161059a565b60408051601f198184030181529181526020820180516001600160e01b031663370abb6b60e01b179052516001600160e01b031960e084901b16815261027e91906004016105df565b600060405180830381600087803b15801561029857600080fd5b505af11580156102ac573d6000803e3d6000fd5b5050505050505050565b6001600160a01b03811681146102cb57600080fd5b50565b803567ffffffffffffffff19811681146102e757600080fd5b919050565b60008060006060848603121561030157600080fd5b833561030c816102b6565b925061031a602085016102ce565b9150610328604085016102ce565b90509250925092565b60008060008060006080868803121561034957600080fd5b8535610354816102b6565b9450610362602087016102ce565b9350610370604087016102ce565b9250606086013567ffffffffffffffff8082111561038d57600080fd5b818801915088601f8301126103a157600080fd5b8135818111156103b057600080fd5b8960208285010111156103c257600080fd5b9699959850939650602001949392505050565b634e487b7160e01b600052604160045260246000fd5b6000806000806080858703121561040157600080fd5b843561040c816102b6565b935061041a602086016102ce565b9250610428604086016102ce565b9150606085013567ffffffffffffffff8082111561044557600080fd5b818701915087601f83011261045957600080fd5b81358181111561046b5761046b6103d5565b604051601f8201601f19908116603f01168101908382118183101715610493576104936103d5565b816040528281528a60208487010111156104ac57600080fd5b82602086016020830137600060208483010152809550505050505092959194509250565b6001600160e01b031981358181169160048510156104f85780818660040360031b1b83161692505b505092915050565b60006020828403121561051257600080fd5b815161051d816102b6565b9392505050565b67ffffffffffffffff198216815260406020820152600061051d60408301600581526418dbdd5b9d60da1b602082015260400190565b60006020828403121561056c57600080fd5b5051919050565b8082018082111561059457634e487b7160e01b600052601160045260246000fd5b92915050565b67ffffffffffffffff19831681526060602082015260006105d060608301600581526418dbdd5b9d60da1b602082015260400190565b90508260408301529392505050565b600060208083528351808285015260005b8181101561060c578581018301518582016040015282016105f0565b506000604082860101526040601f19601f830116850101925050509291505056fea26469706673582212201c1e5f3ff4d051ab0def5c85bcc0ca97cbb4bcfaef754c88a33fa3017e3215e264736f6c63430008130033",
    "linkReferences": {}
  },
  "methodIdentifiers": {
    "construct(address,bytes24,bytes24,bytes)": "f03ad92f",
    "increment()": "d09de08a",
    "onUnitArrive(address,bytes24,bytes24)": "91d83c57",
    "onUnitLeave(address,bytes24,bytes24)": "24fd46e8",
    "use(address,bytes24,bytes24,bytes)": "67cace07"
  },
  "id": 161
}