{
  "abi": [
    {
      "inputs": [
        {
          "internalType": "contract Game",
          "name": "g",
          "type": "address"
        }
      ],
      "stateMutability": "nonpayable",
      "type": "constructor"
    },
    {
      "inputs": [
        {
          "internalType": "uint256",
          "name": "a",
          "type": "uint256"
        },
        {
          "internalType": "uint256",
          "name": "b",
          "type": "uint256"
        }
      ],
      "name": "min",
      "outputs": [
        {
          "internalType": "uint256",
          "name": "",
          "type": "uint256"
        }
      ],
      "stateMutability": "pure",
      "type": "function"
    },
    {
      "inputs": [
        {
          "internalType": "contract State",
          "name": "state",
          "type": "address"
        },
        {
          "internalType": "bytes",
          "name": "action",
          "type": "bytes"
        },
        {
          "components": [
            {
              "internalType": "address",
              "name": "sender",
              "type": "address"
            },
            {
              "internalType": "uint32",
              "name": "scopes",
              "type": "uint32"
            },
            {
              "internalType": "uint32",
              "name": "clock",
              "type": "uint32"
            }
          ],
          "internalType": "struct Context",
          "name": "ctx",
          "type": "tuple"
        }
      ],
      "name": "reduce",
      "outputs": [
        {
          "internalType": "contract State",
          "name": "",
          "type": "address"
        }
      ],
      "stateMutability": "nonpayable",
      "type": "function"
    }
  ],
  "bytecode": {
    "object": "0x608060405234801561001057600080fd5b50604051611b56380380611b5683398101604081905261002f91610054565b600080546001600160a01b0319166001600160a01b0392909216919091179055610084565b60006020828403121561006657600080fd5b81516001600160a01b038116811461007d57600080fd5b9392505050565b611ac3806100936000396000f3fe608060405234801561001057600080fd5b50600436106100365760003560e01c8063624a3ede1461003b5780637ae2b5c71461006b575b600080fd5b61004e6100493660046116f8565b61008c565b6040516001600160a01b0390911681526020015b60405180910390f35b61007e610079366004611797565b6100e3565b604051908152602001610062565b600063b6b32c2560e01b6100a084866117b9565b6001600160e01b031916036100da5760006100be84600481886117e9565b8101906100cb919061182a565b90506100d88684836100fb565b505b50929392505050565b60008183106100f257816100f4565b825b9392505050565b6001600160e01b03198116631a67c53f60e11b146101565760405162461bcd60e51b81526020600482015260136024820152721a5b9d985b1a5908189d5a5b191a5b99c81a59606a1b60448201526064015b60405180910390fd5b600061016b6001600160a01b038516836108b4565b905067ffffffffffffffff1981166000036101c85760405162461bcd60e51b815260206004820181905260248201527f6e6f206275696c64696e67206b696e6420666f72206275696c64696e67206964604482015260640161014d565b60006101dd6001600160a01b03861683610939565b9150600290508160068111156101f5576101f5611847565b1461024e5760405162461bcd60e51b8152602060048201526024808201527f65787472616374696f6e206275696c64696e67732063616e206578747261637460448201526320676f6f60e01b606482015260840161014d565b5060006102646001600160a01b0386168361096c565b90506001600160a01b0381166102c85760405162461bcd60e51b815260206004820152602360248201527f6e6f20696d706c656d656e746174696f6e20666f72206275696c64696e67206b6044820152621a5b9960ea1b606482015260840161014d565b6001600160a01b0381166102df602086018661185d565b6001600160a01b0316146103485760405162461bcd60e51b815260206004820152602a60248201527f73656e646572206d757374206265204275696c64696e674b696e6420696d706c60448201526932b6b2b73a30ba34b7b760b11b606482015260840161014d565b50600061035f6001600160a01b03861683836109f4565b50905060006103796001600160a01b038716856001610a7c565b905061038481610b02565b60008061039b6001600160a01b0389168483610b54565b909250905067ffffffffffffffff198216156104965767ffffffffffffffff19828116908516146104295760405162461bcd60e51b815260206004820152603260248201527f4974656d20617420736c6f74203020646f65736e2774206d6174636820657874604482015271726163746f72206f7574707574206974656d60701b606482015260840161014d565b6064816001600160401b0316106104965760405162461bcd60e51b815260206004820152602b60248201527f4e6f7420656e6f75676820737061636520696e20736c6f7420746f207075742060448201526a6f7574707574206974656d60a81b606482015260840161014d565b6000806104ac6001600160a01b038b1689610b90565b905060006104bb8b8b8b610d3c565b905060005b600381101561054c576105158282600381106104de576104de61187a565b60200201518483600381106104f5576104f561187a565b602002015161050491906118a6565b6001600160401b03166101f46100e3565b8382600381106105275761052761187a565b6001600160401b03909216602092909202015280610544816118cd565b9150506104c0565b5060006105626001600160a01b038d1689610e9f565b50835181519192506001600160401b031663ffffffff90911611156105dd5760405162461bcd60e51b815260206004820152602b60248201527f6e6f7420656e6f75676820677265656e20676f6f20657874726163746564207460448201526a6f206d616b65206974656d60a81b606482015260840161014d565b82600160200201516001600160401b0316816001602002015163ffffffff16111561065d5760405162461bcd60e51b815260206004820152602a60248201527f6e6f7420656e6f75676820626c756520676f6f2065787472616374656420746f604482015269206d616b65206974656d60b01b606482015260840161014d565b82600260200201516001600160401b0316816002602002015163ffffffff1611156106dc5760405162461bcd60e51b815260206004820152602960248201527f6e6f7420656e6f7567682072656420676f6f2065787472616374656420746f206044820152686d616b65206974656d60b81b606482015260840161014d565b60005b60038110156107935760008282600381106106fc576106fc61187a565b602002015163ffffffff1611156107815760008282600381106107215761072161187a565b602002015163ffffffff1685836003811061073e5761073e61187a565b602002015161074d91906118fc565b90506001600160401b03861615806107765750856001600160401b0316816001600160401b0316105b1561077f578095505b505b8061078b816118cd565b9150506106df565b5060646107a085876118a6565b6001600160401b031611156107bd576107ba856064611930565b93505b60005b600381101561083257848282600381106107dc576107dc61187a565b602002015163ffffffff166107f19190611950565b8482600381106108035761080361187a565b602002018181516108149190611930565b6001600160401b03169052508061082a816118cd565b9150506107c0565b506108476001600160a01b038d168b85610edd565b6108808a60018d60400160208101906108609190611973565b63ffffffff168f6001600160a01b031661105c909392919063ffffffff16565b5050506108a984600087848661089691906118a6565b6001600160a01b038e16939291906110d6565b505050505050505050565b6040516305f922a160e11b815260009081906001600160a01b03851690630bf24542906108f09063eb70afe760e01b9085908890600401611999565b6040805180830381865afa15801561090c573d6000803e3d6000fd5b505050506040513d601f19601f8201168201806040525081019061093091906119c9565b50949350505050565b6001600160401b03608082901c811690600090604084901c16600681111561096357610963611847565b90509250929050565b6040516305f922a160e11b815260009081906001600160a01b03851690630bf24542906109a89063e6a8ee4f60e01b9085908890600401611999565b6040805180830381865afa1580156109c4573d6000803e3d6000fd5b505050506040513d601f19601f820116820180604052508101906109e891906119c9565b5060401c949350505050565b6040516305f922a160e11b815260009081906001600160a01b03861690630bf2454290610a309063390b659960e21b9087908990600401611999565b6040805180830381865afa158015610a4c573d6000803e3d6000fd5b505050506040513d601f19601f82011682018060405250810190610a7091906119c9565b91509150935093915050565b6040516305f922a160e11b815260009081906001600160a01b03861690630bf2454290610ab890633d604d0560e21b9087908990600401611999565b6040805180830381865afa158015610ad4573d6000803e3d6000fd5b505050506040513d601f19601f82011682018060405250810190610af891906119c9565b5095945050505050565b6001600160e01b0319811663b1c93f0960e01b14610b515760405162461bcd60e51b815260206004820152600c60248201526b4974656d49734e6f7442616760a01b604482015260640161014d565b50565b6040516305f922a160e11b815260009081906001600160a01b03861690630bf2454290610a3090630ef6788760e01b9087908990600401611999565b610b986116c5565b6040516305f922a160e11b81526000906001600160a01b03851690630bf2454290610bd290630ef6788760e01b9085908890600401611999565b6040805180830381865afa158015610bee573d6000803e3d6000fd5b505050506040513d601f19601f82011682018060405250810190610c1291906119c9565b6001600160401b03811684526040516305f922a160e11b81529092506001600160a01b0386169150630bf2454290610c5a90630ef6788760e01b906001908890600401611999565b6040805180830381865afa158015610c76573d6000803e3d6000fd5b505050506040513d601f19601f82011682018060405250810190610c9a91906119c9565b6001600160401b03811660208501526040516305f922a160e11b81529092506001600160a01b0386169150630bf2454290610ce590630ef6788760e01b906002908890600401611999565b6040805180830381865afa158015610d01573d6000803e3d6000fd5b505050506040513d601f19601f82011682018060405250810190610d2591906119c9565b6001600160401b0316604084015250909392505050565b610d446116c5565b6000610d596001600160a01b0386168461113f565b90506000610d706001600160a01b03871683610b90565b90506000610dc66002610d8e6001600160a01b038a1688600161117a565b610d9e60608a0160408b01611973565b63ffffffff16610dae9190611930565b610db89190611950565b6001600160401b03166111fd565b905060005b6003811015610e9457610e0b610e0383610dfa868560038110610df057610df061187a565b602002015161121b565b600f0b9061125a565b600f0b611291565b858260038110610e1d57610e1d61187a565b6001600160401b0390921660209290920201526101f4858260038110610e4557610e4561187a565b60200201516001600160401b03161115610e82576101f4858260038110610e6e57610e6e61187a565b6001600160401b0390921660209290920201525b80610e8c816118cd565b915050610dcb565b505050509392505050565b610ea76116c5565b608082901c63ffffffff9081168252606083901c81166020830152604083811c821690830152909360a09290921c166001149150565b6001600160a01b03831663f4602114630ef6788760e01b600085610f00826112ad565b86516040516001600160e01b031960e088901b168152610f27959493929190600401611a0f565b600060405180830381600087803b158015610f4157600080fd5b505af1158015610f55573d6000803e3d6000fd5b5050506001600160a01b038416905063f4602114630ef6788760e01b600185610f7d826112ad565b60208701516040516001600160e01b031960e088901b168152610fa7959493929190600401611a0f565b600060405180830381600087803b158015610fc157600080fd5b505af1158015610fd5573d6000803e3d6000fd5b5050506001600160a01b038416905063f4602114630ef6788760e01b600285610ffd826112ad565b86600260200201516040518663ffffffff1660e01b8152600401611025959493929190611a0f565b600060405180830381600087803b15801561103f57600080fd5b505af1158015611053573d6000803e3d6000fd5b50505050505050565b604051633d18084560e21b81526001600160a01b0385169063f46021149061109e90633be0527f60e21b9086908890631983c3a760e31b908890600401611a0f565b600060405180830381600087803b1580156110b857600080fd5b505af11580156110cc573d6000803e3d6000fd5b5050505050505050565b604051633d18084560e21b81526001600160a01b0386169063f46021149061111190630ef6788760e01b908790899088908890600401611a0f565b600060405180830381600087803b15801561112b57600080fd5b505af11580156108a9573d6000803e3d6000fd5b6000806001600160a01b038416630bf2454263ec0be13d60e01b6002866040518463ffffffff1660e01b81526004016108f093929190611999565b6040516305f922a160e11b81526000906001600160a01b03851690630bf24542906111b490633be0527f60e21b9086908890600401611999565b6040805180830381865afa1580156111d0573d6000803e3d6000fd5b505050506040513d601f19601f820116820180604052508101906111f491906119c9565b95945050505050565b6000677fffffffffffffff82111561121457600080fd5b5060401b90565b600080611227836112c6565b9050600081600f0b136112435761123e60006111fd565b6100f4565b6100f48161125160016111fd565b600f0b906113f1565b6000600f83810b9083900b0260401d60016001607f1b03198112801590611288575060016001607f1b038113155b6100f457600080fd5b60008082600f0b12156112a357600080fd5b50600f0b60401d90565b60006112c063a453ff8760e01b83611448565b92915050565b60006046826001600160401b031610156112e4576112c060006111fd565b60006046836001600160401b031610156112ff57600061130a565b61130a604684611930565b6001600160401b03169050600061134a6113408361133761132c6127106111fd565b61125161267a6111fd565b600f0b90611494565b610dfa60786111fd565b905060a5846001600160401b0316106113845761137d8161137861136e60646111fd565b611251604b6111fd565b61125a565b90506113b3565b609b846001600160401b0316106113b3576113b0816113786113a660646111fd565b61125160556111fd565b90505b6113c6816113c160056111fd565b6113f1565b90506113d260046111fd565b600f0b81600f0b12156100f4576113e960046111fd565b949350505050565b600081600f0b60000361140357600080fd5b600082600f0b604085600f0b901b8161141e5761141e6118e6565b05905060016001607f1b03198112801590611288575060016001607f1b038113156100f457600080fd5b6040516001600160e01b0319831660208201526000602482018190526001600160c01b031960c084901b166030830152906038016040516020818303038152906040526100f490611a55565b600080600084600f0b1280156114ad5750826001166001145b905060008085600f0b126114c157846114c6565b846000035b6fffffffffffffffffffffffffffffffff169050600160801b68010000000000000000821161156957603f82901b91505b841561156157600185161561150c578102607f1c5b908002607f1c906002851615611522578102607f1c5b908002607f1c906004851615611538578102607f1c5b908002607f1c90600885161561154e578102607f1c5b60049490941c93908002607f1c906114f7565b60401c61167f565b603f600160601b8310156115835760209290921b91601f19015b600160701b83101561159b5760109290921b91600f19015b600160781b8310156115b35760089290921b91600719015b6001607c1b8310156115cb5760049290921b91600319015b6001607e1b8310156115e35760029290921b91600119015b6001607f1b8310156115fb5760019290921b91600019015b60005b8615611668576040821061161157600080fd5b600187161561163757918302607f1c918101600160801b83111561163757600192831c92015b928002607f1c9260019190911b90600160801b841061165c57600193841c9391909101905b600187901c96506115fe565b6040811061167557600080fd5b6040039190911c90505b60008361168c5781611691565b816000035b905060016001607f1b031981128015906116b2575060016001607f1b038113155b6116bb57600080fd5b9695505050505050565b60405180606001604052806003906020820280368337509192915050565b6001600160a01b0381168114610b5157600080fd5b60008060008084860360a081121561170f57600080fd5b853561171a816116e3565b945060208601356001600160401b038082111561173657600080fd5b818801915088601f83011261174a57600080fd5b81358181111561175957600080fd5b89602082850101111561176b57600080fd5b6020929092019550909350506060603f198201121561178957600080fd5b509295919450926040019150565b600080604083850312156117aa57600080fd5b50508035926020909101359150565b6001600160e01b031981358181169160048510156117e15780818660040360031b1b83161692505b505092915050565b600080858511156117f957600080fd5b8386111561180657600080fd5b5050820193919092039150565b67ffffffffffffffff1981168114610b5157600080fd5b60006020828403121561183c57600080fd5b81356100f481611813565b634e487b7160e01b600052602160045260246000fd5b60006020828403121561186f57600080fd5b81356100f4816116e3565b634e487b7160e01b600052603260045260246000fd5b634e487b7160e01b600052601160045260246000fd5b6001600160401b038181168382160190808211156118c6576118c6611890565b5092915050565b6000600182016118df576118df611890565b5060010190565b634e487b7160e01b600052601260045260246000fd5b60006001600160401b038084168061192457634e487b7160e01b600052601260045260246000fd5b92169190910492915050565b6001600160401b038281168282160390808211156118c6576118c6611890565b6001600160401b038181168382160280821691908281146117e1576117e1611890565b60006020828403121561198557600080fd5b813563ffffffff811681146100f457600080fd5b6001600160e01b031993909316835260ff91909116602083015267ffffffffffffffff1916604082015260600190565b600080604083850312156119dc57600080fd5b82516119e781611813565b60208401519092506001600160401b0381168114611a0457600080fd5b809150509250929050565b6001600160e01b031995909516855260ff93909316602085015267ffffffffffffffff1991821660408501521660608301526001600160401b0316608082015260a00190565b8051602082015167ffffffffffffffff198082169291906018831015611a855780818460180360031b1b83161693505b50505091905056fea264697066735822122091088bd018bb0e93768b735a35330a2ef77f3acdef89718af3b3a0400358142a64736f6c63430008130033",
    "linkReferences": {}
  },
  "methodIdentifiers": {
    "min(uint256,uint256)": "7ae2b5c7",
    "reduce(address,bytes,(address,uint32,uint32))": "624a3ede"
  },
  "id": 168
}