{
  "abi": [
    {
      "inputs": [
        {
          "internalType": "contract Game",
          "name": "",
          "type": "address"
        },
        {
          "internalType": "bytes24",
          "name": "",
          "type": "bytes24"
        },
        {
          "internalType": "bytes24",
          "name": "",
          "type": "bytes24"
        },
        {
          "internalType": "bytes24[4]",
          "name": "",
          "type": "bytes24[4]"
        },
        {
          "internalType": "uint64[4]",
          "name": "",
          "type": "uint64[4]"
        },
        {
          "internalType": "bytes24",
          "name": "",
          "type": "bytes24"
        },
        {
          "internalType": "uint64",
          "name": "",
          "type": "uint64"
        }
      ],
      "name": "onRegisterRecipeOutput",
      "outputs": [
        {
          "internalType": "bool",
          "name": "",
          "type": "bool"
        }
      ],
      "stateMutability": "pure",
      "type": "function"
    }
  ],
  "bytecode": {
    "object": "0x608060405234801561001057600080fd5b50610235806100206000396000f3fe608060405234801561001057600080fd5b506004361061002b5760003560e01c806349f8bd1114610030575b600080fd5b61004b61003e366004610123565b6000979650505050505050565b604051901515815260200160405180910390f35b803567ffffffffffffffff198116811461007857600080fd5b919050565b6040516080810167ffffffffffffffff811182821017156100ae57634e487b7160e01b600052604160045260246000fd5b60405290565b803567ffffffffffffffff8116811461007857600080fd5b600082601f8301126100dd57600080fd5b6100e561007d565b8060808401858111156100f757600080fd5b845b818110156101185761010a816100b4565b8452602093840193016100f9565b509095945050505050565b60008060008060008060006101a0888a03121561013f57600080fd5b87356001600160a01b038116811461015657600080fd5b9650602061016589820161005f565b965061017360408a0161005f565b955089607f8a011261018457600080fd5b61018c61007d565b8060e08b018c81111561019e57600080fd5b60608c015b818110156101c1576101b48161005f565b84529284019284016101a3565b508197506101cf8d826100cc565b9650505050506101e2610160890161005f565b91506101f161018089016100b4565b90509295989194975092955056fea2646970667358221220983d67511a70608eb2243929d68d7bbb42e8f133bc44cc112c080e5b8ec795df64736f6c63430008130033",
    "linkReferences": {}
  },
  "methodIdentifiers": {
    "onRegisterRecipeOutput(address,bytes24,bytes24,bytes24[4],uint64[4],bytes24,uint64)": "49f8bd11"
  },
  "id": 139
}