{
  "abi": [
    {
      "inputs": [
        {
          "internalType": "address",
          "name": "_owner",
          "type": "address"
        }
      ],
      "stateMutability": "nonpayable",
      "type": "constructor"
    },
    {
      "inputs": [],
      "name": "MaxSupply",
      "type": "error"
    },
    {
      "inputs": [],
      "name": "MintPriceNotPaid",
      "type": "error"
    },
    {
      "inputs": [],
      "name": "NonExistentTokenURI",
      "type": "error"
    },
    {
      "inputs": [],
      "name": "WithdrawTransfer",
      "type": "error"
    },
    {
      "anonymous": false,
      "inputs": [
        {
          "indexed": true,
          "internalType": "address",
          "name": "owner",
          "type": "address"
        },
        {
          "indexed": true,
          "internalType": "address",
          "name": "spender",
          "type": "address"
        },
        {
          "indexed": true,
          "internalType": "uint256",
          "name": "id",
          "type": "uint256"
        }
      ],
      "name": "Approval",
      "type": "event"
    },
    {
      "anonymous": false,
      "inputs": [
        {
          "indexed": true,
          "internalType": "address",
          "name": "owner",
          "type": "address"
        },
        {
          "indexed": true,
          "internalType": "address",
          "name": "operator",
          "type": "address"
        },
        {
          "indexed": false,
          "internalType": "bool",
          "name": "approved",
          "type": "bool"
        }
      ],
      "name": "ApprovalForAll",
      "type": "event"
    },
    {
      "anonymous": false,
      "inputs": [
        {
          "indexed": true,
          "internalType": "address",
          "name": "from",
          "type": "address"
        },
        {
          "indexed": true,
          "internalType": "address",
          "name": "to",
          "type": "address"
        },
        {
          "indexed": true,
          "internalType": "uint256",
          "name": "id",
          "type": "uint256"
        }
      ],
      "name": "Transfer",
      "type": "event"
    },
    {
      "inputs": [],
      "name": "TOTAL_SUPPLY",
      "outputs": [
        {
          "internalType": "uint256",
          "name": "",
          "type": "uint256"
        }
      ],
      "stateMutability": "view",
      "type": "function"
    },
    {
      "inputs": [
        {
          "internalType": "address",
          "name": "spender",
          "type": "address"
        },
        {
          "internalType": "uint256",
          "name": "id",
          "type": "uint256"
        }
      ],
      "name": "approve",
      "outputs": [],
      "stateMutability": "nonpayable",
      "type": "function"
    },
    {
      "inputs": [
        {
          "internalType": "address",
          "name": "owner",
          "type": "address"
        }
      ],
      "name": "balanceOf",
      "outputs": [
        {
          "internalType": "uint256",
          "name": "",
          "type": "uint256"
        }
      ],
      "stateMutability": "view",
      "type": "function"
    },
    {
      "inputs": [],
      "name": "baseURI",
      "outputs": [
        {
          "internalType": "string",
          "name": "",
          "type": "string"
        }
      ],
      "stateMutability": "view",
      "type": "function"
    },
    {
      "inputs": [],
      "name": "currentTokenId",
      "outputs": [
        {
          "internalType": "uint256",
          "name": "",
          "type": "uint256"
        }
      ],
      "stateMutability": "view",
      "type": "function"
    },
    {
      "inputs": [
        {
          "internalType": "uint256",
          "name": "",
          "type": "uint256"
        }
      ],
      "name": "getApproved",
      "outputs": [
        {
          "internalType": "address",
          "name": "",
          "type": "address"
        }
      ],
      "stateMutability": "view",
      "type": "function"
    },
    {
      "inputs": [
        {
          "internalType": "address",
          "name": "",
          "type": "address"
        },
        {
          "internalType": "address",
          "name": "",
          "type": "address"
        }
      ],
      "name": "isApprovedForAll",
      "outputs": [
        {
          "internalType": "bool",
          "name": "",
          "type": "bool"
        }
      ],
      "stateMutability": "view",
      "type": "function"
    },
    {
      "inputs": [],
      "name": "mintPrice",
      "outputs": [
        {
          "internalType": "uint256",
          "name": "",
          "type": "uint256"
        }
      ],
      "stateMutability": "view",
      "type": "function"
    },
    {
      "inputs": [
        {
          "internalType": "address",
          "name": "recipient",
          "type": "address"
        }
      ],
      "name": "mintTo",
      "outputs": [
        {
          "internalType": "uint256",
          "name": "",
          "type": "uint256"
        }
      ],
      "stateMutability": "payable",
      "type": "function"
    },
    {
      "inputs": [],
      "name": "name",
      "outputs": [
        {
          "internalType": "string",
          "name": "",
          "type": "string"
        }
      ],
      "stateMutability": "view",
      "type": "function"
    },
    {
      "inputs": [
        {
          "internalType": "uint256",
          "name": "id",
          "type": "uint256"
        }
      ],
      "name": "ownerOf",
      "outputs": [
        {
          "internalType": "address",
          "name": "owner",
          "type": "address"
        }
      ],
      "stateMutability": "view",
      "type": "function"
    },
    {
      "inputs": [
        {
          "internalType": "contract State",
          "name": "_state",
          "type": "address"
        }
      ],
      "name": "registerState",
      "outputs": [],
      "stateMutability": "nonpayable",
      "type": "function"
    },
    {
      "inputs": [
        {
          "internalType": "address",
          "name": "from",
          "type": "address"
        },
        {
          "internalType": "address",
          "name": "to",
          "type": "address"
        },
        {
          "internalType": "uint256",
          "name": "id",
          "type": "uint256"
        }
      ],
      "name": "safeTransferFrom",
      "outputs": [],
      "stateMutability": "nonpayable",
      "type": "function"
    },
    {
      "inputs": [
        {
          "internalType": "address",
          "name": "from",
          "type": "address"
        },
        {
          "internalType": "address",
          "name": "to",
          "type": "address"
        },
        {
          "internalType": "uint256",
          "name": "id",
          "type": "uint256"
        },
        {
          "internalType": "bytes",
          "name": "data",
          "type": "bytes"
        }
      ],
      "name": "safeTransferFrom",
      "outputs": [],
      "stateMutability": "nonpayable",
      "type": "function"
    },
    {
      "inputs": [
        {
          "internalType": "address",
          "name": "operator",
          "type": "address"
        },
        {
          "internalType": "bool",
          "name": "approved",
          "type": "bool"
        }
      ],
      "name": "setApprovalForAll",
      "outputs": [],
      "stateMutability": "nonpayable",
      "type": "function"
    },
    {
      "inputs": [
        {
          "internalType": "string",
          "name": "_baseURI",
          "type": "string"
        }
      ],
      "name": "setBaseURI",
      "outputs": [],
      "stateMutability": "nonpayable",
      "type": "function"
    },
    {
      "inputs": [
        {
          "internalType": "uint256",
          "name": "_mintPrice",
          "type": "uint256"
        }
      ],
      "name": "setMintPrice",
      "outputs": [],
      "stateMutability": "nonpayable",
      "type": "function"
    },
    {
      "inputs": [
        {
          "internalType": "bytes4",
          "name": "interfaceId",
          "type": "bytes4"
        }
      ],
      "name": "supportsInterface",
      "outputs": [
        {
          "internalType": "bool",
          "name": "",
          "type": "bool"
        }
      ],
      "stateMutability": "view",
      "type": "function"
    },
    {
      "inputs": [],
      "name": "symbol",
      "outputs": [
        {
          "internalType": "string",
          "name": "",
          "type": "string"
        }
      ],
      "stateMutability": "view",
      "type": "function"
    },
    {
      "inputs": [
        {
          "internalType": "uint256",
          "name": "tokenId",
          "type": "uint256"
        }
      ],
      "name": "tokenURI",
      "outputs": [
        {
          "internalType": "string",
          "name": "",
          "type": "string"
        }
      ],
      "stateMutability": "view",
      "type": "function"
    },
    {
      "inputs": [
        {
          "internalType": "address",
          "name": "from",
          "type": "address"
        },
        {
          "internalType": "address",
          "name": "to",
          "type": "address"
        },
        {
          "internalType": "uint256",
          "name": "tokenId",
          "type": "uint256"
        }
      ],
      "name": "transferFrom",
      "outputs": [],
      "stateMutability": "nonpayable",
      "type": "function"
    },
    {
      "inputs": [
        {
          "internalType": "address payable",
          "name": "payee",
          "type": "address"
        }
      ],
      "name": "withdrawPayments",
      "outputs": [],
      "stateMutability": "nonpayable",
      "type": "function"
    }
  ],
  "bytecode": {
    "object": "0x670de0b6b3a764000060065560c0604052601e60809081527f68747470733a2f2f6173736574732e646f776e73747265616d2e67616d65000060a0526007906200004a90826200056c565b506040518060600160405280604051806040016040528060048152602001631b19599d60e21b8152508152602001604051806040016040528060058152602001641c9a59da1d60da1b8152508152602001604051806040016040528060088152602001673bb430ba32bb32b960c11b815250815250600b906003620000d1929190620003a5565b506040805161012081018252600960e082019081526819185b5b8818dbdb1960ba1b610100830152815281518083018352600f81526e656e646c657373206472697a7a6c6560881b60208281019190915280830191909152825180840184526004815263185c9a5960e21b81830152828401528251808401845260088152671d1c9bdc1a58d85b60c21b8183015260608301528251808401845260058152641a1d5b5a5960da1b81830152608083015282518084018452600681526573776561747960d01b8183015260a08301528251808401909352600c8084526b686f7420617320686164657360a01b9184019190915260c0820192909252620001d99190600762000402565b506040805161012081018252600660e0820190815265656d7069726560d01b610100830152815281518083018352600b8082526a63796265726f637261637960a81b60208381019190915280840192909252835180850185529081526a627572656175637261637960a81b8183015282840152825180840184526009808252687468656f637261637960b81b82840152606084019190915283518085018552600a815269686578616c6f706f6c7960b01b81840152608084015283518085018552908152681a1a5d99481b5a5b9960ba1b8183015260a08301528251808401909352600883526764656d617263687960c01b9083015260c0810191909152620002e790600d90600762000402565b50348015620002f557600080fd5b5060405162002c0c38038062002c0c833981016040819052620003189162000638565b6040518060400160405280600e81526020016d446f776e73747265616d5a6f6e6560901b815250604051806040016040528060038152602001622229ad60e91b81525081600090816200036c91906200056c565b5060016200037b82826200056c565b5050600980546001600160a01b0319166001600160a01b039390931692909217909155506200066a565b828054828255906000526020600020908101928215620003f0579160200282015b82811115620003f05782518290620003df90826200056c565b5091602001919060010190620003c6565b50620003fe9291506200044d565b5090565b828054828255906000526020600020908101928215620003f0579160200282015b82811115620003f057825182906200043c90826200056c565b509160200191906001019062000423565b80821115620003fe5760006200046482826200046e565b506001016200044d565b5080546200047c90620004dd565b6000825580601f106200048d575050565b601f016020900490600052602060002090810190620004ad9190620004b0565b50565b5b80821115620003fe5760008155600101620004b1565b634e487b7160e01b600052604160045260246000fd5b600181811c90821680620004f257607f821691505b6020821081036200051357634e487b7160e01b600052602260045260246000fd5b50919050565b601f8211156200056757600081815260208120601f850160051c81016020861015620005425750805b601f850160051c820191505b8181101562000563578281556001016200054e565b5050505b505050565b81516001600160401b03811115620005885762000588620004c7565b620005a081620005998454620004dd565b8462000519565b602080601f831160018114620005d85760008415620005bf5750858301515b600019600386901b1c1916600185901b17855562000563565b600085815260208120601f198616915b828110156200060957888601518255948401946001909101908401620005e8565b5085821015620006285787850151600019600388901b60f8161c191681555b5050505050600190811b01905550565b6000602082840312156200064b57600080fd5b81516001600160a01b03811681146200066357600080fd5b9392505050565b612592806200067a6000396000f3fe6080604052600436106101345760003560e01c80636817c76c116100ab57806395d89b411161006f57806395d89b4114610358578063a22cb4651461036d578063b88d4fde1461038d578063c87b56dd146103ad578063e985e9c5146103cd578063f4a0a5281461040857600080fd5b80636817c76c146102e45780636c0360eb146102fa57806370a082311461030f578063755edd171461032f578063902d55a51461034257600080fd5b806323b872dd116100fd57806323b872dd1461022457806331b3eb94146102445780633c0553981461026457806342842e0e1461028457806355f804b3146102a45780636352211e146102c457600080fd5b80629a9b7b1461013957806301ffc9a71461016257806306fdde0314610192578063081812fc146101b4578063095ea7b314610202575b600080fd5b34801561014557600080fd5b5061014f60085481565b6040519081526020015b60405180910390f35b34801561016e57600080fd5b5061018261017d3660046119c8565b610428565b6040519015158152602001610159565b34801561019e57600080fd5b506101a761047a565b6040516101599190611a09565b3480156101c057600080fd5b506101ea6101cf366004611a3c565b6004602052600090815260409020546001600160a01b031681565b6040516001600160a01b039091168152602001610159565b34801561020e57600080fd5b5061022261021d366004611a6a565b610508565b005b34801561023057600080fd5b5061022261023f366004611a96565b6105ef565b34801561025057600080fd5b5061022261025f366004611ad7565b61062d565b34801561027057600080fd5b5061022261027f366004611ad7565b6106b1565b34801561029057600080fd5b5061022261029f366004611a96565b6106fd565b3480156102b057600080fd5b506102226102bf366004611b63565b6107d2565b3480156102d057600080fd5b506101ea6102df366004611a3c565b610808565b3480156102f057600080fd5b5061014f60065481565b34801561030657600080fd5b506101a761085f565b34801561031b57600080fd5b5061014f61032a366004611ad7565b61086c565b61014f61033d366004611ad7565b6108cf565b34801561034e57600080fd5b5061014f617d0081565b34801561036457600080fd5b506101a7610b2f565b34801561037957600080fd5b50610222610388366004611be3565b610b3c565b34801561039957600080fd5b506102226103a8366004611c21565b610ba8565b3480156103b957600080fd5b506101a76103c8366004611a3c565b610c6d565b3480156103d957600080fd5b506101826103e8366004611cc0565b600560209081526000928352604080842090915290825290205460ff1681565b34801561041457600080fd5b50610222610423366004611a3c565b610caa565b60006301ffc9a760e01b6001600160e01b03198316148061045957506380ac58cd60e01b6001600160e01b03198316145b806104745750635b5e139f60e01b6001600160e01b03198316145b92915050565b6000805461048790611cee565b80601f01602080910402602001604051908101604052809291908181526020018280546104b390611cee565b80156105005780601f106104d557610100808354040283529160200191610500565b820191906000526020600020905b8154815290600101906020018083116104e357829003601f168201915b505050505081565b6000818152600260205260409020546001600160a01b03163381148061055157506001600160a01b038116600090815260056020908152604080832033845290915290205460ff165b6105935760405162461bcd60e51b815260206004820152600e60248201526d1393d517d055551213d49256915160921b60448201526064015b60405180910390fd5b60008281526004602052604080822080546001600160a01b0319166001600160a01b0387811691821790925591518593918516917f8c5be1e5ebec7d5bd14f71427d1e84f3dd0314c0f7b2291e5b200ac8c7c3b92591a4505050565b6105fa838383610cd9565b600061060582610ea0565b90506106278161061485610eab565b600a546001600160a01b03169190610ebe565b50505050565b6009546001600160a01b031633146106575760405162461bcd60e51b815260040161058a90611d28565b476000036106785760405163d23a9e8960e01b815260040160405180910390fd5b6040516001600160a01b038216904780156108fc02916000818181858888f193505050501580156106ad573d6000803e3d6000fd5b5050565b6009546001600160a01b031633146106db5760405162461bcd60e51b815260040161058a90611d28565b600a80546001600160a01b0319166001600160a01b0392909216919091179055565b6107088383836105ef565b6001600160a01b0382163b15806107b15750604051630a85bd0160e11b8082523360048301526001600160a01b03858116602484015260448301849052608060648401526000608484015290919084169063150b7a029060a4016020604051808303816000875af1158015610781573d6000803e3d6000fd5b505050506040513d601f19601f820116820180604052508101906107a59190611d6d565b6001600160e01b031916145b6107cd5760405162461bcd60e51b815260040161058a90611d8a565b505050565b6009546001600160a01b031633146107fc5760405162461bcd60e51b815260040161058a90611d28565b60076106ad8282611e02565b6000818152600260205260409020546001600160a01b03168061085a5760405162461bcd60e51b815260206004820152600a6024820152691393d517d3525395115160b21b604482015260640161058a565b919050565b6007805461048790611cee565b60006001600160a01b0382166108b35760405162461bcd60e51b815260206004820152600c60248201526b5a45524f5f4144445245535360a01b604482015260640161058a565b506001600160a01b031660009081526003602052604090205490565b600060065434146108f3576040516310f0c8f160e11b815260040160405180910390fd5b600060085460016109049190611ed8565b9050617d0081111561092957604051632cdb04a160e21b815260040160405180910390fd5b60088190556109388382610f31565b80600061094482610ffd565b90506109538161061487610eab565b600a546001600160a01b0316637aaee0d08261096e86611057565b60405160200161097e9190611f07565b60405160208183030381529060405261099690611f34565b6040518363ffffffff1660e01b81526004016109b3929190611f58565b600060405180830381600087803b1580156109cd57600080fd5b505af11580156109e1573d6000803e3d6000fd5b5050600a546001600160a01b03169150637aaee0d0905082610a0286611057565b604051602001610a129190611f07565b604051602081830303815290604052610a2a90611f34565b6040516001600160e01b031960e085901b16815267ffffffffffffffff19909216600483015260606024830152600b60648301526a3232b9b1b934b83a34b7b760a91b6084830152604482015260a401600060405180830381600087803b158015610a9457600080fd5b505af1158015610aa8573d6000803e3d6000fd5b505050506000610abc83600080600061109b565b600a54909150610ad6906001600160a01b0316828461113d565b600a54610aee906001600160a01b0316826001611179565b6040805160608101825260ff8082526020820181905291810191909152600a54610b25916001600160a01b03909116908390611200565b5091949350505050565b6001805461048790611cee565b3360008181526005602090815260408083206001600160a01b03871680855290835292819020805460ff191686151590811790915590519081529192917f17307eab39ab6107e8899845ad3d59bd9653f200f220920489ca2b5937696c31910160405180910390a35050565b610bb38585856105ef565b6001600160a01b0384163b1580610c4a5750604051630a85bd0160e11b808252906001600160a01b0386169063150b7a0290610bfb9033908a90899089908990600401611f9c565b6020604051808303816000875af1158015610c1a573d6000803e3d6000fd5b505050506040513d601f19601f82011682018060405250810190610c3e9190611d6d565b6001600160e01b031916145b610c665760405162461bcd60e51b815260040161058a90611d8a565b5050505050565b60606000610c7a83610808565b6001600160a01b031603610ca15760405163d872946b60e01b815260040160405180910390fd5b61047482611348565b6009546001600160a01b03163314610cd45760405162461bcd60e51b815260040161058a90611d28565b600655565b6000818152600260205260409020546001600160a01b03848116911614610d2f5760405162461bcd60e51b815260206004820152600a60248201526957524f4e475f46524f4d60b01b604482015260640161058a565b6001600160a01b038216610d795760405162461bcd60e51b81526020600482015260116024820152701253959053125117d49150d25412515395607a1b604482015260640161058a565b336001600160a01b0384161480610db357506001600160a01b038316600090815260056020908152604080832033845290915290205460ff165b80610dd457506000818152600460205260409020546001600160a01b031633145b610e115760405162461bcd60e51b815260206004820152600e60248201526d1393d517d055551213d49256915160921b604482015260640161058a565b6001600160a01b0380841660008181526003602090815260408083208054600019019055938616808352848320805460010190558583526002825284832080546001600160a01b03199081168317909155600490925284832080549092169091559251849392917fddf252ad1be2c89b69c2b068fc378daa952ba7f163c4a11628f55a4df523b3ef91a4505050565b600061047482610ffd565b600061047463045820b360e01b83611457565b604051633d18084560e21b81526001600160a01b0384169063f460211490610efa90635a54cd2760e11b90600090879087908390600401611ff0565b600060405180830381600087803b158015610f1457600080fd5b505af1158015610f28573d6000803e3d6000fd5b50505050505050565b610f3b82826114a9565b6001600160a01b0382163b1580610fe15750604051630a85bd0160e11b80825233600483015260006024830181905260448301849052608060648401526084830152906001600160a01b0384169063150b7a029060a4016020604051808303816000875af1158015610fb1573d6000803e3d6000fd5b505050506040513d601f19601f82011682018060405250810190610fd59190611d6d565b6001600160e01b031916145b6106ad5760405162461bcd60e51b815260040161058a90611d8a565b6000808260010b12156110425760405162461bcd60e51b815260206004820152600d60248201526c125b9d985b1a59169bdb995251609a1b604482015260640161058a565b6104746386fc4f3760e01b61ffff84166115b4565b606060a06040510180604052602081039150506000815280825b600183039250600a81066030018353600a9004806110715750819003601f19909101908152919050565b6000816110a88486612037565b6110b29190612037565b60010b156110f65760405162461bcd60e51b8152602060048201526011602482015270496e76616c696454696c65436f6f72647360781b604482015260640161058a565b60408051608081018252600187810b825286810b602083015285810b928201929092529083900b6060820152611134906339698bff60e21b906115ed565b95945050505050565b604051633d18084560e21b81526001600160a01b0384169063f460211490610efa9063d3c8dd6960e01b90600090879087908390600401611ff0565b6001600160a01b03831663f4602114633442702960e21b600085818660018111156111a6576111a661205a565b604080516001600160e01b031960e089901b8116825296909616600487015260ff909416602486015267ffffffffffffffff199283166044860152921b16606483015267ffffffffffffffff16608482015260a401610efa565b6001600160a01b03831663f4602114630ef6788760e01b60008561122382611646565b86516040516001600160e01b031960e088901b16815261124a959493929190600401611ff0565b600060405180830381600087803b15801561126457600080fd5b505af1158015611278573d6000803e3d6000fd5b5050506001600160a01b038416905063f4602114630ef6788760e01b6001856112a082611646565b60208701516040516001600160e01b031960e088901b1681526112ca959493929190600401611ff0565b600060405180830381600087803b1580156112e457600080fd5b505af11580156112f8573d6000803e3d6000fd5b5050506001600160a01b038416905063f4602114630ef6788760e01b60028561132082611646565b86600260200201516040518663ffffffff1660e01b8152600401610efa959493929190611ff0565b6060600061135583610ea0565b600a54604051632243c5d960e01b815291925060009173__$1464ab981357a848ad3ff04f4dd3359feb$__91632243c5d99161139f916001600160a01b0316908690600401612086565b600060405180830381865af41580156113bc573d6000803e3d6000fd5b505050506040513d6000823e601f3d908101601f191682016040526113e491908101906120ca565b6113ed85611057565b60076113f887611057565b61140188611659565b6040516020016114159594939291906121ab565b604051602081830303815290604052905061142f816117c9565b60405160200161143f91906122c8565b60405160208183030381529060405292505050919050565b6040516001600160e01b0319831660208201526bffffffffffffffffffffffff19606083901b1660248201526000906038015b6040516020818303038152906040526114a29061230d565b9392505050565b6001600160a01b0382166114f35760405162461bcd60e51b81526020600482015260116024820152701253959053125117d49150d25412515395607a1b604482015260640161058a565b6000818152600260205260409020546001600160a01b0316156115495760405162461bcd60e51b815260206004820152600e60248201526d1053149150511657d3525395115160921b604482015260640161058a565b6001600160a01b038216600081815260036020908152604080832080546001019055848352600290915280822080546001600160a01b0319168417905551839291907fddf252ad1be2c89b69c2b068fc378daa952ba7f163c4a11628f55a4df523b3ef908290a45050565b6040516001600160e01b0319831660208201526000602482018190526001600160c01b031960c084901b1660308301529060380161148a565b8051602080830151604080850151606086015191516001600160e01b031988169481019490945260006024850181905260f095861b603086015292851b6032850152841b603484015290921b603682015260380161148a565b600061047463a453ff8760e01b836115b4565b60606040518060400160405280600b81526020016a44726976696e675369646560a81b815250600b6116b0846040518060400160405280600b81526020016a44726976696e675369646560a81b815250600361191c565b815481106116c0576116c0612070565b9060005260206000200160405180604001604052806007815260200166436c696d61746560c81b815250600c6117178660405180604001604052806007815260200166436c696d61746560c81b815250600761191c565b8154811061172757611727612070565b906000526020600020016040518060400160405280600a81526020016911dbdd995c9b9b595b9d60b21b815250600d611784886040518060400160405280600a81526020016911dbdd995c9b9b595b9d60b21b815250600761191c565b8154811061179457611794612070565b906000526020600020016040516020016117b396959493929190612345565b6040516020818303038152906040529050919050565b606081516000036117e857505060408051602081019091526000815290565b600060405180606001604052806040815260200161251d60409139905060006003845160026118179190611ed8565b6118219190612492565b61182c9060046124a6565b67ffffffffffffffff81111561184457611844611af4565b6040519080825280601f01601f19166020018201604052801561186e576020820181803683370190505b509050600182016020820185865187015b808210156118da576003820191508151603f8160121c168501518453600184019350603f81600c1c168501518453600184019350603f8160061c168501518453600184019350603f811685015184535060018301925061187f565b50506003865106600181146118f6576002811461190957611911565b603d6001830353603d6002830353611911565b603d60018303535b509195945050505050565b6000611929848484611931565b949350505050565b6000806119668461194187611057565b6040516020016119529291906124bd565b60405160208183030381529060405261197e565b9050600061197484836124ec565b9695505050505050565b6000816040516020016119919190612500565b60408051601f19818403018152919052805160209091012092915050565b6001600160e01b0319811681146119c557600080fd5b50565b6000602082840312156119da57600080fd5b81356114a2816119af565b60005b83811015611a005781810151838201526020016119e8565b50506000910152565b6020815260008251806020840152611a288160408501602087016119e5565b601f01601f19169190910160400192915050565b600060208284031215611a4e57600080fd5b5035919050565b6001600160a01b03811681146119c557600080fd5b60008060408385031215611a7d57600080fd5b8235611a8881611a55565b946020939093013593505050565b600080600060608486031215611aab57600080fd5b8335611ab681611a55565b92506020840135611ac681611a55565b929592945050506040919091013590565b600060208284031215611ae957600080fd5b81356114a281611a55565b634e487b7160e01b600052604160045260246000fd5b604051601f8201601f1916810167ffffffffffffffff81118282101715611b3357611b33611af4565b604052919050565b600067ffffffffffffffff821115611b5557611b55611af4565b50601f01601f191660200190565b600060208284031215611b7557600080fd5b813567ffffffffffffffff811115611b8c57600080fd5b8201601f81018413611b9d57600080fd5b8035611bb0611bab82611b3b565b611b0a565b818152856020838501011115611bc557600080fd5b81602084016020830137600091810160200191909152949350505050565b60008060408385031215611bf657600080fd5b8235611c0181611a55565b915060208301358015158114611c1657600080fd5b809150509250929050565b600080600080600060808688031215611c3957600080fd5b8535611c4481611a55565b94506020860135611c5481611a55565b935060408601359250606086013567ffffffffffffffff80821115611c7857600080fd5b818801915088601f830112611c8c57600080fd5b813581811115611c9b57600080fd5b896020828501011115611cad57600080fd5b9699959850939650602001949392505050565b60008060408385031215611cd357600080fd5b8235611cde81611a55565b91506020830135611c1681611a55565b600181811c90821680611d0257607f821691505b602082108103611d2257634e487b7160e01b600052602260045260246000fd5b50919050565b60208082526025908201527f4f6e6c7920746865206f776e65722063616e2063616c6c20746869732066756e60408201526431ba34b7b760d91b606082015260800190565b600060208284031215611d7f57600080fd5b81516114a2816119af565b60208082526010908201526f155394d0519157d49150d2541251539560821b604082015260600190565b601f8211156107cd57600081815260208120601f850160051c81016020861015611ddb5750805b601f850160051c820191505b81811015611dfa57828155600101611de7565b505050505050565b815167ffffffffffffffff811115611e1c57611e1c611af4565b611e3081611e2a8454611cee565b84611db4565b602080601f831160018114611e655760008415611e4d5750858301515b600019600386901b1c1916600185901b178555611dfa565b600085815260208120601f198616915b82811015611e9457888601518255948401946001909101908401611e75565b5085821015611eb25787850151600019600388901b60f8161c191681555b5050505050600190811b01905550565b634e487b7160e01b600052601160045260246000fd5b8082018082111561047457610474611ec2565b60008151611efd8185602086016119e5565b9290920192915050565b6402d37b732960dd1b815260008251611f278160058501602087016119e5565b9190910160050192915050565b80516020808301519190811015611d225760001960209190910360031b1b16919050565b67ffffffffffffffff1983168152606060208201526000611f8d6060830160048152636e616d6560e01b602082015260400190565b90508260408301529392505050565b6001600160a01b038681168252851660208201526040810184905260806060820181905281018290526000828460a0840137600060a0848401015260a0601f19601f85011683010190509695505050505050565b6001600160e01b031995909516855260ff93909316602085015267ffffffffffffffff19918216604085015216606083015267ffffffffffffffff16608082015260a00190565b600181810b9083900b01617fff8113617fff198212171561047457610474611ec2565b634e487b7160e01b600052602160045260246000fd5b634e487b7160e01b600052603260045260246000fd5b6001600160a01b038316815267ffffffffffffffff1982166020820152606060408201819052600490820152636e616d6560e01b6080820152600060a08201611929565b6000602082840312156120dc57600080fd5b815167ffffffffffffffff8111156120f357600080fd5b8201601f8101841361210457600080fd5b8051612112611bab82611b3b565b81815285602083850101111561212757600080fd5b6111348260208301602086016119e5565b6000815461214581611cee565b6001828116801561215d5760018114612172576121a1565b60ff19841687528215158302870194506121a1565b8560005260208060002060005b858110156121985781548a82015290840190820161217f565b50505082870194505b5050505092915050565b607b60f81b815268113730b6b2911d101160b91b600182015285516000906121da81600a850160208b016119e5565b61088b60f21b600a9184019182018190527f226465736372697074696f6e223a2022446f776e73747265616d205a6f6e6520600c830152602360f81b602c830152875161222e81602d850160208c016119e5565b602d920191820152691134b6b0b3b2911d101160b11b602f8201526122566039820187612138565b9050652f7a6f6e652f60d01b81526122bc6122af6122a961228f61227d600686018a611eeb565b650b9c1b99c88b60d21b815260060190565b6d01130ba3a3934b13aba32b9911d160951b8152600e0190565b86611eeb565b607d60f81b815260010190565b98975050505050505050565b7f646174613a6170706c69636174696f6e2f6a736f6e3b6261736536342c00000081526000825161230081601d8501602087016119e5565b91909101601d0192915050565b8051602082015167ffffffffffffffff19808216929190601883101561233d5780818460180360031b1b83161693505b505050919050565b605b60f81b815260006f3d913a3930b4ba2fba3cb832911d101160811b806001840152885161237b816011860160208d016119e5565b6c111610113b30b63ab2911d101160991b60119185019182018190526123a4601e83018b612138565b61227d60f01b8152600b60fa1b6002820152600381019390935288519291506123d4836013840160208c016119e5565b8282019250806013840152505061246f61246261240661245c61244361243d61242161241461240660208a018f612138565b61227d60f01b815260020190565b600b60fa1b815260010190565b6f3d913a3930b4ba2fba3cb832911d101160811b815260100190565b8a611eeb565b6c111610113b30b63ab2911d101160991b8152600d0190565b87612138565b605d60f81b815260010190565b9998505050505050505050565b634e487b7160e01b600052601260045260246000fd5b6000826124a1576124a161247c565b500490565b808202811582820484141761047457610474611ec2565b600083516124cf8184602088016119e5565b8351908301906124e38183602088016119e5565b01949350505050565b6000826124fb576124fb61247c565b500690565b600082516125128184602087016119e5565b919091019291505056fe4142434445464748494a4b4c4d4e4f505152535455565758595a6162636465666768696a6b6c6d6e6f707172737475767778797a303132333435363738392b2fa2646970667358221220059c7fa44aa6c073171614c38149b30e45cb755c5a9b1d4713f07927a4ac5fec64736f6c63430008130033",
    "linkReferences": {
      "src/schema/Schema.sol": {
        "Schema": [
          {
            "start": 6631,
            "length": 20
          }
        ]
      }
    }
  },
  "methodIdentifiers": {
    "TOTAL_SUPPLY()": "902d55a5",
    "approve(address,uint256)": "095ea7b3",
    "balanceOf(address)": "70a08231",
    "baseURI()": "6c0360eb",
    "currentTokenId()": "009a9b7b",
    "getApproved(uint256)": "081812fc",
    "isApprovedForAll(address,address)": "e985e9c5",
    "mintPrice()": "6817c76c",
    "mintTo(address)": "755edd17",
    "name()": "06fdde03",
    "ownerOf(uint256)": "6352211e",
    "registerState(address)": "3c055398",
    "safeTransferFrom(address,address,uint256)": "42842e0e",
    "safeTransferFrom(address,address,uint256,bytes)": "b88d4fde",
    "setApprovalForAll(address,bool)": "a22cb465",
    "setBaseURI(string)": "55f804b3",
    "setMintPrice(uint256)": "f4a0a528",
    "supportsInterface(bytes4)": "01ffc9a7",
    "symbol()": "95d89b41",
    "tokenURI(uint256)": "c87b56dd",
    "transferFrom(address,address,uint256)": "23b872dd",
    "withdrawPayments(address)": "31b3eb94"
  },
  "id": 36
}