{
  "abi": [
    {
      "inputs": [
        {
          "internalType": "contract State",
          "name": "_state",
          "type": "address"
        }
      ],
      "stateMutability": "nonpayable",
      "type": "constructor"
    },
    {
      "anonymous": false,
      "inputs": [
        {
          "indexed": false,
          "internalType": "bytes24",
          "name": "id",
          "type": "bytes24"
        },
        {
          "indexed": false,
          "internalType": "enum AnnotationKind",
          "name": "kind",
          "type": "uint8"
        },
        {
          "indexed": false,
          "internalType": "string",
          "name": "label",
          "type": "string"
        },
        {
          "indexed": false,
          "internalType": "bytes32",
          "name": "ref",
          "type": "bytes32"
        },
        {
          "indexed": false,
          "internalType": "string",
          "name": "data",
          "type": "string"
        }
      ],
      "name": "AnnotationSet",
      "type": "event"
    },
    {
      "anonymous": false,
      "inputs": [
        {
          "indexed": false,
          "internalType": "bytes24",
          "name": "id",
          "type": "bytes24"
        },
        {
          "indexed": false,
          "internalType": "string",
          "name": "label",
          "type": "string"
        },
        {
          "indexed": false,
          "internalType": "bytes32",
          "name": "data",
          "type": "bytes32"
        }
      ],
      "name": "DataSet",
      "type": "event"
    },
    {
      "anonymous": false,
      "inputs": [
        {
          "indexed": false,
          "internalType": "bytes4",
          "name": "relID",
          "type": "bytes4"
        },
        {
          "indexed": false,
          "internalType": "uint8",
          "name": "relKey",
          "type": "uint8"
        },
        {
          "indexed": false,
          "internalType": "bytes24",
          "name": "srcNodeID",
          "type": "bytes24"
        }
      ],
      "name": "EdgeRemove",
      "type": "event"
    },
    {
      "anonymous": false,
      "inputs": [
        {
          "indexed": false,
          "internalType": "bytes4",
          "name": "relID",
          "type": "bytes4"
        },
        {
          "indexed": false,
          "internalType": "uint8",
          "name": "relKey",
          "type": "uint8"
        },
        {
          "indexed": false,
          "internalType": "bytes24",
          "name": "srcNodeID",
          "type": "bytes24"
        },
        {
          "indexed": false,
          "internalType": "bytes24",
          "name": "dstNodeID",
          "type": "bytes24"
        },
        {
          "indexed": false,
          "internalType": "uint160",
          "name": "weight",
          "type": "uint160"
        }
      ],
      "name": "EdgeSet",
      "type": "event"
    },
    {
      "anonymous": false,
      "inputs": [
        {
          "indexed": false,
          "internalType": "bytes4",
          "name": "id",
          "type": "bytes4"
        },
        {
          "indexed": false,
          "internalType": "string",
          "name": "name",
          "type": "string"
        },
        {
          "indexed": false,
          "internalType": "enum WeightKind",
          "name": "kind",
          "type": "uint8"
        }
      ],
      "name": "EdgeTypeRegister",
      "type": "event"
    },
    {
      "anonymous": false,
      "inputs": [
        {
          "indexed": false,
          "internalType": "bytes4",
          "name": "id",
          "type": "bytes4"
        },
        {
          "indexed": false,
          "internalType": "string",
          "name": "name",
          "type": "string"
        },
        {
          "indexed": false,
          "internalType": "enum CompoundKeyKind",
          "name": "keyKind",
          "type": "uint8"
        }
      ],
      "name": "NodeTypeRegister",
      "type": "event"
    },
    {
      "anonymous": false,
      "inputs": [
        {
          "indexed": false,
          "internalType": "bytes",
          "name": "sig",
          "type": "bytes"
        }
      ],
      "name": "SeenOpSet",
      "type": "event"
    },
    {
      "inputs": [
        {
          "internalType": "bytes24",
          "name": "nodeID",
          "type": "bytes24"
        },
        {
          "internalType": "string",
          "name": "label",
          "type": "string"
        },
        {
          "internalType": "string",
          "name": "annotationData",
          "type": "string"
        }
      ],
      "name": "annotate",
      "outputs": [],
      "stateMutability": "nonpayable",
      "type": "function"
    },
    {
      "inputs": [
        {
          "internalType": "address",
          "name": "",
          "type": "address"
        }
      ],
      "name": "authorizeContract",
      "outputs": [],
      "stateMutability": "view",
      "type": "function"
    },
    {
      "inputs": [
        {
          "internalType": "bytes4",
          "name": "relID",
          "type": "bytes4"
        },
        {
          "internalType": "uint8",
          "name": "relKey",
          "type": "uint8"
        },
        {
          "internalType": "bytes24",
          "name": "srcNodeID",
          "type": "bytes24"
        }
      ],
      "name": "get",
      "outputs": [
        {
          "internalType": "bytes24",
          "name": "dstNodeId",
          "type": "bytes24"
        },
        {
          "internalType": "uint64",
          "name": "weight",
          "type": "uint64"
        }
      ],
      "stateMutability": "view",
      "type": "function"
    },
    {
      "inputs": [
        {
          "internalType": "bytes24",
          "name": "nodeID",
          "type": "bytes24"
        },
        {
          "internalType": "string",
          "name": "annotationLabel",
          "type": "string"
        }
      ],
      "name": "getData",
      "outputs": [
        {
          "internalType": "bytes32",
          "name": "",
          "type": "bytes32"
        }
      ],
      "stateMutability": "view",
      "type": "function"
    },
    {
      "inputs": [],
      "name": "getHead",
      "outputs": [
        {
          "internalType": "uint256",
          "name": "",
          "type": "uint256"
        }
      ],
      "stateMutability": "view",
      "type": "function"
    },
    {
      "inputs": [
        {
          "internalType": "uint256",
          "name": "from",
          "type": "uint256"
        },
        {
          "internalType": "uint256",
          "name": "to",
          "type": "uint256"
        }
      ],
      "name": "getOps",
      "outputs": [
        {
          "components": [
            {
              "internalType": "enum OpKind",
              "name": "kind",
              "type": "uint8"
            },
            {
              "internalType": "bytes4",
              "name": "relID",
              "type": "bytes4"
            },
            {
              "internalType": "uint8",
              "name": "relKey",
              "type": "uint8"
            },
            {
              "internalType": "bytes24",
              "name": "srcNodeID",
              "type": "bytes24"
            },
            {
              "internalType": "bytes24",
              "name": "dstNodeID",
              "type": "bytes24"
            },
            {
              "internalType": "uint160",
              "name": "weight",
              "type": "uint160"
            },
            {
              "internalType": "string",
              "name": "annName",
              "type": "string"
            },
            {
              "internalType": "string",
              "name": "annData",
              "type": "string"
            },
            {
              "internalType": "bytes32",
              "name": "nodeData",
              "type": "bytes32"
            }
          ],
          "internalType": "struct Op[]",
          "name": "res",
          "type": "tuple[]"
        }
      ],
      "stateMutability": "view",
      "type": "function"
    },
    {
      "inputs": [],
      "name": "getOwner",
      "outputs": [
        {
          "internalType": "address",
          "name": "",
          "type": "address"
        }
      ],
      "stateMutability": "view",
      "type": "function"
    },
    {
      "inputs": [
        {
          "internalType": "address",
          "name": "addr",
          "type": "address"
        }
      ],
      "name": "isAllowed",
      "outputs": [
        {
          "internalType": "bool",
          "name": "",
          "type": "bool"
        }
      ],
      "stateMutability": "view",
      "type": "function"
    },
    {
      "inputs": [
        {
          "internalType": "bytes4",
          "name": "",
          "type": "bytes4"
        },
        {
          "internalType": "string",
          "name": "",
          "type": "string"
        },
        {
          "internalType": "enum WeightKind",
          "name": "",
          "type": "uint8"
        }
      ],
      "name": "registerEdgeType",
      "outputs": [],
      "stateMutability": "view",
      "type": "function"
    },
    {
      "inputs": [
        {
          "internalType": "bytes4",
          "name": "",
          "type": "bytes4"
        },
        {
          "internalType": "string",
          "name": "",
          "type": "string"
        },
        {
          "internalType": "enum CompoundKeyKind",
          "name": "",
          "type": "uint8"
        }
      ],
      "name": "registerNodeType",
      "outputs": [],
      "stateMutability": "view",
      "type": "function"
    },
    {
      "inputs": [
        {
          "internalType": "bytes4",
          "name": "relID",
          "type": "bytes4"
        },
        {
          "internalType": "uint8",
          "name": "relKey",
          "type": "uint8"
        },
        {
          "internalType": "bytes24",
          "name": "srcNodeID",
          "type": "bytes24"
        }
      ],
      "name": "remove",
      "outputs": [],
      "stateMutability": "nonpayable",
      "type": "function"
    },
    {
      "inputs": [
        {
          "internalType": "bytes4",
          "name": "relID",
          "type": "bytes4"
        },
        {
          "internalType": "uint8",
          "name": "relKey",
          "type": "uint8"
        },
        {
          "internalType": "bytes24",
          "name": "srcNodeID",
          "type": "bytes24"
        },
        {
          "internalType": "bytes24",
          "name": "dstNodeID",
          "type": "bytes24"
        },
        {
          "internalType": "uint64",
          "name": "weight",
          "type": "uint64"
        }
      ],
      "name": "set",
      "outputs": [],
      "stateMutability": "nonpayable",
      "type": "function"
    },
    {
      "inputs": [
        {
          "internalType": "bytes24",
          "name": "nodeID",
          "type": "bytes24"
        },
        {
          "internalType": "string",
          "name": "label",
          "type": "string"
        },
        {
          "internalType": "bytes32",
          "name": "data",
          "type": "bytes32"
        }
      ],
      "name": "setData",
      "outputs": [],
      "stateMutability": "nonpayable",
      "type": "function"
    }
  ],
  "bytecode": {
    "object": "0x608060405234801561001057600080fd5b50604051611b4d380380611b4d83398101604081905261002f91610054565b600080546001600160a01b0319166001600160a01b0392909216919091179055610084565b60006020828403121561006657600080fd5b81516001600160a01b038116811461007d57600080fd5b9392505050565b611aba806100936000396000f3fe608060405234801561001057600080fd5b50600436106100cf5760003560e01c8063893d20e81161008c578063babcc53911610066578063babcc539146101d7578063dc281aff146101fa578063f460211414610202578063ff271d481461021557600080fd5b8063893d20e8146101845780638c7a9e38146101a45780638eb5e41a146101b757600080fd5b80630bf24542146100d457806324eae3551461011557806327d9e1aa1461013657806367561d931461014b57806372efd7ac1461015e5780637aaee0d014610171575b600080fd5b6100e76100e23660046111b0565b610228565b6040805167ffffffffffffffff1990931683526001600160401b039091166020830152015b60405180910390f35b610128610123366004611299565b6102a9565b60405190815260200161010c565b6101496101443660046112e8565b610326565b005b610149610159366004611357565b610450565b61014961016c36600461137b565b610572565b61014961017f3660046113d5565b610693565b61018c6107ff565b6040516001600160a01b03909116815260200161010c565b6101496101b23660046111b0565b61087c565b6101ca6101c536600461142d565b6109ed565b60405161010c91906114cd565b6101ea6101e5366004611357565b610d15565b604051901515815260200161010c565b600154610128565b6101496102103660046115e5565b610d84565b610149610223366004611652565b610f9f565b600080546040516305f922a160e11b815282916001600160a01b031690630bf245429061025d908890889088906004016116c7565b6040805180830381865afa158015610279573d6000803e3d6000fd5b505050506040513d601f19601f8201168201806040525081019061029d91906116f7565b91509150935093915050565b600080546040516324eae35560e01b81526001600160a01b03909116906324eae355906102dc9086908690600401611731565b602060405180830381865afa1580156102f9573d6000803e3d6000fd5b505050506040513d601f19601f8201168201806040525081019061031d919061175c565b90505b92915050565b60008054906101000a90046001600160a01b03166001600160a01b031663893d20e86040518163ffffffff1660e01b8152600401602060405180830381865afa158015610377573d6000803e3d6000fd5b505050506040513d601f19601f8201168201806040525081019061039b9190611775565b6001600160a01b0316336001600160a01b0316146103d45760405162461bcd60e51b81526004016103cb90611792565b60405180910390fd5b60405162461bcd60e51b815260206004820152604560248201527f53746174654f70735265636f726465723a20726567697374657245646765547960448201527f7065206e6f7420737570706f7274656420666f722053746174654f707352656360648201526437b93232b960d91b608482015260a4016103cb565b60008054906101000a90046001600160a01b03166001600160a01b031663893d20e86040518163ffffffff1660e01b8152600401602060405180830381865afa1580156104a1573d6000803e3d6000fd5b505050506040513d601f19601f820116820180604052508101906104c59190611775565b6001600160a01b0316336001600160a01b0316146104f55760405162461bcd60e51b81526004016103cb90611792565b60405162461bcd60e51b815260206004820152604660248201527f53746174654f70735265636f726465723a20617574686f72697a65436f6e747260448201527f616374206e6f7420737570706f7274656420666f722053746174654f7073526560648201526531b7b93232b960d11b608482015260a4016103cb565b60008054906101000a90046001600160a01b03166001600160a01b031663893d20e86040518163ffffffff1660e01b8152600401602060405180830381865afa1580156105c3573d6000803e3d6000fd5b505050506040513d601f19601f820116820180604052508101906105e79190611775565b6001600160a01b0316336001600160a01b0316146106175760405162461bcd60e51b81526004016103cb90611792565b60405162461bcd60e51b815260206004820152604560248201527f53746174654f70735265636f726465723a2072656769737465724e6f6465547960448201527f7065206e6f7420737570706f7274656420666f722053746174654f707352656360648201526437b93232b960d91b608482015260a4016103cb565b60005460405163babcc53960e01b81523360048201526001600160a01b039091169063babcc53990602401602060405180830381865afa1580156106db573d6000803e3d6000fd5b505050506040513d601f19601f820116820180604052508101906106ff91906117d4565b61071b5760405162461bcd60e51b81526004016103cb906117f6565b6000546040516307aaee0d60e41b81526001600160a01b0390911690637aaee0d09061074f9086908690869060040161183f565b600060405180830381600087803b15801561076957600080fd5b505af115801561077d573d6000803e3d6000fd5b5050600180548082018255600091909152600602600080516020611a6583398151915281018054600365ffffffffff01600160f01b0319909116600160301b60408a901c021717815592507fb10e2d527612073b26eecdfd717e6a320cf44b4afac2b0732d9fcbe2b7fa0cf90190506107f684826118fb565b50600501555050565b60008060009054906101000a90046001600160a01b03166001600160a01b031663893d20e86040518163ffffffff1660e01b8152600401602060405180830381865afa158015610853573d6000803e3d6000fd5b505050506040513d601f19601f820116820180604052508101906108779190611775565b905090565b60005460405163babcc53960e01b81523360048201526001600160a01b039091169063babcc53990602401602060405180830381865afa1580156108c4573d6000803e3d6000fd5b505050506040513d601f19601f820116820180604052508101906108e891906117d4565b6109045760405162461bcd60e51b81526004016103cb906117f6565b60005460405163118f53c760e31b81526001600160a01b0390911690638c7a9e3890610938908690869086906004016116c7565b600060405180830381600087803b15801561095257600080fd5b505af1158015610966573d6000803e3d6000fd5b50506001805480820182556000829052600602600080516020611a6583398151915201805460409590951c600160301b026601000000000000600160f01b031960ff97909716650100000000000265ff00000000001960e09990991c610100029890981665ffffffffffff1990961695909517969096171793909316919091179092555050565b6060818303610a2f576040805160008082526020820190925290610a27565b610a1461111b565b815260200190600190039081610a0c5790505b509050610320565b828211610a765760405162461bcd60e51b8152602060048201526015602482015274544f206d7573742062652061667465722046524f4d60581b60448201526064016103cb565b610a8083836119d0565b6001600160401b03811115610a9757610a976111f7565b604051908082528060200260200182016040528015610ad057816020015b610abd61111b565b815260200190600190039081610ab55790505b50905060005b8151811015610d0e576001610aeb82866119e3565b81548110610afb57610afb6119f6565b600091825260209091206040805161012081019091526006909202018054829060ff166003811115610b2f57610b2f61144f565b6003811115610b4057610b4061144f565b815281546001600160e01b0319610100820460e01b16602083015260ff6501000000000082041660408084019190915267ffffffffffffffff19600160301b909204811b821660608401526001840154901b16608082015260028201546001600160a01b031660a082015260038201805460c090920191610bc090611872565b80601f0160208091040260200160405190810160405280929190818152602001828054610bec90611872565b8015610c395780601f10610c0e57610100808354040283529160200191610c39565b820191906000526020600020905b815481529060010190602001808311610c1c57829003601f168201915b50505050508152602001600482018054610c5290611872565b80601f0160208091040260200160405190810160405280929190818152602001828054610c7e90611872565b8015610ccb5780601f10610ca057610100808354040283529160200191610ccb565b820191906000526020600020905b815481529060010190602001808311610cae57829003601f168201915b50505050508152602001600582015481525050828281518110610cf057610cf06119f6565b60200260200101819052508080610d0690611a0c565b915050610ad6565b5092915050565b6000805460405163babcc53960e01b81526001600160a01b0384811660048301529091169063babcc53990602401602060405180830381865afa158015610d60573d6000803e3d6000fd5b505050506040513d601f19601f8201168201806040525081019061032091906117d4565b60005460405163babcc53960e01b81523360048201526001600160a01b039091169063babcc53990602401602060405180830381865afa158015610dcc573d6000803e3d6000fd5b505050506040513d601f19601f82011682018060405250810190610df091906117d4565b610e0c5760405162461bcd60e51b81526004016103cb906117f6565b600054604051633d18084560e21b81526001600160e01b03198716600482015260ff8616602482015267ffffffffffffffff198086166044830152841660648201526001600160401b03831660848201526001600160a01b039091169063f46021149060a401600060405180830381600087803b158015610e8c57600080fd5b505af1158015610ea0573d6000803e3d6000fd5b5050600180548082018255600091909152600602600080516020611a658339815191528101805465ffffffffffff191661010060e09a909a1c9990990265ff00000000001916989098176501000000000060ff9890981697909702969096176601000000000000600160f01b031916600160301b604096871c0217909655507fb10e2d527612073b26eecdfd717e6a320cf44b4afac2b0732d9fcbe2b7fa0cf7840180546001600160c01b0319169290931c919091179091557fb10e2d527612073b26eecdfd717e6a320cf44b4afac2b0732d9fcbe2b7fa0cf890910180546001600160401b039092166001600160a01b031990921691909117905550565b60005460405163babcc53960e01b81523360048201526001600160a01b039091169063babcc53990602401602060405180830381865afa158015610fe7573d6000803e3d6000fd5b505050506040513d601f19601f8201168201806040525081019061100b91906117d4565b6110275760405162461bcd60e51b81526004016103cb906117f6565b6000546040516001621b1c5760e31b031981526001600160a01b039091169063ff271d489061105e90869086908690600401611a25565b600060405180830381600087803b15801561107857600080fd5b505af115801561108c573d6000803e3d6000fd5b5050600180548082018255600091909152600602600080516020611a6583398151915281018054600265ffffffffff01600160f01b0319909116600160301b60408a901c021717815592507fb10e2d527612073b26eecdfd717e6a320cf44b4afac2b0732d9fcbe2b7fa0cf901905061110584826118fb565b506004810161111483826118fb565b5050505050565b60408051610120810190915280600081526000602082018190526040820181905260608083018290526080830182905260a0830182905260c0830181905260e08301526101009091015290565b80356001600160e01b03198116811461118057600080fd5b919050565b803560ff8116811461118057600080fd5b67ffffffffffffffff19811681146111ad57600080fd5b50565b6000806000606084860312156111c557600080fd5b6111ce84611168565b92506111dc60208501611185565b915060408401356111ec81611196565b809150509250925092565b634e487b7160e01b600052604160045260246000fd5b600082601f83011261121e57600080fd5b81356001600160401b0380821115611238576112386111f7565b604051601f8301601f19908116603f01168101908282118183101715611260576112606111f7565b8160405283815286602085880101111561127957600080fd5b836020870160208301376000602085830101528094505050505092915050565b600080604083850312156112ac57600080fd5b82356112b781611196565b915060208301356001600160401b038111156112d257600080fd5b6112de8582860161120d565b9150509250929050565b6000806000606084860312156112fd57600080fd5b61130684611168565b925060208401356001600160401b0381111561132157600080fd5b61132d8682870161120d565b9250506040840135600481106111ec57600080fd5b6001600160a01b03811681146111ad57600080fd5b60006020828403121561136957600080fd5b813561137481611342565b9392505050565b60008060006060848603121561139057600080fd5b61139984611168565b925060208401356001600160401b038111156113b457600080fd5b6113c08682870161120d565b9250506040840135600d81106111ec57600080fd5b6000806000606084860312156113ea57600080fd5b83356113f581611196565b925060208401356001600160401b0381111561141057600080fd5b61141c8682870161120d565b925050604084013590509250925092565b6000806040838503121561144057600080fd5b50508035926020909101359150565b634e487b7160e01b600052602160045260246000fd5b6004811061148357634e487b7160e01b600052602160045260246000fd5b9052565b6000815180845260005b818110156114ad57602081850181015186830182015201611491565b506000602082860101526020601f19601f83011685010191505092915050565b60006020808301818452808551808352604092508286019150828160051b87010184880160005b838110156115c257603f198984030185528151610120611515858351611465565b888201516001600160e01b031916858a01528782015160ff168886015260608083015167ffffffffffffffff19908116918701919091526080808401519091169086015260a0808301516001600160a01b03169086015260c08083015181870183905261158483880182611487565b9250505060e0808301518683038288015261159f8382611487565b6101009485015197909401969096525050948701949250908601906001016114f4565b509098975050505050505050565b6001600160401b03811681146111ad57600080fd5b600080600080600060a086880312156115fd57600080fd5b61160686611168565b945061161460208701611185565b9350604086013561162481611196565b9250606086013561163481611196565b91506080860135611644816115d0565b809150509295509295909350565b60008060006060848603121561166757600080fd5b833561167281611196565b925060208401356001600160401b038082111561168e57600080fd5b61169a8783880161120d565b935060408601359150808211156116b057600080fd5b506116bd8682870161120d565b9150509250925092565b6001600160e01b031993909316835260ff91909116602083015267ffffffffffffffff1916604082015260600190565b6000806040838503121561170a57600080fd5b825161171581611196565b6020840151909250611726816115d0565b809150509250929050565b6001600160401b0319831681526040602082015260006117546040830184611487565b949350505050565b60006020828403121561176e57600080fd5b5051919050565b60006020828403121561178757600080fd5b815161137481611342565b60208082526022908201527f4261736553746174653a2053656e646572206973206e6f7420746865206f776e60408201526132b960f11b606082015260800190565b6000602082840312156117e657600080fd5b8151801515811461137457600080fd5b60208082526029908201527f4261736553746174653a2053656e646572206973206e6f74206f6e2074686520604082015268185b1b1bdddb1a5cdd60ba1b606082015260800190565b6001600160401b0319841681526060602082015260006118626060830185611487565b9050826040830152949350505050565b600181811c9082168061188657607f821691505b6020821081036118a657634e487b7160e01b600052602260045260246000fd5b50919050565b601f8211156118f657600081815260208120601f850160051c810160208610156118d35750805b601f850160051c820191505b818110156118f2578281556001016118df565b5050505b505050565b81516001600160401b03811115611914576119146111f7565b611928816119228454611872565b846118ac565b602080601f83116001811461195d57600084156119455750858301515b600019600386901b1c1916600185901b1785556118f2565b600085815260208120601f198616915b8281101561198c5788860151825594840194600190910190840161196d565b50858210156119aa5787850151600019600388901b60f8161c191681555b5050505050600190811b01905550565b634e487b7160e01b600052601160045260246000fd5b81810381811115610320576103206119ba565b80820180821115610320576103206119ba565b634e487b7160e01b600052603260045260246000fd5b600060018201611a1e57611a1e6119ba565b5060010190565b6001600160401b031984168152606060208201526000611a486060830185611487565b8281036040840152611a5a8185611487565b969550505050505056feb10e2d527612073b26eecdfd717e6a320cf44b4afac2b0732d9fcbe2b7fa0cf6a26469706673582212208af485e49824495dca42a8ab49521395364c9dbd0929555378235b2a676560c564736f6c63430008130033",
    "linkReferences": {}
  },
  "methodIdentifiers": {
    "annotate(bytes24,string,string)": "ff271d48",
    "authorizeContract(address)": "67561d93",
    "get(bytes4,uint8,bytes24)": "0bf24542",
    "getData(bytes24,string)": "24eae355",
    "getHead()": "dc281aff",
    "getOps(uint256,uint256)": "8eb5e41a",
    "getOwner()": "893d20e8",
    "isAllowed(address)": "babcc539",
    "registerEdgeType(bytes4,string,uint8)": "27d9e1aa",
    "registerNodeType(bytes4,string,uint8)": "72efd7ac",
    "remove(bytes4,uint8,bytes24)": "8c7a9e38",
    "set(bytes4,uint8,bytes24,bytes24,uint64)": "f4602114",
    "setData(bytes24,string,bytes32)": "7aaee0d0"
  },
  "id": 10
}