{
  "abi": [
    {
      "inputs": [
        {
          "internalType": "address",
          "name": "_owner",
          "type": "address"
        }
      ],
      "stateMutability": "nonpayable",
      "type": "constructor"
    },
    {
      "anonymous": false,
      "inputs": [
        {
          "indexed": true,
          "internalType": "address",
          "name": "sender",
          "type": "address"
        },
        {
          "indexed": false,
          "internalType": "bytes32",
          "name": "actionNonce",
          "type": "bytes32"
        }
      ],
      "name": "ActionDispatched",
      "type": "event"
    },
    {
      "anonymous": false,
      "inputs": [
        {
          "indexed": false,
          "internalType": "address",
          "name": "id",
          "type": "address"
        },
        {
          "indexed": false,
          "internalType": "string",
          "name": "name",
          "type": "string"
        }
      ],
      "name": "ActionRegistered",
      "type": "event"
    },
    {
      "inputs": [
        {
          "internalType": "bytes",
          "name": "action",
          "type": "bytes"
        },
        {
          "components": [
            {
              "internalType": "address",
              "name": "sender",
              "type": "address"
            },
            {
              "internalType": "uint32",
              "name": "scopes",
              "type": "uint32"
            },
            {
              "internalType": "uint32",
              "name": "clock",
              "type": "uint32"
            }
          ],
          "internalType": "struct Context",
          "name": "ctx",
          "type": "tuple"
        }
      ],
      "name": "dispatch",
      "outputs": [],
      "stateMutability": "nonpayable",
      "type": "function"
    },
    {
      "inputs": [
        {
          "internalType": "bytes[]",
          "name": "actions",
          "type": "bytes[]"
        },
        {
          "components": [
            {
              "internalType": "address",
              "name": "sender",
              "type": "address"
            },
            {
              "internalType": "uint32",
              "name": "scopes",
              "type": "uint32"
            },
            {
              "internalType": "uint32",
              "name": "clock",
              "type": "uint32"
            }
          ],
          "internalType": "struct Context",
          "name": "ctx",
          "type": "tuple"
        }
      ],
      "name": "dispatch",
      "outputs": [],
      "stateMutability": "nonpayable",
      "type": "function"
    },
    {
      "inputs": [
        {
          "internalType": "bytes",
          "name": "action",
          "type": "bytes"
        }
      ],
      "name": "dispatch",
      "outputs": [],
      "stateMutability": "nonpayable",
      "type": "function"
    },
    {
      "inputs": [
        {
          "internalType": "bytes[]",
          "name": "actions",
          "type": "bytes[]"
        }
      ],
      "name": "dispatch",
      "outputs": [],
      "stateMutability": "nonpayable",
      "type": "function"
    },
    {
      "inputs": [
        {
          "internalType": "bytes[]",
          "name": "actions",
          "type": "bytes[]"
        },
        {
          "components": [
            {
              "internalType": "address",
              "name": "sender",
              "type": "address"
            },
            {
              "internalType": "uint32",
              "name": "scopes",
              "type": "uint32"
            },
            {
              "internalType": "uint32",
              "name": "clock",
              "type": "uint32"
            }
          ],
          "internalType": "struct Context",
          "name": "ctx",
          "type": "tuple"
        }
      ],
      "name": "dispatchWithOpsRecorder",
      "outputs": [
        {
          "components": [
            {
              "internalType": "enum OpKind",
              "name": "kind",
              "type": "uint8"
            },
            {
              "internalType": "bytes4",
              "name": "relID",
              "type": "bytes4"
            },
            {
              "internalType": "uint8",
              "name": "relKey",
              "type": "uint8"
            },
            {
              "internalType": "bytes24",
              "name": "srcNodeID",
              "type": "bytes24"
            },
            {
              "internalType": "bytes24",
              "name": "dstNodeID",
              "type": "bytes24"
            },
            {
              "internalType": "uint160",
              "name": "weight",
              "type": "uint160"
            },
            {
              "internalType": "string",
              "name": "annName",
              "type": "string"
            },
            {
              "internalType": "string",
              "name": "annData",
              "type": "string"
            },
            {
              "internalType": "bytes32",
              "name": "nodeData",
              "type": "bytes32"
            }
          ],
          "internalType": "struct Op[]",
          "name": "",
          "type": "tuple[]"
        }
      ],
      "stateMutability": "nonpayable",
      "type": "function"
    },
    {
      "inputs": [
        {
          "internalType": "bytes",
          "name": "action",
          "type": "bytes"
        }
      ],
      "name": "dispatchWithOpsRecorder",
      "outputs": [
        {
          "components": [
            {
              "internalType": "enum OpKind",
              "name": "kind",
              "type": "uint8"
            },
            {
              "internalType": "bytes4",
              "name": "relID",
              "type": "bytes4"
            },
            {
              "internalType": "uint8",
              "name": "relKey",
              "type": "uint8"
            },
            {
              "internalType": "bytes24",
              "name": "srcNodeID",
              "type": "bytes24"
            },
            {
              "internalType": "bytes24",
              "name": "dstNodeID",
              "type": "bytes24"
            },
            {
              "internalType": "uint160",
              "name": "weight",
              "type": "uint160"
            },
            {
              "internalType": "string",
              "name": "annName",
              "type": "string"
            },
            {
              "internalType": "string",
              "name": "annData",
              "type": "string"
            },
            {
              "internalType": "bytes32",
              "name": "nodeData",
              "type": "bytes32"
            }
          ],
          "internalType": "struct Op[]",
          "name": "",
          "type": "tuple[]"
        }
      ],
      "stateMutability": "nonpayable",
      "type": "function"
    },
    {
      "inputs": [
        {
          "internalType": "bytes[]",
          "name": "actions",
          "type": "bytes[]"
        }
      ],
      "name": "dispatchWithOpsRecorder",
      "outputs": [
        {
          "components": [
            {
              "internalType": "enum OpKind",
              "name": "kind",
              "type": "uint8"
            },
            {
              "internalType": "bytes4",
              "name": "relID",
              "type": "bytes4"
            },
            {
              "internalType": "uint8",
              "name": "relKey",
              "type": "uint8"
            },
            {
              "internalType": "bytes24",
              "name": "srcNodeID",
              "type": "bytes24"
            },
            {
              "internalType": "bytes24",
              "name": "dstNodeID",
              "type": "bytes24"
            },
            {
              "internalType": "uint160",
              "name": "weight",
              "type": "uint160"
            },
            {
              "internalType": "string",
              "name": "annName",
              "type": "string"
            },
            {
              "internalType": "string",
              "name": "annData",
              "type": "string"
            },
            {
              "internalType": "bytes32",
              "name": "nodeData",
              "type": "bytes32"
            }
          ],
          "internalType": "struct Op[]",
          "name": "",
          "type": "tuple[]"
        }
      ],
      "stateMutability": "nonpayable",
      "type": "function"
    },
    {
      "inputs": [
        {
          "internalType": "bytes",
          "name": "action",
          "type": "bytes"
        },
        {
          "components": [
            {
              "internalType": "address",
              "name": "sender",
              "type": "address"
            },
            {
              "internalType": "uint32",
              "name": "scopes",
              "type": "uint32"
            },
            {
              "internalType": "uint32",
              "name": "clock",
              "type": "uint32"
            }
          ],
          "internalType": "struct Context",
          "name": "ctx",
          "type": "tuple"
        }
      ],
      "name": "dispatchWithOpsRecorder",
      "outputs": [
        {
          "components": [
            {
              "internalType": "enum OpKind",
              "name": "kind",
              "type": "uint8"
            },
            {
              "internalType": "bytes4",
              "name": "relID",
              "type": "bytes4"
            },
            {
              "internalType": "uint8",
              "name": "relKey",
              "type": "uint8"
            },
            {
              "internalType": "bytes24",
              "name": "srcNodeID",
              "type": "bytes24"
            },
            {
              "internalType": "bytes24",
              "name": "dstNodeID",
              "type": "bytes24"
            },
            {
              "internalType": "uint160",
              "name": "weight",
              "type": "uint160"
            },
            {
              "internalType": "string",
              "name": "annName",
              "type": "string"
            },
            {
              "internalType": "string",
              "name": "annData",
              "type": "string"
            },
            {
              "internalType": "bytes32",
              "name": "nodeData",
              "type": "bytes32"
            }
          ],
          "internalType": "struct Op[]",
          "name": "",
          "type": "tuple[]"
        }
      ],
      "stateMutability": "nonpayable",
      "type": "function"
    },
    {
      "inputs": [],
      "name": "owner",
      "outputs": [
        {
          "internalType": "address",
          "name": "",
          "type": "address"
        }
      ],
      "stateMutability": "view",
      "type": "function"
    },
    {
      "inputs": [
        {
          "internalType": "contract Router",
          "name": "r",
          "type": "address"
        }
      ],
      "name": "registerRouter",
      "outputs": [],
      "stateMutability": "nonpayable",
      "type": "function"
    },
    {
      "inputs": [
        {
          "internalType": "contract Rule",
          "name": "rule",
          "type": "address"
        }
      ],
      "name": "registerRule",
      "outputs": [
        {
          "internalType": "contract Rule",
          "name": "",
          "type": "address"
        }
      ],
      "stateMutability": "nonpayable",
      "type": "function"
    },
    {
      "inputs": [
        {
          "internalType": "contract State",
          "name": "s",
          "type": "address"
        }
      ],
      "name": "registerState",
      "outputs": [],
      "stateMutability": "nonpayable",
      "type": "function"
    }
  ],
  "bytecode": {
    "object": "0x608060405234801561001057600080fd5b506040516115c33803806115c383398101604081905261002f916100f5565b600080546001600160a01b0319166001600160a01b03831617905561005330610059565b50610125565b6000546001600160a01b031633146100c75760405162461bcd60e51b815260206004820152602760248201527f42617365446973706174636865723a2053656e646572206973206e6f74207468604482015266329037bbb732b960c91b606482015260840160405180910390fd5b6100f2816001600160a01b03166000908152600160208190526040909120805460ff19169091179055565b50565b60006020828403121561010757600080fd5b81516001600160a01b038116811461011e57600080fd5b9392505050565b61148f806101346000396000f3fe608060405234801561001057600080fd5b50600436106100b45760003560e01c80637ae1eddc116100715780637ae1eddc1461015b5780637bec951c1461016e5780638da5cb5b146101815780639340293914610194578063ab7fff18146101a7578063ff70b936146101ba57600080fd5b806314e57cb4146100b957806322b19af7146100e25780633a8f985b146100f75780633c0553981461010a57806344f4c1661461011d5780635853e78114610148575b600080fd5b6100cc6100c7366004610c9f565b6101cd565b6040516100d99190610d66565b60405180910390f35b6100f56100f0366004610e7e565b610387565b005b6100f5610105366004610ee4565b6103e8565b6100f5610118366004610e7e565b610559565b61013061012b366004610e7e565b61058c565b6040516001600160a01b0390911681526020016100d9565b6100cc610156366004610f1c565b61060b565b6100cc610169366004610f5e565b6106a1565b6100cc61017c366004610ee4565b610854565b600054610130906001600160a01b031681565b6100f56101a2366004610c9f565b610a88565b6100f56101b5366004610f1c565b610ad8565b6100f56101c8366004610f5e565b610b55565b60606000600560009054906101000a90046001600160a01b03166001600160a01b031663dc281aff6040518163ffffffff1660e01b8152600401602060405180830381865afa158015610224573d6000803e3d6000fd5b505050506040513d601f19601f820116820180604052508101906102489190610f94565b905060005b848110156102955761028286868381811061026a5761026a610fad565b905060200281019061027c9190610fc3565b86610854565b508061028d8161100a565b91505061024d565b506005546040805163dc281aff60e01b815290516000926001600160a01b03169163dc281aff9160048083019260209291908290030181865afa1580156102e0573d6000803e3d6000fd5b505050506040513d601f19601f820116820180604052508101906103049190610f94565b60055460405163475af20d60e11b815260048101859052602481018390529192506001600160a01b031690638eb5e41a90604401600060405180830381865afa158015610355573d6000803e3d6000fd5b505050506040513d6000823e601f3d908101601f1916820160405261037d9190810190611162565b9695505050505050565b6000546001600160a01b031633146103ba5760405162461bcd60e51b81526004016103b1906112ef565b60405180910390fd5b6103e5816001600160a01b03166000908152600160208190526040909120805460ff19169091179055565b50565b3360009081526001602052604090205460ff166104415760405162461bcd60e51b81526020600482015260176024820152762234b9b830ba31b42ab73a393ab9ba32b229b2b73232b960491b60448201526064016103b1565b60005b6003548110156104fa576003818154811061046157610461610fad565b600091825260209091200154600480546040516331251f6f60e11b81526001600160a01b039384169363624a3ede936104a49390911691899189918991016113bb565b6020604051808303816000875af11580156104c3573d6000803e3d6000fd5b505050506040513d601f19601f820116820180604052508101906104e791906113ef565b50806104f28161100a565b915050610444565b506105086020820182610e7e565b6001600160a01b03167fec2a69e69fdc41310325ceaf306963d8578d060932acd8f2e2c92b4eb5948cad60405161054c90661e3737b731b29f60c91b815260200190565b60405180910390a2505050565b6000546001600160a01b031633146105835760405162461bcd60e51b81526004016103b1906112ef565b6103e581610b9e565b600080546001600160a01b031633146105b75760405162461bcd60e51b81526004016103b1906112ef565b600380546001810182556000919091527fc2575a0e9e593c00f959f8c92f12db2869c3395a3b0502d05e2516446f71f85b0180546001600160a01b0319166001600160a01b0384161790558190505b919050565b604080516060818101835233825261ffff60208301524363ffffffff16828401529151631efb254760e21b81523090637bec951c906106529087908790869060040161140c565b6000604051808303816000875af1158015610671573d6000803e3d6000fd5b505050506040513d6000823e601f3d908101601f191682016040526106999190810190611162565b949350505050565b60606000600560009054906101000a90046001600160a01b03166001600160a01b031663dc281aff6040518163ffffffff1660e01b8152600401602060405180830381865afa1580156106f8573d6000803e3d6000fd5b505050506040513d601f19601f8201168201806040525081019061071c9190610f94565b905060005b838110156107635761075085858381811061073e5761073e610fad565b90506020028101906101569190610fc3565b508061075b8161100a565b915050610721565b506005546040805163dc281aff60e01b815290516000926001600160a01b03169163dc281aff9160048083019260209291908290030181865afa1580156107ae573d6000803e3d6000fd5b505050506040513d601f19601f820116820180604052508101906107d29190610f94565b60055460405163475af20d60e11b815260048101859052602481018390529192506001600160a01b031690638eb5e41a90604401600060405180830381865afa158015610823573d6000803e3d6000fd5b505050506040513d6000823e601f3d908101601f1916820160405261084b9190810190611162565b95945050505050565b60606000600560009054906101000a90046001600160a01b03166001600160a01b031663dc281aff6040518163ffffffff1660e01b8152600401602060405180830381865afa1580156108ab573d6000803e3d6000fd5b505050506040513d601f19601f820116820180604052508101906108cf9190610f94565b3360009081526001602052604090205490915060ff1661092b5760405162461bcd60e51b81526020600482015260176024820152762234b9b830ba31b42ab73a393ab9ba32b229b2b73232b960491b60448201526064016103b1565b60005b6003548110156109e4576003818154811061094b5761094b610fad565b6000918252602090912001546005546040516331251f6f60e11b81526001600160a01b039283169263624a3ede9261098e929116908a908a908a906004016113bb565b6020604051808303816000875af11580156109ad573d6000803e3d6000fd5b505050506040513d601f19601f820116820180604052508101906109d191906113ef565b50806109dc8161100a565b91505061092e565b506109f26020840184610e7e565b6001600160a01b03167fec2a69e69fdc41310325ceaf306963d8578d060932acd8f2e2c92b4eb5948cad604051610a3690661e3737b731b29f60c91b815260200190565b60405180910390a26005546040805163dc281aff60e01b815290516000926001600160a01b03169163dc281aff9160048083019260209291908290030181865afa1580156102e0573d6000803e3d6000fd5b60005b82811015610ad257610ac0848483818110610aa857610aa8610fad565b9050602002810190610aba9190610fc3565b846103e8565b80610aca8161100a565b915050610a8b565b50505050565b6040805160608101825233815261ffff60208201524363ffffffff16818301529051633a8f985b60e01b81523090633a8f985b90610b1e9086908690869060040161140c565b600060405180830381600087803b158015610b3857600080fd5b505af1158015610b4c573d6000803e3d6000fd5b50505050505050565b60005b81811015610b9957610b87838383818110610b7557610b75610fad565b90506020028101906101b59190610fc3565b80610b918161100a565b915050610b58565b505050565b600480546001600160a01b0319166001600160a01b038316908117825560408051630c80d51160e01b815290519192630c80d5119282820192602092908290030181865afa158015610bf4573d6000803e3d6000fd5b505050506040513d601f19601f82011682018060405250810190610c1891906113ef565b600580546001600160a01b0319166001600160a01b039290921691909117905550565b60008083601f840112610c4d57600080fd5b50813567ffffffffffffffff811115610c6557600080fd5b6020830191508360208260051b8501011115610c8057600080fd5b9250929050565b600060608284031215610c9957600080fd5b50919050565b600080600060808486031215610cb457600080fd5b833567ffffffffffffffff811115610ccb57600080fd5b610cd786828701610c3b565b9094509250610ceb90508560208601610c87565b90509250925092565b60048110610d1257634e487b7160e01b600052602160045260246000fd5b9052565b60005b83811015610d31578181015183820152602001610d19565b50506000910152565b60008151808452610d52816020860160208601610d16565b601f01601f19169290920160200192915050565b60006020808301818452808551808352604092508286019150828160051b87010184880160005b83811015610e5b57603f198984030185528151610120610dae858351610cf4565b888201516001600160e01b031916858a01528782015160ff168886015260608083015167ffffffffffffffff19908116918701919091526080808401519091169086015260a0808301516001600160a01b03169086015260c080830151818701839052610e1d83880182610d3a565b9250505060e08083015186830382880152610e388382610d3a565b610100948501519790940196909652505094870194925090860190600101610d8d565b509098975050505050505050565b6001600160a01b03811681146103e557600080fd5b600060208284031215610e9057600080fd5b8135610e9b81610e69565b9392505050565b60008083601f840112610eb457600080fd5b50813567ffffffffffffffff811115610ecc57600080fd5b602083019150836020828501011115610c8057600080fd5b600080600060808486031215610ef957600080fd5b833567ffffffffffffffff811115610f1057600080fd5b610cd786828701610ea2565b60008060208385031215610f2f57600080fd5b823567ffffffffffffffff811115610f4657600080fd5b610f5285828601610ea2565b90969095509350505050565b60008060208385031215610f7157600080fd5b823567ffffffffffffffff811115610f8857600080fd5b610f5285828601610c3b565b600060208284031215610fa657600080fd5b5051919050565b634e487b7160e01b600052603260045260246000fd5b6000808335601e19843603018112610fda57600080fd5b83018035915067ffffffffffffffff821115610ff557600080fd5b602001915036819003821315610c8057600080fd5b60006001820161102a57634e487b7160e01b600052601160045260246000fd5b5060010190565b634e487b7160e01b600052604160045260246000fd5b604051610120810167ffffffffffffffff8111828210171561106b5761106b611031565b60405290565b604051601f8201601f1916810167ffffffffffffffff8111828210171561109a5761109a611031565b604052919050565b80516004811061060657600080fd5b80516001600160e01b03198116811461060657600080fd5b805160ff8116811461060657600080fd5b805167ffffffffffffffff198116811461060657600080fd5b805161060681610e69565b600082601f83011261110f57600080fd5b815167ffffffffffffffff81111561112957611129611031565b61113c601f8201601f1916602001611071565b81815284602083860101111561115157600080fd5b610699826020830160208701610d16565b6000602080838503121561117557600080fd5b825167ffffffffffffffff8082111561118d57600080fd5b818501915085601f8301126111a157600080fd5b8151818111156111b3576111b3611031565b8060051b6111c2858201611071565b91825283810185019185810190898411156111dc57600080fd5b86860192505b838310156112e2578251858111156111f957600080fd5b8601610120818c03601f190181131561121157600080fd5b611219611047565b6112248a84016110a2565b8152611232604084016110b1565b8a820152611242606084016110c9565b6040820152611253608084016110da565b606082015261126460a084016110da565b608082015261127560c084016110f3565b60a082015260e08301518881111561128d5760008081fd5b61129b8e8c838701016110fe565b60c08301525061010080840151898111156112b65760008081fd5b6112c48f8d838801016110fe565b60e084015250919092015190820152825291860191908601906111e2565b9998505050505050505050565b60208082526027908201527f42617365446973706174636865723a2053656e646572206973206e6f74207468604082015266329037bbb732b960c91b606082015260800190565b81835281816020850137506000828201602090810191909152601f909101601f19169091010190565b803563ffffffff8116811461060657600080fd5b803561137e81610e69565b6001600160a01b031682526113956020820161135f565b63ffffffff8082166020850152806113af6040850161135f565b16604085015250505050565b6001600160a01b038516815260a0602082018190526000906113e09083018587611336565b905061084b6040830184611373565b60006020828403121561140157600080fd5b8151610e9b81610e69565b608081526000611420608083018587611336565b905060018060a01b038351166020830152602083015163ffffffff8082166040850152806040860151166060850152505094935050505056fea2646970667358221220e018b9052cf30a30da6a60a74c6d72876d0ec17722f4f8e8a71fdb527977588a64736f6c63430008130033",
    "linkReferences": {}
  },
  "methodIdentifiers": {
    "dispatch(bytes)": "ab7fff18",
    "dispatch(bytes,(address,uint32,uint32))": "3a8f985b",
    "dispatch(bytes[])": "ff70b936",
    "dispatch(bytes[],(address,uint32,uint32))": "93402939",
    "dispatchWithOpsRecorder(bytes)": "5853e781",
    "dispatchWithOpsRecorder(bytes,(address,uint32,uint32))": "7bec951c",
    "dispatchWithOpsRecorder(bytes[])": "7ae1eddc",
    "dispatchWithOpsRecorder(bytes[],(address,uint32,uint32))": "14e57cb4",
    "owner()": "8da5cb5b",
    "registerRouter(address)": "22b19af7",
    "registerRule(address)": "44f4c166",
    "registerState(address)": "3c055398"
  },
  "id": 1
}