{
  "abi": [
    {
      "inputs": [
        {
          "internalType": "contract Game",
          "name": "ds",
          "type": "address"
        },
        {
          "internalType": "bytes24",
          "name": "buildingInstanceID",
          "type": "bytes24"
        },
        {
          "internalType": "bytes24",
          "name": "mobileUnitID",
          "type": "bytes24"
        },
        {
          "internalType": "bytes",
          "name": "payload",
          "type": "bytes"
        }
      ],
      "name": "construct",
      "outputs": [],
      "stateMutability": "nonpayable",
      "type": "function"
    },
    {
      "inputs": [
        {
          "internalType": "contract Game",
          "name": "ds",
          "type": "address"
        },
        {
          "internalType": "bytes24",
          "name": "buildingInstanceID",
          "type": "bytes24"
        },
        {
          "internalType": "bytes24",
          "name": "mobileUnitID",
          "type": "bytes24"
        }
      ],
      "name": "onUnitArrive",
      "outputs": [],
      "stateMutability": "nonpayable",
      "type": "function"
    },
    {
      "inputs": [
        {
          "internalType": "contract Game",
          "name": "ds",
          "type": "address"
        },
        {
          "internalType": "bytes24",
          "name": "buildingInstanceID",
          "type": "bytes24"
        },
        {
          "internalType": "bytes24",
          "name": "mobileUnitID",
          "type": "bytes24"
        }
      ],
      "name": "onUnitLeave",
      "outputs": [],
      "stateMutability": "nonpayable",
      "type": "function"
    },
    {
      "inputs": [
        {
          "internalType": "uint256",
          "name": "endBlock",
          "type": "uint256"
        }
      ],
      "name": "startTimer",
      "outputs": [],
      "stateMutability": "nonpayable",
      "type": "function"
    },
    {
      "inputs": [
        {
          "internalType": "contract Game",
          "name": "ds",
          "type": "address"
        },
        {
          "internalType": "bytes24",
          "name": "buildingInstance",
          "type": "bytes24"
        },
        {
          "internalType": "bytes24",
          "name": "",
          "type": "bytes24"
        },
        {
          "internalType": "bytes",
          "name": "payload",
          "type": "bytes"
        }
      ],
      "name": "use",
      "outputs": [],
      "stateMutability": "nonpayable",
      "type": "function"
    }
  ],
  "bytecode": {
    "object": "0x608060405234801561001057600080fd5b50610692806100206000396000f3fe608060405234801561001057600080fd5b50600436106100575760003560e01c806324fd46e81461005c57806367cace07146100715780636cf331fa1461008457806391d83c571461005c578063f03ad92f14610095575b600080fd5b61006f61006a366004610393565b505050565b005b61006f61007f3660046103d8565b6100a9565b61006f61009236600461047c565b50565b61006f6100a33660046104ab565b50505050565b63367998fd60e11b6100bb8284610590565b6001600160e01b031916036100f55760006100d982600481866105c0565b8101906100e6919061047c565b90506100f38686836100fc565b505b5050505050565b826001600160a01b031663ebb3d5896040518163ffffffff1660e01b81526004016020604051808303816000875af115801561013c573d6000803e3d6000fd5b505050506040513d601f19601f8201168201806040525081019061016091906105ea565b60405167ffffffffffffffff198416602482015260606044820152600a6084820152697374617274426c6f636b60b01b60a48201524360648201526001600160a01b03919091169063ab7fff189060c40160408051601f198184030181529181526020820180516001600160e01b031663370abb6b60e01b179052516001600160e01b031960e084901b1681526101fa919060040161060e565b600060405180830381600087803b15801561021457600080fd5b505af1158015610228573d6000803e3d6000fd5b50505050826001600160a01b031663ebb3d5896040518163ffffffff1660e01b81526004016020604051808303816000875af115801561026c573d6000803e3d6000fd5b505050506040513d601f19601f8201168201806040525081019061029091906105ea565b60405167ffffffffffffffff1984166024820152606060448201526008608482015267656e64426c6f636b60c01b60a4820152606481018390526001600160a01b03919091169063ab7fff189060c40160408051601f198184030181529181526020820180516001600160e01b031663370abb6b60e01b179052516001600160e01b031960e084901b168152610329919060040161060e565b600060405180830381600087803b15801561034357600080fd5b505af1158015610357573d6000803e3d6000fd5b50505050505050565b6001600160a01b038116811461009257600080fd5b803567ffffffffffffffff198116811461038e57600080fd5b919050565b6000806000606084860312156103a857600080fd5b83356103b381610360565b92506103c160208501610375565b91506103cf60408501610375565b90509250925092565b6000806000806000608086880312156103f057600080fd5b85356103fb81610360565b945061040960208701610375565b935061041760408701610375565b9250606086013567ffffffffffffffff8082111561043457600080fd5b818801915088601f83011261044857600080fd5b81358181111561045757600080fd5b89602082850101111561046957600080fd5b9699959850939650602001949392505050565b60006020828403121561048e57600080fd5b5035919050565b634e487b7160e01b600052604160045260246000fd5b600080600080608085870312156104c157600080fd5b84356104cc81610360565b93506104da60208601610375565b92506104e860408601610375565b9150606085013567ffffffffffffffff8082111561050557600080fd5b818701915087601f83011261051957600080fd5b81358181111561052b5761052b610495565b604051601f8201601f19908116603f0116810190838211818310171561055357610553610495565b816040528281528a602084870101111561056c57600080fd5b82602086016020830137600060208483010152809550505050505092959194509250565b6001600160e01b031981358181169160048510156105b85780818660040360031b1b83161692505b505092915050565b600080858511156105d057600080fd5b838611156105dd57600080fd5b5050820193919092039150565b6000602082840312156105fc57600080fd5b815161060781610360565b9392505050565b600060208083528351808285015260005b8181101561063b5785810183015185820160400152820161061f565b506000604082860101526040601f19601f830116850101925050509291505056fea2646970667358221220ea005e85794d8c0001078f86c88848f7a7b2df63ee71305c128424bbd994f34064736f6c63430008130033",
    "linkReferences": {}
  },
  "methodIdentifiers": {
    "construct(address,bytes24,bytes24,bytes)": "f03ad92f",
    "onUnitArrive(address,bytes24,bytes24)": "91d83c57",
    "onUnitLeave(address,bytes24,bytes24)": "24fd46e8",
    "startTimer(uint256)": "6cf331fa",
    "use(address,bytes24,bytes24,bytes)": "67cace07"
  },
  "id": 160
}