{
  "abi": [
    {
      "inputs": [],
      "name": "disableCheats",
      "outputs": [],
      "stateMutability": "nonpayable",
      "type": "function"
    },
    {
      "inputs": [
        {
          "internalType": "contract Game",
          "name": "game",
          "type": "address"
        }
      ],
      "name": "setGame",
      "outputs": [],
      "stateMutability": "nonpayable",
      "type": "function"
    },
    {
      "inputs": [
        {
          "internalType": "address",
          "name": "owner",
          "type": "address"
        },
        {
          "internalType": "bytes24",
          "name": "equipNode",
          "type": "bytes24"
        },
        {
          "internalType": "uint8",
          "name": "equipSlot",
          "type": "uint8"
        },
        {
          "internalType": "bytes24[]",
          "name": "resources",
          "type": "bytes24[]"
        },
        {
          "internalType": "uint64[]",
          "name": "qty",
          "type": "uint64[]"
        }
      ],
      "name": "spawnBag",
      "outputs": [
        {
          "internalType": "bytes24",
          "name": "",
          "type": "bytes24"
        }
      ],
      "stateMutability": "nonpayable",
      "type": "function"
    },
    {
      "inputs": [
        {
          "internalType": "address",
          "name": "owner",
          "type": "address"
        },
        {
          "internalType": "bytes24",
          "name": "equipNode",
          "type": "bytes24"
        },
        {
          "internalType": "uint8",
          "name": "equipSlot",
          "type": "uint8"
        }
      ],
      "name": "spawnFullBag",
      "outputs": [
        {
          "internalType": "bytes24",
          "name": "",
          "type": "bytes24"
        }
      ],
      "stateMutability": "nonpayable",
      "type": "function"
    },
    {
      "inputs": [
        {
          "internalType": "int16",
          "name": "z",
          "type": "int16"
        },
        {
          "internalType": "int16",
          "name": "q",
          "type": "int16"
        },
        {
          "internalType": "int16",
          "name": "r",
          "type": "int16"
        },
        {
          "internalType": "int16",
          "name": "s",
          "type": "int16"
        }
      ],
      "name": "spawnTile",
      "outputs": [],
      "stateMutability": "nonpayable",
      "type": "function"
    }
  ],
  "bytecode": {
    "object": "0x608060405234801561001057600080fd5b50610e8b806100206000396000f3fe608060405234801561001057600080fd5b50600436106100575760003560e01c80630cbc156e1461005c578063347cd13d1461008d578063819912a214610097578063b55f74e7146100c7578063d155e1fa146100da575b600080fd5b61006f61006a366004610b08565b6100ed565b60405167ffffffffffffffff19909116815260200160405180910390f35b610095610277565b005b6100956100a5366004610bfd565b600080546001600160a01b0319166001600160a01b0392909216919091179055565b61006f6100d5366004610c1a565b610375565b6100956100e8366004610c71565b610514565b6000805460408051631865c57d60e01b8152905183926001600160a01b031691631865c57d916004808301926020929190829003018187875af1158015610138573d6000803e3d6000fd5b505050506040513d601f19601f8201168201806040525081019061015c9190610cc5565b905060006101ac6000601481819054906101000a90046001600160401b031661018490610cf8565b91906101000a8154816001600160401b0302191690836001600160401b031602179055610647565b905060005b85518160ff161015610229576102178282888460ff16815181106101d7576101d7610d1e565b6020026020010151888560ff16815181106101f4576101f4610d1e565b6020026020010151876001600160a01b031661066090949392919063ffffffff16565b8061022181610d34565b9150506101b1565b5061023f6001600160a01b0383168888846106d4565b6001600160a01b0388161561026c5761026c8161025b8a610710565b6001600160a01b0385169190610723565b979650505050505050565b60008054906101000a90046001600160a01b03166001600160a01b031663ebb3d5896040518163ffffffff1660e01b81526004016020604051808303816000875af11580156102ca573d6000803e3d6000fd5b505050506040513d601f19601f820116820180604052508101906102ee9190610cc5565b6040805160048082526024820183526020820180516001600160e01b03166338423b9160e11b179052915163156fffe360e31b81526001600160a01b03939093169263ab7fff1892610341929101610d77565b600060405180830381600087803b15801561035b57600080fd5b505af115801561036f573d6000803e3d6000fd5b50505050565b60408051600380825260808201909252600091829190602082016060803683370190505090506103a3610796565b816000815181106103b6576103b6610d1e565b67ffffffffffffffff19909216602092830291909101909101526103d86107e6565b816001815181106103eb576103eb610d1e565b67ffffffffffffffff199092166020928302919091019091015261040d61082d565b8160028151811061042057610420610d1e565b67ffffffffffffffff199290921660209283029190910182015260408051600380825260808201909252600092909190820160608036833701905050905060648160008151811061047357610473610d1e565b60200260200101906001600160401b031690816001600160401b0316815250506064816001815181106104a8576104a8610d1e565b60200260200101906001600160401b031690816001600160401b0316815250506064816002815181106104dd576104dd610d1e565b60200260200101906001600160401b031690816001600160401b03168152505061050a86868685856100ed565b9695505050505050565b60008054906101000a90046001600160a01b03166001600160a01b031663ebb3d5896040518163ffffffff1660e01b81526004016020604051808303816000875af1158015610567573d6000803e3d6000fd5b505050506040513d601f19601f8201168201806040525081019061058b9190610cc5565b604051600186810b602483015285810b604483015284810b606483015283900b60848201526001600160a01b03919091169063ab7fff189060a40160408051601f198184030181529181526020820180516001600160e01b031663067cde7560e41b179052516001600160e01b031960e084901b16815261060f9190600401610d77565b600060405180830381600087803b15801561062957600080fd5b505af115801561063d573d6000803e3d6000fd5b5050505050505050565b600061065a63b1c93f0960e01b83610876565b92915050565b604051633d18084560e21b81526001600160a01b0386169063f46021149061069b90630ef6788760e01b908790899088908890600401610daa565b600060405180830381600087803b1580156106b557600080fd5b505af11580156106c9573d6000803e3d6000fd5b505050505050505050565b604051633d18084560e21b81526001600160a01b0385169063f46021149061060f90633d604d0560e21b90869088908790600190600401610daa565b600061065a63045820b360e01b836108ca565b604051633d18084560e21b81526001600160a01b0384169063f46021149061075f90635a54cd2760e11b90600090879087908390600401610daa565b600060405180830381600087803b15801561077957600080fd5b505af115801561078d573d6000803e3d6000fd5b50505050505050565b6040805180820182526009815268477265656e20476f6f60b81b60208083019190915282516060810184526001808252600092820183905293810182905290926107e1929190610901565b905090565b6040805180820182526008815267426c756520476f6f60c01b6020808301919091528251606081018452600080825260019282018390529381018490526107e19291610901565b604080518082018252600781526652656420476f6f60c81b60208083019190915282516060810184526000808252918101829052600193810184905290926107e1929190610901565b6040516001600160e01b0319831660208201526000602482018190526001600160c01b031960c084901b166030830152906038015b6040516020818303038152906040526108c390610df0565b9392505050565b6040516001600160e01b0319831660208201526bffffffffffffffffffffffff19606083901b1660248201526000906038016108ab565b600080846040516020016109159190610e28565b6040516020818303038152906040528051906020012060001c905061093b818585610944565b95945050505050565b60008082610953576000610956565b60015b845160208087015160408089015181516306a7a67f60e41b948101949094526001600160e01b031960e08c811b8216602487015287811b60ff60e01b16602887015295861b8116602c86015292851b8316603085015290931b16603482015281516018818303018152603890910190915260ff909116915061093b90610df0565b6001600160a01b03811681146109ec57600080fd5b50565b803567ffffffffffffffff1981168114610a0857600080fd5b919050565b803560ff81168114610a0857600080fd5b634e487b7160e01b600052604160045260246000fd5b604051601f8201601f191681016001600160401b0381118282101715610a5c57610a5c610a1e565b604052919050565b60006001600160401b03821115610a7d57610a7d610a1e565b5060051b60200190565b600082601f830112610a9857600080fd5b81356020610aad610aa883610a64565b610a34565b82815260059290921b84018101918181019086841115610acc57600080fd5b8286015b84811015610afd5780356001600160401b0381168114610af05760008081fd5b8352918301918301610ad0565b509695505050505050565b600080600080600060a08688031215610b2057600080fd5b8535610b2b816109d7565b94506020610b3a8782016109ef565b9450610b4860408801610a0d565b935060608701356001600160401b0380821115610b6457600080fd5b818901915089601f830112610b7857600080fd5b8135610b86610aa882610a64565b81815260059190911b8301840190848101908c831115610ba557600080fd5b938501935b82851015610bca57610bbb856109ef565b82529385019390850190610baa565b965050506080890135925080831115610be257600080fd5b5050610bf088828901610a87565b9150509295509295909350565b600060208284031215610c0f57600080fd5b81356108c3816109d7565b600080600060608486031215610c2f57600080fd5b8335610c3a816109d7565b9250610c48602085016109ef565b9150610c5660408501610a0d565b90509250925092565b8035600181900b8114610a0857600080fd5b60008060008060808587031215610c8757600080fd5b610c9085610c5f565b9350610c9e60208601610c5f565b9250610cac60408601610c5f565b9150610cba60608601610c5f565b905092959194509250565b600060208284031215610cd757600080fd5b81516108c3816109d7565b634e487b7160e01b600052601160045260246000fd5b60006001600160401b03808316818103610d1457610d14610ce2565b6001019392505050565b634e487b7160e01b600052603260045260246000fd5b600060ff821660ff8103610d4a57610d4a610ce2565b60010192915050565b60005b83811015610d6e578181015183820152602001610d56565b50506000910152565b6020815260008251806020840152610d96816040850160208701610d53565b601f01601f19169190910160400192915050565b6001600160e01b031995909516855260ff93909316602085015267ffffffffffffffff1991821660408501521660608301526001600160401b0316608082015260a00190565b8051602082015167ffffffffffffffff198082169291906018831015610e205780818460180360031b1b83161693505b505050919050565b646974656d2f60d81b815260008251610e48816005850160208701610d53565b919091016005019291505056fea2646970667358221220c67db0d93d96fe96d3002b974a0ca3cab4cdb9d612a031d232c914d53335ebed64736f6c63430008130033",
    "linkReferences": {}
  },
  "methodIdentifiers": {
    "disableCheats()": "347cd13d",
    "setGame(address)": "819912a2",
    "spawnBag(address,bytes24,uint8,bytes24[],uint64[])": "0cbc156e",
    "spawnFullBag(address,bytes24,uint8)": "b55f74e7",
    "spawnTile(int16,int16,int16,int16)": "d155e1fa"
  },
  "id": 184
}