{
  "abi": [
    {
      "inputs": [
        {
          "internalType": "address",
          "name": "_owner",
          "type": "address"
        },
        {
          "internalType": "contract State",
          "name": "_state",
          "type": "address"
        }
      ],
      "stateMutability": "nonpayable",
      "type": "constructor"
    },
    {
      "anonymous": false,
      "inputs": [
        {
          "indexed": true,
          "internalType": "address",
          "name": "owner",
          "type": "address"
        },
        {
          "indexed": true,
          "internalType": "address",
          "name": "operator",
          "type": "address"
        },
        {
          "indexed": false,
          "internalType": "bool",
          "name": "approved",
          "type": "bool"
        }
      ],
      "name": "ApprovalForAll",
      "type": "event"
    },
    {
      "anonymous": false,
      "inputs": [
        {
          "indexed": true,
          "internalType": "address",
          "name": "operator",
          "type": "address"
        },
        {
          "indexed": true,
          "internalType": "address",
          "name": "from",
          "type": "address"
        },
        {
          "indexed": true,
          "internalType": "address",
          "name": "to",
          "type": "address"
        },
        {
          "indexed": false,
          "internalType": "uint256[]",
          "name": "ids",
          "type": "uint256[]"
        },
        {
          "indexed": false,
          "internalType": "uint256[]",
          "name": "amounts",
          "type": "uint256[]"
        }
      ],
      "name": "TransferBatch",
      "type": "event"
    },
    {
      "anonymous": false,
      "inputs": [
        {
          "indexed": true,
          "internalType": "address",
          "name": "operator",
          "type": "address"
        },
        {
          "indexed": true,
          "internalType": "address",
          "name": "from",
          "type": "address"
        },
        {
          "indexed": true,
          "internalType": "address",
          "name": "to",
          "type": "address"
        },
        {
          "indexed": false,
          "internalType": "uint256",
          "name": "id",
          "type": "uint256"
        },
        {
          "indexed": false,
          "internalType": "uint256",
          "name": "amount",
          "type": "uint256"
        }
      ],
      "name": "TransferSingle",
      "type": "event"
    },
    {
      "anonymous": false,
      "inputs": [
        {
          "indexed": false,
          "internalType": "string",
          "name": "value",
          "type": "string"
        },
        {
          "indexed": true,
          "internalType": "uint256",
          "name": "id",
          "type": "uint256"
        }
      ],
      "name": "URI",
      "type": "event"
    },
    {
      "inputs": [
        {
          "internalType": "address",
          "name": "from",
          "type": "address"
        },
        {
          "internalType": "address",
          "name": "to",
          "type": "address"
        },
        {
          "internalType": "uint256",
          "name": "tokenId",
          "type": "uint256"
        },
        {
          "internalType": "uint256",
          "name": "amount",
          "type": "uint256"
        }
      ],
      "name": "_updateOwnedToken",
      "outputs": [],
      "stateMutability": "nonpayable",
      "type": "function"
    },
    {
      "inputs": [
        {
          "internalType": "address",
          "name": "",
          "type": "address"
        },
        {
          "internalType": "uint256",
          "name": "",
          "type": "uint256"
        }
      ],
      "name": "balanceOf",
      "outputs": [
        {
          "internalType": "uint256",
          "name": "",
          "type": "uint256"
        }
      ],
      "stateMutability": "view",
      "type": "function"
    },
    {
      "inputs": [
        {
          "internalType": "address[]",
          "name": "owners",
          "type": "address[]"
        },
        {
          "internalType": "uint256[]",
          "name": "ids",
          "type": "uint256[]"
        }
      ],
      "name": "balanceOfBatch",
      "outputs": [
        {
          "internalType": "uint256[]",
          "name": "balances",
          "type": "uint256[]"
        }
      ],
      "stateMutability": "view",
      "type": "function"
    },
    {
      "inputs": [
        {
          "internalType": "address",
          "name": "from",
          "type": "address"
        },
        {
          "internalType": "uint256",
          "name": "tokenId",
          "type": "uint256"
        },
        {
          "internalType": "uint256",
          "name": "amount",
          "type": "uint256"
        }
      ],
      "name": "burn",
      "outputs": [],
      "stateMutability": "nonpayable",
      "type": "function"
    },
    {
      "inputs": [
        {
          "internalType": "address",
          "name": "",
          "type": "address"
        },
        {
          "internalType": "address",
          "name": "",
          "type": "address"
        }
      ],
      "name": "isApprovedForAll",
      "outputs": [
        {
          "internalType": "bool",
          "name": "",
          "type": "bool"
        }
      ],
      "stateMutability": "view",
      "type": "function"
    },
    {
      "inputs": [
        {
          "internalType": "address",
          "name": "to",
          "type": "address"
        },
        {
          "internalType": "uint256",
          "name": "tokenId",
          "type": "uint256"
        },
        {
          "internalType": "uint256",
          "name": "amount",
          "type": "uint256"
        },
        {
          "internalType": "bytes",
          "name": "data",
          "type": "bytes"
        }
      ],
      "name": "mint",
      "outputs": [],
      "stateMutability": "nonpayable",
      "type": "function"
    },
    {
      "inputs": [
        {
          "internalType": "address",
          "name": "from",
          "type": "address"
        },
        {
          "internalType": "address",
          "name": "to",
          "type": "address"
        },
        {
          "internalType": "uint256[]",
          "name": "ids",
          "type": "uint256[]"
        },
        {
          "internalType": "uint256[]",
          "name": "amounts",
          "type": "uint256[]"
        },
        {
          "internalType": "bytes",
          "name": "data",
          "type": "bytes"
        }
      ],
      "name": "safeBatchTransferFrom",
      "outputs": [],
      "stateMutability": "nonpayable",
      "type": "function"
    },
    {
      "inputs": [
        {
          "internalType": "address",
          "name": "from",
          "type": "address"
        },
        {
          "internalType": "address",
          "name": "to",
          "type": "address"
        },
        {
          "internalType": "uint256",
          "name": "id",
          "type": "uint256"
        },
        {
          "internalType": "uint256",
          "name": "amount",
          "type": "uint256"
        },
        {
          "internalType": "bytes",
          "name": "data",
          "type": "bytes"
        }
      ],
      "name": "safeTransferFrom",
      "outputs": [],
      "stateMutability": "nonpayable",
      "type": "function"
    },
    {
      "inputs": [
        {
          "internalType": "address",
          "name": "operator",
          "type": "address"
        },
        {
          "internalType": "bool",
          "name": "approved",
          "type": "bool"
        }
      ],
      "name": "setApprovalForAll",
      "outputs": [],
      "stateMutability": "nonpayable",
      "type": "function"
    },
    {
      "inputs": [
        {
          "internalType": "bytes4",
          "name": "interfaceId",
          "type": "bytes4"
        }
      ],
      "name": "supportsInterface",
      "outputs": [
        {
          "internalType": "bool",
          "name": "",
          "type": "bool"
        }
      ],
      "stateMutability": "view",
      "type": "function"
    },
    {
      "inputs": [
        {
          "internalType": "uint256",
          "name": "tokenId",
          "type": "uint256"
        }
      ],
      "name": "tokenURI",
      "outputs": [
        {
          "internalType": "string",
          "name": "",
          "type": "string"
        }
      ],
      "stateMutability": "view",
      "type": "function"
    },
    {
      "inputs": [
        {
          "internalType": "uint256",
          "name": "tokenId",
          "type": "uint256"
        }
      ],
      "name": "uri",
      "outputs": [
        {
          "internalType": "string",
          "name": "",
          "type": "string"
        }
      ],
      "stateMutability": "view",
      "type": "function"
    }
  ],
  "bytecode": {
    "object": "0x60806040523480156200001157600080fd5b50604051620022013803806200220183398101604081905262000034916200007f565b600280546001600160a01b039384166001600160a01b03199182161790915560038054929093169116179055620000be565b6001600160a01b03811681146200007c57600080fd5b50565b600080604083850312156200009357600080fd5b8251620000a08162000066565b6020840151909250620000b38162000066565b809150509250929050565b61213380620000ce6000396000f3fe608060405234801561001057600080fd5b50600436106100b35760003560e01c8063731133e911610071578063731133e91461017e578063a22cb46514610191578063c87b56dd14610116578063e985e9c5146101a4578063f242432a146101d2578063f5298aca146101e557600080fd5b8062fdd58e146100b857806301ffc9a7146100f35780630e89341c146101165780632eb2c2d6146101365780634e1273f41461014b5780636253b8bb1461016b575b600080fd5b6100e06100c63660046114c7565b600060208181529281526040808220909352908152205481565b6040519081526020015b60405180910390f35b61010661010136600461150a565b6101f8565b60405190151581526020016100ea565b610129610124366004611527565b61024a565b6040516100ea9190611590565b610149610144366004611628565b610255565b005b61015e6101593660046116e2565b6102c9565b6040516100ea919061174d565b610149610179366004611791565b610402565b61014961018c366004611840565b610618565b61014961019f3660046118e3565b61068a565b6101066101b236600461191f565b600160209081526000928352604080842090915290825290205460ff1681565b6101496101e0366004611952565b6106f6565b6101496101f33660046119c9565b610718565b60006301ffc9a760e01b6001600160e01b0319831614806102295750636cdb3d1360e11b6001600160e01b03198316145b8061024457506303a24d0760e21b6001600160e01b03198316145b92915050565b606061024482610788565b6102658888888888888888610958565b60005b858110156102be576102ac8989898985818110610287576102876119fc565b905060200201358888868181106102a0576102a06119fc565b90506020020135610402565b806102b681611a28565b915050610268565b505050505050505050565b60608382146103115760405162461bcd60e51b815260206004820152600f60248201526e0988a9c8ea890be9a92a69a82a8869608b1b60448201526064015b60405180910390fd5b836001600160401b03811115610329576103296117d3565b604051908082528060200260200182016040528015610352578160200160208202803683370190505b50905060005b848110156103f957600080878784818110610375576103756119fc565b905060200201602081019061038a9190611a41565b6001600160a01b03166001600160a01b0316815260200190815260200160002060008585848181106103be576103be6119fc565b905060200201358152602001908152602001600020548282815181106103e6576103e66119fc565b6020908102919091010152600101610358565b50949350505050565b604082901b6001600160a01b0385161561052757600061042a8461042588610bfb565b610c0e565b6003549091506000908190610449906001600160a01b03168483610c64565b909250905067ffffffffffffffff1982161580610473575067ffffffffffffffff19828116908516145b6104bf5760405162461bcd60e51b815260206004820152601c60248201527f696e76616c69642066726f6d206f776e6564746f6b656e206974656d000000006044820152606401610308565b6000856001600160401b0316826001600160401b031611156104e8576104e58683611a5c565b90505b600354610502906001600160a01b03168560008885610cfd565b6105228461050f8b610bfb565b6003546001600160a01b03169190610d66565b505050505b6001600160a01b038416156106115760006105458461042587610bfb565b6003549091506000908190610564906001600160a01b03168483610c64565b909250905067ffffffffffffffff198216158061058e575067ffffffffffffffff19828116908516145b6105da5760405162461bcd60e51b815260206004820152601a60248201527f696e76616c696420746f206f776e6564746f6b656e206974656d0000000000006044820152606401610308565b610600836000866105eb8986611a83565b6003546001600160a01b031693929190610cfd565b61060d8361050f89610bfb565b5050505b5050505050565b6002546001600160a01b0316331461066b5760405162461bcd60e51b81526020600482015260166024820152751bdb9b1e481d1a194819d85b594818d85b881b5a5b9d60521b6044820152606401610308565b61067784848484610dd9565b6106846000858585610402565b50505050565b3360008181526001602090815260408083206001600160a01b03871680855290835292819020805460ff191686151590811790915590519081529192917f17307eab39ab6107e8899845ad3d59bd9653f200f220920489ca2b5937696c31910160405180910390a35050565b610704868686868686610f1b565b61071086868686610402565b505050505050565b6002546001600160a01b0316331461076b5760405162461bcd60e51b815260206004820152601660248201527537b7363c903a34329033b0b6b29031b0b710313ab93760511b6044820152606401610308565b61077683838361110d565b6107838360008484610402565b505050565b60035460408051632243c5d960e01b81526001600160a01b0390921660048084019190915267ffffffffffffffff199184901b91821660248401526060604484018190526064840191909152636e616d6560e01b60848401529160009073__$1464ab981357a848ad3ff04f4dd3359feb$__90632243c5d99060a401600060405180830381865af4158015610821573d6000803e3d6000fd5b505050506040513d6000823e601f3d908101601f191682016040526108499190810190611aa3565b600354604051632243c5d960e01b81526001600160a01b0390911660048083019190915267ffffffffffffffff19851660248301526060604483015260648201526334b1b7b760e11b608482015273__$1464ab981357a848ad3ff04f4dd3359feb$__90632243c5d99060a401600060405180830381865af41580156108d3573d6000803e3d6000fd5b505050506040513d6000823e601f3d908101601f191682016040526108fb9190810190611aa3565b61090484611191565b60405160200161091693929190611b35565b60405160208183030381529060405290506109308161123a565b6040516020016109409190611c46565b60405160208183030381529060405292505050919050565b8483146109995760405162461bcd60e51b815260206004820152600f60248201526e0988a9c8ea890be9a92a69a82a8869608b1b6044820152606401610308565b336001600160a01b03891614806109d357506001600160a01b038816600090815260016020908152604080832033845290915290205460ff165b610a105760405162461bcd60e51b815260206004820152600e60248201526d1393d517d055551213d49256915160921b6044820152606401610308565b60008060005b87811015610acb57888882818110610a3057610a306119fc565b905060200201359250868682818110610a4b57610a4b6119fc565b6001600160a01b038e1660009081526020818152604080832089845282528220805493909102949094013595508593925090610a88908490611c8b565b90915550506001600160a01b038a1660009081526020818152604080832086845290915281208054849290610abe908490611c9e565b9091555050600101610a16565b50886001600160a01b03168a6001600160a01b0316336001600160a01b03167f4a39dc06d4c0dbc64b70af90fd698a233a518aa5d07e595d983b8c0526c8f7fb8b8b8b8b604051610b1f9493929190611ce3565b60405180910390a46001600160a01b0389163b15610bc65760405163bc197c8160e01b808252906001600160a01b038b169063bc197c8190610b739033908f908e908e908e908e908e908e90600401611d3e565b6020604051808303816000875af1158015610b92573d6000803e3d6000fd5b505050506040513d601f19601f82011682018060405250810190610bb69190611da2565b6001600160e01b03191614610bd3565b6001600160a01b03891615155b610bef5760405162461bcd60e51b815260040161030890611dbf565b50505050505050505050565b600061024463045820b360e01b8361138c565b6000610c5d639d50c56c60e01b8484604051602001610c4292919091825267ffffffffffffffff1916602082015260380190565b604051602081830303815290604052805190602001206113d7565b9392505050565b6040516305f922a160e11b8152630ef6788760e01b600482015260ff8216602482015267ffffffffffffffff198316604482015260009081906001600160a01b03861690630bf24542906064016040805180830381865afa158015610ccd573d6000803e3d6000fd5b505050506040513d601f19601f82011682018060405250810190610cf19190611de9565b91509150935093915050565b604051633d18084560e21b81526001600160a01b0386169063f460211490610d3890630ef6788760e01b908790899088908890600401611e32565b600060405180830381600087803b158015610d5257600080fd5b505af11580156102be573d6000803e3d6000fd5b604051633d18084560e21b81526001600160a01b0384169063f460211490610da290635a54cd2760e11b90600090879087908390600401611e32565b600060405180830381600087803b158015610dbc57600080fd5b505af1158015610dd0573d6000803e3d6000fd5b50505050505050565b6001600160a01b03841660009081526020818152604080832086845290915281208054849290610e0a908490611c9e565b909155505060408051848152602081018490526001600160a01b0386169160009133917fc3d58168c5ae7397731d063d5bbf3d657854427343f4c083240f7aacaa2d0f62910160405180910390a46001600160a01b0384163b15610ef25760405163f23a6e6160e01b808252906001600160a01b0386169063f23a6e6190610e9f903390600090899089908990600401611e78565b6020604051808303816000875af1158015610ebe573d6000803e3d6000fd5b505050506040513d601f19601f82011682018060405250810190610ee29190611da2565b6001600160e01b03191614610eff565b6001600160a01b03841615155b6106845760405162461bcd60e51b815260040161030890611dbf565b336001600160a01b0387161480610f5557506001600160a01b038616600090815260016020908152604080832033845290915290205460ff165b610f925760405162461bcd60e51b815260206004820152600e60248201526d1393d517d055551213d49256915160921b6044820152606401610308565b6001600160a01b03861660009081526020818152604080832087845290915281208054859290610fc3908490611c8b565b90915550506001600160a01b03851660009081526020818152604080832087845290915281208054859290610ff9908490611c9e565b909155505060408051858152602081018590526001600160a01b03808816929089169133917fc3d58168c5ae7397731d063d5bbf3d657854427343f4c083240f7aacaa2d0f62910160405180910390a46001600160a01b0385163b156110e45760405163f23a6e6160e01b808252906001600160a01b0387169063f23a6e61906110919033908b908a908a908a908a90600401611eb2565b6020604051808303816000875af11580156110b0573d6000803e3d6000fd5b505050506040513d601f19601f820116820180604052508101906110d49190611da2565b6001600160e01b031916146110f1565b6001600160a01b03851615155b6107105760405162461bcd60e51b815260040161030890611dbf565b6001600160a01b0383166000908152602081815260408083208584529091528120805483929061113e908490611c8b565b909155505060408051838152602081018390526000916001600160a01b0386169133917fc3d58168c5ae7397731d063d5bbf3d657854427343f4c083240f7aacaa2d0f62910160405180910390a4505050565b60035460609060009081906111af906001600160a01b03168561140a565b90925090506111cb8260025b602002015163ffffffff16611449565b6111d68360006111bb565b6111e18460016111bb565b8361120857604051806040016040528060048152602001637472756560e01b815250611227565b6040518060400160405280600581526020016466616c736560d81b8152505b6040516020016109409493929190611ef9565b6060815160000361125957505060408051602081019091526000815290565b60006040518060600160405280604081526020016120be60409139905060006003845160026112889190611c9e565b611292919061204c565b61129d90600461206e565b6001600160401b038111156112b4576112b46117d3565b6040519080825280601f01601f1916602001820160405280156112de576020820181803683370190505b509050600182016020820185865187015b8082101561134a576003820191508151603f8160121c168501518453600184019350603f81600c1c168501518453600184019350603f8160061c168501518453600184019350603f81168501518453506001830192506112ef565b5050600386510660018114611366576002811461137957611381565b603d6001830353603d6002830353611381565b603d60018303535b509195945050505050565b6040516001600160e01b0319831660208201526bffffffffffffffffffffffff19606083901b1660248201526000906038015b604051602081830303815290604052610c5d90612085565b6040516001600160e01b0319831660208201526bffffffffffffffffffffffff19821660248201526000906038016113bf565b61141261148d565b608082901c63ffffffff9081168252606083901c81166020830152604083811c82169083015260a083901c166001145b9250929050565b606060a06040510180604052602081039150506000815280825b600183039250600a81066030018353600a9004806114635750819003601f19909101908152919050565b60405180606001604052806003906020820280368337509192915050565b80356001600160a01b03811681146114c257600080fd5b919050565b600080604083850312156114da57600080fd5b6114e3836114ab565b946020939093013593505050565b6001600160e01b03198116811461150757600080fd5b50565b60006020828403121561151c57600080fd5b8135610c5d816114f1565b60006020828403121561153957600080fd5b5035919050565b60005b8381101561155b578181015183820152602001611543565b50506000910152565b6000815180845261157c816020860160208601611540565b601f01601f19169290920160200192915050565b602081526000610c5d6020830184611564565b60008083601f8401126115b557600080fd5b5081356001600160401b038111156115cc57600080fd5b6020830191508360208260051b850101111561144257600080fd5b60008083601f8401126115f957600080fd5b5081356001600160401b0381111561161057600080fd5b60208301915083602082850101111561144257600080fd5b60008060008060008060008060a0898b03121561164457600080fd5b61164d896114ab565b975061165b60208a016114ab565b965060408901356001600160401b038082111561167757600080fd5b6116838c838d016115a3565b909850965060608b013591508082111561169c57600080fd5b6116a88c838d016115a3565b909650945060808b01359150808211156116c157600080fd5b506116ce8b828c016115e7565b999c989b5096995094979396929594505050565b600080600080604085870312156116f857600080fd5b84356001600160401b038082111561170f57600080fd5b61171b888389016115a3565b9096509450602087013591508082111561173457600080fd5b50611741878288016115a3565b95989497509550505050565b6020808252825182820181905260009190848201906040850190845b8181101561178557835183529284019291840191600101611769565b50909695505050505050565b600080600080608085870312156117a757600080fd5b6117b0856114ab565b93506117be602086016114ab565b93969395505050506040820135916060013590565b634e487b7160e01b600052604160045260246000fd5b604051601f8201601f191681016001600160401b0381118282101715611811576118116117d3565b604052919050565b60006001600160401b03821115611832576118326117d3565b50601f01601f191660200190565b6000806000806080858703121561185657600080fd5b61185f856114ab565b9350602085013592506040850135915060608501356001600160401b0381111561188857600080fd5b8501601f8101871361189957600080fd5b80356118ac6118a782611819565b6117e9565b8181528860208385010111156118c157600080fd5b8160208401602083013760006020838301015280935050505092959194509250565b600080604083850312156118f657600080fd5b6118ff836114ab565b91506020830135801515811461191457600080fd5b809150509250929050565b6000806040838503121561193257600080fd5b61193b836114ab565b9150611949602084016114ab565b90509250929050565b60008060008060008060a0878903121561196b57600080fd5b611974876114ab565b9550611982602088016114ab565b9450604087013593506060870135925060808701356001600160401b038111156119ab57600080fd5b6119b789828a016115e7565b979a9699509497509295939492505050565b6000806000606084860312156119de57600080fd5b6119e7846114ab565b95602085013595506040909401359392505050565b634e487b7160e01b600052603260045260246000fd5b634e487b7160e01b600052601160045260246000fd5b600060018201611a3a57611a3a611a12565b5060010190565b600060208284031215611a5357600080fd5b610c5d826114ab565b6001600160401b03828116828216039080821115611a7c57611a7c611a12565b5092915050565b6001600160401b03818116838216019080821115611a7c57611a7c611a12565b600060208284031215611ab557600080fd5b81516001600160401b03811115611acb57600080fd5b8201601f81018413611adc57600080fd5b8051611aea6118a782611819565b818152856020838501011115611aff57600080fd5b611b10826020830160208601611540565b95945050505050565b60008151611b2b818560208601611540565b9290920192915050565b607b60f81b815268113730b6b2911d101160b91b60018201528351600090611b6481600a850160208901611540565b61088b60f21b600a918401918201527f226465736372697074696f6e223a2022446f776e73747265616d204974656d22600c820152600b60fa1b602c8201527f22696d616765223a202268747470733a2f2f6173736574732e646f776e737472602d8201526e65616d2e67616d652f69636f6e732f60881b604d8201528451611bf481605c840160208901611540565b650b9cdd99c88b60d21b9101605c8101919091526d01130ba3a3934b13aba32b9911d160951b6062820152611c3c611c2f6070830186611b19565b607d60f81b815260010190565b9695505050505050565b7f646174613a6170706c69636174696f6e2f6a736f6e3b6261736536342c000000815260008251611c7e81601d850160208701611540565b91909101601d0192915050565b8181038181111561024457610244611a12565b8082018082111561024457610244611a12565b81835260006001600160fb1b03831115611cca57600080fd5b8260051b80836020870137939093016020019392505050565b604081526000611cf7604083018688611cb1565b8281036020840152611d0a818587611cb1565b979650505050505050565b81835281816020850137506000828201602090810191909152601f909101601f19169091010190565b6001600160a01b0389811682528816602082015260a060408201819052600090611d6b908301888a611cb1565b8281036060840152611d7e818789611cb1565b90508281036080840152611d93818587611d15565b9b9a5050505050505050505050565b600060208284031215611db457600080fd5b8151610c5d816114f1565b60208082526010908201526f155394d0519157d49150d2541251539560821b604082015260600190565b60008060408385031215611dfc57600080fd5b825167ffffffffffffffff1981168114611e1557600080fd5b60208401519092506001600160401b038116811461191457600080fd5b6001600160e01b031995909516855260ff93909316602085015267ffffffffffffffff1991821660408501521660608301526001600160401b0316608082015260a00190565b6001600160a01b03868116825285166020820152604081018490526060810183905260a060808201819052600090611d0a90830184611564565b6001600160a01b03878116825286166020820152604081018590526060810184905260a060808201819052600090611eed9083018486611d15565b98975050505050505050565b605b60f81b81527f7b2274726169745f74797065223a2022526564222c202276616c7565223a2000600182015260008551611f3b816020850160208a01611540565b8083019050611f4b60f21b8060208301527f7b2274726169745f74797065223a2022477265656e222c202276616c7565223a6022830152600160fd1b60428301528651611f8f816043850160208b01611540565b60439201918201527f7b2274726169745f74797065223a2022426c7565222c202276616c7565223a2060458201528451611fd0816065840160208901611540565b611eed61203f61203161202b611ff3606586880101611f4b60f21b815260020190565b7f7b2274726169745f74797065223a2022457175697061626c65222c202276616c8152653ab2911d101160d11b602082015260260190565b88611b19565b61227d60f01b815260020190565b605d60f81b815260010190565b60008261206957634e487b7160e01b600052601260045260246000fd5b500490565b808202811582820484141761024457610244611a12565b8051602082015167ffffffffffffffff1980821692919060188310156120b55780818460180360031b1b83161693505b50505091905056fe4142434445464748494a4b4c4d4e4f505152535455565758595a6162636465666768696a6b6c6d6e6f707172737475767778797a303132333435363738392b2fa26469706673582212201178a5c90f56439600e17224858b25269f077399e6017306bc9e7fbed2dcd91f64736f6c63430008130033",
    "linkReferences": {
      "src/schema/Schema.sol": {
        "Schema": [
          {
            "start": 2229,
            "length": 20
          },
          {
            "start": 2407,
            "length": 20
          }
        ]
      }
    }
  },
  "methodIdentifiers": {
    "_updateOwnedToken(address,address,uint256,uint256)": "6253b8bb",
    "balanceOf(address,uint256)": "00fdd58e",
    "balanceOfBatch(address[],uint256[])": "4e1273f4",
    "burn(address,uint256,uint256)": "f5298aca",
    "isApprovedForAll(address,address)": "e985e9c5",
    "mint(address,uint256,uint256,bytes)": "731133e9",
    "safeBatchTransferFrom(address,address,uint256[],uint256[],bytes)": "2eb2c2d6",
    "safeTransferFrom(address,address,uint256,uint256,bytes)": "f242432a",
    "setApprovalForAll(address,bool)": "a22cb465",
    "supportsInterface(bytes4)": "01ffc9a7",
    "tokenURI(uint256)": "c87b56dd",
    "uri(uint256)": "0e89341c"
  },
  "id": 35
}