{
  "abi": [
    {
      "anonymous": false,
      "inputs": [
        {
          "indexed": true,
          "internalType": "uint64",
          "name": "sessionID",
          "type": "uint64"
        },
        {
          "indexed": false,
          "internalType": "bytes",
          "name": "combatActions",
          "type": "bytes"
        }
      ],
      "name": "SessionUpdate",
      "type": "event"
    },
    {
      "inputs": [],
      "name": "prevCombatSessionID",
      "outputs": [
        {
          "internalType": "uint64",
          "name": "",
          "type": "uint64"
        }
      ],
      "stateMutability": "view",
      "type": "function"
    },
    {
      "inputs": [
        {
          "internalType": "contract State",
          "name": "state",
          "type": "address"
        },
        {
          "internalType": "bytes",
          "name": "action",
          "type": "bytes"
        },
        {
          "components": [
            {
              "internalType": "address",
              "name": "sender",
              "type": "address"
            },
            {
              "internalType": "uint32",
              "name": "scopes",
              "type": "uint32"
            },
            {
              "internalType": "uint32",
              "name": "clock",
              "type": "uint32"
            }
          ],
          "internalType": "struct Context",
          "name": "ctx",
          "type": "tuple"
        }
      ],
      "name": "reduce",
      "outputs": [
        {
          "internalType": "contract State",
          "name": "",
          "type": "address"
        }
      ],
      "stateMutability": "nonpayable",
      "type": "function"
    }
  ],
  "bytecode": {
    "object": "0x6080604052600080546001600160401b031916905534801561002057600080fd5b50613397806100306000396000f3fe608060405234801561001057600080fd5b50600436106100365760003560e01c8063624a3ede1461003b578063cd0ca38f1461006b575b600080fd5b61004e610049366004612c43565b610096565b6040516001600160a01b0390911681526020015b60405180910390f35b60005461007e906001600160401b031681565b6040516001600160401b039091168152602001610062565b600063203d3a7760e11b6100aa8486612ce2565b6001600160e01b031916036101825760006100d06100cb6020850185612d12565b610749565b90506000806001600160a01b038816630bf2454263ec0be13d60e01b6001866040518463ffffffff1660e01b815260040161010d93929190612d45565b6040805180830381865afa158015610129573d6000803e3d6000fd5b505050506040513d601f19601f8201168201806040525081019061014d9190612d8a565b91509150600061015e898488610762565b90506001600160401b031981161561017d5761017d8982858588610828565b505050505b630b7e92bd60e11b6101948486612ce2565b6001600160e01b031916036103135760006101b56100cb6020850185612d12565b905060006001600160a01b038716630bf2454263ec0be13d60e01b83856040518463ffffffff1660e01b81526004016101f093929190612d45565b6040805180830381865afa15801561020c573d6000803e3d6000fd5b505050506040513d601f19601f820116820180604052508101906102309190612d8a565b5090506000610240888387610762565b90506001600160401b031981161561025f5761025f8882848689610aed565b50506040516305f922a160e11b815260009081906001600160a01b03891690630bf245429061029e9063ec0be13d60e01b906001908890600401612d45565b6040805180830381865afa1580156102ba573d6000803e3d6000fd5b505050506040513d601f19601f820116820180604052508101906102de9190612d8a565b9150915060006102ef898488610762565b90506001600160401b031981161561030e5761030e8982858588610828565b505050505b638f5f17a160e01b6103258486612ce2565b6001600160e01b03191603610552576000808080610346876004818b612dd0565b8101906103539190612ec1565b9296509094509250905061037c898561037761037260208b018b612d12565b610d78565b610d8b565b60006103b18561039260608a0160408b01612f49565b63ffffffff168c6001600160a01b0316610e059092919063ffffffff16565b90506001600160401b031981166103d16001600160a01b038c1687610e22565b6001600160401b0319161461042d5760405162461bcd60e51b815260206004820152601a60248201527f4d6f62696c65556e69744e6f74417444657374696e6174696f6e00000000000060448201526064015b60405180910390fd5b6104378185610ea6565b60011461047a5760405162461bcd60e51b815260206004820152601160248201527010dbdb58985d139bdd10591a9858d95b9d607a1b6044820152606401610424565b6104858a8289610762565b6001600160401b031916156104dc5760405162461bcd60e51b815260206004820152601a60248201527f436f6d62617453657373696f6e416c72656164794163746976650000000000006044820152606401610424565b6104e78a8589610762565b6001600160401b0319161561053e5760405162461bcd60e51b815260206004820152601a60248201527f436f6d62617453657373696f6e416c72656164794163746976650000000000006044820152606401610424565b61054c8a828686868c610f5a565b50505050505b63756c5ee160e11b6105648486612ce2565b6001600160e01b031916036107405760006105828460048188612dd0565b81019061058f9190612f6f565b604051630e25ff6d60e01b815290915060009073__$1464ab981357a848ad3ff04f4dd3359feb$__90630e25ff6d906105d7906001600160a01b038b16908690600401612f8c565b6040805180830381865af41580156105f3573d6000803e3d6000fd5b505050506040513d601f19601f820116820180604052508101906106179190612d8a565b915061062e90506001600160a01b03881683611296565b1561067b5760405162461bcd60e51b815260206004820181905260248201527f436f6d6261742073657373696f6e20616c72656164792066696e616c697365646044820152606401610424565b60006106878884611326565b90506000816040015161ffff161180156106a957506000816060015161ffff16115b15610731576001600160401b0382166106c86060870160408801612f49565b63ffffffff1610156107315760405162461bcd60e51b815260206004820152602c60248201527f43616e6e6f742066696e616c69736520636f6d626174206265666f726520697460448201526b081a185cc81cdd185c9d195960a21b6064820152608401610424565b61073c888285611760565b5050505b50929392505050565b600061075c630128bd0d60e31b83611ad7565b92915050565b6040516305f922a160e11b8152600090819081906001600160a01b03871690630bf24542906107a0906305ffdd5360e01b9085908a90600401612d45565b6040805180830381865afa1580156107bc573d6000803e3d6000fd5b505050506040513d601f19601f820116820180604052508101906107e09190612d8a565b915091506000816001600160401b031611801561080d575061080b6001600160a01b03871683611296565b155b1561081a57509050610821565b5060009150505b9392505050565b604051630e25ff6d60e01b815260009073__$1464ab981357a848ad3ff04f4dd3359feb$__90630e25ff6d9061086d906001600160a01b038a16908990600401612f8c565b6040805180830381865af4158015610889573d6000803e3d6000fd5b505050506040513d601f19601f820116820180604052508101906108ad9190612d8a565b50905060005b606460ff82161015610ae45760006001600160401b03198381169087161461095f576040516317d5f79d60e01b815273__$1464ab981357a848ad3ff04f4dd3359feb$__906317d5f79d90610919906001600160a01b038c16908b908790600401612faf565b602060405180830381865af4158015610936573d6000803e3d6000fd5b505050506040513d601f19601f8201168201806040525081019061095a9190612fdd565b6109e4565b60405163a9ece48d60e01b815273__$1464ab981357a848ad3ff04f4dd3359feb$__9063a9ece48d906109a3906001600160a01b038c16908b908790600401612faf565b602060405180830381865af41580156109c0573d6000803e3d6000fd5b505050506040513d601f19601f820116820180604052508101906109e49190612fdd565b90506001600160401b03198116610ad1576001600160401b031980871690841603610a88576040516323bcb4af60e21b815273__$1464ab981357a848ad3ff04f4dd3359feb$__90638ef2d2bc90610a52906001600160a01b038c16908b9087908a90600090600401612ffa565b60006040518083038186803b158015610a6a57600080fd5b505af4158015610a7e573d6000803e3d6000fd5b5050505050610ae4565b604051636fde985b60e11b815273__$1464ab981357a848ad3ff04f4dd3359feb$__9063dfbd30b690610a52906001600160a01b038c16908b9087908a90600090600401612ffa565b5080610adc81613056565b9150506108b3565b50505050505050565b604051630e25ff6d60e01b815260009073__$1464ab981357a848ad3ff04f4dd3359feb$__90630e25ff6d90610b32906001600160a01b038a16908990600401612f8c565b6040805180830381865af4158015610b4e573d6000803e3d6000fd5b505050506040513d601f19601f82011682018060405250810190610b729190612d8a565b50905060005b606460ff82161015610ae45760006001600160401b031983811690871614610c24576040516317d5f79d60e01b815273__$1464ab981357a848ad3ff04f4dd3359feb$__906317d5f79d90610bde906001600160a01b038c16908b908790600401612faf565b602060405180830381865af4158015610bfb573d6000803e3d6000fd5b505050506040513d601f19601f82011682018060405250810190610c1f9190612fdd565b610ca9565b60405163a9ece48d60e01b815273__$1464ab981357a848ad3ff04f4dd3359feb$__9063a9ece48d90610c68906001600160a01b038c16908b908790600401612faf565b602060405180830381865af4158015610c85573d6000803e3d6000fd5b505050506040513d601f19601f82011682018060405250810190610ca99190612fdd565b90506001600160401b031980861690821603610d65576001600160401b031980871690841603610d1c576040516323bcb4af60e21b815273__$1464ab981357a848ad3ff04f4dd3359feb$__90638ef2d2bc90610a52906001600160a01b038c16908b9087906000908190600401612ffa565b604051636fde985b60e11b815273__$1464ab981357a848ad3ff04f4dd3359feb$__9063dfbd30b690610a52906001600160a01b038c16908b9087906000908190600401612ffa565b5080610d7081613056565b915050610b78565b600061075c63045820b360e01b83611ad7565b6001600160401b03198116610da96001600160a01b03851684611b22565b6001600160401b03191614610e005760405162461bcd60e51b815260206004820152601a60248201527f4d6f62696c65556e69744e6f744f776e65644279506c617965720000000000006044820152606401610424565b505050565b6000610e1a6001600160a01b03851684610e22565b949350505050565b6000806001600160a01b038416630bf2454263ec0be13d60e01b6001866040518463ffffffff1660e01b8152600401610e5d93929190612d45565b6040805180830381865afa158015610e79573d6000803e3d6000fd5b505050506040513d601f19601f82011682018060405250810190610e9d9190612d8a565b50949350505050565b600080610eb284611b5e565b90506000610ebf84611b5e565b80518351919250600191820b910b14610ede576000199250505061075c565b6002610f09826003602002015160010b8460035b602002015160010b610f04919061308b565b611b9e565b6040830151610f1d9060010b856002610ef2565b6020840151610f3390600190810b908790610ef2565b610f3d91906130b2565b610f4791906130b2565b610f5191906130e8565b95945050505050565b600080546001600160401b03169080610f7283613116565b82546101009290920a6001600160401b03818102199093169183160217909155600080549091169150610fa482611bba565b9050610fce81610fbd6001600160a01b038b168a611bcd565b6001600160a01b038b169190611c09565b6001600160a01b03881663f46021146305ffdd5360e01b6000848b6007610ffb60608b0160408c01612f49565b63ffffffff1661100b919061313c565b6040518663ffffffff1660e01b815260040161102b95949392919061315c565b600060405180830381600087803b15801561104557600080fd5b505af1158015611059573d6000803e3d6000fd5b5050506001600160a01b038916905063f46021146305ffdd5360e01b6001848a600761108b60608b0160408c01612f49565b63ffffffff1661109b919061313c565b6040518663ffffffff1660e01b81526004016110bb95949392919061315c565b600060405180830381600087803b1580156110d557600080fd5b505af11580156110e9573d6000803e3d6000fd5b5050506001600160a01b038916905063f46021146305ffdd5360e01b60008a85600761111b60608b0160408c01612f49565b63ffffffff1661112b919061313c565b6040518663ffffffff1660e01b815260040161114b95949392919061315c565b600060405180830381600087803b15801561116557600080fd5b505af1158015611179573d6000803e3d6000fd5b5050506001600160a01b038916905063f46021146305ffdd5360e01b6000898560076111ab60608b0160408c01612f49565b63ffffffff166111bb919061313c565b6040518663ffffffff1660e01b81526004016111db95949392919061315c565b600060405180830381600087803b1580156111f557600080fd5b505af1158015611209573d6000803e3d6000fd5b5050505060005b85518110156112525761124089838a60008a868151811061123357611233613075565b6020026020010151610828565b8061124a816131a1565b915050611210565b5060005b845181101561128b57611279898389600089868151811061123357611233613075565b80611283816131a1565b915050611256565b505050505050505050565b6040516305f922a160e11b815260009081906001600160a01b03851690630bf24542906112d290637dfe512160e01b9085908890600401612d45565b6040805180830381865afa1580156112ee573d6000803e3d6000fd5b505050506040513d601f19601f820116820180604052508101906113129190612d8a565b6001600160401b0316151595945050505050565b6040805160c0808201835260608083526020830181905260008385018190529083018190526080830181905260a083015282516064918101828152610d6082019094529192829160e083015b61137a612bab565b815260200190600190039081611372579050508152604080516064808252610ca0820190925260209092019190816020015b6113b4612bab565b8152602001906001900390816113ac5750508152600060208201819052604082018190526060820181905260809091018190529091505b606460ff821610156115325760405163a9ece48d60e01b815260009073__$1464ab981357a848ad3ff04f4dd3359feb$__9063a9ece48d9061143e906001600160a01b0389169088908790600401612faf565b602060405180830381865af415801561145b573d6000803e3d6000fd5b505050506040513d601f19601f8201168201806040525081019061147f9190612fdd565b90506001600160401b031981161561151f5761151f836040518060800160405280600160038111156114b3576114b3612d2f565b8152602001846001600160401b031916815260200160006001600160401b031681526020016040518060200160405280600081525081525060405180604001604052806000600181111561150957611509612d2f565b81526020016115188a87611c73565b9052611f1f565b508061152a81613056565b9150506113eb565b5060005b606460ff82161015611651576040516317d5f79d60e01b815260009073__$1464ab981357a848ad3ff04f4dd3359feb$__906317d5f79d90611589906001600160a01b0389169088908790600401612faf565b602060405180830381865af41580156115a6573d6000803e3d6000fd5b505050506040513d601f19601f820116820180604052508101906115ca9190612fdd565b90506001600160401b031981161561163e5761163e836040518060800160405280600160038111156115fe576115fe612d2f565b81526001600160401b0319851660208083019190915260006040808401829052805192830181529082526060909201528051808201909152806001611509565b508061164981613056565b915050611536565b50604081015161ffff16158061166d5750606081015161ffff16155b61075c5760005b61012c6001600160401b03821610156117355761169382600083612147565b816060015161ffff166000036116c7576080820160015b908160038111156116bd576116bd612d2f565b815250505061075c565b6116d382600183612147565b816040015161ffff166000036116ee576080820160026116aa565b60a082018051906116fe826131ba565b61ffff90811690915260a08401511661012b19019050611723576080820160036116aa565b8061172d81613116565b915050611674565b5060008160800151600381111561174e5761174e612d2f565b0361075c576003608082015292915050565b60008260800151600381111561177857611778612d2f565b0361179257610e006001600160a01b03841682600161230b565b60006001836080015160038111156117ac576117ac612d2f565b146117bb5782602001516117be565b82515b905060006001846080015160038111156117da576117da612d2f565b146117e65783516117ec565b83602001515b90506117f6612bab565b60005b8251811015611869578251631a67c53f60e11b9084908390811061181f5761181f613075565b6020026020010151600001516001600160e01b031916036118575782818151811061184c5761184c613075565b602002602001015191505b80611861816131a1565b9150506117f9565b5080516001600160e01b0319166365983ac160e11b01611aba5760005b606460ff82161015611aab57838160ff16815181106118a7576118a7613075565b60200260200101516080015115611a9957866001600160a01b031663f460211463f581341460e01b83886118fb8a8a8860ff16815181106118ea576118ea613075565b602002602001015160000151612383565b60006040518663ffffffff1660e01b815260040161191d95949392919061315c565b600060405180830381600087803b15801561193757600080fd5b505af115801561194b573d6000803e3d6000fd5b505050506119928761196c87878560ff16815181106118ea576118ea613075565b868460ff168151811061198157611981613075565b6020026020010151600001516123a4565b600061199d85612458565b858360ff16815181106119b2576119b2613075565b60200260200101516060015160646119ca91906131d1565b6001600160401b03166119dd91906131f4565b905060005b60048160ff161015611a9657600080611a25611a1487600001518d6001600160a01b03166124d590919063ffffffff16565b6001600160a01b038d169085612511565b91509150611a81611a458a8a8860ff16815181106118ea576118ea613075565b84846064611a5c6001600160401b0387168a613208565b611a6691906131f4565b8f6001600160a01b031661259990949392919063ffffffff16565b50508080611a8e90613056565b9150506119e2565b50505b80611aa381613056565b915050611886565b50611aba868260000151612602565b611acf6001600160a01b03871685600161230b565b505050505050565b6040516001600160e01b0319831660208201526bffffffffffffffffffffffff19606083901b1660248201526000906038015b6040516020818303038152906040526108219061321f565b6040516305f922a160e11b815260009081906001600160a01b03851690630bf2454290610e5d90635a54cd2760e11b9085908890600401612d45565b611b66612bef565b607082901c600190810b8252606083811c820b6020840152605084901c820b6040808501919091529390931c900b9181019190915290565b600080821215611bb657611bb182613256565b61075c565b5090565b600061075c631f12b7cd60e31b83612685565b6040516305f922a160e11b815260009081906001600160a01b03851690630bf2454290610e5d9063d3c8dd6960e01b9085908890600401612d45565b604051633d18084560e21b81526001600160a01b0384169063f460211490611c459063d3c8dd6960e01b9060009087908790839060040161315c565b600060405180830381600087803b158015611c5f57600080fd5b505af1158015610ae4573d6000803e3d6000fd5b611c7b612c0d565b611c83612c0d565b631ed742f360e31b6001600160e01b0319841601611e1857611ca7600a6032613272565b63ffffffff16815260176020820152601e604082015260005b60028160ff161015611e12576000611ce26001600160a01b03871686846126be565b9050634e36c0f760e01b6001600160e01b0319821601611dff5760005b60048160ff161015611dfd57600080611d226001600160a01b038a168585612744565b9092509050600080611d3d6001600160a01b038c1685612780565b9150915080158015611d5857506000836001600160401b0316115b15611de65760005b60038160ff161015611de45760ff811615611d7c576001611d7f565b600a5b838260ff1660038110611d9457611d94613075565b6020020151611da39190613272565b898260ff1660038110611db857611db8613075565b60200201818151611dc99190613292565b63ffffffff1690525080611ddc81613056565b915050611d60565b505b505050508080611df590613056565b915050611cff565b505b5080611e0a81613056565b915050611cc0565b50610821565b60005b60048160ff161015611f1757600080611e51611e406001600160a01b038916886124d5565b6001600160a01b0389169085612511565b90925090506000611e6b6001600160a01b03891684612780565b50905060005b60038160ff161015611f005760ff811615611e8d576001611e90565b600a5b83838360ff1660038110611ea657611ea6613075565b6020020151611eb59190613272565b611ebf9190613272565b868260ff1660038110611ed457611ed4613075565b60200201818151611ee59190613292565b63ffffffff1690525080611ef881613056565b915050611e71565b505050508080611f0f90613056565b915050611e1b565b509392505050565b60008082516001811115611f3557611f35612d2f565b14611f44578360200151611f47565b83515b905060005b81518110156120e35783602001516001600160401b031916828281518110611f7657611f76613075565b6020026020010151600001516001600160401b0319160361203557818181518110611fa357611fa3613075565b60200260200101516080015180611fd45750818181518110611fc757611fc7613075565b602002602001015160a001515b15611fe0575050505050565b6001828281518110611ff457611ff4613075565b60200260200101516080019015159081151581525050826020015182828151811061202157612021613075565b6020026020010151602001819052506120e3565b81818151811061204757612047613075565b6020908102919091010151516001600160401b0319166000036120d1576040805160e0810182526020808701516001600160401b031916825285810151908201526000918101829052606081018290526001608082015260a0810182905260c081019190915282518390839081106120c1576120c1613075565b60200260200101819052506120e3565b806120db816131a1565b915050611f4c565b815181036120f2575050505050565b60008351600181111561210757612107612d2f565b03612128576040850180519061211c826131ba565b61ffff16905250612140565b60608501805190612138826131ba565b61ffff169052505b5050505050565b600043828560a001518560405160200161216494939291906132af565b60408051601f198184030181529190528051602090910120905060006121ac8185600181111561219657612196612d2f565b146121a55785602001516127be565b85516127be565b6001600160401b031690506000612219818660018111156121cf576121cf612d2f565b146121db5786516121e1565b86602001515b60008760018111156121f5576121f5612d2f565b1461220457876040015161220a565b87606001515b61221490866132fc565b6128d9565b602081810151015190915063ffffffff1682111561226b5760208181015101516122499063ffffffff168361331d565b8160400181815161225a919061313c565b6001600160401b031690525061228b565b60018160400181815161227e919061313c565b6001600160401b03169052505b60208101516000602002015163ffffffff1681604001516001600160401b031610611acf57600160a082015260008560018111156122cb576122cb612d2f565b036122ec57606086018051906122e082613330565b61ffff16905250611acf565b604086018051906122fc82613330565b61ffff16905250505050505050565b6001600160a01b03831663f4602114637dfe512160e01b6000858086612332576000612335565b60015b6040516001600160e01b031960e088901b8116825295909516600486015260ff93841660248601526001600160401b031992831660448601529116606484015216608482015260a401611c45565b600061082165ffffffff0000603084901c16604085901c61ffff1617612a09565b6001600160e01b0319821663b1c93f0960e01b146124045760405162461bcd60e51b815260206004820152601f60248201527f4f776e657220736574206661696c202d206e6f74206120626167206e6f6465006044820152606401610424565b631ed742f360e31b6001600160e01b031982160161244457610e00826124336001600160a01b03861684611b22565b6001600160a01b0386169190612a1c565b610e006001600160a01b0384168383612a1c565b6000805b82518110156124cf5782818151811061247757612477613075565b602002602001015160800151156124bd5782818151811061249a5761249a613075565b6020026020010151606001516001600160401b0316826124ba919061334e565b91505b806124c7816131a1565b91505061245c565b50919050565b6040516305f922a160e11b815260009081906001600160a01b03851690630bf2454290610e5d9063eb70afe760e01b9085908890600401612d45565b6040516305f922a160e11b815260009081906001600160a01b03861690630bf245429061254d906351a72ac760e11b9087908990600401612d45565b6040805180830381865afa158015612569573d6000803e3d6000fd5b505050506040513d601f19601f8201168201806040525081019061258d9190612d8a565b91509150935093915050565b604051633d18084560e21b81526001600160a01b0386169063f4602114906125d490630ef6788760e01b90879089908890889060040161315c565b600060405180830381600087803b1580156125ee57600080fd5b505af115801561128b573d6000803e3d6000fd5b6126176001600160a01b038316826000612a58565b61262c6001600160a01b038316826000612a1c565b61263f6001600160a01b03831682612a94565b6126546001600160a01b038316826000612afa565b61266a6001600160a01b03831682600080612b37565b6126816001600160a01b0383168260016000612b37565b5050565b6040516001600160e01b0319831660208201526000602482018190526001600160c01b031960c084901b16603083015290603801611b0a565b6040516305f922a160e11b815260009081906001600160a01b03861690630bf24542906126fa90633d604d0560e21b9087908990600401612d45565b6040805180830381865afa158015612716573d6000803e3d6000fd5b505050506040513d601f19601f8201168201806040525081019061273a9190612d8a565b5095945050505050565b6040516305f922a160e11b815260009081906001600160a01b03861690630bf245429061254d90630ef6788760e01b9087908990600401612d45565b612788612c0d565b608082901c63ffffffff9081168252606083901c81166020830152604083811c821690830152909360a09290921c166001149150565b6000805b82518161ffff1610156124cf57828161ffff16815181106127e5576127e5613075565b602002602001015160800151801561281c5750828161ffff168151811061280e5761280e613075565b602002602001015160a00151155b156128c757828161ffff168151811061283757612837613075565b6020908102919091018101510151604001516128599063ffffffff168361313c565b9150828161ffff168151811061287157612871613075565b60209081029190910181015101516002602002015163ffffffff16838261ffff16815181106128a2576128a2613075565b60200260200101516060018181516128ba919061313c565b6001600160401b03169052505b806128d1816131ba565b9150506127c2565b6128e1612bab565b6000805b84518161ffff16101561299a57848161ffff168151811061290857612908613075565b602002602001015160800151801561293f5750848161ffff168151811061293157612931613075565b602002602001015160a00151155b15612988578361ffff168261ffff160361297a57848161ffff168151811061296957612969613075565b60200260200101519250505061075c565b81612984816131ba565b9250505b80612992816131ba565b9150506128e5565b5060405162461bcd60e51b815260206004820152603a60248201527f436f6d62617452756c653a3a5f73656c6563745072656e73656e74456e74697460448201527f79282920456e746974794e756d206f7574206f662072616e67650000000000006064820152608401610424565b600061075c63b1c93f0960e01b83612685565b604051633d18084560e21b81526001600160a01b0384169063f460211490611c4590635a54cd2760e11b9060009087908790839060040161315c565b604051633d18084560e21b81526001600160a01b0384169063f460211490611c459063eb70afe760e01b9060009087908790839060040161315c565b60405163118f53c760e31b81526001600160a01b03831690638c7a9e3890612acc9063d3c8dd6960e01b906000908690600401612d45565b600060405180830381600087803b158015612ae657600080fd5b505af1158015611acf573d6000803e3d6000fd5b604051633d18084560e21b81526001600160a01b0384169063f460211490611c459063ec0be13d60e01b906002908790879060009060040161315c565b604051633d18084560e21b81526001600160a01b0385169063f460211490612b7390633d604d0560e21b9086908890879060019060040161315c565b600060405180830381600087803b158015612b8d57600080fd5b505af1158015612ba1573d6000803e3d6000fd5b5050505050505050565b6040805160e081019091526000815260208101612bc6612c0d565b815260006020820181905260408201819052606082018190526080820181905260a09091015290565b60405180608001604052806004906020820280368337509192915050565b60405180606001604052806003906020820280368337509192915050565b6001600160a01b0381168114612c4057600080fd5b50565b60008060008084860360a0811215612c5a57600080fd5b8535612c6581612c2b565b945060208601356001600160401b0380821115612c8157600080fd5b818801915088601f830112612c9557600080fd5b813581811115612ca457600080fd5b896020828501011115612cb657600080fd5b6020929092019550909350506060603f1982011215612cd457600080fd5b509295919450926040019150565b6001600160e01b03198135818116916004851015612d0a5780818660040360031b1b83161692505b505092915050565b600060208284031215612d2457600080fd5b813561082181612c2b565b634e487b7160e01b600052602160045260246000fd5b6001600160e01b031993909316835260ff9190911660208301526001600160401b031916604082015260600190565b6001600160401b031981168114612c4057600080fd5b60008060408385031215612d9d57600080fd5b8251612da881612d74565b60208401519092506001600160401b0381168114612dc557600080fd5b809150509250929050565b60008085851115612de057600080fd5b83861115612ded57600080fd5b5050820193919092039150565b8035612e0581612d74565b919050565b634e487b7160e01b600052604160045260246000fd5b600082601f830112612e3157600080fd5b813560206001600160401b0380831115612e4d57612e4d612e0a565b8260051b604051601f19603f83011681018181108482111715612e7257612e72612e0a565b604052938452858101830193838101925087851115612e9057600080fd5b83870191505b84821015612eb657612ea782612dfa565b83529183019190830190612e96565b979650505050505050565b60008060008060808587031215612ed757600080fd5b8435612ee281612d74565b93506020850135612ef281612d74565b925060408501356001600160401b0380821115612f0e57600080fd5b612f1a88838901612e20565b93506060870135915080821115612f3057600080fd5b50612f3d87828801612e20565b91505092959194509250565b600060208284031215612f5b57600080fd5b813563ffffffff8116811461082157600080fd5b600060208284031215612f8157600080fd5b813561082181612d74565b6001600160a01b039290921682526001600160401b031916602082015260400190565b6001600160a01b039390931683526001600160401b031991909116602083015260ff16604082015260600190565b600060208284031215612fef57600080fd5b815161082181612d74565b6001600160a01b039590951685526001600160401b0319938416602086015260ff92909216604085015290911660608301526001600160401b0316608082015260a00190565b634e487b7160e01b600052601160045260246000fd5b600060ff821660ff810361306c5761306c613040565b60010192915050565b634e487b7160e01b600052603260045260246000fd5b81810360008312801583831316838312821617156130ab576130ab613040565b5092915050565b8082018281126000831280158216821582161715612d0a57612d0a613040565b634e487b7160e01b600052601260045260246000fd5b6000826130f7576130f76130d2565b600160ff1b82146000198414161561311157613111613040565b500590565b60006001600160401b0380831681810361313257613132613040565b6001019392505050565b6001600160401b038181168382160190808211156130ab576130ab613040565b6001600160e01b031995909516855260ff9390931660208501526001600160401b031991821660408501521660608301526001600160401b0316608082015260a00190565b6000600182016131b3576131b3613040565b5060010190565b600061ffff80831681810361313257613132613040565b6001600160401b03818116838216028082169190828114612d0a57612d0a613040565b600082613203576132036130d2565b500490565b808202811582820484141761075c5761075c613040565b805160208201516001600160401b0319808216929190601883101561324e5780818460180360031b1b83161693505b505050919050565b6000600160ff1b820161326b5761326b613040565b5060000390565b63ffffffff818116838216028082169190828114612d0a57612d0a613040565b63ffffffff8181168382160190808211156130ab576130ab613040565b8481526001600160401b038416602082015261ffff8316604082015260808101600283106132ed57634e487b7160e01b600052602160045260246000fd5b82606083015295945050505050565b600061ffff80841680613311576133116130d2565b92169190910692915050565b8181038181111561075c5761075c613040565b600061ffff82168061334457613344613040565b6000190192915050565b8082018082111561075c5761075c61304056fea2646970667358221220e620671c2a7b86bb4a8b7a118a1dd12e2d306dec85c35f2a75f901adff24a1d864736f6c63430008130033",
    "linkReferences": {
      "src/schema/Schema.sol": {
        "Schema": [
          {
            "start": 1492,
            "length": 20
          },
          {
            "start": 2154,
            "length": 20
          },
          {
            "start": 2324,
            "length": 20
          },
          {
            "start": 2462,
            "length": 20
          },
          {
            "start": 2632,
            "length": 20
          },
          {
            "start": 2759,
            "length": 20
          },
          {
            "start": 2863,
            "length": 20
          },
          {
            "start": 3033,
            "length": 20
          },
          {
            "start": 3171,
            "length": 20
          },
          {
            "start": 3346,
            "length": 20
          },
          {
            "start": 3419,
            "length": 20
          },
          {
            "start": 5177,
            "length": 20
          },
          {
            "start": 5508,
            "length": 20
          }
        ]
      }
    }
  },
  "methodIdentifiers": {
    "prevCombatSessionID()": "cd0ca38f",
    "reduce(address,bytes,(address,uint32,uint32))": "624a3ede"
  },
  "id": 166
}