{
  "abi": [
    {
      "inputs": [
        {
          "internalType": "contract Game",
          "name": "ds",
          "type": "address"
        },
        {
          "internalType": "bytes24",
          "name": "buildingInstanceID",
          "type": "bytes24"
        },
        {
          "internalType": "bytes24",
          "name": "mobileUnitID",
          "type": "bytes24"
        },
        {
          "internalType": "bytes",
          "name": "payload",
          "type": "bytes"
        }
      ],
      "name": "construct",
      "outputs": [],
      "stateMutability": "nonpayable",
      "type": "function"
    },
    {
      "inputs": [
        {
          "internalType": "contract Game",
          "name": "ds",
          "type": "address"
        },
        {
          "internalType": "bytes24",
          "name": "buildingInstanceID",
          "type": "bytes24"
        },
        {
          "internalType": "bytes24",
          "name": "mobileUnitID",
          "type": "bytes24"
        }
      ],
      "name": "onUnitArrive",
      "outputs": [],
      "stateMutability": "nonpayable",
      "type": "function"
    },
    {
      "inputs": [
        {
          "internalType": "contract Game",
          "name": "ds",
          "type": "address"
        },
        {
          "internalType": "bytes24",
          "name": "buildingInstanceID",
          "type": "bytes24"
        },
        {
          "internalType": "bytes24",
          "name": "mobileUnitID",
          "type": "bytes24"
        }
      ],
      "name": "onUnitLeave",
      "outputs": [],
      "stateMutability": "nonpayable",
      "type": "function"
    },
    {
      "inputs": [
        {
          "internalType": "string",
          "name": "pswd",
          "type": "string"
        }
      ],
      "name": "password",
      "outputs": [],
      "stateMutability": "nonpayable",
      "type": "function"
    },
    {
      "inputs": [
        {
          "internalType": "contract Game",
          "name": "ds",
          "type": "address"
        },
        {
          "internalType": "bytes24",
          "name": "buildingInstance",
          "type": "bytes24"
        },
        {
          "internalType": "bytes24",
          "name": "",
          "type": "bytes24"
        },
        {
          "internalType": "bytes",
          "name": "payload",
          "type": "bytes"
        }
      ],
      "name": "use",
      "outputs": [],
      "stateMutability": "nonpayable",
      "type": "function"
    }
  ],
  "bytecode": {
    "object": "0x60a060405273402462eefc217bf2cf4e6814395e1b61ea4c43f7608090815261002c906000906001610069565b50600180546001600160c01b031916776a7a67f0b29554460000000100000064000000640000004c17905534801561006357600080fd5b506100e3565b8280548282559060005260206000209081019282156100be579160200282015b828111156100be57825182546001600160a01b0319166001600160a01b03909116178255602090920191600190910190610089565b506100ca9291506100ce565b5090565b5b808211156100ca57600081556001016100cf565b6106c8806100f26000396000f3fe608060405234801561001057600080fd5b50600436106100575760003560e01c806324fd46e81461005c57806367cace071461007157806371d3f37a1461008457806391d83c571461005c578063f03ad92f14610096575b600080fd5b61006f61006a3660046102f7565b505050565b005b61006f61007f366004610385565b6100aa565b61006f6100923660046103fd565b5050565b61006f6100a43660046104cb565b50505050565b6338e9f9bd60e11b6100bc8284610550565b6001600160e01b0319161461010a5760405162461bcd60e51b815260206004820152600f60248201526e125b9d985b1a59081c185e5b1bd859608a1b60448201526064015b60405180910390fd5b60006101198260048186610580565b81019061012691906105aa565b90507fa51829b58a075004903a8c801dfce8691791cdff453000da89f3e420869759cc8160405160200161015a919061061f565b60405160208183030381529060405280519060200120146101b05760405162461bcd60e51b815260206004820152601060248201526f125b9d985b1a59081c185cdcdddbdc9960821b6044820152606401610101565b856001600160a01b031663ebb3d5896040518163ffffffff1660e01b81526004016020604051808303816000875af11580156101f0573d6000803e3d6000fd5b505050506040513d601f19601f82011682018060405250810190610214919061063b565b60405167ffffffffffffffff19871660248201526001600160a01b03919091169063ab7fff189060440160408051601f198184030181529181526020820180516001600160e01b031663119645df60e31b179052516001600160e01b031960e084901b168152610287919060040161065f565b600060405180830381600087803b1580156102a157600080fd5b505af11580156102b5573d6000803e3d6000fd5b50505050505050505050565b6001600160a01b03811681146102d657600080fd5b50565b803567ffffffffffffffff19811681146102f257600080fd5b919050565b60008060006060848603121561030c57600080fd5b8335610317816102c1565b9250610325602085016102d9565b9150610333604085016102d9565b90509250925092565b60008083601f84011261034e57600080fd5b50813567ffffffffffffffff81111561036657600080fd5b60208301915083602082850101111561037e57600080fd5b9250929050565b60008060008060006080868803121561039d57600080fd5b85356103a8816102c1565b94506103b6602087016102d9565b93506103c4604087016102d9565b9250606086013567ffffffffffffffff8111156103e057600080fd5b6103ec8882890161033c565b969995985093965092949392505050565b6000806020838503121561041057600080fd5b823567ffffffffffffffff81111561042757600080fd5b6104338582860161033c565b90969095509350505050565b634e487b7160e01b600052604160045260246000fd5b600067ffffffffffffffff808411156104705761047061043f565b604051601f8501601f19908116603f011681019082821181831017156104985761049861043f565b816040528093508581528686860111156104b157600080fd5b858560208301376000602087830101525050509392505050565b600080600080608085870312156104e157600080fd5b84356104ec816102c1565b93506104fa602086016102d9565b9250610508604086016102d9565b9150606085013567ffffffffffffffff81111561052457600080fd5b8501601f8101871361053557600080fd5b61054487823560208401610455565b91505092959194509250565b6001600160e01b031981358181169160048510156105785780818660040360031b1b83161692505b505092915050565b6000808585111561059057600080fd5b8386111561059d57600080fd5b5050820193919092039150565b6000602082840312156105bc57600080fd5b813567ffffffffffffffff8111156105d357600080fd5b8201601f810184136105e457600080fd5b6105f384823560208401610455565b949350505050565b60005b838110156106165781810151838201526020016105fe565b50506000910152565b600082516106318184602087016105fb565b9190910192915050565b60006020828403121561064d57600080fd5b8151610658816102c1565b9392505050565b602081526000825180602084015261067e8160408501602087016105fb565b601f01601f1916919091016040019291505056fea2646970667358221220a06412bbccc0dd43917d365f65ab82394d02a67164848c6fae862907395c114b64736f6c63430008130033",
    "linkReferences": {}
  },
  "methodIdentifiers": {
    "construct(address,bytes24,bytes24,bytes)": "f03ad92f",
    "onUnitArrive(address,bytes24,bytes24)": "91d83c57",
    "onUnitLeave(address,bytes24,bytes24)": "24fd46e8",
    "password(string)": "71d3f37a",
    "use(address,bytes24,bytes24,bytes)": "67cace07"
  },
  "id": 76
}