{
  "abi": [
    {
      "inputs": [
        {
          "internalType": "contract Game",
          "name": "g",
          "type": "address"
        }
      ],
      "stateMutability": "nonpayable",
      "type": "constructor"
    },
    {
      "inputs": [
        {
          "internalType": "contract State",
          "name": "state",
          "type": "address"
        },
        {
          "internalType": "bytes",
          "name": "action",
          "type": "bytes"
        },
        {
          "components": [
            {
              "internalType": "address",
              "name": "sender",
              "type": "address"
            },
            {
              "internalType": "uint32",
              "name": "scopes",
              "type": "uint32"
            },
            {
              "internalType": "uint32",
              "name": "clock",
              "type": "uint32"
            }
          ],
          "internalType": "struct Context",
          "name": "ctx",
          "type": "tuple"
        }
      ],
      "name": "reduce",
      "outputs": [
        {
          "internalType": "contract State",
          "name": "",
          "type": "address"
        }
      ],
      "stateMutability": "nonpayable",
      "type": "function"
    },
    {
      "inputs": [
        {
          "internalType": "int16",
          "name": "",
          "type": "int16"
        }
      ],
      "name": "zoneUnitCount",
      "outputs": [
        {
          "internalType": "uint256",
          "name": "",
          "type": "uint256"
        }
      ],
      "stateMutability": "view",
      "type": "function"
    }
  ],
  "bytecode": {
    "object": "0x608060405234801561001057600080fd5b5060405161171238038061171283398101604081905261002f91610054565b600080546001600160a01b0319166001600160a01b0392909216919091179055610084565b60006020828403121561006657600080fd5b81516001600160a01b038116811461007d57600080fd5b9392505050565b61167f806100936000396000f3fe608060405234801561001057600080fd5b50600436106100365760003560e01c8063624a3ede1461003b5780637ce5794c1461006b575b600080fd5b61004e6100493660046111c8565b610099565b6040516001600160a01b0390911681526020015b60405180910390f35b61008b610079366004611277565b60016020526000908152604090205481565b604051908152602001610062565b6000630b7e92bd60e11b6100ad8486611294565b6001600160e01b031916036102825760008080806100ce876004818b6112c4565b8101906100db91906112ee565b93509350935093506100ee8383836102ec565b61014d5760405162461bcd60e51b815260206004820152602560248201527f4d4f56455f4d4f42494c455f554e495420636f6f726473206f7574206f6620626044820152646f756e647360d81b60648201526084015b60405180910390fd5b600061016461015f602089018961134a565b610328565b905061017b610176602089018961134a565b610341565b6001600160401b0319166101986001600160a01b038c1683610354565b6001600160401b031916146101e05760405162461bcd60e51b815260206004820152600e60248201526d2737a6b7bb32a737ba27bbb732b960911b6044820152606401610144565b60006101ee868686866103d9565b905060006102056001600160a01b038d168361047b565b600181111561021657610216611367565b0361025a5760405162461bcd60e51b8152602060048201526014602482015273139bd35bdd99551bd55b991a5cd8dbdd995c995960621b6044820152606401610144565b61027b8b838361027060608d0160408e0161137d565b63ffffffff16610521565b5050505050505b6348c8129f60e01b6102948486611294565b6001600160e01b031916036102e35760006102b284600481886112c4565b8101906102bf91906113b9565b90506102e186826102d6606087016040880161137d565b63ffffffff16610a5f565b505b50929392505050565b6000806103156102fb86610cab565b61031061030787610cab565b61031087610cab565b610cca565b602860019190910b131595945050505050565b600061033b630128bd0d60e31b83610ce9565b92915050565b600061033b63045820b360e01b83610ce9565b6040516305f922a160e11b815260009081906001600160a01b03851690630bf245429061039090635a54cd2760e11b90859088906004016113d6565b6040805180830381865afa1580156103ac573d6000803e3d6000fd5b505050506040513d601f19601f820116820180604052508101906103d09190611405565b50949350505050565b6000816103e68486611462565b6103f09190611462565b60010b156104345760405162461bcd60e51b8152602060048201526011602482015270496e76616c696454696c65436f6f72647360781b6044820152606401610144565b60408051608081018252600187810b825286810b602083015285810b928201929092529083900b6060820152610472906339698bff60e21b90610d34565b95945050505050565b6040516305f922a160e11b815260009081906001600160a01b03851690630bf24542906104b790633442702960e21b90859088906004016113d6565b6040805180830381865afa1580156104d3573d6000803e3d6000fd5b505050506040513d601f19601f820116820180604052508101906104f79190611405565b67ffffffffffffffff169150508060ff16600181111561051957610519611367565b949350505050565b60006105376001600160a01b0386168584610d8d565b90506001600160401b0319808416908216036105535750610a59565b6105686001600160a01b038616858585610da2565b61057d6001600160a01b038616858385610e17565b600080600080886001600160a01b031673__$1464ab981357a848ad3ff04f4dd3359feb$__63f20912db9091876040518363ffffffff1660e01b81526004016105c7929190611485565b608060405180830381865af41580156105e4573d6000803e3d6000fd5b505050506040513d601f19601f8201168201806040525081019061060891906114a8565b9350935093509350600061061e85858585610e35565b905060006106356001600160a01b038c1683610e76565b90506001600160401b03198116156106e557600061065c6001600160a01b038d1683610eb2565b90506001600160a01b038116156106e357806001600160a01b03166324fd46e860008054906101000a90046001600160a01b0316858e6040518463ffffffff1660e01b81526004016106b0939291906114fc565b600060405180830381600087803b1580156106ca57600080fd5b505af11580156106de573d6000803e3d6000fd5b505050505b505b60008660010b8c6001600160a01b031673__$1464ab981357a848ad3ff04f4dd3359feb$__63b44661c390918d6040518363ffffffff1660e01b815260040161072f929190611485565b602060405180830381865af415801561074c573d6000803e3d6000fd5b505050506040513d601f19601f820116820180604052508101906107709190611527565b60010b14159050808015610787575060008760010b135b156107b557600187810b600090815260208290526040812080549091906107af908490611544565b90915550505b8b6001600160a01b031673__$1464ab981357a848ad3ff04f4dd3359feb$__63f20912db90918c6040518363ffffffff1660e01b81526004016107f9929190611485565b608060405180830381865af4158015610816573d6000803e3d6000fd5b505050506040513d601f19601f8201168201806040525081019061083a91906114a8565b9299509097509550935061085087878787610e35565b92506108656001600160a01b038d1684610e76565b91506001600160401b031982161561091557600061088c6001600160a01b038e1684610eb2565b90506001600160a01b0381161561091357806001600160a01b03166391d83c5760008054906101000a90046001600160a01b0316868f6040518463ffffffff1660e01b81526004016108e0939291906114fc565b600060405180830381600087803b1580156108fa57600080fd5b505af115801561090e573d6000803e3d6000fd5b505050505b505b8015610a50576109438b6109326001600160a01b038f168d610f3a565b6001600160a01b038f169190610f76565b60008760010b1315610a5057600187810b60009081526020829052604081208054909190610972908490611557565b909155506000905061098d6001600160a01b038e168d610354565b90506109a18d6001600160a01b0316610fe9565b67ffffffffffffffff16600160008a60010b60010b815260200190815260200160002054118015610a0957506001600160401b031981166109fc6109e48a611082565b8f6001600160a01b031661035490919063ffffffff16565b6001600160401b03191614155b15610a4e5760405162461bcd60e51b81526020600482015260156024820152744c696d69742072656163686564206f6e207a6f6e6560581b6044820152606401610144565b505b50505050505050505b50505050565b6000806001600160a01b038516630bf2454263ec0be13d60e01b6001876040518463ffffffff1660e01b8152600401610a9a939291906113d6565b6040805180830381865afa158015610ab6573d6000803e3d6000fd5b505050506040513d601f19601f82011682018060405250810190610ada9190611405565b60405163f20912db60e01b8152919350915060009073__$1464ab981357a848ad3ff04f4dd3359feb$__9063f20912db90610b24906001600160a01b038a16908790600401611485565b608060405180830381865af4158015610b41573d6000803e3d6000fd5b505050506040513d601f19601f82011682018060405250810190610b6591906114a8565b505050905060008160010b13610bb05760405162461bcd60e51b815260206004820152601060248201526f556e6974206e6f7420696e207a6f6e6560801b6044820152606401610144565b8167ffffffffffffffff168467ffffffffffffffff16118015610c015750610be0866001600160a01b03166110dc565b67ffffffffffffffff16610bf4838661156a565b67ffffffffffffffff1610155b610c425760405162461bcd60e51b8152602060048201526012602482015271155b9a5d081b9bdd081d1a5b5959081bdd5d60721b6044820152606401610144565b600181810b60009081526020829052604081208054909190610c65908490611544565b90915550610c8e905085610c7c60008080806103d9565b6001600160a01b038916919087610da2565b610ca36001600160a01b038716866000610f76565b505050505050565b6000808260010b1215610cc657610cc182611592565b61033b565b5090565b60008160010b8360010b1215610ce05781610ce2565b825b9392505050565b6040516001600160e01b0319831660208201526bffffffffffffffffffffffff19606083901b1660248201526000906038015b604051602081830303815290604052610ce2906115b3565b8051602080830151604080850151606086015191516001600160e01b031988169481019490945260006024850181905260f095861b603086015292851b6032850152841b603484015290921b6036820152603801610d1c565b60006105196001600160a01b0385168461113c565b6001600160a01b03841663f460211463ec0be13d60e01b60015b8686866040518663ffffffff1660e01b8152600401610ddf9594939291906115ea565b600060405180830381600087803b158015610df957600080fd5b505af1158015610e0d573d6000803e3d6000fd5b5050505050505050565b6001600160a01b03841663f460211463ec0be13d60e01b6000610dbc565b60408051608081018252600186810b825285810b602083015284810b928201929092529082900b606082015260009061047290631a67c53f60e11b90610d34565b6040516305f922a160e11b815260009081906001600160a01b03851690630bf24542906103909063eb70afe760e01b90859088906004016113d6565b6040516305f922a160e11b815260009081906001600160a01b03851690630bf2454290610eee9063e6a8ee4f60e01b90859088906004016113d6565b6040805180830381865afa158015610f0a573d6000803e3d6000fd5b505050506040513d601f19601f82011682018060405250810190610f2e9190611405565b5060401c949350505050565b6040516305f922a160e11b815260009081906001600160a01b03851690630bf24542906103909063d3c8dd6960e01b90859088906004016113d6565b604051633d18084560e21b81526001600160a01b0384169063f460211490610fb29063d3c8dd6960e01b906000908790879083906004016115ea565b600060405180830381600087803b158015610fcc57600080fd5b505af1158015610fe0573d6000803e3d6000fd5b50505050505050565b604080516324eae35560e01b81526369929e7160e01b60048201526024810191909152600d60448201526c1e9bdb99555b9a5d131a5b5a5d609a1b60648201526000906001600160a01b038316906324eae355906084015b602060405180830381865afa15801561105e573d6000803e3d6000fd5b505050506040513d601f19601f8201168201806040525081019061033b9190611630565b6000808260010b12156110c75760405162461bcd60e51b815260206004820152600d60248201526c125b9d985b1a59169bdb995251609a1b6044820152606401610144565b61033b6386fc4f3760e01b61ffff8416611177565b604080516324eae35560e01b81526369929e7160e01b600482015260248101919091526011604482015270756e697454696d656f7574426c6f636b7360781b60648201526000906001600160a01b038316906324eae35590608401611041565b6000806001600160a01b038416630bf2454263ec0be13d60e01b6001866040518463ffffffff1660e01b8152600401610390939291906113d6565b6040516001600160e01b0319831660208201526000602482018190526001600160c01b031960c084901b16603083015290603801610d1c565b6001600160a01b03811681146111c557600080fd5b50565b60008060008084860360a08112156111df57600080fd5b85356111ea816111b0565b9450602086013567ffffffffffffffff8082111561120757600080fd5b818801915088601f83011261121b57600080fd5b81358181111561122a57600080fd5b89602082850101111561123c57600080fd5b6020929092019550909350506060603f198201121561125a57600080fd5b509295919450926040019150565b8060010b81146111c557600080fd5b60006020828403121561128957600080fd5b8135610ce281611268565b6001600160e01b031981358181169160048510156112bc5780818660040360031b1b83161692505b505092915050565b600080858511156112d457600080fd5b838611156112e157600080fd5b5050820193919092039150565b6000806000806080858703121561130457600080fd5b843561130f81611268565b9350602085013561131f81611268565b9250604085013561132f81611268565b9150606085013561133f81611268565b939692955090935050565b60006020828403121561135c57600080fd5b8135610ce2816111b0565b634e487b7160e01b600052602160045260246000fd5b60006020828403121561138f57600080fd5b813563ffffffff81168114610ce257600080fd5b6001600160401b0319811681146111c557600080fd5b6000602082840312156113cb57600080fd5b8135610ce2816113a3565b6001600160e01b031993909316835260ff9190911660208301526001600160401b031916604082015260600190565b6000806040838503121561141857600080fd5b8251611423816113a3565b602084015190925067ffffffffffffffff8116811461144157600080fd5b809150509250929050565b634e487b7160e01b600052601160045260246000fd5b600181810b9083900b01617fff8113617fff198212171561033b5761033b61144c565b6001600160a01b039290921682526001600160401b031916602082015260400190565b600080600080608085870312156114be57600080fd5b84516114c981611268565b60208601519094506114da81611268565b60408601519093506114eb81611268565b606086015190925061133f81611268565b6001600160a01b039390931683526001600160401b0319918216602084015216604082015260600190565b60006020828403121561153957600080fd5b8151610ce281611268565b8181038181111561033b5761033b61144c565b8082018082111561033b5761033b61144c565b67ffffffffffffffff82811682821603908082111561158b5761158b61144c565b5092915050565b60008160010b617fff1981036115aa576115aa61144c565b60000392915050565b805160208201516001600160401b031980821692919060188310156115e25780818460180360031b1b83161693505b505050919050565b6001600160e01b031995909516855260ff9390931660208501526001600160401b0319918216604085015216606083015267ffffffffffffffff16608082015260a00190565b60006020828403121561164257600080fd5b505191905056fea2646970667358221220867bb405ccacbbb130deb097d403507bdfb169ec9ccf15eb29239802e88d905764736f6c63430008130033",
    "linkReferences": {
      "src/schema/Schema.sol": {
        "Schema": [
          {
            "start": 1570,
            "length": 20
          },
          {
            "start": 1930,
            "length": 20
          },
          {
            "start": 2132,
            "length": 20
          },
          {
            "start": 2948,
            "length": 20
          }
        ]
      }
    }
  },
  "methodIdentifiers": {
    "reduce(address,bytes,(address,uint32,uint32))": "624a3ede",
    "zoneUnitCount(int16)": "7ce5794c"
  },
  "id": 170
}