{
  "abi": [
    {
      "inputs": [
        {
          "internalType": "contract Game",
          "name": "g",
          "type": "address"
        }
      ],
      "stateMutability": "nonpayable",
      "type": "constructor"
    },
    {
      "inputs": [],
      "name": "getTokensAddress",
      "outputs": [
        {
          "internalType": "address",
          "name": "",
          "type": "address"
        }
      ],
      "stateMutability": "view",
      "type": "function"
    },
    {
      "inputs": [
        {
          "internalType": "contract State",
          "name": "state",
          "type": "address"
        },
        {
          "internalType": "bytes",
          "name": "action",
          "type": "bytes"
        },
        {
          "components": [
            {
              "internalType": "address",
              "name": "sender",
              "type": "address"
            },
            {
              "internalType": "uint32",
              "name": "scopes",
              "type": "uint32"
            },
            {
              "internalType": "uint32",
              "name": "clock",
              "type": "uint32"
            }
          ],
          "internalType": "struct Context",
          "name": "ctx",
          "type": "tuple"
        }
      ],
      "name": "reduce",
      "outputs": [
        {
          "internalType": "contract State",
          "name": "",
          "type": "address"
        }
      ],
      "stateMutability": "nonpayable",
      "type": "function"
    }
  ],
  "bytecode": {
    "object": "0x60806040523480156200001157600080fd5b50604051620041bc380380620041bc83398101604081905262000034916200012d565b30816001600160a01b0316631865c57d6040518163ffffffff1660e01b81526004016020604051808303816000875af115801562000076573d6000803e3d6000fd5b505050506040513d601f19601f820116820180604052508101906200009c91906200012d565b604051620000aa9062000106565b6001600160a01b03928316815291166020820152604001604051809103906000f080158015620000de573d6000803e3d6000fd5b50600080546001600160a01b0319166001600160a01b03929092169190911790555062000154565b6122018062001fbb83390190565b6001600160a01b03811681146200012a57600080fd5b50565b6000602082840312156200014057600080fd5b81516200014d8162000114565b9392505050565b611e5780620001646000396000f3fe608060405234801561001057600080fd5b50600436106100365760003560e01c806336298ff71461003b578063624a3ede14610064575b600080fd5b6000546001600160a01b03165b6040516001600160a01b03909116815260200160405180910390f35b61004861007236600461180e565b600063464565b360e01b61008684866118ad565b6001600160e01b0319160361010257600080808080806100a9896004818d6118dd565b8101906100b691906119eb565b9550955095509550955095506100f78b8960400160208101906100d99190611aab565b63ffffffff166100ec60208c018c611ad1565b8989898989896101ea565b5050505050506101e1565b6255122760e51b61011384866118ad565b6001600160e01b0319160361017357600080808080610135886004818c6118dd565b8101906101429190611aee565b9398509196509450925090506101698a61015f60208a018a611ad1565b8787878787610433565b50505050506101e1565b63d62aa3b560e01b61018584866118ad565b6001600160e01b031916036101e1576000808080806101a7886004818c6118dd565b8101906101b49190611b5b565b9398509196509450925090506101db8a6101d160208a018a611ad1565b8787878787610662565b50505050505b50929392505050565b6365983ac160e11b6001600160e01b03198716016102125761020d89878961089d565b610294565b631ed742f360e31b6001600160e01b03198716016102355761020d8987896109fb565b60405162461bcd60e51b815260206004820152602960248201527f4e6f5472616e736665724163746f724d75737442654d6f62696c65556e69744f604482015268724275696c64696e6760b81b60648201526084015b60405180910390fd5b60006102a18a888b610a83565b90506102b88a8760005b602002015189848d610b70565b6102c48a8760016102ab565b6000604051806040016040528061030e896000600281106102e7576102e7611baa565b60200201518960005b60200201518f6001600160a01b0316610e4e9092919063ffffffff16565b6001600160401b031916815260200161033089600160200201518960016102f0565b6001600160401b0319169052805190915061034a90610ed4565b60208101516001600160401b031916600003610396576001600160401b0319841660208083018290528881015190880151610391926001600160a01b038f16929190610f37565b6103fa565b60208101516001600160e01b03191663b1c93f0960e01b146103fa5760405162461bcd60e51b815260206004820152601b60248201527f4e6f5472616e7366657245717569704974656d49734e6f744261670000000000604482015260640161028b565b8051610408908c908b610fab565b8051855160208084015190880151610426938f939092909188611039565b5050505050505050505050565b61043c86611297565b6001600160401b0319166104596001600160a01b038916876112b0565b6001600160401b031916148061047f57506001600160e01b03198516631a67c53f60e11b145b6104cb5760405162461bcd60e51b815260206004820152601f60248201527f66726f6d45717569706565206e6f74206f776e65642062792073656e64657200604482015260640161028b565b60006104e16001600160a01b0389168787610e4e565b90506104ec81610ed4565b6000806105036001600160a01b038b168488611335565b91509150836001600160401b0316816001600160401b0316101561055b5760405162461bcd60e51b815260206004820152600f60248201526e62616c616e636520746f6f206c6f7760881b604482015260640161028b565b604082901c60008190036105a45760405162461bcd60e51b815260206004820152601060248201526f746f6b656e696420776173207a65726f60801b604482015260640161028b565b6105cf8488856105b48987611bd6565b8f6001600160a01b03166113bd90949392919063ffffffff16565b600080546040805163731133e960e01b81526001600160a01b038a811660048301529187901c60248201526001600160401b0389166044820152608060648201526084810193909352169063731133e99060a401600060405180830381600087803b15801561063d57600080fd5b505af1158015610651573d6000803e3d6000fd5b505050505050505050505050505050565b604085901c60008190036106ab5760405162461bcd60e51b815260206004820152601060248201526f746f6b656e696420776173207a65726f60801b604482015260640161028b565b600054604051627eeac760e11b81526001600160a01b038981166004830152602482018490526001600160401b03851692169062fdd58e90604401602060405180830381865afa158015610703573d6000803e3d6000fd5b505050506040513d601f19601f820116820180604052508101906107279190611bfd565b10156107695760405162461bcd60e51b81526020600482015260116024820152706e6f7420656e6f75676820746f6b656e7360781b604482015260640161028b565b600054604051637a94c56560e11b81526001600160a01b038981166004830152602482018490526001600160401b03851660448301529091169063f5298aca90606401600060405180830381600087803b1580156107c657600080fd5b505af11580156107da573d6000803e3d6000fd5b50600092506107f69150506001600160a01b038a168787610e4e565b905061080181610ed4565b6000806108186001600160a01b038c168488611335565b91509150806001600160401b031660001461088d576001600160401b0319898116908316148061085057506001600160401b03198216155b61088d5760405162461bcd60e51b815260206004820152600e60248201526d62616420746f6b656e206974656d60901b604482015260640161028b565b61042683878b6105b48986611c16565b60006108b26001600160a01b03851684611431565b90506001600160401b0319811660000361090e5760405162461bcd60e51b815260206004820152601f60248201527f6e6f206275696c64696e67206b696e64206275696c64696e67206163746f7200604482015260640161028b565b60006109236001600160a01b0386168361146d565b90506001600160a01b0381166109875760405162461bcd60e51b8152602060048201526024808201527f6e6f20696d706c656d656e746174696f6e20666f72206275696c64696e67206160448201526331ba37b960e11b606482015260840161028b565b806001600160a01b0316836001600160a01b0316146109f45760405162461bcd60e51b815260206004820152602360248201527f4e6f5472616e7366657253656e6465724e6f744275696c64696e67436f6e74726044820152621858dd60ea1b606482015260840161028b565b5050505050565b6000610a0682611297565b90506001600160401b03198116610a266001600160a01b038616856112b0565b6001600160401b03191614610a7d5760405162461bcd60e51b815260206004820152601860248201527f4e6f5472616e73666572506c617965724e6f744f776e65720000000000000000604482015260640161028b565b50505050565b6000630696740160e21b6001600160e01b0319841601610aa4575081610b69565b6365983ac160e11b6001600160e01b0319841601610ad85750600160401b600160e01b0382166339698bff60e21b17610b69565b631ed742f360e31b6001600160e01b0319841601610b0b57610b046001600160a01b03851684846114f5565b9050610b69565b60405162461bcd60e51b815260206004820152602d60248201527f67657443757272656e744c6f636174696f6e3a20656e74697479206b696e642060448201526c1b9bdd081cdd5c1c1bdc9d1959609a1b606482015260840161028b565b9392505050565b6001600160401b0319848116908416146109f457630696740160e21b6001600160e01b0319851601610bdd576001610ba88386611512565b1180610bbb5750610bb982856115c6565b155b15610bd85760405162461bcd60e51b815260040161028b90611c36565b6109f4565b6365983ac160e11b6001600160e01b0319851601610c4f57600160401b600160e01b038481166339698bff60e21b176001610c188583611512565b1180610c2b5750610c2984826115c6565b155b15610c485760405162461bcd60e51b815260040161028b90611c36565b50506109f4565b631ed742f360e31b6001600160e01b0319851601610cc1576000610c7d6001600160a01b03871686846114f5565b90506001610c8b8483611512565b1180610c9e5750610c9c83826115c6565b155b15610cbb5760405162461bcd60e51b815260040161028b90611c36565b506109f4565b62ed483360e31b6001600160e01b0319851601610e06576040516305f922a160e11b81526000906001600160a01b03871690630bf2454290610d12906305ffdd5360e01b9085908a90600401611c6d565b6040805180830381865afa158015610d2e573d6000803e3d6000fd5b505050506040513d601f19601f82011682018060405250810190610d529190611c9c565b506040516305f922a160e11b81529091506000906001600160a01b03881690630bf2454290610d91906305ffdd5360e01b906001908b90600401611c6d565b6040805180830381865afa158015610dad573d6000803e3d6000fd5b505050506040513d601f19601f82011682018060405250810190610dd19190611c9c565b5090506001610de08584611512565b1180610df35750610df184836115c6565b155b8015610c2b57506001610c188583611512565b60405162461bcd60e51b815260206004820181905260248201527f4e6f5472616e73666572556e737570706f72746564457175697065654b696e64604482015260640161028b565b6040516305f922a160e11b815260009081906001600160a01b03861690630bf2454290610e8a90633d604d0560e21b9087908990600401611c6d565b6040805180830381865afa158015610ea6573d6000803e3d6000fd5b505050506040513d601f19601f82011682018060405250810190610eca9190611c9c565b5095945050505050565b6001600160e01b0319811663b1c93f0960e01b14610f345760405162461bcd60e51b815260206004820152601b60248201527f4e6f5472616e7366657245717569704974656d49734e6f744261670000000000604482015260640161028b565b50565b604051633d18084560e21b81526001600160a01b0385169063f460211490610f7390633d604d0560e21b90869088908790600190600401611cd6565b600060405180830381600087803b158015610f8d57600080fd5b505af1158015610fa1573d6000803e3d6000fd5b5050505050505050565b6000610fb682611297565b90506000610fcd6001600160a01b038616856112b0565b90506001600160401b0319811615801590610ff557506001600160401b031981811690831614155b156109f45760405162461bcd60e51b81526020600482015260146024820152734e6f5472616e736665724e6f74596f757242616760601b604482015260640161028b565b6001600160401b0381161561128f576001600160401b031985811690841614801561106957508160ff168460ff16145b156110ab5760405162461bcd60e51b8152602060048201526012602482015271139bd51c985b9cd9995c94d85b5954db1bdd60721b604482015260640161028b565b6000806110c26001600160a01b0389168888611335565b90925090506000806110de6001600160a01b038b168888611335565b90925090506001600160401b031984166000036111335760405162461bcd60e51b8152602060048201526013602482015272139bd51c985b9cd9995c915b5c1d1e54db1bdd606a1b604482015260640161028b565b6001600160401b038116156111a5576001600160401b03198481169083161461116e5760405162461bcd60e51b815260040161028b90611d1b565b60006111836001600160a01b038c1684611630565b915050806111a35760405162461bcd60e51b815260040161028b90611d1b565b505b846001600160401b0316836001600160401b031610156111fe5760405162461bcd60e51b81526020600482015260146024820152734e6f5472616e736665724c6f7742616c616e636560601b604482015260640161028b565b606461120a8683611c16565b6001600160401b031611156112315760405162461bcd60e51b815260040161028b90611d1b565b600061123d8685611bd6565b9050806001600160401b0316600003611269576112646001600160a01b038c168b8b61166e565b61127f565b61127f6001600160a01b038c168b8b88856113bd565b6104268888876105b48a87611c16565b505050505050565b60006112aa63045820b360e01b836116dc565b92915050565b6040516305f922a160e11b815260009081906001600160a01b03851690630bf24542906112ec90635a54cd2760e11b9085908890600401611c6d565b6040805180830381865afa158015611308573d6000803e3d6000fd5b505050506040513d601f19601f8201168201806040525081019061132c9190611c9c565b50949350505050565b6040516305f922a160e11b815260009081906001600160a01b03861690630bf245429061137190630ef6788760e01b9087908990600401611c6d565b6040805180830381865afa15801561138d573d6000803e3d6000fd5b505050506040513d601f19601f820116820180604052508101906113b19190611c9c565b91509150935093915050565b604051633d18084560e21b81526001600160a01b0386169063f4602114906113f890630ef6788760e01b908790899088908890600401611cd6565b600060405180830381600087803b15801561141257600080fd5b505af1158015611426573d6000803e3d6000fd5b505050505050505050565b6040516305f922a160e11b815260009081906001600160a01b03851690630bf24542906112ec9063eb70afe760e01b9085908890600401611c6d565b6040516305f922a160e11b815260009081906001600160a01b03851690630bf24542906114a99063e6a8ee4f60e01b9085908890600401611c6d565b6040805180830381865afa1580156114c5573d6000803e3d6000fd5b505050506040513d601f19601f820116820180604052508101906114e99190611c9c565b5060401c949350505050565b600061150a6001600160a01b03851684611726565b949350505050565b60008061151e84611761565b9050600061152b84611761565b80518351919250600191820b910b1461154a57600019925050506112aa565b6002611575826003602002015160010b8460035b602002015160010b6115709190611d52565b6117a1565b60408301516115899060010b85600261155e565b602084015161159f90600190810b90879061155e565b6115a99190611d72565b6115b39190611d72565b6115bd9190611d92565b95945050505050565b6000806115d284611761565b905060006115df84611761565b60208082015190840151919250600191820b910b14806116125750806002602002015160010b826002602002015160010b145b806115bd5750606090810151910151600191820b910b149392505050565b6116386117bd565b608082901c63ffffffff9081168252606083901c81166020830152604083811c821690830152909360a09290921c166001149150565b60405163118f53c760e31b81526001600160a01b03841690638c7a9e38906116a590630ef6788760e01b9085908790600401611c6d565b600060405180830381600087803b1580156116bf57600080fd5b505af11580156116d3573d6000803e3d6000fd5b50505050505050565b6040516001600160e01b0319831660208201526bffffffffffffffffffffffff19606083901b166024820152600090603801604051602081830303815290604052610b6990611dce565b6000806001600160a01b038416630bf2454263ec0be13d60e01b6001866040518463ffffffff1660e01b81526004016112ec93929190611c6d565b6117696117db565b607082901c600190810b8252606083811c820b6020840152605084901c820b6040808501919091529390931c900b9181019190915290565b6000808212156117b9576117b482611e05565b6112aa565b5090565b60405180606001604052806003906020820280368337509192915050565b60405180608001604052806004906020820280368337509192915050565b6001600160a01b0381168114610f3457600080fd5b60008060008084860360a081121561182557600080fd5b8535611830816117f9565b945060208601356001600160401b038082111561184c57600080fd5b818801915088601f83011261186057600080fd5b81358181111561186f57600080fd5b89602082850101111561188157600080fd5b6020929092019550909350506060603f198201121561189f57600080fd5b509295919450926040019150565b6001600160e01b031981358181169160048510156118d55780818660040360031b1b83161692505b505092915050565b600080858511156118ed57600080fd5b838611156118fa57600080fd5b5050820193919092039150565b6001600160401b031981168114610f3457600080fd5b803561192881611907565b919050565b604080519081016001600160401b038111828210171561195d57634e487b7160e01b600052604160045260246000fd5b60405290565b803560ff8116811461192857600080fd5b600082601f83011261198557600080fd5b61198d61192d565b80604084018581111561199f57600080fd5b845b818110156119c0576119b281611963565b8452602093840193016119a1565b509095945050505050565b6001600160401b0381168114610f3457600080fd5b8035611928816119cb565b6000806000806000806101208789031215611a0557600080fd5b8635611a1081611907565b95506020603f88018913611a2357600080fd5b611a2b61192d565b8060608a018b811115611a3d57600080fd5b838b015b81811015611a61578035611a5481611907565b8452928401928401611a41565b50819850611a6f8c82611974565b975050505050611a828860a08901611974565b9250611a9060e0880161191d565b9150611a9f61010088016119e0565b90509295509295509295565b600060208284031215611abd57600080fd5b813563ffffffff81168114610b6957600080fd5b600060208284031215611ae357600080fd5b8135610b69816117f9565b600080600080600060a08688031215611b0657600080fd5b8535611b1181611907565b9450611b1f60208701611963565b9350611b2d60408701611963565b92506060860135611b3d816117f9565b91506080860135611b4d816119cb565b809150509295509295909350565b600080600080600060a08688031215611b7357600080fd5b8535611b7e81611907565b94506020860135611b8e81611907565b9350611b9c60408701611963565b9250611b3d60608701611963565b634e487b7160e01b600052603260045260246000fd5b634e487b7160e01b600052601160045260246000fd5b6001600160401b03828116828216039080821115611bf657611bf6611bc0565b5092915050565b600060208284031215611c0f57600080fd5b5051919050565b6001600160401b03818116838216019080821115611bf657611bf6611bc0565b60208082526019908201527f4e6f5472616e736665724e6f7453616d654c6f636174696f6e00000000000000604082015260600190565b6001600160e01b031993909316835260ff9190911660208301526001600160401b031916604082015260600190565b60008060408385031215611caf57600080fd5b8251611cba81611907565b6020840151909250611ccb816119cb565b809150509250929050565b6001600160e01b031995909516855260ff9390931660208501526001600160401b031991821660408501521660608301526001600160401b0316608082015260a00190565b6020808252601a908201527f4e6f5472616e73666572496e636f6d70617469626c65536c6f74000000000000604082015260600190565b8181036000831280158383131683831282161715611bf657611bf6611bc0565b80820182811260008312801582168215821617156118d5576118d5611bc0565b600082611daf57634e487b7160e01b600052601260045260246000fd5b600160ff1b821460001984141615611dc957611dc9611bc0565b500590565b805160208201516001600160401b03198082169291906018831015611dfd5780818460180360031b1b83161693505b505050919050565b6000600160ff1b8201611e1a57611e1a611bc0565b506000039056fea2646970667358221220a130eb82e97015bbc7adec404628df841a37eeeeb0865850b8527110bb8f658964736f6c6343000813003360806040523480156200001157600080fd5b50604051620022013803806200220183398101604081905262000034916200007f565b600280546001600160a01b039384166001600160a01b03199182161790915560038054929093169116179055620000be565b6001600160a01b03811681146200007c57600080fd5b50565b600080604083850312156200009357600080fd5b8251620000a08162000066565b6020840151909250620000b38162000066565b809150509250929050565b61213380620000ce6000396000f3fe608060405234801561001057600080fd5b50600436106100b35760003560e01c8063731133e911610071578063731133e91461017e578063a22cb46514610191578063c87b56dd14610116578063e985e9c5146101a4578063f242432a146101d2578063f5298aca146101e557600080fd5b8062fdd58e146100b857806301ffc9a7146100f35780630e89341c146101165780632eb2c2d6146101365780634e1273f41461014b5780636253b8bb1461016b575b600080fd5b6100e06100c63660046114c7565b600060208181529281526040808220909352908152205481565b6040519081526020015b60405180910390f35b61010661010136600461150a565b6101f8565b60405190151581526020016100ea565b610129610124366004611527565b61024a565b6040516100ea9190611590565b610149610144366004611628565b610255565b005b61015e6101593660046116e2565b6102c9565b6040516100ea919061174d565b610149610179366004611791565b610402565b61014961018c366004611840565b610618565b61014961019f3660046118e3565b61068a565b6101066101b236600461191f565b600160209081526000928352604080842090915290825290205460ff1681565b6101496101e0366004611952565b6106f6565b6101496101f33660046119c9565b610718565b60006301ffc9a760e01b6001600160e01b0319831614806102295750636cdb3d1360e11b6001600160e01b03198316145b8061024457506303a24d0760e21b6001600160e01b03198316145b92915050565b606061024482610788565b6102658888888888888888610958565b60005b858110156102be576102ac8989898985818110610287576102876119fc565b905060200201358888868181106102a0576102a06119fc565b90506020020135610402565b806102b681611a28565b915050610268565b505050505050505050565b60608382146103115760405162461bcd60e51b815260206004820152600f60248201526e0988a9c8ea890be9a92a69a82a8869608b1b60448201526064015b60405180910390fd5b836001600160401b03811115610329576103296117d3565b604051908082528060200260200182016040528015610352578160200160208202803683370190505b50905060005b848110156103f957600080878784818110610375576103756119fc565b905060200201602081019061038a9190611a41565b6001600160a01b03166001600160a01b0316815260200190815260200160002060008585848181106103be576103be6119fc565b905060200201358152602001908152602001600020548282815181106103e6576103e66119fc565b6020908102919091010152600101610358565b50949350505050565b604082901b6001600160a01b0385161561052757600061042a8461042588610bfb565b610c0e565b6003549091506000908190610449906001600160a01b03168483610c64565b909250905067ffffffffffffffff1982161580610473575067ffffffffffffffff19828116908516145b6104bf5760405162461bcd60e51b815260206004820152601c60248201527f696e76616c69642066726f6d206f776e6564746f6b656e206974656d000000006044820152606401610308565b6000856001600160401b0316826001600160401b031611156104e8576104e58683611a5c565b90505b600354610502906001600160a01b03168560008885610cfd565b6105228461050f8b610bfb565b6003546001600160a01b03169190610d66565b505050505b6001600160a01b038416156106115760006105458461042587610bfb565b6003549091506000908190610564906001600160a01b03168483610c64565b909250905067ffffffffffffffff198216158061058e575067ffffffffffffffff19828116908516145b6105da5760405162461bcd60e51b815260206004820152601a60248201527f696e76616c696420746f206f776e6564746f6b656e206974656d0000000000006044820152606401610308565b610600836000866105eb8986611a83565b6003546001600160a01b031693929190610cfd565b61060d8361050f89610bfb565b5050505b5050505050565b6002546001600160a01b0316331461066b5760405162461bcd60e51b81526020600482015260166024820152751bdb9b1e481d1a194819d85b594818d85b881b5a5b9d60521b6044820152606401610308565b61067784848484610dd9565b6106846000858585610402565b50505050565b3360008181526001602090815260408083206001600160a01b03871680855290835292819020805460ff191686151590811790915590519081529192917f17307eab39ab6107e8899845ad3d59bd9653f200f220920489ca2b5937696c31910160405180910390a35050565b610704868686868686610f1b565b61071086868686610402565b505050505050565b6002546001600160a01b0316331461076b5760405162461bcd60e51b815260206004820152601660248201527537b7363c903a34329033b0b6b29031b0b710313ab93760511b6044820152606401610308565b61077683838361110d565b6107838360008484610402565b505050565b60035460408051632243c5d960e01b81526001600160a01b0390921660048084019190915267ffffffffffffffff199184901b91821660248401526060604484018190526064840191909152636e616d6560e01b60848401529160009073__$1464ab981357a848ad3ff04f4dd3359feb$__90632243c5d99060a401600060405180830381865af4158015610821573d6000803e3d6000fd5b505050506040513d6000823e601f3d908101601f191682016040526108499190810190611aa3565b600354604051632243c5d960e01b81526001600160a01b0390911660048083019190915267ffffffffffffffff19851660248301526060604483015260648201526334b1b7b760e11b608482015273__$1464ab981357a848ad3ff04f4dd3359feb$__90632243c5d99060a401600060405180830381865af41580156108d3573d6000803e3d6000fd5b505050506040513d6000823e601f3d908101601f191682016040526108fb9190810190611aa3565b61090484611191565b60405160200161091693929190611b35565b60405160208183030381529060405290506109308161123a565b6040516020016109409190611c46565b60405160208183030381529060405292505050919050565b8483146109995760405162461bcd60e51b815260206004820152600f60248201526e0988a9c8ea890be9a92a69a82a8869608b1b6044820152606401610308565b336001600160a01b03891614806109d357506001600160a01b038816600090815260016020908152604080832033845290915290205460ff165b610a105760405162461bcd60e51b815260206004820152600e60248201526d1393d517d055551213d49256915160921b6044820152606401610308565b60008060005b87811015610acb57888882818110610a3057610a306119fc565b905060200201359250868682818110610a4b57610a4b6119fc565b6001600160a01b038e1660009081526020818152604080832089845282528220805493909102949094013595508593925090610a88908490611c8b565b90915550506001600160a01b038a1660009081526020818152604080832086845290915281208054849290610abe908490611c9e565b9091555050600101610a16565b50886001600160a01b03168a6001600160a01b0316336001600160a01b03167f4a39dc06d4c0dbc64b70af90fd698a233a518aa5d07e595d983b8c0526c8f7fb8b8b8b8b604051610b1f9493929190611ce3565b60405180910390a46001600160a01b0389163b15610bc65760405163bc197c8160e01b808252906001600160a01b038b169063bc197c8190610b739033908f908e908e908e908e908e908e90600401611d3e565b6020604051808303816000875af1158015610b92573d6000803e3d6000fd5b505050506040513d601f19601f82011682018060405250810190610bb69190611da2565b6001600160e01b03191614610bd3565b6001600160a01b03891615155b610bef5760405162461bcd60e51b815260040161030890611dbf565b50505050505050505050565b600061024463045820b360e01b8361138c565b6000610c5d639d50c56c60e01b8484604051602001610c4292919091825267ffffffffffffffff1916602082015260380190565b604051602081830303815290604052805190602001206113d7565b9392505050565b6040516305f922a160e11b8152630ef6788760e01b600482015260ff8216602482015267ffffffffffffffff198316604482015260009081906001600160a01b03861690630bf24542906064016040805180830381865afa158015610ccd573d6000803e3d6000fd5b505050506040513d601f19601f82011682018060405250810190610cf19190611de9565b91509150935093915050565b604051633d18084560e21b81526001600160a01b0386169063f460211490610d3890630ef6788760e01b908790899088908890600401611e32565b600060405180830381600087803b158015610d5257600080fd5b505af11580156102be573d6000803e3d6000fd5b604051633d18084560e21b81526001600160a01b0384169063f460211490610da290635a54cd2760e11b90600090879087908390600401611e32565b600060405180830381600087803b158015610dbc57600080fd5b505af1158015610dd0573d6000803e3d6000fd5b50505050505050565b6001600160a01b03841660009081526020818152604080832086845290915281208054849290610e0a908490611c9e565b909155505060408051848152602081018490526001600160a01b0386169160009133917fc3d58168c5ae7397731d063d5bbf3d657854427343f4c083240f7aacaa2d0f62910160405180910390a46001600160a01b0384163b15610ef25760405163f23a6e6160e01b808252906001600160a01b0386169063f23a6e6190610e9f903390600090899089908990600401611e78565b6020604051808303816000875af1158015610ebe573d6000803e3d6000fd5b505050506040513d601f19601f82011682018060405250810190610ee29190611da2565b6001600160e01b03191614610eff565b6001600160a01b03841615155b6106845760405162461bcd60e51b815260040161030890611dbf565b336001600160a01b0387161480610f5557506001600160a01b038616600090815260016020908152604080832033845290915290205460ff165b610f925760405162461bcd60e51b815260206004820152600e60248201526d1393d517d055551213d49256915160921b6044820152606401610308565b6001600160a01b03861660009081526020818152604080832087845290915281208054859290610fc3908490611c8b565b90915550506001600160a01b03851660009081526020818152604080832087845290915281208054859290610ff9908490611c9e565b909155505060408051858152602081018590526001600160a01b03808816929089169133917fc3d58168c5ae7397731d063d5bbf3d657854427343f4c083240f7aacaa2d0f62910160405180910390a46001600160a01b0385163b156110e45760405163f23a6e6160e01b808252906001600160a01b0387169063f23a6e61906110919033908b908a908a908a908a90600401611eb2565b6020604051808303816000875af11580156110b0573d6000803e3d6000fd5b505050506040513d601f19601f820116820180604052508101906110d49190611da2565b6001600160e01b031916146110f1565b6001600160a01b03851615155b6107105760405162461bcd60e51b815260040161030890611dbf565b6001600160a01b0383166000908152602081815260408083208584529091528120805483929061113e908490611c8b565b909155505060408051838152602081018390526000916001600160a01b0386169133917fc3d58168c5ae7397731d063d5bbf3d657854427343f4c083240f7aacaa2d0f62910160405180910390a4505050565b60035460609060009081906111af906001600160a01b03168561140a565b90925090506111cb8260025b602002015163ffffffff16611449565b6111d68360006111bb565b6111e18460016111bb565b8361120857604051806040016040528060048152602001637472756560e01b815250611227565b6040518060400160405280600581526020016466616c736560d81b8152505b6040516020016109409493929190611ef9565b6060815160000361125957505060408051602081019091526000815290565b60006040518060600160405280604081526020016120be60409139905060006003845160026112889190611c9e565b611292919061204c565b61129d90600461206e565b6001600160401b038111156112b4576112b46117d3565b6040519080825280601f01601f1916602001820160405280156112de576020820181803683370190505b509050600182016020820185865187015b8082101561134a576003820191508151603f8160121c168501518453600184019350603f81600c1c168501518453600184019350603f8160061c168501518453600184019350603f81168501518453506001830192506112ef565b5050600386510660018114611366576002811461137957611381565b603d6001830353603d6002830353611381565b603d60018303535b509195945050505050565b6040516001600160e01b0319831660208201526bffffffffffffffffffffffff19606083901b1660248201526000906038015b604051602081830303815290604052610c5d90612085565b6040516001600160e01b0319831660208201526bffffffffffffffffffffffff19821660248201526000906038016113bf565b61141261148d565b608082901c63ffffffff9081168252606083901c81166020830152604083811c82169083015260a083901c166001145b9250929050565b606060a06040510180604052602081039150506000815280825b600183039250600a81066030018353600a9004806114635750819003601f19909101908152919050565b60405180606001604052806003906020820280368337509192915050565b80356001600160a01b03811681146114c257600080fd5b919050565b600080604083850312156114da57600080fd5b6114e3836114ab565b946020939093013593505050565b6001600160e01b03198116811461150757600080fd5b50565b60006020828403121561151c57600080fd5b8135610c5d816114f1565b60006020828403121561153957600080fd5b5035919050565b60005b8381101561155b578181015183820152602001611543565b50506000910152565b6000815180845261157c816020860160208601611540565b601f01601f19169290920160200192915050565b602081526000610c5d6020830184611564565b60008083601f8401126115b557600080fd5b5081356001600160401b038111156115cc57600080fd5b6020830191508360208260051b850101111561144257600080fd5b60008083601f8401126115f957600080fd5b5081356001600160401b0381111561161057600080fd5b60208301915083602082850101111561144257600080fd5b60008060008060008060008060a0898b03121561164457600080fd5b61164d896114ab565b975061165b60208a016114ab565b965060408901356001600160401b038082111561167757600080fd5b6116838c838d016115a3565b909850965060608b013591508082111561169c57600080fd5b6116a88c838d016115a3565b909650945060808b01359150808211156116c157600080fd5b506116ce8b828c016115e7565b999c989b5096995094979396929594505050565b600080600080604085870312156116f857600080fd5b84356001600160401b038082111561170f57600080fd5b61171b888389016115a3565b9096509450602087013591508082111561173457600080fd5b50611741878288016115a3565b95989497509550505050565b6020808252825182820181905260009190848201906040850190845b8181101561178557835183529284019291840191600101611769565b50909695505050505050565b600080600080608085870312156117a757600080fd5b6117b0856114ab565b93506117be602086016114ab565b93969395505050506040820135916060013590565b634e487b7160e01b600052604160045260246000fd5b604051601f8201601f191681016001600160401b0381118282101715611811576118116117d3565b604052919050565b60006001600160401b03821115611832576118326117d3565b50601f01601f191660200190565b6000806000806080858703121561185657600080fd5b61185f856114ab565b9350602085013592506040850135915060608501356001600160401b0381111561188857600080fd5b8501601f8101871361189957600080fd5b80356118ac6118a782611819565b6117e9565b8181528860208385010111156118c157600080fd5b8160208401602083013760006020838301015280935050505092959194509250565b600080604083850312156118f657600080fd5b6118ff836114ab565b91506020830135801515811461191457600080fd5b809150509250929050565b6000806040838503121561193257600080fd5b61193b836114ab565b9150611949602084016114ab565b90509250929050565b60008060008060008060a0878903121561196b57600080fd5b611974876114ab565b9550611982602088016114ab565b9450604087013593506060870135925060808701356001600160401b038111156119ab57600080fd5b6119b789828a016115e7565b979a9699509497509295939492505050565b6000806000606084860312156119de57600080fd5b6119e7846114ab565b95602085013595506040909401359392505050565b634e487b7160e01b600052603260045260246000fd5b634e487b7160e01b600052601160045260246000fd5b600060018201611a3a57611a3a611a12565b5060010190565b600060208284031215611a5357600080fd5b610c5d826114ab565b6001600160401b03828116828216039080821115611a7c57611a7c611a12565b5092915050565b6001600160401b03818116838216019080821115611a7c57611a7c611a12565b600060208284031215611ab557600080fd5b81516001600160401b03811115611acb57600080fd5b8201601f81018413611adc57600080fd5b8051611aea6118a782611819565b818152856020838501011115611aff57600080fd5b611b10826020830160208601611540565b95945050505050565b60008151611b2b818560208601611540565b9290920192915050565b607b60f81b815268113730b6b2911d101160b91b60018201528351600090611b6481600a850160208901611540565b61088b60f21b600a918401918201527f226465736372697074696f6e223a2022446f776e73747265616d204974656d22600c820152600b60fa1b602c8201527f22696d616765223a202268747470733a2f2f6173736574732e646f776e737472602d8201526e65616d2e67616d652f69636f6e732f60881b604d8201528451611bf481605c840160208901611540565b650b9cdd99c88b60d21b9101605c8101919091526d01130ba3a3934b13aba32b9911d160951b6062820152611c3c611c2f6070830186611b19565b607d60f81b815260010190565b9695505050505050565b7f646174613a6170706c69636174696f6e2f6a736f6e3b6261736536342c000000815260008251611c7e81601d850160208701611540565b91909101601d0192915050565b8181038181111561024457610244611a12565b8082018082111561024457610244611a12565b81835260006001600160fb1b03831115611cca57600080fd5b8260051b80836020870137939093016020019392505050565b604081526000611cf7604083018688611cb1565b8281036020840152611d0a818587611cb1565b979650505050505050565b81835281816020850137506000828201602090810191909152601f909101601f19169091010190565b6001600160a01b0389811682528816602082015260a060408201819052600090611d6b908301888a611cb1565b8281036060840152611d7e818789611cb1565b90508281036080840152611d93818587611d15565b9b9a5050505050505050505050565b600060208284031215611db457600080fd5b8151610c5d816114f1565b60208082526010908201526f155394d0519157d49150d2541251539560821b604082015260600190565b60008060408385031215611dfc57600080fd5b825167ffffffffffffffff1981168114611e1557600080fd5b60208401519092506001600160401b038116811461191457600080fd5b6001600160e01b031995909516855260ff93909316602085015267ffffffffffffffff1991821660408501521660608301526001600160401b0316608082015260a00190565b6001600160a01b03868116825285166020820152604081018490526060810183905260a060808201819052600090611d0a90830184611564565b6001600160a01b03878116825286166020820152604081018590526060810184905260a060808201819052600090611eed9083018486611d15565b98975050505050505050565b605b60f81b81527f7b2274726169745f74797065223a2022526564222c202276616c7565223a2000600182015260008551611f3b816020850160208a01611540565b8083019050611f4b60f21b8060208301527f7b2274726169745f74797065223a2022477265656e222c202276616c7565223a6022830152600160fd1b60428301528651611f8f816043850160208b01611540565b60439201918201527f7b2274726169745f74797065223a2022426c7565222c202276616c7565223a2060458201528451611fd0816065840160208901611540565b611eed61203f61203161202b611ff3606586880101611f4b60f21b815260020190565b7f7b2274726169745f74797065223a2022457175697061626c65222c202276616c8152653ab2911d101160d11b602082015260260190565b88611b19565b61227d60f01b815260020190565b605d60f81b815260010190565b60008261206957634e487b7160e01b600052601260045260246000fd5b500490565b808202811582820484141761024457610244611a12565b8051602082015167ffffffffffffffff1980821692919060188310156120b55780818460180360031b1b83161693505b50505091905056fe4142434445464748494a4b4c4d4e4f505152535455565758595a6162636465666768696a6b6c6d6e6f707172737475767778797a303132333435363738392b2fa26469706673582212201178a5c90f56439600e17224858b25269f077399e6017306bc9e7fbed2dcd91f64736f6c63430008130033",
    "linkReferences": {
      "src/schema/Schema.sol": {
        "Schema": [
          {
            "start": 10352,
            "length": 20
          },
          {
            "start": 10530,
            "length": 20
          }
        ]
      }
    }
  },
  "methodIdentifiers": {
    "getTokensAddress()": "36298ff7",
    "reduce(address,bytes,(address,uint32,uint32))": "624a3ede"
  },
  "id": 169
}