{
  "abi": [
    {
      "inputs": [
        {
          "internalType": "contract Game",
          "name": "ds",
          "type": "address"
        },
        {
          "internalType": "bytes24",
          "name": "buildingInstanceID",
          "type": "bytes24"
        },
        {
          "internalType": "bytes24",
          "name": "mobileUnitID",
          "type": "bytes24"
        },
        {
          "internalType": "bytes",
          "name": "payload",
          "type": "bytes"
        }
      ],
      "name": "construct",
      "outputs": [],
      "stateMutability": "nonpayable",
      "type": "function"
    },
    {
      "inputs": [
        {
          "internalType": "bytes24",
          "name": "actor",
          "type": "bytes24"
        }
      ],
      "name": "hasCrafted",
      "outputs": [
        {
          "internalType": "bool",
          "name": "",
          "type": "bool"
        }
      ],
      "stateMutability": "view",
      "type": "function"
    },
    {
      "inputs": [],
      "name": "isGameActive",
      "outputs": [
        {
          "internalType": "bool",
          "name": "",
          "type": "bool"
        }
      ],
      "stateMutability": "view",
      "type": "function"
    },
    {
      "inputs": [],
      "name": "join",
      "outputs": [],
      "stateMutability": "nonpayable",
      "type": "function"
    },
    {
      "inputs": [
        {
          "internalType": "contract Game",
          "name": "ds",
          "type": "address"
        },
        {
          "internalType": "bytes24",
          "name": "buildingInstanceID",
          "type": "bytes24"
        },
        {
          "internalType": "bytes24",
          "name": "mobileUnitID",
          "type": "bytes24"
        }
      ],
      "name": "onUnitArrive",
      "outputs": [],
      "stateMutability": "nonpayable",
      "type": "function"
    },
    {
      "inputs": [
        {
          "internalType": "contract Game",
          "name": "ds",
          "type": "address"
        },
        {
          "internalType": "bytes24",
          "name": "buildingInstanceID",
          "type": "bytes24"
        },
        {
          "internalType": "bytes24",
          "name": "mobileUnitID",
          "type": "bytes24"
        }
      ],
      "name": "onUnitLeave",
      "outputs": [],
      "stateMutability": "nonpayable",
      "type": "function"
    },
    {
      "inputs": [],
      "name": "reset",
      "outputs": [],
      "stateMutability": "nonpayable",
      "type": "function"
    },
    {
      "inputs": [
        {
          "internalType": "bytes24",
          "name": "actor",
          "type": "bytes24"
        }
      ],
      "name": "setCrafted",
      "outputs": [],
      "stateMutability": "nonpayable",
      "type": "function"
    },
    {
      "inputs": [
        {
          "internalType": "bytes24",
          "name": "redBaseID",
          "type": "bytes24"
        },
        {
          "internalType": "bytes24",
          "name": "blueBaseID",
          "type": "bytes24"
        }
      ],
      "name": "start",
      "outputs": [],
      "stateMutability": "nonpayable",
      "type": "function"
    },
    {
      "inputs": [
        {
          "internalType": "contract Game",
          "name": "ds",
          "type": "address"
        },
        {
          "internalType": "bytes24",
          "name": "buildingInstance",
          "type": "bytes24"
        },
        {
          "internalType": "bytes24",
          "name": "actor",
          "type": "bytes24"
        },
        {
          "internalType": "bytes",
          "name": "payload",
          "type": "bytes"
        }
      ],
      "name": "use",
      "outputs": [],
      "stateMutability": "nonpayable",
      "type": "function"
    }
  ],
  "bytecode": {
    "object": "0x608060405234801561001057600080fd5b50611633806100206000396000f3fe608060405234801561001057600080fd5b506004361061009e5760003560e01c806391d83c571161006657806391d83c57146100be578063aaeb1c3114610152578063b688a363146100d1578063d826f88f146100d1578063f03ad92f1461016557600080fd5b80630c0ef2b0146100a357806324fd46e8146100be57806351d91aa3146100d357806367cace07146100e55780636b6594fb146100f8575b600080fd5b60035460ff165b604051901515815260200160405180910390f35b6100d16100cc36600461103c565b505050565b005b6100d16100e1366004611081565b5050565b6100d16100f33660046110b4565b610179565b6100d1610106366004611157565b600280546001810182556000919091527f405787fa12a823e0f2b7631cc41b3ba8828b3321ca811111fa75cd3aa3bb5ace0180546001600160c01b03191660409290921c919091179055565b6100aa610160366004611157565b610240565b6100d161017336600461118f565b50505050565b6000610184866102af565b905063b688a36360e01b6101988385611273565b6001600160e01b031916036101b7576101b286858761031b565b610238565b6351d91aa360e01b6101c98385611273565b6001600160e01b0319160361020d576000806101e884600481886112a3565b8101906101f59190611081565b915091506102068884898585610597565b5050610238565b63d826f88f60e01b61021f8385611273565b6001600160e01b03191603610238576102388686610919565b505050505050565b6000805b6002548110156102a657826001600160401b0319166002828154811061026c5761026c6112cd565b60009182526020909120015460401b67ffffffffffffffff1916036102945750600192915050565b8061029e816112f9565b915050610244565b50600092915050565b6000816001600160a01b0316631865c57d6040518163ffffffff1660e01b81526004016020604051808303816000875af11580156102f1573d6000803e3d6000fd5b505050506040513d601f19601f820116820180604052508101906103159190611312565b92915050565b60035460ff16156103855760405162461bcd60e51b815260206004820152602960248201527f43616e2774206a6f696e207768696c6520612067616d6520697320616c72656160448201526864792061637469766560b81b60648201526084015b60405180910390fd5b60005b60005481101561041a57826001600160401b031916600082815481106103b0576103b06112cd565b60009182526020909120015460401b67ffffffffffffffff1916036104085760405162461bcd60e51b815260206004820152600e60248201526d105b1c9958591e481a9bda5b995960921b604482015260640161037c565b80610412816112f9565b915050610388565b5060005b6001548110156104b057826001600160401b03191660018281548110610446576104466112cd565b60009182526020909120015460401b67ffffffffffffffff19160361049e5760405162461bcd60e51b815260206004820152600e60248201526d105b1c9958591e481a9bda5b995960921b604482015260640161037c565b806104a8816112f9565b91505061041e565b506001546000541161052857600080546001810182559080527f290decd9548b62a8d60345a988386fc84ba6bc95484008f6362f93160ef3e5630180546001600160c01b031916604084811c91909117909155805180820190915260038152621c995960ea1b60208201526100cc9084908484610c30565b6001805480820182556000919091527fb10e2d527612073b26eecdfd717e6a320cf44b4afac2b0732d9fcbe2b7fa0cf60180546001600160c01b031916604084811c9190911790915580518082019091526004815263626c756560e01b60208201526100cc9084908484610c30565b6000856001600160a01b031663ebb3d5896040518163ffffffff1660e01b81526004016020604051808303816000875af11580156105d9573d6000803e3d6000fd5b505050506040513d601f19601f820116820180604052508101906105fd9190611312565b90506000856001600160a01b03166324eae355866040518263ffffffff1660e01b815260040161062d919061132f565b602060405180830381865afa15801561064a573d6000803e3d6000fd5b505050506040513d601f19601f8201168201806040525081019061066e919061136c565b6040516324eae35560e01b81529091506000906001600160a01b038816906324eae355906106a0908990600401611385565b602060405180830381865afa1580156106bd573d6000803e3d6000fd5b505050506040513d601f19601f820116820180604052508101906106e1919061136c565b90508115806106ee575080155b156107575760405162461bcd60e51b815260206004820152603360248201527f43616e27742073746172742c20626f7468207465616d73206d75737420686176604482015272329030ba103632b0b9ba101890383630bcb2b960691b606482015260840161037c565b67ffffffffffffffff19808516908616036107b45760405162461bcd60e51b815260206004820152601760248201527f4261736573206d75737420626520646966666572656e74000000000000000000604482015260640161037c565b826001600160a01b031663ab7fff1887876001600160401b0319166040516024016107e09291906113c3565b60408051601f198184030181529181526020820180516001600160e01b031663370abb6b60e01b179052516001600160e01b031960e084901b1681526108299190600401611453565b600060405180830381600087803b15801561084357600080fd5b505af1158015610857573d6000803e3d6000fd5b50505050826001600160a01b031663ab7fff1887866001600160401b031916604051602401610887929190611466565b60408051601f198184030181529181526020820180516001600160e01b031663370abb6b60e01b179052516001600160e01b031960e084901b1681526108d09190600401611453565b600060405180830381600087803b1580156108ea57600080fd5b505af11580156108fe573d6000803e3d6000fd5b50506003805460ff1916600117905550505050505050505050565b6000826001600160a01b031663ebb3d5896040518163ffffffff1660e01b81526004016020604051808303816000875af115801561095b573d6000803e3d6000fd5b505050506040513d601f19601f8201168201806040525081019061097f9190611312565b6003805460ff191690559050610996600080610fcf565b6109a260016000610fcf565b806001600160a01b031663ab7fff18836000801b6040516024016109c79291906114a7565b60408051601f198184030181529181526020820180516001600160e01b031663370abb6b60e01b179052516001600160e01b031960e084901b168152610a109190600401611453565b600060405180830381600087803b158015610a2a57600080fd5b505af1158015610a3e573d6000803e3d6000fd5b50505050806001600160a01b031663ab7fff18836000801b604051602401610a679291906114f4565b60408051601f198184030181529181526020820180516001600160e01b031663370abb6b60e01b179052516001600160e01b031960e084901b168152610ab09190600401611453565b600060405180830381600087803b158015610aca57600080fd5b505af1158015610ade573d6000803e3d6000fd5b50505050806001600160a01b031663ab7fff18836000801b604051602401610b079291906113c3565b60408051601f198184030181529181526020820180516001600160e01b031663370abb6b60e01b179052516001600160e01b031960e084901b168152610b509190600401611453565b600060405180830381600087803b158015610b6a57600080fd5b505af1158015610b7e573d6000803e3d6000fd5b50505050806001600160a01b031663ab7fff18836000801b604051602401610ba7929190611466565b60408051601f198184030181529181526020820180516001600160e01b031663370abb6b60e01b179052516001600160e01b031960e084901b168152610bf09190600401611453565b600060405180830381600087803b158015610c0a57600080fd5b505af1158015610c1e573d6000803e3d6000fd5b50505050600260006100cc9190610fcf565b6000846001600160a01b031663ebb3d5896040518163ffffffff1660e01b81526004016020604051808303816000875af1158015610c72573d6000803e3d6000fd5b505050506040513d601f19601f82011682018060405250810190610c969190611312565b604051621c995960ea1b60208201529091506023016040516020818303038152906040528051906020012084604051602001610cd29190611531565b6040516020818303038152906040528051906020012003610d1f57610d1a8183604051806040016040528060078152602001667265645465616d60c81b815250600087610de0565b610dd9565b60405163626c756560e01b60208201526024016040516020818303038152906040528051906020012084604051602001610d599190611531565b6040516020818303038152906040528051906020012003610da257610d1a818360405180604001604052806008815260200167626c75655465616d60c01b815250600187610de0565b60405162461bcd60e51b815260206004820152600c60248201526b696e76616c6964207465616d60a01b604482015260640161037c565b5050505050565b846001600160a01b031663ab7fff188585604051602001610e01919061154d565b60408051601f19818403018152908290528654610e219392602401611577565b60408051601f198184030181529181526020820180516001600160e01b031663370abb6b60e01b179052516001600160e01b031960e084901b168152610e6a9190600401611453565b600060405180830381600087803b158015610e8457600080fd5b505af1158015610e98573d6000803e3d6000fd5b50505050600083610eb860018580549050610eb391906115aa565b610f8b565b604051602001610ec99291906115bd565b6040516020818303038152906040529050856001600160a01b031663ab7fff188683856001600160401b031916604051602401610f0893929190611577565b60408051601f198184030181529181526020820180516001600160e01b031663370abb6b60e01b179052516001600160e01b031960e084901b168152610f519190600401611453565b600060405180830381600087803b158015610f6b57600080fd5b505af1158015610f7f573d6000803e3d6000fd5b50505050505050505050565b606060a06040510180604052602081039150506000815280825b600183039250600a81066030018353600a900480610fa55750819003601f19909101908152919050565b5080546000825590600052602060002090810190610fed9190610ff0565b50565b5b808211156110055760008155600101610ff1565b5090565b6001600160a01b0381168114610fed57600080fd5b803567ffffffffffffffff198116811461103757600080fd5b919050565b60008060006060848603121561105157600080fd5b833561105c81611009565b925061106a6020850161101e565b91506110786040850161101e565b90509250925092565b6000806040838503121561109457600080fd5b61109d8361101e565b91506110ab6020840161101e565b90509250929050565b6000806000806000608086880312156110cc57600080fd5b85356110d781611009565b94506110e56020870161101e565b93506110f36040870161101e565b925060608601356001600160401b038082111561110f57600080fd5b818801915088601f83011261112357600080fd5b81358181111561113257600080fd5b89602082850101111561114457600080fd5b9699959850939650602001949392505050565b60006020828403121561116957600080fd5b6111728261101e565b9392505050565b634e487b7160e01b600052604160045260246000fd5b600080600080608085870312156111a557600080fd5b84356111b081611009565b93506111be6020860161101e565b92506111cc6040860161101e565b915060608501356001600160401b03808211156111e857600080fd5b818701915087601f8301126111fc57600080fd5b81358181111561120e5761120e611179565b604051601f8201601f19908116603f0116810190838211818310171561123657611236611179565b816040528281528a602084870101111561124f57600080fd5b82602086016020830137600060208483010152809550505050505092959194509250565b6001600160e01b0319813581811691600485101561129b5780818660040360031b1b83161692505b505092915050565b600080858511156112b357600080fd5b838611156112c057600080fd5b5050820193919092039150565b634e487b7160e01b600052603260045260246000fd5b634e487b7160e01b600052601160045260246000fd5b60006001820161130b5761130b6112e3565b5060010190565b60006020828403121561132457600080fd5b815161117281611009565b6001600160401b03198216815260406020820152600061117260408301600d81526c0e4cac8a8cac2da98cadccee8d609b1b602082015260400190565b60006020828403121561137e57600080fd5b5051919050565b6001600160401b03198216815260406020820152600061117260408301600e81526d0c4d8eacaa8cac2da98cadccee8d60931b602082015260400190565b67ffffffffffffffff19929092168252606060208301819052600d908301526c189d5a5b191a5b99d259149959609a1b6080830152604082015260a00190565b60005b8381101561141e578181015183820152602001611406565b50506000910152565b6000815180845261143f816020860160208601611403565b601f01601f19169290920160200192915050565b6020815260006111726020830184611427565b67ffffffffffffffff19929092168252606060208301819052600e908301526d6275696c64696e674964426c756560901b6080830152604082015260a00190565b6001600160401b0319831681526060602082015260006114e560608301600e81526d0c4d8eacaa8cac2da98cadccee8d60931b602082015260400190565b90508260408301529392505050565b6001600160401b0319831681526060602082015260006114e560608301600d81526c0e4cac8a8cac2da98cadccee8d609b1b602082015260400190565b60008251611543818460208701611403565b9190910192915050565b6000825161155f818460208701611403565b65098cadccee8d60d31b920191825250600601919050565b6001600160401b03198416815260606020820152600061159a6060830185611427565b9050826040830152949350505050565b81810381811115610315576103156112e3565b600083516115cf818460208801611403565b64556e69745f60d81b90830190815283516115f1816005840160208801611403565b0160050194935050505056fea264697066735822122036f70c57a00863b544cefe770a35f6555b96ea695096060563593138b1da052964736f6c63430008130033",
    "linkReferences": {}
  },
  "methodIdentifiers": {
    "construct(address,bytes24,bytes24,bytes)": "f03ad92f",
    "hasCrafted(bytes24)": "aaeb1c31",
    "isGameActive()": "0c0ef2b0",
    "join()": "b688a363",
    "onUnitArrive(address,bytes24,bytes24)": "91d83c57",
    "onUnitLeave(address,bytes24,bytes24)": "24fd46e8",
    "reset()": "d826f88f",
    "setCrafted(bytes24)": "6b6594fb",
    "start(bytes24,bytes24)": "51d91aa3",
    "use(address,bytes24,bytes24,bytes)": "67cace07"
  },
  "id": 102
}