{
  "abi": [
    {
      "inputs": [],
      "name": "claim",
      "outputs": [],
      "stateMutability": "nonpayable",
      "type": "function"
    },
    {
      "inputs": [
        {
          "internalType": "contract Game",
          "name": "ds",
          "type": "address"
        },
        {
          "internalType": "bytes24",
          "name": "buildingInstanceID",
          "type": "bytes24"
        },
        {
          "internalType": "bytes24",
          "name": "mobileUnitID",
          "type": "bytes24"
        },
        {
          "internalType": "bytes",
          "name": "payload",
          "type": "bytes"
        }
      ],
      "name": "construct",
      "outputs": [],
      "stateMutability": "nonpayable",
      "type": "function"
    },
    {
      "inputs": [
        {
          "internalType": "contract State",
          "name": "state",
          "type": "address"
        },
        {
          "internalType": "bytes24",
          "name": "buildingInstance",
          "type": "bytes24"
        }
      ],
      "name": "getBuildingCounts",
      "outputs": [
        {
          "internalType": "uint24",
          "name": "ducks",
          "type": "uint24"
        },
        {
          "internalType": "uint24",
          "name": "burgers",
          "type": "uint24"
        }
      ],
      "stateMutability": "view",
      "type": "function"
    },
    {
      "inputs": [],
      "name": "join",
      "outputs": [],
      "stateMutability": "nonpayable",
      "type": "function"
    },
    {
      "inputs": [
        {
          "internalType": "contract Game",
          "name": "ds",
          "type": "address"
        },
        {
          "internalType": "bytes24",
          "name": "buildingInstanceID",
          "type": "bytes24"
        },
        {
          "internalType": "bytes24",
          "name": "mobileUnitID",
          "type": "bytes24"
        }
      ],
      "name": "onUnitArrive",
      "outputs": [],
      "stateMutability": "nonpayable",
      "type": "function"
    },
    {
      "inputs": [
        {
          "internalType": "contract Game",
          "name": "ds",
          "type": "address"
        },
        {
          "internalType": "bytes24",
          "name": "buildingInstanceID",
          "type": "bytes24"
        },
        {
          "internalType": "bytes24",
          "name": "mobileUnitID",
          "type": "bytes24"
        }
      ],
      "name": "onUnitLeave",
      "outputs": [],
      "stateMutability": "nonpayable",
      "type": "function"
    },
    {
      "inputs": [],
      "name": "reset",
      "outputs": [],
      "stateMutability": "nonpayable",
      "type": "function"
    },
    {
      "inputs": [
        {
          "internalType": "bytes24",
          "name": "duckBuildingID",
          "type": "bytes24"
        },
        {
          "internalType": "bytes24",
          "name": "burgerBuildingID",
          "type": "bytes24"
        }
      ],
      "name": "start",
      "outputs": [],
      "stateMutability": "nonpayable",
      "type": "function"
    },
    {
      "inputs": [
        {
          "internalType": "contract Game",
          "name": "ds",
          "type": "address"
        },
        {
          "internalType": "bytes24",
          "name": "buildingInstance",
          "type": "bytes24"
        },
        {
          "internalType": "bytes24",
          "name": "actor",
          "type": "bytes24"
        },
        {
          "internalType": "bytes",
          "name": "payload",
          "type": "bytes"
        }
      ],
      "name": "use",
      "outputs": [],
      "stateMutability": "nonpayable",
      "type": "function"
    }
  ],
  "bytecode": {
    "object": "0x608060405234801561001057600080fd5b50613023806100206000396000f3fe608060405234801561001057600080fd5b50600436106100935760003560e01c806391d83c571161006657806391d83c5714610098578063b688a363146100ab578063d826f88f146100ab578063f03ad92f146100d2578063fabac6fa146100e657600080fd5b806324fd46e8146100985780634e71d92d146100ab57806351d91aa3146100ad57806367cace07146100bf575b600080fd5b6100ab6100a6366004612711565b505050565b005b6100ab6100bb36600461275c565b5050565b6100ab6100cd366004612795565b610119565b6100ab6100e0366004612852565b50505050565b6100f96100f436600461293a565b6102b0565b6040805162ffffff93841681529290911660208301520160405180910390f35b6000610124866106c9565b905063b688a36360e01b6101388385612958565b6001600160e01b031916036101585761015386828688610735565b610206565b6351d91aa360e01b61016a8385612958565b6001600160e01b031916036101ae576000806101898460048188612988565b810190610196919061275c565b915091506101a78884898585610bcc565b5050610206565b634e71d92d60e01b6101c08385612958565b6001600160e01b031916036101db5761015386828688610e84565b63d826f88f60e01b6101ed8385612958565b6001600160e01b03191603610206576102068686611312565b6102a8866001600160a01b031663ebb3d5896040518163ffffffff1660e01b81526004016020604051808303816000875af1158015610249573d6000803e3d6000fd5b505050506040513d601f19601f8201168201806040525081019061026d91906129b2565b86604051806040016040528060098152602001681c1c9a5e99541bdbdb60ba1b81525061029a858a611557565b6001600160401b031661165b565b505050505050565b604080516324eae35560e01b81526001600160401b031983166004820152602481019190915260126044820152716275696c64696e674b696e6449644475636b60701b6064820152600090819081906001600160a01b038616906324eae35590608401602060405180830381865afa158015610330573d6000803e3d6000fd5b505050506040513d601f19601f8201168201806040525081019061035491906129cf565b604080516324eae35560e01b81526001600160401b03198716600482015260248101919091526014604482015273313ab4b63234b733a5b4b73224b2213ab933b2b960611b60648201529091506000906001600160a01b038716906324eae35590608401602060405180830381865afa1580156103d5573d6000803e3d6000fd5b505050506040513d601f19601f820116820180604052508101906103f991906129cf565b90506000866001600160a01b03166324eae355876040518263ffffffff1660e01b815260040161042991906129e8565b602060405180830381865afa158015610446573d6000803e3d6000fd5b505050506040513d601f19601f8201168201806040525081019061046a91906129cf565b604080516324eae35560e01b81526001600160401b0319891660048201526024810191909152600a6044820152697374617274426c6f636b60b01b60648201529091506000906001600160a01b038916906324eae35590608401602060405180830381865afa1580156104e1573d6000803e3d6000fd5b505050506040513d601f19601f8201168201806040525081019061050591906129cf565b9050600061051c6001600160a01b038a16896116f6565b905060006105298261177a565b905060005b60638110156106bb5760006105ac61055b84846063811061055157610551612a1d565b602002015161189e565b5161057185856063811061055157610551612a1d565b6020015161058a86866063811061055157610551612a1d565b604001516105a387876063811061055157610551612a1d565b606001516118af565b90506001600160401b031988166105cc6001600160a01b038e16836118fb565b6001600160401b0319160361062d5760006105f06001600160a01b038e1683611937565b905085816001600160401b031610158015610614575086816001600160401b031611155b15610627578a61062381612a49565b9b50505b506106a8565b6001600160401b0319871661064b6001600160a01b038e16836118fb565b6001600160401b031916036106a857600061066f6001600160a01b038e1683611937565b905085816001600160401b031610158015610693575086816001600160401b031611155b156106a657896106a281612a49565b9a50505b505b50806106b381612a6b565b91505061052e565b505050505050509250929050565b6000816001600160a01b0316631865c57d6040518163ffffffff1660e01b81526004016020604051808303816000875af115801561070b573d6000803e3d6000fd5b505050506040513d601f19601f8201168201806040525081019061072f91906129b2565b92915050565b604080516324eae35560e01b81526001600160401b0319831660048201526024810191909152600a60448201526967616d6541637469766560b01b60648201526001600160a01b038416906324eae35590608401602060405180830381865afa1580156107a6573d6000803e3d6000fd5b505050506040513d601f19601f820116820180604052508101906107ca91906129cf565b60010361080c5760405162461bcd60e51b815260206004820152600b60248201526a47616d652061637469766560a81b60448201526064015b60405180910390fd5b604080516324eae35560e01b81526001600160401b031983166004820152602481019190915260156044820152746c6173744b6e6f776e5072697a6542616c616e636560581b60648201526000906001600160a01b038516906324eae35590608401602060405180830381865afa15801561088b573d6000803e3d6000fd5b505050506040513d601f19601f820116820180604052508101906108af91906129cf565b905060006108bd8584611954565b90506001600160401b0382166108d4600283612a84565b6001600160401b031610156109185760405162461bcd60e51b815260206004820152600a602482015269119959481d5b9c185a5960b21b6044820152606401610803565b6109bc866001600160a01b031663ebb3d5896040518163ffffffff1660e01b81526004016020604051808303816000875af115801561095b573d6000803e3d6000fd5b505050506040513d601f19601f8201168201806040525081019061097f91906129b2565b6040805180820190915260158152746c6173744b6e6f776e5072697a6542616c616e636560581b602082015285906001600160401b03851661165b565b6109e88584604051806040016040528060088152602001677465616d4475636b60c01b8152508761198d565b80610a1c5750610a1c85846040518060400160405280600a8152602001693a32b0b6a13ab933b2b960b11b8152508761198d565b15610a5a5760405162461bcd60e51b815260206004820152600e60248201526d105b1c9958591e481a9bda5b995960921b6044820152606401610803565b6040516324eae35560e01b81526000906001600160a01b038716906324eae35590610a89908790600401612aab565b602060405180830381865afa158015610aa6573d6000803e3d6000fd5b505050506040513d601f19601f82011682018060405250810190610aca91906129cf565b6040516324eae35560e01b81529091506000906001600160a01b038816906324eae35590610afc908890600401612ae6565b602060405180830381865afa158015610b19573d6000803e3d6000fd5b505050506040513d601f19601f82011682018060405250810190610b3d91906129cf565b9050610bc2886001600160401b038084169085161115610b7b5760405180604001604052806006815260200165313ab933b2b960d11b815250610b99565b604051806040016040528060048152602001636475636b60e01b8152505b836001600160401b0316856001600160401b03161115610bb95783610bbb565b845b8989611b29565b5050505050505050565b6040516324eae35560e01b81526000906001600160a01b038616906324eae35590610bfb908790600401612aab565b602060405180830381865afa158015610c18573d6000803e3d6000fd5b505050506040513d601f19601f82011682018060405250810190610c3c91906129cf565b6040516324eae35560e01b81529091506000906001600160a01b038716906324eae35590610c6e908890600401612ae6565b602060405180830381865afa158015610c8b573d6000803e3d6000fd5b505050506040513d601f19601f82011682018060405250810190610caf91906129cf565b9050811580610cbc575080155b15610cff5760405162461bcd60e51b81526020600482015260136024820152722a32b0b6b9903732b2b2101890383630bcb2b960691b6044820152606401610803565b6000876001600160a01b031663ebb3d5896040518163ffffffff1660e01b81526004016020604051808303816000875af1158015610d41573d6000803e3d6000fd5b505050506040513d601f19601f82011682018060405250810190610d6591906129b2565b9050610da78187604051806040016040528060128152602001716275696c64696e674b696e6449644475636b60701b815250886001600160401b03191661165b565b610de9818760405180604001604052806014815260200173313ab4b63234b733a5b4b73224b2213ab933b2b960611b815250876001600160401b03191661165b565b610e1a81876040518060400160405280600a8152602001697374617274426c6f636b60b01b8152504360001b61165b565b610e52818760405180604001604052806008815260200167656e64426c6f636b60c01b81525043605a610e4d9190612b23565b61165b565b610bc281876040518060400160405280600a81526020016967616d6541637469766560b01b815250600160001b61165b565b6040516324eae35560e01b81526001600160a01b038416906324eae35590610eb09084906004016129e8565b602060405180830381865afa158015610ecd573d6000803e3d6000fd5b505050506040513d601f19601f82011682018060405250810190610ef191906129cf565b431015610f2f5760405162461bcd60e51b815260206004820152600c60248201526b47616d652072756e6e696e6760a01b6044820152606401610803565b6000610f5d8483604051806040016040528060088152602001677465616d4475636b60c01b8152508661198d565b90506000610f8f85846040518060400160405280600a8152602001693a32b0b6a13ab933b2b960b11b8152508761198d565b90508180610f9a5750805b610fd45760405162461bcd60e51b815260206004820152600b60248201526a4e6f7420696e207465616d60a81b6044820152606401610803565b600080610fe187866102b0565b909250905062ffffff8083169082161484801561100757508162ffffff168362ffffff16105b80611023575083801561102357508262ffffff168262ffffff16105b156110635760405162461bcd60e51b815260206004820152601060248201526f4e6f742077696e6e696e67207465616d60801b6044820152606401610803565b6000896001600160a01b031663ebb3d5896040518163ffffffff1660e01b81526004016020604051808303816000875af11580156110a5573d6000803e3d6000fd5b505050506040513d601f19601f820116820180604052508101906110c991906129b2565b90506110eb8982898b866110e4576110df611c9f565b611cb1565b6002611cb1565b6111288188604051806040016040528060158152602001746c6173744b6e6f776e5072697a6542616c616e636560581b81525061029a8d8c611954565b8515611217576040516324eae35560e01b81526000906001600160a01b038b16906324eae3559061115d908b90600401612aab565b602060405180830381865afa15801561117a573d6000803e3d6000fd5b505050506040513d601f19601f8201168201806040525081019061119e91906129cf565b60001c905060006111d28b604051806040016040528060088152602001677465616d4475636b60c01b8152508c858d611dee565b90506112108c8c836001600160401b0316856001600160401b0316604051806040016040528060048152602001634475636b60e01b8152508e611f21565b5050611306565b8415611306576040516324eae35560e01b81526000906001600160a01b038b16906324eae3559061124c908b90600401612ae6565b602060405180830381865afa158015611269573d6000803e3d6000fd5b505050506040513d601f19601f8201168201806040525081019061128d91906129cf565b60001c905060006112c38b6040518060400160405280600a8152602001693a32b0b6a13ab933b2b960b11b8152508c858d611dee565b90506113038c8c836001600160401b0316856001600160401b031660405180604001604052806006815260200165213ab933b2b960d11b8152508e611f21565b50505b50505050505050505050565b6000826001600160a01b031663ebb3d5896040518163ffffffff1660e01b81526004016020604051808303816000875af1158015611354573d6000803e3d6000fd5b505050506040513d601f19601f8201168201806040525081019061137891906129b2565b90506113ab81836040518060400160405280600a8152602001697374617274426c6f636b60b01b8152504360001b61165b565b6113da818360405180604001604052806008815260200167656e64426c6f636b60c01b8152504360001b61165b565b61140b81836040518060400160405280600a81526020016967616d6541637469766560b01b8152506000801b61165b565b61144281836040518060400160405280601081526020016f0e8cac2da84eae4cecae498cadccee8d60831b8152506000801b61165b565b61147781836040518060400160405280600e81526020016d0e8cac2da88eac6d698cadccee8d60931b8152506000801b61165b565b6114b38183604051806040016040528060158152602001746c6173744b6e6f776e5072697a6542616c616e636560581b8152506000801b61165b565b6114e38183604051806040016040528060098152602001681c1c9a5e99541bdbdb60ba1b8152506000801b61165b565b61151c8183604051806040016040528060128152602001716275696c64696e674b696e6449644475636b60701b8152506000801b61165b565b6100a6818360405180604001604052806014815260200173313ab4b63234b733a5b4b73224b2213ab933b2b960611b8152506000801b61165b565b600080836001600160a01b03166324eae355846040518263ffffffff1660e01b81526004016115869190612aab565b602060405180830381865afa1580156115a3573d6000803e3d6000fd5b505050506040513d601f19601f820116820180604052508101906115c791906129cf565b6040516324eae35560e01b81529091506000906001600160a01b038616906324eae355906115f9908790600401612ae6565b602060405180830381865afa158015611616573d6000803e3d6000fd5b505050506040513d601f19601f8201168201806040525081019061163a91906129cf565b905060026116488284612b36565b6116529190612b56565b95945050505050565b836001600160a01b031663ab7fff1884848460405160240161167f93929190612bc9565b60408051601f198184030181529181526020820180516001600160e01b031663370abb6b60e01b179052516001600160e01b031960e084901b1681526116c89190600401612bfc565b600060405180830381600087803b1580156116e257600080fd5b505af1158015610bc2573d6000803e3d6000fd5b6000806001600160a01b038416630bf2454263ec0be13d60e01b6002866040518463ffffffff1660e01b815260040161173193929190612c0f565b6040805180830381865afa15801561174d573d6000803e3d6000fd5b505050506040513d601f19601f820116820180604052508101906117719190612c3e565b50949350505050565b6117826126a6565b6005600061178f8461189e565b90506000808383600160200201516117a79190612c79565b90505b60208301516117ba908590612c9c565b60010b8160010b136118955760408301516000906117d9908690612c79565b90505b60408401516117ec908690612c9c565b60010b8160010b136118825760008161180484612cbf565b61180e9190612c79565b8551909150600090611822908585856120c3565b90508661ffff166118338a8361215c565b1161186d578088866063811061184b5761184b612a1d565b6001600160401b031990921660209290920201528461186981612a6b565b9550505b5050808061187a90612ce0565b9150506117dc565b508061188d81612ce0565b9150506117aa565b50505050919050565b6118a66126c5565b61072f826121ea565b60408051608081018252600186810b825285810b602083015284810b928201929092529082900b60608201526000906118f090631a67c53f60e11b9061222a565b90505b949350505050565b6040516305f922a160e11b815260009081906001600160a01b03851690630bf24542906117319063eb70afe760e01b9085908890600401612c0f565b600061194d6001600160a01b0384168383612296565b9392505050565b60008061196b6001600160a01b0385168483612310565b905060006119836001600160a01b0386168383612396565b9695505050505050565b600080856001600160a01b03166324eae35586866040516020016119b19190612d00565b6040516020818303038152906040526040518363ffffffff1660e01b81526004016119dd929190612d2a565b602060405180830381865afa1580156119fa573d6000803e3d6000fd5b505050506040513d601f19601f82011682018060405250810190611a1e91906129cf565b905060005b816001600160401b0316816001600160401b03161015611b1c57600085611a52836001600160401b031661241e565b604051602001611a63929190612d4d565b60408051601f19818403018152908290526324eae35560e01b825291506001600160401b03198616906001600160a01b038a16906324eae35590611aad908b908690600401612d2a565b602060405180830381865afa158015611aca573d6000803e3d6000fd5b505050506040513d601f19601f82011682018060405250810190611aee91906129cf565b6001600160401b03191603611b0957600193505050506118f3565b5080611b1481612d8d565b915050611a23565b5060009695505050505050565b6000856001600160a01b031663ebb3d5896040518163ffffffff1660e01b81526004016020604051808303816000875af1158015611b6b573d6000803e3d6000fd5b505050506040513d601f19601f82011682018060405250810190611b8f91906129b2565b604051636475636b60e01b60208201529091506024016040516020818303038152906040528051906020012085604051602001611bcc9190612da9565b6040516020818303038152906040528051906020012003611c1957611c148183604051806040016040528060088152602001677465616d4475636b60c01b8152508787612462565b6102a8565b60405165313ab933b2b960d11b60208201526026016040516020818303038152906040528051906020012085604051602001611c559190612da9565b60405160208183030381529060405280519060200120036102a8576102a881836040518060400160405280600a8152602001693a32b0b6a13ab933b2b960b11b8152508787612462565b6000611cac600280612b56565b905090565b6000611cc76001600160a01b0387168583612310565b90506000611cdf6001600160a01b0388168383612396565b509050600080611cf1898785886124e9565b6040805180820182526001600160401b0319808c1682528a1660208083019190915282518084018452600080825260ff80881683850152855180870187528281529087169381019390935293519597509395506001600160a01b038d169463ab7fff1894611d68948e949391928d90602401612deb565b60408051601f198184030181529181526020820180516001600160e01b031663464565b360e01b179052516001600160e01b031960e084901b168152611db19190600401612bfc565b600060405180830381600087803b158015611dcb57600080fd5b505af1158015611ddf573d6000803e3d6000fd5b50505050505050505050505050565b6000805b836001600160401b0316816001600160401b03161015611ee757600086611e21836001600160401b031661241e565b604051602001611e32929190612d4d565b60408051601f19818403018152908290526324eae35560e01b825291506001600160401b03198716906001600160a01b038a16906324eae35590611e7c9088908690600401612d2a565b602060405180830381865afa158015611e99573d6000803e3d6000fd5b505050506040513d601f19601f82011682018060405250810190611ebd91906129cf565b6001600160401b03191603611ed457509050611652565b5080611edf81612d8d565b915050611df2565b5060405162461bcd60e51b815260206004820152600e60248201526d155b9a5d081b9bdd08199bdd5b9960921b6044820152606401610803565b6000866001600160a01b031663ebb3d5896040518163ffffffff1660e01b81526004016020604051808303816000875af1158015611f63573d6000803e3d6000fd5b505050506040513d601f19601f82011682018060405250810190611f8791906129b2565b9050600083611f958761241e565b604051602001611fa6929190612e69565b60408051601f198184030181529190529050611fc5828483600061165b565b600185111561209257600084611fe4611fdf600189612eb9565b61241e565b604051602001611ff5929190612e69565b60408051601f19818403018152908290526324eae35560e01b825291506000906001600160a01b038a16906324eae355906120369088908690600401612d2a565b602060405180830381865afa158015612053573d6000803e3d6000fd5b505050506040513d601f19601f8201168201806040525081019061207791906129cf565b905061208f8486856001600160401b0319851661165b565b50505b610bc28284866040516020016120a89190612ecc565b60408051601f19818403018152919052610e4d60018a612eb9565b6000816120d08486612c9c565b6120da9190612c9c565b60010b1561211e5760405162461bcd60e51b8152602060048201526011602482015270496e76616c696454696c65436f6f72647360781b6044820152606401610803565b60408051608081018252600187810b825286810b602083015285810b928201929092529083900b60608201526118f0906339698bff60e21b9061222a565b600080612168846121ea565b90506000612175846121ea565b905060026121a2826003602002015160010b8460035b602002015160010b61219d9190612f08565b61268a565b60408301516121b69060010b85600261218b565b60208401516121cc90600190810b90879061218b565b6121d69190612f28565b6121e09190612f28565b6116529190612f48565b6121f26126c5565b607082901c600190810b8252606083811c820b6020840152605084901c820b6040808501919091529390931c900b9181019190915290565b8051602080830151604080850151606086015191516001600160e01b031988169481019490945260006024850181905260f095861b603086015292851b6032850152841b603484015290921b603682015260380160405160208183030381529060405261194d90612f84565b6040516305f922a160e11b81526000906001600160a01b03851690630bf24542906122d090633be0527f60e21b9086908890600401612c0f565b6040805180830381865afa1580156122ec573d6000803e3d6000fd5b505050506040513d601f19601f820116820180604052508101906116529190612c3e565b6040516305f922a160e11b815260009081906001600160a01b03861690630bf245429061234c90633d604d0560e21b9087908990600401612c0f565b6040805180830381865afa158015612368573d6000803e3d6000fd5b505050506040513d601f19601f8201168201806040525081019061238c9190612c3e565b5095945050505050565b6040516305f922a160e11b815260009081906001600160a01b03861690630bf24542906123d290630ef6788760e01b9087908990600401612c0f565b6040805180830381865afa1580156123ee573d6000803e3d6000fd5b505050506040513d601f19601f820116820180604052508101906124129190612c3e565b91509150935093915050565b606060a06040510180604052602081039150506000815280825b600183039250600a81066030018353600a9004806124385750819003601f19909101908152919050565b600083612477846001600160401b031661241e565b604051602001612488929190612d4d565b60405160208183030381529060405290506124af868683856001600160401b03191661165b565b6102a88686866040516020016124c59190612d00565b60408051601f19818403018152919052610e4d6001600160401b0388166001612b23565b6000805b60028260ff16101561262d57600061250f6001600160a01b0388168785612310565b90506001600160e01b0319811663b1c93f0960e01b146125895760405162461bcd60e51b815260206004820152602f60248201527f66696e6456616c69644974656d536c6f7428293a204e6f2062616720666f756e60448201526e1908185d08195c5d5a5c081cdb1bdd608a1b6064820152608401610803565b600091505b60048260ff16101561261a576000806125b16001600160a01b038a168486612396565b90925090506001600160401b0319821615806125d957506001600160401b0319828116908816145b80156125f8575060646125ec8783612b36565b6001600160401b031611155b1561260557505050612681565b5050818061261290612fbb565b92505061258e565b508161262581612fbb565b9250506124ed565b60405162461bcd60e51b815260206004820152602360248201527f4e6f2076616c696420736c6f7420666f72207072697a6520636c61696d20666f6044820152621d5b9960ea1b6064820152608401610803565b94509492505050565b6000808212156126a25761269d82612fd1565b61072f565b5090565b60405180610c6001604052806063906020820280368337509192915050565b60405180608001604052806004906020820280368337509192915050565b6001600160a01b03811681146126f857600080fd5b50565b6001600160401b0319811681146126f857600080fd5b60008060006060848603121561272657600080fd5b8335612731816126e3565b92506020840135612741816126fb565b91506040840135612751816126fb565b809150509250925092565b6000806040838503121561276f57600080fd5b823561277a816126fb565b9150602083013561278a816126fb565b809150509250929050565b6000806000806000608086880312156127ad57600080fd5b85356127b8816126e3565b945060208601356127c8816126fb565b935060408601356127d8816126fb565b925060608601356001600160401b03808211156127f457600080fd5b818801915088601f83011261280857600080fd5b81358181111561281757600080fd5b89602082850101111561282957600080fd5b9699959850939650602001949392505050565b634e487b7160e01b600052604160045260246000fd5b6000806000806080858703121561286857600080fd5b8435612873816126e3565b93506020850135612883816126fb565b92506040850135612893816126fb565b915060608501356001600160401b03808211156128af57600080fd5b818701915087601f8301126128c357600080fd5b8135818111156128d5576128d561283c565b604051601f8201601f19908116603f011681019083821181831017156128fd576128fd61283c565b816040528281528a602084870101111561291657600080fd5b82602086016020830137600060208483010152809550505050505092959194509250565b6000806040838503121561294d57600080fd5b823561277a816126e3565b6001600160e01b031981358181169160048510156129805780818660040360031b1b83161692505b505092915050565b6000808585111561299857600080fd5b838611156129a557600080fd5b5050820193919092039150565b6000602082840312156129c457600080fd5b815161194d816126e3565b6000602082840312156129e157600080fd5b5051919050565b6001600160401b031991909116815260406020820181905260089082015267656e64426c6f636b60c01b606082015260800190565b634e487b7160e01b600052603260045260246000fd5b634e487b7160e01b600052601160045260246000fd5b600062ffffff808316818103612a6157612a61612a33565b6001019392505050565b600060018201612a7d57612a7d612a33565b5060010190565b6001600160401b03828116828216039080821115612aa457612aa4612a33565b5092915050565b6001600160401b0319919091168152604060208201819052600e908201526d0e8cac2da88eac6d698cadccee8d60931b606082015260800190565b6001600160401b03199190911681526040602082018190526010908201526f0e8cac2da84eae4cecae498cadccee8d60831b606082015260800190565b8082018082111561072f5761072f612a33565b6001600160401b03818116838216019080821115612aa457612aa4612a33565b6001600160401b0381811683821602808216919082811461298057612980612a33565b60005b83811015612b94578181015183820152602001612b7c565b50506000910152565b60008151808452612bb5816020860160208601612b79565b601f01601f19169290920160200192915050565b6001600160401b031984168152606060208201526000612bec6060830185612b9d565b9050826040830152949350505050565b60208152600061194d6020830184612b9d565b6001600160e01b031993909316835260ff9190911660208301526001600160401b031916604082015260600190565b60008060408385031215612c5157600080fd5b8251612c5c816126fb565b60208401519092506001600160401b038116811461278a57600080fd5b600182810b9082900b03617fff198112617fff8213171561072f5761072f612a33565b600181810b9083900b01617fff8113617fff198212171561072f5761072f612a33565b60008160010b617fff198103612cd757612cd7612a33565b60000392915050565b60008160010b617fff8103612cf757612cf7612a33565b60010192915050565b60008251612d12818460208701612b79565b65098cadccee8d60d31b920191825250600601919050565b6001600160401b0319831681526040602082015260006118f36040830184612b9d565b60008351612d5f818460208801612b79565b64556e69745f60d81b9083019081528351612d81816005840160208801612b79565b01600501949350505050565b60006001600160401b03808316818103612a6157612a61612a33565b60008251612dbb818460208701612b79565b9190910192915050565b8060005b60028110156100e057815160ff16845260209384019390910190600101612dc9565b6001600160401b0319878116825261012082019060208084018960005b6002811015612e27578151851683529183019190830190600101612e08565b50505050612e386060840188612dc5565b612e4560a0840187612dc5565b80851660e0840152506001600160401b038316610100830152979650505050505050565b637465616d60e01b815260008351612e88816004850160208801612b79565b64556e69745f60d81b6004918401918201528351612ead816009840160208801612b79565b01600901949350505050565b8181038181111561072f5761072f612a33565b637465616d60e01b815260008251612eeb816004850160208701612b79565b65098cadccee8d60d31b6004939091019283015250600a01919050565b8181036000831280158383131683831282161715612aa457612aa4612a33565b808201828112600083128015821682158216171561298057612980612a33565b600082612f6557634e487b7160e01b600052601260045260246000fd5b600160ff1b821460001984141615612f7f57612f7f612a33565b500590565b805160208201516001600160401b03198082169291906018831015612fb35780818460180360031b1b83161693505b505050919050565b600060ff821660ff8103612cf757612cf7612a33565b6000600160ff1b8201612fe657612fe6612a33565b506000039056fea26469706673582212203108f22414a96eb237662322b043464287a92abcec669e5eae8ced4f6634c49764736f6c63430008130033",
    "linkReferences": {}
  },
  "methodIdentifiers": {
    "claim()": "4e71d92d",
    "construct(address,bytes24,bytes24,bytes)": "f03ad92f",
    "getBuildingCounts(address,bytes24)": "fabac6fa",
    "join()": "b688a363",
    "onUnitArrive(address,bytes24,bytes24)": "91d83c57",
    "onUnitLeave(address,bytes24,bytes24)": "24fd46e8",
    "reset()": "d826f88f",
    "start(bytes24,bytes24)": "51d91aa3",
    "use(address,bytes24,bytes24,bytes)": "67cace07"
  },
  "id": 43
}