{
  "abi": [
    {
      "anonymous": false,
      "inputs": [
        {
          "indexed": false,
          "internalType": "bytes",
          "name": "sig",
          "type": "bytes"
        }
      ],
      "name": "SeenOpSet",
      "type": "event"
    },
    {
      "anonymous": false,
      "inputs": [
        {
          "indexed": false,
          "internalType": "address",
          "name": "session",
          "type": "address"
        },
        {
          "indexed": false,
          "internalType": "address",
          "name": "owner",
          "type": "address"
        },
        {
          "indexed": false,
          "internalType": "uint32",
          "name": "exp",
          "type": "uint32"
        },
        {
          "indexed": false,
          "internalType": "uint32",
          "name": "scopes",
          "type": "uint32"
        }
      ],
      "name": "SessionCreate",
      "type": "event"
    },
    {
      "anonymous": false,
      "inputs": [
        {
          "indexed": false,
          "internalType": "address",
          "name": "session",
          "type": "address"
        }
      ],
      "name": "SessionDestroy",
      "type": "event"
    },
    {
      "inputs": [
        {
          "internalType": "contract Dispatcher",
          "name": "dispatcher",
          "type": "address"
        },
        {
          "internalType": "uint32",
          "name": "ttl",
          "type": "uint32"
        },
        {
          "internalType": "uint32",
          "name": "scopes",
          "type": "uint32"
        },
        {
          "internalType": "address",
          "name": "sessionAddr",
          "type": "address"
        }
      ],
      "name": "authorizeAddr",
      "outputs": [],
      "stateMutability": "nonpayable",
      "type": "function"
    },
    {
      "inputs": [
        {
          "internalType": "contract Dispatcher",
          "name": "dispatcher",
          "type": "address"
        },
        {
          "internalType": "uint32",
          "name": "ttl",
          "type": "uint32"
        },
        {
          "internalType": "uint32",
          "name": "scopes",
          "type": "uint32"
        },
        {
          "internalType": "address",
          "name": "sessionAddr",
          "type": "address"
        },
        {
          "internalType": "bytes",
          "name": "sig",
          "type": "bytes"
        }
      ],
      "name": "authorizeAddr",
      "outputs": [],
      "stateMutability": "nonpayable",
      "type": "function"
    },
    {
      "inputs": [
        {
          "internalType": "bytes[]",
          "name": "actions",
          "type": "bytes[]"
        },
        {
          "internalType": "bytes",
          "name": "sig",
          "type": "bytes"
        },
        {
          "internalType": "uint256",
          "name": "nonce",
          "type": "uint256"
        }
      ],
      "name": "dispatch",
      "outputs": [],
      "stateMutability": "nonpayable",
      "type": "function"
    },
    {
      "inputs": [
        {
          "internalType": "bytes[]",
          "name": "actions",
          "type": "bytes[]"
        },
        {
          "internalType": "bytes",
          "name": "sig",
          "type": "bytes"
        },
        {
          "internalType": "uint256",
          "name": "nonce",
          "type": "uint256"
        }
      ],
      "name": "dispatchWithOpsRecorder",
      "outputs": [
        {
          "components": [
            {
              "internalType": "enum OpKind",
              "name": "kind",
              "type": "uint8"
            },
            {
              "internalType": "bytes4",
              "name": "relID",
              "type": "bytes4"
            },
            {
              "internalType": "uint8",
              "name": "relKey",
              "type": "uint8"
            },
            {
              "internalType": "bytes24",
              "name": "srcNodeID",
              "type": "bytes24"
            },
            {
              "internalType": "bytes24",
              "name": "dstNodeID",
              "type": "bytes24"
            },
            {
              "internalType": "uint160",
              "name": "weight",
              "type": "uint160"
            },
            {
              "internalType": "string",
              "name": "annName",
              "type": "string"
            },
            {
              "internalType": "string",
              "name": "annData",
              "type": "string"
            },
            {
              "internalType": "bytes32",
              "name": "nodeData",
              "type": "bytes32"
            }
          ],
          "internalType": "struct Op[]",
          "name": "",
          "type": "tuple[]"
        }
      ],
      "stateMutability": "nonpayable",
      "type": "function"
    },
    {
      "inputs": [
        {
          "internalType": "address",
          "name": "addr",
          "type": "address"
        },
        {
          "internalType": "bytes",
          "name": "sig",
          "type": "bytes"
        }
      ],
      "name": "revokeAddr",
      "outputs": [],
      "stateMutability": "nonpayable",
      "type": "function"
    },
    {
      "inputs": [
        {
          "internalType": "address",
          "name": "addr",
          "type": "address"
        }
      ],
      "name": "revokeAddr",
      "outputs": [],
      "stateMutability": "nonpayable",
      "type": "function"
    },
    {
      "inputs": [
        {
          "internalType": "address",
          "name": "",
          "type": "address"
        }
      ],
      "name": "sessions",
      "outputs": [
        {
          "internalType": "contract Dispatcher",
          "name": "dispatcher",
          "type": "address"
        },
        {
          "internalType": "address",
          "name": "owner",
          "type": "address"
        },
        {
          "internalType": "uint32",
          "name": "exp",
          "type": "uint32"
        },
        {
          "internalType": "uint32",
          "name": "scopes",
          "type": "uint32"
        }
      ],
      "stateMutability": "view",
      "type": "function"
    }
  ],
  "bytecode": {
    "object": "0x608060405234801561001057600080fd5b506119e5806100206000396000f3fe608060405234801561001057600080fd5b506004361061007d5760003560e01c8063431a1b971161005b578063431a1b97146100bd5780636fdc0e1014610146578063ab59f1d014610159578063bb68f5e71461017957600080fd5b806302dd3ed4146100825780633f43ebca14610097578063401870d9146100aa575b600080fd5b610095610090366004610f2c565b61018c565b005b6100956100a5366004610fcd565b61019f565b6100956100b8366004611022565b6103ae565b61010a6100cb3660046110ac565b600060208190529081526040902080546001909101546001600160a01b039182169181169063ffffffff600160a01b8204811691600160c01b90041684565b604080516001600160a01b03958616815294909316602085015263ffffffff918216928401929092521660608201526080015b60405180910390f35b6100956101543660046110c9565b610510565b61016c6101673660046110c9565b6107b7565b60405161013d91906111dd565b6100956101873660046110ac565b610a7e565b6101998484848433610b2a565b50505050565b600060016040518060400160405280601a81526020017f19457468657265756d205369676e6564204d6573736167653a0a0000000000008152506102246040518060400160405280602081526020017f596f7520617265207369676e696e67206f7574206f662073657373696f6e3a2081525051601461021f91906112f6565b610c50565b60408051808201825260208082527f596f7520617265207369676e696e67206f7574206f662073657373696f6e3a208183015291516102679493928a9101611309565b60405160208183030381529060405280519060200120848460409060419261029193929190611368565b61029a91611392565b60f81c6102ab602060008789611368565b6102b4916113c2565b6102c260406020888a611368565b6102cb916113c2565b6040805160008152602081018083529590955260ff909316928401929092526060830152608082015260a0016020604051602081039080840390855afa158015610319573d6000803e3d6000fd5b505060408051601f1901516001600160a01b038088166000908152602081905292909220600181015491945092508116908316146103725760405162461bcd60e51b8152600401610369906113e0565b60405180910390fd5b505050506001600160a01b0316600090815260208190526040902080546001600160a01b031916815560010180546001600160e01b0319169055565b60006103bb868686610c94565b9050600060016040518060400160405280601a81526020017f19457468657265756d205369676e6564204d6573736167653a0a0000000000008152506104018451610c50565b846040516020016104149392919061140d565b60405160208183030381529060405280519060200120858560409060419261043e93929190611368565b61044791611392565b60f81c61045860206000888a611368565b610461916113c2565b61046f60406020898b611368565b610478916113c2565b6040805160008152602081018083529590955260ff909316928401929092526060830152608082015260a0016020604051602081039080840390855afa1580156104c6573d6000803e3d6000fd5b5050604051601f1901519150506001600160a01b0381166104f95760405162461bcd60e51b8152600401610369906113e0565b6105068888888885610b2a565b5050505050505050565b600082810361052e5750336000908152602081905260409020610666565b600060018787856040516020016105479392919061150b565b60408051601f198184030181529082905280516020918201207f19457468657265756d205369676e6564204d6573736167653a0a33320000000091830191909152603c820152605c016040516020818303038152906040528051906020012086866040906041926105ba93929190611368565b6105c391611392565b60f81c6105d460206000898b611368565b6105dd916113c2565b6105eb604060208a8c611368565b6105f4916113c2565b6040805160008152602081018083529590955260ff909316928401929092526060830152608082015260a0016020604051602081039080840390855afa158015610642573d6000803e3d6000fd5b505060408051601f1901516001600160a01b03166000908152602081905220925050505b60018101546001600160a01b03166106905760405162461bcd60e51b8152600401610369906113e0565b6001810154600160a01b900463ffffffff164311156106e25760405162461bcd60e51b815260206004820152600e60248201526d14d95cdcda5bdb915e1c1a5c995960921b6044820152606401610369565b6040805160608101825260018301546001600160a01b038082168352600160c01b90910463ffffffff908116602084015243168284015283549251639340293960e01b815291921690639340293990610743908a908a90869060040161152f565b600060405180830381600087803b15801561075d57600080fd5b505af1158015610771573d6000803e3d6000fd5b505050507fc7aa84a2bda9a04dfe50cbdf91bc9f9d2ad0e794a2dd16e7b575887109f77ca085856040516107a692919061157c565b60405180910390a150505050505050565b606060008381036107d7575033600090815260208190526040902061090f565b600060018888866040516020016107f09392919061150b565b60408051601f198184030181529082905280516020918201207f19457468657265756d205369676e6564204d6573736167653a0a33320000000091830191909152603c820152605c0160405160208183030381529060405280519060200120878760409060419261086393929190611368565b61086c91611392565b60f81c61087d602060008a8c611368565b610886916113c2565b610894604060208b8d611368565b61089d916113c2565b6040805160008152602081018083529590955260ff909316928401929092526060830152608082015260a0016020604051602081039080840390855afa1580156108eb573d6000803e3d6000fd5b505060408051601f1901516001600160a01b03166000908152602081905220925050505b60018101546001600160a01b03166109395760405162461bcd60e51b8152600401610369906113e0565b6001810154600160a01b900463ffffffff1643111561098b5760405162461bcd60e51b815260206004820152600e60248201526d14d95cdcda5bdb915e1c1a5c995960921b6044820152606401610369565b6040805160608101825260018301546001600160a01b038082168352600160c01b90910463ffffffff9081166020840152431682840152835492516305395f2d60e21b815291926000929116906314e57cb4906109f0908c908c90879060040161152f565b6000604051808303816000875af1158015610a0f573d6000803e3d6000fd5b505050506040513d6000823e601f3d908101601f19168201604052610a3791908101906116c9565b90507fc7aa84a2bda9a04dfe50cbdf91bc9f9d2ad0e794a2dd16e7b575887109f77ca08787604051610a6a92919061157c565b60405180910390a198975050505050505050565b6001600160a01b03808216600090815260208190526040902060018101549091163314610abd5760405162461bcd60e51b8152600401610369906113e0565b6001600160a01b0382166000818152602081815260409182902080546001600160a01b031916815560010180546001600160e01b031916905590519182527fd2dd19770a4e71b8a94a6f9865e6028f2b4d94ae88504113827e9f4979980a0f910160405180910390a15050565b6000610b3585610ce0565b604080516080810182526001600160a01b03808a168252858116602080840191825263ffffffff8087168587019081528b8216606087019081528b861660009081529384905292879020955186549086166001600160a01b0319909116178655925160019095018054935192518216600160c01b0263ffffffff60c01b1993909216600160a01b026001600160c01b031990941695909416949094179190911716919091179055519091507f703437513e11491a538cde074889536a9cb295a07dc2d8de3ec316435737e4c590610c409085908590859089906001600160a01b03948516815292909316602083015263ffffffff908116604083015291909116606082015260800190565b60405180910390a1505050505050565b606060a06040510180604052602081039150506000815280825b600183039250600a81066030018353600a900480610c6a5750819003601f19909101908152919050565b6060610ca58463ffffffff16610c50565b610cb7836001600160a01b0316610d47565b604051602001610cc8929190611856565b60405160208183030381529060405290509392505050565b6000619c4063ffffffff83161115610d315760405162461bcd60e51b815260206004820152601460248201527353657373696f6e457870697279546f6f4c6f6e6760601b6044820152606401610369565b610d4163ffffffff8316436112f6565b92915050565b6060610d416001600160a01b038316601460606000610d6783600261196b565b610d729060026112f6565b67ffffffffffffffff811115610d8a57610d8a611598565b6040519080825280601f01601f191660200182016040528015610db4576020820181803683370190505b509050600360fc1b81600081518110610dcf57610dcf611982565b60200101906001600160f81b031916908160001a905350600f60fb1b81600181518110610dfe57610dfe611982565b60200101906001600160f81b031916908160001a9053506000610e2284600261196b565b610e2d9060016112f6565b90505b6001811115610ea5576f181899199a1a9b1b9c1cb0b131b232b360811b85600f1660108110610e6157610e61611982565b1a60f81b828281518110610e7757610e77611982565b60200101906001600160f81b031916908160001a90535060049490941c93610e9e81611998565b9050610e30565b508315610ef45760405162461bcd60e51b815260206004820181905260248201527f537472696e67733a20686578206c656e67746820696e73756666696369656e746044820152606401610369565b9392505050565b6001600160a01b0381168114610f1057600080fd5b50565b803563ffffffff81168114610f2757600080fd5b919050565b60008060008060808587031215610f4257600080fd5b8435610f4d81610efb565b9350610f5b60208601610f13565b9250610f6960408601610f13565b91506060850135610f7981610efb565b939692955090935050565b60008083601f840112610f9657600080fd5b50813567ffffffffffffffff811115610fae57600080fd5b602083019150836020828501011115610fc657600080fd5b9250929050565b600080600060408486031215610fe257600080fd5b8335610fed81610efb565b9250602084013567ffffffffffffffff81111561100957600080fd5b61101586828701610f84565b9497909650939450505050565b60008060008060008060a0878903121561103b57600080fd5b863561104681610efb565b955061105460208801610f13565b945061106260408801610f13565b9350606087013561107281610efb565b9250608087013567ffffffffffffffff81111561108e57600080fd5b61109a89828a01610f84565b979a9699509497509295939492505050565b6000602082840312156110be57600080fd5b8135610ef481610efb565b6000806000806000606086880312156110e157600080fd5b853567ffffffffffffffff808211156110f957600080fd5b818801915088601f83011261110d57600080fd5b81358181111561111c57600080fd5b8960208260051b850101111561113157600080fd5b60209283019750955090870135908082111561114c57600080fd5b5061115988828901610f84565b96999598509660400135949350505050565b6004811061118957634e487b7160e01b600052602160045260246000fd5b9052565b60005b838110156111a8578181015183820152602001611190565b50506000910152565b600081518084526111c981602086016020860161118d565b601f01601f19169290920160200192915050565b60006020808301818452808551808352604092508286019150828160051b87010184880160005b838110156112d257603f19898403018552815161012061122585835161116b565b888201516001600160e01b031916858a01528782015160ff168886015260608083015167ffffffffffffffff19908116918701919091526080808401519091169086015260a0808301516001600160a01b03169086015260c080830151818701839052611294838801826111b1565b9250505060e080830151868303828801526112af83826111b1565b610100948501519790940196909652505094870194925090860190600101611204565b509098975050505050505050565b634e487b7160e01b600052601160045260246000fd5b80820180821115610d4157610d416112e0565b6000855161131b818460208a0161118d565b85519083019061132f818360208a0161118d565b855191019061134281836020890161118d565b60609490941b6bffffffffffffffffffffffff1916930192835250506014019392505050565b6000808585111561137857600080fd5b8386111561138557600080fd5b5050820193919092039150565b6001600160f81b031981358181169160018510156113ba5780818660010360031b1b83161692505b505092915050565b80356020831015610d4157600019602084900360031b1b1692915050565b60208082526013908201527214d95cdcda5bdb955b985d5d1a1bdc9a5e9959606a1b604082015260600190565b6000845161141f81846020890161118d565b84519083019061143381836020890161118d565b845191019061144681836020880161118d565b0195945050505050565b81835281816020850137506000828201602090810191909152601f909101601f19169091010190565b81835260006020808501808196508560051b810191508460005b878110156114fe5782840389528135601e198836030181126114b457600080fd5b8701858101903567ffffffffffffffff8111156114d057600080fd5b8036038213156114df57600080fd5b6114ea868284611450565b9a87019a9550505090840190600101611493565b5091979650505050505050565b60408152600061151f604083018587611479565b9050826020830152949350505050565b608081526000611543608083018587611479565b905060018060a01b038351166020830152602083015163ffffffff80821660408501528060408601511660608501525050949350505050565b602081526000611590602083018486611450565b949350505050565b634e487b7160e01b600052604160045260246000fd5b604051610120810167ffffffffffffffff811182821017156115d2576115d2611598565b60405290565b604051601f8201601f1916810167ffffffffffffffff8111828210171561160157611601611598565b604052919050565b805160048110610f2757600080fd5b80516001600160e01b031981168114610f2757600080fd5b805160ff81168114610f2757600080fd5b805167ffffffffffffffff1981168114610f2757600080fd5b8051610f2781610efb565b600082601f83011261167657600080fd5b815167ffffffffffffffff81111561169057611690611598565b6116a3601f8201601f19166020016115d8565b8181528460208386010111156116b857600080fd5b61159082602083016020870161118d565b600060208083850312156116dc57600080fd5b825167ffffffffffffffff808211156116f457600080fd5b818501915085601f83011261170857600080fd5b81518181111561171a5761171a611598565b8060051b6117298582016115d8565b918252838101850191858101908984111561174357600080fd5b86860192505b838310156118495782518581111561176057600080fd5b8601610120818c03601f190181131561177857600080fd5b6117806115ae565b61178b8a8401611609565b815261179960408401611618565b8a8201526117a960608401611630565b60408201526117ba60808401611641565b60608201526117cb60a08401611641565b60808201526117dc60c0840161165a565b60a082015260e0830151888111156117f45760008081fd5b6118028e8c83870101611665565b60c083015250610100808401518981111561181d5760008081fd5b61182b8f8d83880101611665565b60e08401525091909201519082015282529186019190860190611749565b9998505050505050505050565b6757656c636f6d652160c01b81527f0a0a5468697320736974652069732072657175657374696e67207065726d697360088201527f73696f6e20746f2063726561746520612074656d706f7261727920736573736960288201526637b71035b2bc9760c91b60488201527f0a0a5369676e696e672074686973206d6573736167652077696c6c206e6f7420604f8201526e34b731bab91030b73c903332b2b99760891b606f820152675052b30b634b21d160bd1b607e820152825160009061192581608785016020880161118d565b6620626c6f636b7360c81b6087918401918201526950529b2b9b9b4b7b71d160ad1b608e820152835161195f81609984016020880161118d565b01609901949350505050565b8082028115828204841417610d4157610d416112e0565b634e487b7160e01b600052603260045260246000fd5b6000816119a7576119a76112e0565b50600019019056fea2646970667358221220c633b33f6461bff9d2522f0bea0a17455d53afd3d2331cce1368c026c7a2f9d064736f6c63430008130033",
    "linkReferences": {}
  },
  "methodIdentifiers": {
    "authorizeAddr(address,uint32,uint32,address)": "02dd3ed4",
    "authorizeAddr(address,uint32,uint32,address,bytes)": "401870d9",
    "dispatch(bytes[],bytes,uint256)": "6fdc0e10",
    "dispatchWithOpsRecorder(bytes[],bytes,uint256)": "ab59f1d0",
    "revokeAddr(address)": "bb68f5e7",
    "revokeAddr(address,bytes)": "3f43ebca",
    "sessions(address)": "431a1b97"
  },
  "id": 3
}