{
  "abi": [
    {
      "inputs": [
        {
          "internalType": "contract Game",
          "name": "ds",
          "type": "address"
        },
        {
          "internalType": "bytes24",
          "name": "buildingInstanceID",
          "type": "bytes24"
        },
        {
          "internalType": "bytes24",
          "name": "mobileUnitID",
          "type": "bytes24"
        },
        {
          "internalType": "bytes",
          "name": "payload",
          "type": "bytes"
        }
      ],
      "name": "construct",
      "outputs": [],
      "stateMutability": "nonpayable",
      "type": "function"
    },
    {
      "inputs": [
        {
          "internalType": "contract Game",
          "name": "ds",
          "type": "address"
        },
        {
          "internalType": "bytes24",
          "name": "buildingInstanceID",
          "type": "bytes24"
        },
        {
          "internalType": "bytes24",
          "name": "mobileUnitID",
          "type": "bytes24"
        }
      ],
      "name": "onUnitArrive",
      "outputs": [],
      "stateMutability": "nonpayable",
      "type": "function"
    },
    {
      "inputs": [
        {
          "internalType": "contract Game",
          "name": "ds",
          "type": "address"
        },
        {
          "internalType": "bytes24",
          "name": "buildingInstanceID",
          "type": "bytes24"
        },
        {
          "internalType": "bytes24",
          "name": "mobileUnitID",
          "type": "bytes24"
        }
      ],
      "name": "onUnitLeave",
      "outputs": [],
      "stateMutability": "nonpayable",
      "type": "function"
    },
    {
      "inputs": [
        {
          "internalType": "contract Game",
          "name": "ds",
          "type": "address"
        },
        {
          "internalType": "bytes24",
          "name": "buildingInstance",
          "type": "bytes24"
        },
        {
          "internalType": "bytes24",
          "name": "",
          "type": "bytes24"
        },
        {
          "internalType": "bytes",
          "name": "",
          "type": "bytes"
        }
      ],
      "name": "use",
      "outputs": [],
      "stateMutability": "nonpayable",
      "type": "function"
    }
  ],
  "bytecode": {
    "object": "0x60a060405273402462eefc217bf2cf4e6814395e1b61ea4c43f7608090815261002c906000906001610069565b50600180546001600160c01b031916776a7a67f0b29554460000000100000064000000640000004c17905534801561006357600080fd5b506100e3565b8280548282559060005260206000209081019282156100be579160200282015b828111156100be57825182546001600160a01b0319166001600160a01b03909116178255602090920191600190910190610089565b506100ca9291506100ce565b5090565b5b808211156100ca57600081556001016100cf565b6103ba806100f26000396000f3fe608060405234801561001057600080fd5b506004361061004c5760003560e01c806324fd46e81461005157806367cace071461006657806391d83c5714610051578063f03ad92f14610079575b600080fd5b61006461005f3660046101d2565b505050565b005b61006461007436600461022d565b61008d565b61006461008736600461022d565b50505050565b836001600160a01b031663ebb3d5896040518163ffffffff1660e01b81526004016020604051808303816000875af11580156100cd573d6000803e3d6000fd5b505050506040513d601f19601f820116820180604052508101906100f19190610312565b60405167ffffffffffffffff19851660248201526001600160a01b03919091169063ab7fff189060440160408051601f198184030181529181526020820180516001600160e01b031663119645df60e31b179052516001600160e01b031960e084901b1681526101649190600401610336565b600060405180830381600087803b15801561017e57600080fd5b505af1158015610192573d6000803e3d6000fd5b5050505050505050565b6001600160a01b03811681146101b157600080fd5b50565b803567ffffffffffffffff19811681146101cd57600080fd5b919050565b6000806000606084860312156101e757600080fd5b83356101f28161019c565b9250610200602085016101b4565b915061020e604085016101b4565b90509250925092565b634e487b7160e01b600052604160045260246000fd5b6000806000806080858703121561024357600080fd5b843561024e8161019c565b935061025c602086016101b4565b925061026a604086016101b4565b9150606085013567ffffffffffffffff8082111561028757600080fd5b818701915087601f83011261029b57600080fd5b8135818111156102ad576102ad610217565b604051601f8201601f19908116603f011681019083821181831017156102d5576102d5610217565b816040528281528a60208487010111156102ee57600080fd5b82602086016020830137600060208483010152809550505050505092959194509250565b60006020828403121561032457600080fd5b815161032f8161019c565b9392505050565b600060208083528351808285015260005b8181101561036357858101830151858201604001528201610347565b506000604082860101526040601f19601f830116850101925050509291505056fea264697066735822122066b1644e953e6f4aaba57023c9d73cf1702cb6b70f3ab25513fa15bbb62ed43364736f6c63430008130033",
    "linkReferences": {}
  },
  "methodIdentifiers": {
    "construct(address,bytes24,bytes24,bytes)": "f03ad92f",
    "onUnitArrive(address,bytes24,bytes24)": "91d83c57",
    "onUnitLeave(address,bytes24,bytes24)": "24fd46e8",
    "use(address,bytes24,bytes24,bytes)": "67cace07"
  },
  "id": 77
}