{
  "abi": [
    {
      "inputs": [
        {
          "internalType": "contract State",
          "name": "state",
          "type": "address"
        },
        {
          "internalType": "bytes",
          "name": "action",
          "type": "bytes"
        },
        {
          "components": [
            {
              "internalType": "address",
              "name": "sender",
              "type": "address"
            },
            {
              "internalType": "uint32",
              "name": "scopes",
              "type": "uint32"
            },
            {
              "internalType": "uint32",
              "name": "clock",
              "type": "uint32"
            }
          ],
          "internalType": "struct Context",
          "name": "ctx",
          "type": "tuple"
        }
      ],
      "name": "reduce",
      "outputs": [
        {
          "internalType": "contract State",
          "name": "",
          "type": "address"
        }
      ],
      "stateMutability": "nonpayable",
      "type": "function"
    }
  ],
  "bytecode": {
    "object": "0x608060405234801561001057600080fd5b50610cd8806100206000396000f3fe608060405234801561001057600080fd5b506004361061002b5760003560e01c8063624a3ede14610030575b600080fd5b61004361003e3660046107bb565b61005f565b6040516001600160a01b03909116815260200160405180910390f35b600063322c6c0f60e01b610073848661085b565b6001600160e01b0319160361036f57600080808080610095886004818c61088b565b8101906100a29190610978565b93985091965094509250905060006100c56100c060208a018a610a1b565b61043e565b905060006100dc6001600160a01b038d1688610457565b905067ffffffffffffffff19811615801590610106575067ffffffffffffffff1981811690831614155b1561014f5760405162461bcd60e51b815260206004820152601460248201527328363ab3b4b72737ba28363ab3b4b727bbb732b960611b60448201526064015b60405180910390fd5b60006101646001600160a01b038e1688610457565b905067ffffffffffffffff1981161580159061018e575067ffffffffffffffff1981811690841614155b156101d25760405162461bcd60e51b815260206004820152601460248201527328363ab3b4b72737ba2a30b933b2ba27bbb732b960611b6044820152606401610146565b6101e66001600160a01b038e1689896104eb565b6101fa6001600160a01b038e16898561055e565b6040516001621b1c5760e31b031981526001600160a01b038e169063ff271d489061022b908b908a90600401610a7e565b600060405180830381600087803b15801561024557600080fd5b505af1158015610259573d6000803e3d6000fd5b505050508c6001600160a01b031663ff271d4889876040518363ffffffff1660e01b815260040161028b929190610ac5565b600060405180830381600087803b1580156102a557600080fd5b505af11580156102b9573d6000803e3d6000fd5b505050508c6001600160a01b031663ff271d4889866102f5576040518060400160405280600581526020016466616c736560d81b815250610313565b604051806040016040528060048152602001637472756560e01b8152505b6040518363ffffffff1660e01b8152600401610330929190610b03565b600060405180830381600087803b15801561034a57600080fd5b505af115801561035e573d6000803e3d6000fd5b505050505050505050505050610435565b63873065e360e01b610381848661085b565b6001600160e01b031916036103d4576000806103a0856004818961088b565b8101906103ad9190610b4a565b90925090506103cd876103c66100c06020880188610a1b565b848461059a565b5050610435565b630831a05960e31b6103e6848661085b565b6001600160e01b0319160361043557600080610405856004818961088b565b8101906104129190610b83565b90925090506104328761042b6100c06020880188610a1b565b8484610620565b50505b50929392505050565b600061045163045820b360e01b836106ff565b92915050565b6040516305f922a160e11b8152635a54cd2760e11b600482015260006024820181905267ffffffffffffffff19831660448301529081906001600160a01b03851690630bf24542906064016040805180830381865afa1580156104be573d6000803e3d6000fd5b505050506040513d601f19601f820116820180604052508101906104e29190610be7565b50949350505050565b604051633d18084560e21b81526001600160a01b0384169063f46021149061052790632835455160e21b90600090879087908390600401610c23565b600060405180830381600087803b15801561054157600080fd5b505af1158015610555573d6000803e3d6000fd5b50505050505050565b604051633d18084560e21b81526001600160a01b0384169063f46021149061052790635a54cd2760e11b90600090879087908390600401610c23565b60006105af6001600160a01b03861684610457565b905067ffffffffffffffff19808216908516146106055760405162461bcd60e51b815260206004820152601460248201527328363ab3b4b72737ba2a30b933b2ba27bbb732b960611b6044820152606401610146565b6106196001600160a01b038616848461074b565b5050505050565b60405167ffffffffffffffff198085166020830152831660388201526001600160601b0319606086901b16605082015260009060640160408051808303601f190181529082905280516020918201208451858301206001600160f81b0319928401929092526001600160601b03193060601b166021840152603583018190526055830191909152915060009060750160408051601f1981840301815291905280516020909101209050803b63ffffffff166106eb578183516020850134f59050803b6106eb57600080fd5b6106f78686868461059a565b505050505050565b6040516001600160e01b0319831660208201526001600160601b0319606083901b16602482015260009060380160405160208183030381529060405261074490610c6a565b9392505050565b6001600160a01b03831663f460211463e6a8ee4f60e01b60008561076e86610790565b60006040518663ffffffff1660e01b8152600401610527959493929190610c23565b600061045163fb2946d560e01b836106ff565b6001600160a01b03811681146107b857600080fd5b50565b60008060008084860360a08112156107d257600080fd5b85356107dd816107a3565b9450602086013567ffffffffffffffff808211156107fa57600080fd5b818801915088601f83011261080e57600080fd5b81358181111561081d57600080fd5b89602082850101111561082f57600080fd5b6020929092019550909350506060603f198201121561084d57600080fd5b509295919450926040019150565b6001600160e01b031981358181169160048510156108835780818660040360031b1b83161692505b505092915050565b6000808585111561089b57600080fd5b838611156108a857600080fd5b5050820193919092039150565b67ffffffffffffffff19811681146107b857600080fd5b634e487b7160e01b600052604160045260246000fd5b600067ffffffffffffffff808411156108fd576108fd6108cc565b604051601f8501601f19908116603f01168101908282118183101715610925576109256108cc565b8160405280935085815286868601111561093e57600080fd5b858560208301376000602087830101525050509392505050565b600082601f83011261096957600080fd5b610744838335602085016108e2565b600080600080600060a0868803121561099057600080fd5b853561099b816108b5565b945060208601356109ab816108b5565b9350604086013567ffffffffffffffff808211156109c857600080fd5b6109d489838a01610958565b945060608801359150808211156109ea57600080fd5b506109f788828901610958565b92505060808601358015158114610a0d57600080fd5b809150509295509295909350565b600060208284031215610a2d57600080fd5b8135610744816107a3565b6000815180845260005b81811015610a5e57602081850181015186830182015201610a42565b506000602082860101526020601f19601f83011685010191505092915050565b67ffffffffffffffff19831681526060602082015260046060820152636e616d6560e01b608082015260a060408201526000610abd60a0830184610a38565b949350505050565b67ffffffffffffffff198316815260606020820152600360608201526273726360e81b608082015260a060408201526000610abd60a0830184610a38565b67ffffffffffffffff198316815260606020820152600c60608201526b616c7761797341637469766560a01b608082015260a060408201526000610abd60a0830184610a38565b60008060408385031215610b5d57600080fd5b8235610b68816108b5565b91506020830135610b78816107a3565b809150509250929050565b60008060408385031215610b9657600080fd5b8235610ba1816108b5565b9150602083013567ffffffffffffffff811115610bbd57600080fd5b8301601f81018513610bce57600080fd5b610bdd858235602084016108e2565b9150509250929050565b60008060408385031215610bfa57600080fd5b8251610c05816108b5565b602084015190925067ffffffffffffffff81168114610b7857600080fd5b6001600160e01b031995909516855260ff93909316602085015267ffffffffffffffff19918216604085015216606083015267ffffffffffffffff16608082015260a00190565b8051602082015167ffffffffffffffff198082169291906018831015610c9a5780818460180360031b1b83161693505b50505091905056fea2646970667358221220715a9d2c7f5c202cd7bf5c525c0d719dae25e91b71a1e9a011c6c529e526a9ef64736f6c63430008130033",
    "linkReferences": {}
  },
  "methodIdentifiers": {
    "reduce(address,bytes,(address,uint32,uint32))": "624a3ede"
  },
  "id": 173
}