{
  "abi": [
    {
      "inputs": [
        {
          "internalType": "contract Game",
          "name": "ds",
          "type": "address"
        },
        {
          "internalType": "bytes24",
          "name": "buildingInstanceID",
          "type": "bytes24"
        },
        {
          "internalType": "bytes24",
          "name": "mobileUnitID",
          "type": "bytes24"
        },
        {
          "internalType": "bytes",
          "name": "payload",
          "type": "bytes"
        }
      ],
      "name": "construct",
      "outputs": [],
      "stateMutability": "nonpayable",
      "type": "function"
    },
    {
      "inputs": [
        {
          "internalType": "contract Game",
          "name": "ds",
          "type": "address"
        },
        {
          "internalType": "bytes24",
          "name": "buildingInstanceID",
          "type": "bytes24"
        },
        {
          "internalType": "bytes24",
          "name": "mobileUnitID",
          "type": "bytes24"
        }
      ],
      "name": "onUnitArrive",
      "outputs": [],
      "stateMutability": "nonpayable",
      "type": "function"
    },
    {
      "inputs": [
        {
          "internalType": "contract Game",
          "name": "ds",
          "type": "address"
        },
        {
          "internalType": "bytes24",
          "name": "buildingInstanceID",
          "type": "bytes24"
        },
        {
          "internalType": "bytes24",
          "name": "mobileUnitID",
          "type": "bytes24"
        }
      ],
      "name": "onUnitLeave",
      "outputs": [],
      "stateMutability": "nonpayable",
      "type": "function"
    },
    {
      "inputs": [
        {
          "internalType": "string",
          "name": "pswd",
          "type": "string"
        }
      ],
      "name": "password",
      "outputs": [],
      "stateMutability": "nonpayable",
      "type": "function"
    },
    {
      "inputs": [
        {
          "internalType": "contract Game",
          "name": "ds",
          "type": "address"
        },
        {
          "internalType": "bytes24",
          "name": "buildingInstance",
          "type": "bytes24"
        },
        {
          "internalType": "bytes24",
          "name": "",
          "type": "bytes24"
        },
        {
          "internalType": "bytes",
          "name": "payload",
          "type": "bytes"
        }
      ],
      "name": "use",
      "outputs": [],
      "stateMutability": "nonpayable",
      "type": "function"
    }
  ],
  "bytecode": {
    "object": "0x608060405234801561001057600080fd5b50610a5d806100206000396000f3fe608060405234801561001057600080fd5b50600436106100575760003560e01c806324fd46e81461005c57806367cace071461007157806371d3f37a1461008457806391d83c571461005c578063f03ad92f14610096575b600080fd5b61006f61006a3660046105be565b505050565b005b61006f61007f366004610652565b6100aa565b61006f6100923660046106ce565b5050565b61006f6100a436600461079c565b50505050565b6338e9f9bd60e11b6100bc8284610825565b6001600160e01b0319161461010a5760405162461bcd60e51b815260206004820152600f60248201526e125b9d985b1a59081c185e5b1bd859608a1b60448201526064015b60405180910390fd5b60006101198260048186610855565b810190610126919061087f565b90507f1f1fc8e191099524ede873ed4b43087e02baaa5f39243fdd808f60582dc7702e8160405160200161015a91906108d0565b60405160208183030381529060405280519060200120146101b05760405162461bcd60e51b815260206004820152601060248201526f125b9d985b1a59081c185cdcdddbdc9960821b6044820152606401610101565b6000866001600160a01b0316631865c57d6040518163ffffffff1660e01b81526004016020604051808303816000875af11580156101f2573d6000803e3d6000fd5b505050506040513d601f19601f8201168201806040525081019061021691906108ff565b9050600061022d6001600160a01b038316886103d2565b90506000610241600119606084901c610932565b905060006102546002605085901c610932565b9050600061026681604086901c610932565b9050610273600684610955565b925061028160051983610955565b915061028e600082610955565b604080516080810182526000808252600187810b602084015286810b938301939093529183900b6060820152919250906102d090631a67c53f60e11b90610458565b905060006102e76001600160a01b038816836104cb565b905060006102fe6001600160a01b03891683610507565b90506001600160a01b0381166103565760405162461bcd60e51b815260206004820152601760248201527f436f7265206275696c64696e67206e6f7420666f756e640000000000000000006044820152606401610101565b604051630af86e0f60e21b81526001600160a01b038f8116600483015267ffffffffffffffff1985166024830152821690632be1b83c90604401600060405180830381600087803b1580156103aa57600080fd5b505af11580156103be573d6000803e3d6000fd5b505050505050505050505050505050505050565b6000806001600160a01b038416630bf2454263ec0be13d60e01b6002866040518463ffffffff1660e01b815260040161040d93929190610978565b6040805180830381865afa158015610429573d6000803e3d6000fd5b505050506040513d601f19601f8201168201806040525081019061044d91906109a8565b509150505b92915050565b8051602080830151604080850151606086015191516001600160e01b031988169481019490945260006024850181905260f095861b603086015292851b6032850152841b603484015290921b60368201526038016040516020818303038152906040526104c4906109ef565b9392505050565b6040516305f922a160e11b815260009081906001600160a01b03851690630bf245429061040d9063eb70afe760e01b9085908890600401610978565b6040516305f922a160e11b815260009081906001600160a01b03851690630bf24542906105439063e6a8ee4f60e01b9085908890600401610978565b6040805180830381865afa15801561055f573d6000803e3d6000fd5b505050506040513d601f19601f8201168201806040525081019061058391906109a8565b5060401c949350505050565b6001600160a01b03811681146105a457600080fd5b50565b67ffffffffffffffff19811681146105a457600080fd5b6000806000606084860312156105d357600080fd5b83356105de8161058f565b925060208401356105ee816105a7565b915060408401356105fe816105a7565b809150509250925092565b60008083601f84011261061b57600080fd5b50813567ffffffffffffffff81111561063357600080fd5b60208301915083602082850101111561064b57600080fd5b9250929050565b60008060008060006080868803121561066a57600080fd5b85356106758161058f565b94506020860135610685816105a7565b93506040860135610695816105a7565b9250606086013567ffffffffffffffff8111156106b157600080fd5b6106bd88828901610609565b969995985093965092949392505050565b600080602083850312156106e157600080fd5b823567ffffffffffffffff8111156106f857600080fd5b61070485828601610609565b90969095509350505050565b634e487b7160e01b600052604160045260246000fd5b600067ffffffffffffffff8084111561074157610741610710565b604051601f8501601f19908116603f0116810190828211818310171561076957610769610710565b8160405280935085815286868601111561078257600080fd5b858560208301376000602087830101525050509392505050565b600080600080608085870312156107b257600080fd5b84356107bd8161058f565b935060208501356107cd816105a7565b925060408501356107dd816105a7565b9150606085013567ffffffffffffffff8111156107f957600080fd5b8501601f8101871361080a57600080fd5b61081987823560208401610726565b91505092959194509250565b6001600160e01b0319813581811691600485101561084d5780818660040360031b1b83161692505b505092915050565b6000808585111561086557600080fd5b8386111561087257600080fd5b5050820193919092039150565b60006020828403121561089157600080fd5b813567ffffffffffffffff8111156108a857600080fd5b8201601f810184136108b957600080fd5b6108c884823560208401610726565b949350505050565b6000825160005b818110156108f157602081860181015185830152016108d7565b506000920191825250919050565b60006020828403121561091157600080fd5b81516104c48161058f565b634e487b7160e01b600052601160045260246000fd5b600182810b9082900b03617fff198112617fff821317156104525761045261091c565b600181810b9083900b01617fff8113617fff19821217156104525761045261091c565b6001600160e01b031993909316835260ff91909116602083015267ffffffffffffffff1916604082015260600190565b600080604083850312156109bb57600080fd5b82516109c6816105a7565b602084015190925067ffffffffffffffff811681146109e457600080fd5b809150509250929050565b8051602082015167ffffffffffffffff198082169291906018831015610a1f5780818460180360031b1b83161693505b50505091905056fea26469706673582212209a1ff43c07bc79ffbea7a2787de209ce316ec1f8586095ffc0611e0e89aa163a64736f6c63430008130033",
    "linkReferences": {}
  },
  "methodIdentifiers": {
    "construct(address,bytes24,bytes24,bytes)": "f03ad92f",
    "onUnitArrive(address,bytes24,bytes24)": "91d83c57",
    "onUnitLeave(address,bytes24,bytes24)": "24fd46e8",
    "password(string)": "71d3f37a",
    "use(address,bytes24,bytes24,bytes)": "67cace07"
  },
  "id": 121
}