{
  "abi": [
    {
      "inputs": [
        {
          "internalType": "address",
          "name": "_owner",
          "type": "address"
        },
        {
          "internalType": "contract ERC721",
          "name": "_zoneOwnership",
          "type": "address"
        }
      ],
      "stateMutability": "nonpayable",
      "type": "constructor"
    },
    {
      "anonymous": false,
      "inputs": [
        {
          "indexed": false,
          "internalType": "address",
          "name": "dispatcherAddr",
          "type": "address"
        },
        {
          "indexed": false,
          "internalType": "address",
          "name": "stateAddr",
          "type": "address"
        },
        {
          "indexed": false,
          "internalType": "address",
          "name": "routerAddr",
          "type": "address"
        }
      ],
      "name": "GameDeployed",
      "type": "event"
    },
    {
      "inputs": [
        {
          "internalType": "address",
          "name": "addr",
          "type": "address"
        }
      ],
      "name": "autorizeStateMutation",
      "outputs": [],
      "stateMutability": "nonpayable",
      "type": "function"
    },
    {
      "inputs": [],
      "name": "getDispatcher",
      "outputs": [
        {
          "internalType": "contract Dispatcher",
          "name": "",
          "type": "address"
        }
      ],
      "stateMutability": "view",
      "type": "function"
    },
    {
      "inputs": [],
      "name": "getMetadata",
      "outputs": [
        {
          "components": [
            {
              "internalType": "string",
              "name": "name",
              "type": "string"
            },
            {
              "internalType": "string",
              "name": "url",
              "type": "string"
            }
          ],
          "internalType": "struct GameMetadata",
          "name": "",
          "type": "tuple"
        }
      ],
      "stateMutability": "view",
      "type": "function"
    },
    {
      "inputs": [],
      "name": "getRouter",
      "outputs": [
        {
          "internalType": "contract Router",
          "name": "",
          "type": "address"
        }
      ],
      "stateMutability": "view",
      "type": "function"
    },
    {
      "inputs": [],
      "name": "getState",
      "outputs": [
        {
          "internalType": "contract State",
          "name": "",
          "type": "address"
        }
      ],
      "stateMutability": "view",
      "type": "function"
    },
    {
      "inputs": [],
      "name": "getUnitTimeoutBlocks",
      "outputs": [
        {
          "internalType": "uint64",
          "name": "",
          "type": "uint64"
        }
      ],
      "stateMutability": "view",
      "type": "function"
    },
    {
      "inputs": [],
      "name": "getZoneUnitLimit",
      "outputs": [
        {
          "internalType": "uint64",
          "name": "",
          "type": "uint64"
        }
      ],
      "stateMutability": "view",
      "type": "function"
    },
    {
      "inputs": [],
      "name": "owner",
      "outputs": [
        {
          "internalType": "address",
          "name": "",
          "type": "address"
        }
      ],
      "stateMutability": "view",
      "type": "function"
    },
    {
      "inputs": [
        {
          "internalType": "contract Rule",
          "name": "rule",
          "type": "address"
        }
      ],
      "name": "registerRule",
      "outputs": [],
      "stateMutability": "nonpayable",
      "type": "function"
    },
    {
      "inputs": [
        {
          "internalType": "address",
          "name": "_tokens",
          "type": "address"
        }
      ],
      "name": "registerTokensContract",
      "outputs": [],
      "stateMutability": "nonpayable",
      "type": "function"
    },
    {
      "inputs": [
        {
          "internalType": "uint64",
          "name": "blocks",
          "type": "uint64"
        }
      ],
      "name": "setUnitTimeoutBlocks",
      "outputs": [],
      "stateMutability": "nonpayable",
      "type": "function"
    },
    {
      "inputs": [
        {
          "internalType": "uint64",
          "name": "limit",
          "type": "uint64"
        }
      ],
      "name": "setZoneUnitLimit",
      "outputs": [],
      "stateMutability": "nonpayable",
      "type": "function"
    },
    {
      "inputs": [],
      "name": "tokens",
      "outputs": [
        {
          "internalType": "address",
          "name": "",
          "type": "address"
        }
      ],
      "stateMutability": "view",
      "type": "function"
    },
    {
      "inputs": [],
      "name": "zoneOwnership",
      "outputs": [
        {
          "internalType": "contract ERC721",
          "name": "",
          "type": "address"
        }
      ],
      "stateMutability": "view",
      "type": "function"
    }
  ],
  "bytecode": {
    "object": "0x60806040523480156200001157600080fd5b506040516200893d3803806200893d83398101604081905262000034916200176d565b6040518060400160405280600a815260200169444f574e53545245414d60b01b8152506040518060400160405280601781526020017f687474703a2f2f646f776e73747265616d2e67616d652f00000000000000000081525081600090816200009e91906200184d565b506001620000ad82826200184d565b5050600580546001600160a01b0319166001600160a01b038516179055506040516000903090620000de906200172d565b6001600160a01b039091168152602001604051809103906000f0801580156200010b573d6000803e3d6000fd5b50600680546001600160a01b0319166001600160a01b038581169182179092556040516367561d9360e01b815260048101919091529192508216906367561d9390602401600060405180830381600087803b1580156200016a57600080fd5b505af11580156200017f573d6000803e3d6000fd5b5050604051631cbbf5eb60e21b81526001600160a01b03841692506372efd7ac9150620001bb9063045820b360e01b90600a9060040162001946565b600060405180830381600087803b158015620001d657600080fd5b505af1158015620001eb573d6000803e3d6000fd5b5050604051631cbbf5eb60e21b81526001600160a01b03841692506372efd7ac91506200022790630128bd0d60e31b906001906004016200198b565b600060405180830381600087803b1580156200024257600080fd5b505af115801562000257573d6000803e3d6000fd5b5050604051631cbbf5eb60e21b81526001600160a01b03841692506372efd7ac9150620002939063b1c93f0960e01b90600190600401620019cd565b600060405180830381600087803b158015620002ae57600080fd5b505af1158015620002c3573d6000803e3d6000fd5b5050604051631cbbf5eb60e21b81526001600160a01b03841692506372efd7ac9150620002ff906339698bff60e21b9060059060040162001a08565b600060405180830381600087803b1580156200031a57600080fd5b505af11580156200032f573d6000803e3d6000fd5b5050604051631cbbf5eb60e21b81526001600160a01b03841692506372efd7ac91506200036b906306a7a67f60e41b90600c9060040162001a44565b600060405180830381600087803b1580156200038657600080fd5b505af11580156200039b573d6000803e3d6000fd5b5050604051631cbbf5eb60e21b81526001600160a01b03841692506372efd7ac9150620003d790632fa49d5760e21b9060019060040162001a80565b600060405180830381600087803b158015620003f257600080fd5b505af115801562000407573d6000803e3d6000fd5b5050604051631cbbf5eb60e21b81526001600160a01b03841692506372efd7ac91506200044390631a67c53f60e11b9060059060040162001ac4565b600060405180830381600087803b1580156200045e57600080fd5b505af115801562000473573d6000803e3d6000fd5b5050604051631cbbf5eb60e21b81526001600160a01b03841692506372efd7ac9150620004af9063fb2946d560e01b90600a9060040162001b04565b600060405180830381600087803b158015620004ca57600080fd5b505af1158015620004df573d6000803e3d6000fd5b5050604051631cbbf5eb60e21b81526001600160a01b03841692506372efd7ac91506200051b90633aa29e7760e01b9060019060040162001b45565b600060405180830381600087803b1580156200053657600080fd5b505af11580156200054b573d6000803e3d6000fd5b5050604051631cbbf5eb60e21b81526001600160a01b03841692506372efd7ac91506200058790631f12b7cd60e31b9060019060040162001b89565b600060405180830381600087803b158015620005a257600080fd5b505af1158015620005b7573d6000803e3d6000fd5b5050604051631cbbf5eb60e21b81526001600160a01b03841692506372efd7ac9150620005f390632a9b5f7960e21b90600b9060040162001bce565b600060405180830381600087803b1580156200060e57600080fd5b505af115801562000623573d6000803e3d6000fd5b5050604051631cbbf5eb60e21b81526001600160a01b03841692506372efd7ac91506200065f9063a453ff8760e01b9060019060040162001c0a565b600060405180830381600087803b1580156200067a57600080fd5b505af11580156200068f573d6000803e3d6000fd5b5050604051631cbbf5eb60e21b81526001600160a01b03841692506372efd7ac9150620006cb90631983c3a760e31b9060019060040162001c46565b600060405180830381600087803b158015620006e657600080fd5b505af1158015620006fb573d6000803e3d6000fd5b5050604051631cbbf5eb60e21b81526001600160a01b03841692506372efd7ac915062000737906356dd99e760e11b90600b9060040162001c86565b600060405180830381600087803b1580156200075257600080fd5b505af115801562000767573d6000803e3d6000fd5b5050604051631cbbf5eb60e21b81526001600160a01b03841692506372efd7ac9150620007a39063b94e050560e01b90600b9060040162001cc3565b600060405180830381600087803b158015620007be57600080fd5b505af1158015620007d3573d6000803e3d6000fd5b5050604051631cbbf5eb60e21b81526001600160a01b03841692506372efd7ac91506200080f9063b3cea21760e01b90600b9060040162001cff565b600060405180830381600087803b1580156200082a57600080fd5b505af11580156200083f573d6000803e3d6000fd5b5050604051631cbbf5eb60e21b81526001600160a01b03841692506372efd7ac91506200087b90632754315b60e21b90600b9060040162001d39565b600060405180830381600087803b1580156200089657600080fd5b505af1158015620008ab573d6000803e3d6000fd5b5050604051631cbbf5eb60e21b81526001600160a01b03841692506372efd7ac9150620008e7906386fc4f3760e01b9060019060040162001d7b565b600060405180830381600087803b1580156200090257600080fd5b505af115801562000917573d6000803e3d6000fd5b5050604051631cbbf5eb60e21b81526001600160a01b03841692506372efd7ac91506200095390631f8a524b60e01b90600b9060040162001db7565b600060405180830381600087803b1580156200096e57600080fd5b505af115801562000983573d6000803e3d6000fd5b5050604051631cbbf5eb60e21b81526001600160a01b03841692506372efd7ac9150620009bf906369929e7160e01b9060009060040162001dfa565b600060405180830381600087803b158015620009da57600080fd5b505af1158015620009ef573d6000803e3d6000fd5b50506040516313ecf0d560e11b81526001600160a01b03841692506327d9e1aa915062000a2b90635a54cd2760e11b9060009060040162001e51565b600060405180830381600087803b15801562000a4657600080fd5b505af115801562000a5b573d6000803e3d6000fd5b50506040516313ecf0d560e11b81526001600160a01b03841692506327d9e1aa915062000a979063ec0be13d60e01b9060009060040162001e8e565b600060405180830381600087803b15801562000ab257600080fd5b505af115801562000ac7573d6000803e3d6000fd5b50506040516313ecf0d560e11b81526001600160a01b03841692506327d9e1aa915062000b0390630ef6788760e01b9060009060040162001ece565b600060405180830381600087803b15801562000b1e57600080fd5b505af115801562000b33573d6000803e3d6000fd5b50506040516313ecf0d560e11b81526001600160a01b03841692506327d9e1aa915062000b6f9063989db51160e01b9060009060040162001f0d565b600060405180830381600087803b15801562000b8a57600080fd5b505af115801562000b9f573d6000803e3d6000fd5b50506040516313ecf0d560e11b81526001600160a01b03841692506327d9e1aa915062000bdb9063390b659960e21b9060009060040162001f4a565b600060405180830381600087803b15801562000bf657600080fd5b505af115801562000c0b573d6000803e3d6000fd5b50506040516313ecf0d560e11b81526001600160a01b03841692506327d9e1aa915062000c47906351a72ac760e11b9060009060040162001f88565b600060405180830381600087803b15801562000c6257600080fd5b505af115801562000c77573d6000803e3d6000fd5b50506040516313ecf0d560e11b81526001600160a01b03841692506327d9e1aa915062000cb390633442702960e21b9060009060040162001fc8565b600060405180830381600087803b15801562000cce57600080fd5b505af115801562000ce3573d6000803e3d6000fd5b50506040516313ecf0d560e11b81526001600160a01b03841692506327d9e1aa915062000d1f9063a1afe03b60e01b9060009060040162002005565b600060405180830381600087803b15801562000d3a57600080fd5b505af115801562000d4f573d6000803e3d6000fd5b50506040516313ecf0d560e11b81526001600160a01b03841692506327d9e1aa915062000d8b90633d604d0560e21b906000906004016200204c565b600060405180830381600087803b15801562000da657600080fd5b505af115801562000dbb573d6000803e3d6000fd5b50506040516313ecf0d560e11b81526001600160a01b03841692506327d9e1aa915062000df79063eb70afe760e01b9060009060040162002089565b600060405180830381600087803b15801562000e1257600080fd5b505af115801562000e27573d6000803e3d6000fd5b50506040516313ecf0d560e11b81526001600160a01b03841692506327d9e1aa915062000e639063e6a8ee4f60e01b90600090600401620020c3565b600060405180830381600087803b15801562000e7e57600080fd5b505af115801562000e93573d6000803e3d6000fd5b50506040516313ecf0d560e11b81526001600160a01b03841692506327d9e1aa915062000ecf90632835455160e21b9060009060040162002109565b600060405180830381600087803b15801562000eea57600080fd5b505af115801562000eff573d6000803e3d6000fd5b50506040516313ecf0d560e11b81526001600160a01b03841692506327d9e1aa915062000f3b906305ffdd5360e01b9060009060040162002149565b600060405180830381600087803b15801562000f5657600080fd5b505af115801562000f6b573d6000803e3d6000fd5b50506040516313ecf0d560e11b81526001600160a01b03841692506327d9e1aa915062000fa790635194510d60e11b9060009060040162002184565b600060405180830381600087803b15801562000fc257600080fd5b505af115801562000fd7573d6000803e3d6000fd5b50506040516313ecf0d560e11b81526001600160a01b03841692506327d9e1aa91506200101390636b6c1f0360e01b90600090600401620021c2565b600060405180830381600087803b1580156200102e57600080fd5b505af115801562001043573d6000803e3d6000fd5b50506040516313ecf0d560e11b81526001600160a01b03841692506327d9e1aa91506200108290600162043def60e41b03199060009060040162002208565b600060405180830381600087803b1580156200109d57600080fd5b505af1158015620010b2573d6000803e3d6000fd5b50506040516313ecf0d560e11b81526001600160a01b03841692506327d9e1aa9150620010ee90637dfe512160e01b906000906004016200224e565b600060405180830381600087803b1580156200110957600080fd5b505af11580156200111e573d6000803e3d6000fd5b50506040516313ecf0d560e11b81526001600160a01b03841692506327d9e1aa91506200115a90639b6a264560e01b9060009060040162002291565b600060405180830381600087803b1580156200117557600080fd5b505af11580156200118a573d6000803e3d6000fd5b50506040516313ecf0d560e11b81526001600160a01b03841692506327d9e1aa9150620011c69063f650e0cf60e01b90600090600401620022d1565b600060405180830381600087803b158015620011e157600080fd5b505af1158015620011f6573d6000803e3d6000fd5b50506040516313ecf0d560e11b81526001600160a01b03841692506327d9e1aa9150620012329063b3cea21760e01b9060009060040162002310565b600060405180830381600087803b1580156200124d57600080fd5b505af115801562001262573d6000803e3d6000fd5b50506040516313ecf0d560e11b81526001600160a01b03841692506327d9e1aa91506200129e90633be0527f60e21b906000906004016200234a565b600060405180830381600087803b158015620012b957600080fd5b505af1158015620012ce573d6000803e3d6000fd5b50506040516313ecf0d560e11b81526001600160a01b03841692506327d9e1aa91506200130a9063d3c8dd6960e01b906000906004016200238d565b600060405180830381600087803b1580156200132557600080fd5b505af11580156200133a573d6000803e3d6000fd5b5050505060006040516200134e906200173b565b604051809103906000f0801580156200136b573d6000803e3d6000fd5b5090506000306040516200137f9062001749565b6001600160a01b039091168152602001604051809103906000f080158015620013ac573d6000803e3d6000fd5b506040516367561d9360e01b81526001600160a01b038083166004830152919250908416906367561d9390602401600060405180830381600087803b158015620013f557600080fd5b505af11580156200140a573d6000803e3d6000fd5b5050604051630780aa7360e31b81526001600160a01b03868116600483015284169250633c0553989150602401600060405180830381600087803b1580156200145257600080fd5b505af115801562001467573d6000803e3d6000fd5b50506040516322b19af760e01b81526001600160a01b038581166004830152841692506322b19af79150602401600060405180830381600087803b158015620014af57600080fd5b505af1158015620014c4573d6000803e3d6000fd5b50505050620014d9836200152760201b60201c565b620014e4826200154f565b620014ef8162001574565b620015056001600160a01b038416601462001599565b6200151c6001600160a01b03841661038462001633565b5050505050620023cb565b600480546001600160a01b0319166001600160a01b0383161790556200154c6200169e565b50565b600280546001600160a01b0319166001600160a01b0383161790556200154c6200169e565b600380546001600160a01b0319166001600160a01b0383161790556200154c6200169e565b6040516307aaee0d60e41b81526369929e7160e01b600482015260606024820152600d60648201526c1e9bdb99555b9a5d131a5b5a5d609a1b60848201526001600160401b03821660448201526001600160a01b03831690637aaee0d09060a4015b600060405180830381600087803b1580156200161657600080fd5b505af11580156200162b573d6000803e3d6000fd5b505050505050565b6040516307aaee0d60e41b81526369929e7160e01b6004820152606060248201526011606482015270756e697454696d656f7574426c6f636b7360781b60848201526001600160401b03821660448201526001600160a01b03831690637aaee0d09060a401620015fb565b6003546001600160a01b0316620016b157565b6004546001600160a01b0316620016c457565b6002546001600160a01b0316620016d757565b600354600454600254604080516001600160a01b039485168152928416602084015292168183015290517ff983dbfb3d7ef46fae38b82f406ef6895a8239899ab04e0d0cbd6d78a84c6a739181900360600190a1565b612aa68062002e1883390190565b611abc80620058be83390190565b6115c3806200737a83390190565b6001600160a01b03811681146200154c57600080fd5b600080604083850312156200178157600080fd5b82516200178e8162001757565b6020840151909250620017a18162001757565b809150509250929050565b634e487b7160e01b600052604160045260246000fd5b600181811c90821680620017d757607f821691505b602082108103620017f857634e487b7160e01b600052602260045260246000fd5b50919050565b601f8211156200184857600081815260208120601f850160051c81016020861015620018275750805b601f850160051c820191505b818110156200162b5782815560010162001833565b505050565b81516001600160401b03811115620018695762001869620017ac565b62001881816200187a8454620017c2565b84620017fe565b602080601f831160018114620018b95760008415620018a05750858301515b600019600386901b1c1916600185901b1785556200162b565b600085815260208120601f198616915b82811015620018ea57888601518255948401946001909101908401620018c9565b5085821015620019095787850151600019600388901b60f8161c191681555b5050505050600190811b01905550565b634e487b7160e01b600052602160045260246000fd5b600d811062001942576200194262001919565b9052565b6001600160e01b03198316815260606020820181905260069082015265283630bcb2b960d11b608082015260a081016200198460408301846200192f565b9392505050565b6001600160e01b031983168152606060208201819052600a9082015269135bd89a5b19555b9a5d60b21b608082015260a081016200198460408301846200192f565b6001600160e01b0319831681526060602082018190526003908201526242616760e81b608082015260a081016200198460408301846200192f565b6001600160e01b0319831681526060602082018190526004908201526354696c6560e01b608082015260a081016200198460408301846200192f565b6001600160e01b031983168152606060208201819052600490820152634974656d60e01b608082015260a081016200198460408301846200192f565b6001600160e01b031983168152606060208201819052600c908201526b109d5a5b191a5b99d2da5b9960a21b608082015260a081016200198460408301846200192f565b6001600160e01b031983168152606060208201819052600890820152674275696c64696e6760c01b608082015260a081016200198460408301846200192f565b6001600160e01b0319831681526060602082018190526009908201526822bc3a32b739b4b7b760b91b608082015260a081016200198460408301846200192f565b6001600160e01b031983168152606060208201819052600c908201526b21b634b2b73a28363ab3b4b760a11b608082015260a081016200198460408301846200192f565b6001600160e01b031983168152606060208201819052600d908201526c21b7b6b130ba29b2b9b9b4b7b760991b608082015260a081016200198460408301846200192f565b6001600160e01b03198316815260606020820181905260049082015263090c2e6d60e31b608082015260a081016200198460408301846200192f565b6001600160e01b0319831681526060602082018190526004908201526341746f6d60e01b608082015260a081016200198460408301846200192f565b6001600160e01b03198316815260606020820181905260089082015267426c6f636b4e756d60c01b608082015260a081016200198460408301846200192f565b6001600160e01b03198316815260606020820181905260059082015264145d595cdd60da1b608082015260a081016200198460408301846200192f565b6001600160e01b031983168152606060208201819052600490820152635461736b60e01b608082015260a081016200198460408301846200192f565b6001600160e01b03198316815260606020820181905260029082015261125160f21b608082015260a081016200198460408301846200192f565b6001600160e01b031983168152606060208201819052600a908201526927bbb732b22a37b5b2b760b11b608082015260a081016200198460408301846200192f565b6001600160e01b031983168152606060208201819052600490820152635a6f6e6560e01b608082015260a081016200198460408301846200192f565b6001600160e01b031983168152606060208201819052600b908201526a2d37b732b2283630bcb2b960a91b608082015260a081016200198460408301846200192f565b6001600160e01b031983168152606060208201819052600c908201526b47616d6553657474696e677360a01b608082015260a081016200198460408301846200192f565b6004811062001942576200194262001919565b6001600160e01b0319831681526060602082018190526005908201526427bbb732b960d91b608082015260a0810162001984604083018462001e3e565b6001600160e01b031983168152606060208201819052600890820152672637b1b0ba34b7b760c11b608082015260a0810162001984604083018462001e3e565b6001600160e01b0319831681526060602082018190526007908201526642616c616e636560c81b608082015260a0810162001984604083018462001e3e565b6001600160e01b03198316815260606020820181905260059082015264125b9c1d5d60da1b608082015260a0810162001984604083018462001e3e565b6001600160e01b0319831681526060602082018190526006908201526513dd5d1c1d5d60d21b608082015260a0810162001984604083018462001e3e565b6001600160e01b0319831681526060602082018190526008908201526713585d195c9a585b60c21b608082015260a0810162001984604083018462001e3e565b6001600160e01b0319831681526060602082018190526005908201526442696f6d6560d81b608082015260a0810162001984604083018462001e3e565b6001600160e01b031983168152606060208201819052600f908201526e2330b1b4b733a234b932b1ba34b7b760891b608082015260a0810162001984604083018462001e3e565b6001600160e01b03198316815260606020820181905260059082015264045717569760dc1b608082015260a0810162001984604083018462001e3e565b6001600160e01b03198316815260606020820181905260029082015261497360f01b608082015260a0810162001984604083018462001e3e565b6001600160e01b031983168152606060208201819052600e908201526d24b6b83632b6b2b73a30ba34b7b760911b608082015260a0810162001984604083018462001e3e565b6001600160e01b03198316815260606020820181905260089082015267537570706f72747360c01b608082015260a0810162001984604083018462001e3e565b6001600160e01b0319831681526060602082018190526003908201526248617360e81b608082015260a0810162001984604083018462001e3e565b6001600160e01b0319831681526060602082018190526006908201526510dbdb58985d60d21b608082015260a0810162001984604083018462001e3e565b6001600160e01b031983168152606060208201819052600e908201526d21b7b6b130ba20ba3a30b1b5b2b960911b608082015260a0810162001984604083018462001e3e565b6001600160e01b031983168152606060208201819052600e908201526d21b7b6b130ba2232b332b73232b960911b608082015260a0810162001984604083018462001e3e565b6001600160e01b031983168152606060208201819052600b908201526a125cd19a5b985b1a5cd95960aa1b608082015260a0810162001984604083018462001e3e565b6001600160e01b0319831681526060602082018190526008908201526712185cd45d595cdd60c21b608082015260a0810162001984604083018462001e3e565b6001600160e01b031983168152606060208201819052600790820152664861735461736b60c81b608082015260a0810162001984604083018462001e3e565b6001600160e01b03198316815260606020820181905260029082015261125160f21b608082015260a0810162001984604083018462001e3e565b6001600160e01b031983168152606060208201819052600b908201526a486173426c6f636b4e756d60a81b608082015260a0810162001984604083018462001e3e565b6001600160e01b0319831681526060602082018190526006908201526514185c995b9d60d21b608082015260a0810162001984604083018462001e3e565b610a3d80620023db6000396000f3fe608060405234801561001057600080fd5b50600436106100ea5760003560e01c8063a7a85f931161008c578063c593741211610066578063c5937412146101d4578063d5e7ecc8146101e7578063ebb3d589146101fa578063fe9786a31461020b57600080fd5b8063a7a85f931461018f578063a8680765146101a2578063b0f479a1146101c357600080fd5b80637a5b4f59116100c85780637a5b4f59146101415780638da5cb5b14610156578063917d669d146101695780639d63848a1461017c57600080fd5b80631865c57d146100ef5780633a0d8fae1461011957806344f4c1661461012c575b600080fd5b6004546001600160a01b03165b6040516001600160a01b0390911681526020015b60405180910390f35b6006546100fc906001600160a01b031681565b61013f61013a36600461076b565b610213565b005b61014961031b565b60405161011091906107d5565b6005546100fc906001600160a01b031681565b61013f61017736600461076b565b61045d565b6007546100fc906001600160a01b031681565b61013f61019d366004610817565b6104eb565b6101aa61052e565b60405167ffffffffffffffff9091168152602001610110565b6002546001600160a01b03166100fc565b61013f6101e2366004610817565b61054b565b61013f6101f536600461076b565b61058b565b6003546001600160a01b03166100fc565b6101aa6105d7565b6005546001600160a01b031633146102465760405162461bcd60e51b815260040161023d90610841565b60405180910390fd5b600480546040516367561d9360e01b81526001600160a01b03848116938201939093529116906367561d9390602401600060405180830381600087803b15801561028f57600080fd5b505af11580156102a3573d6000803e3d6000fd5b505060035460405163227a60b360e11b81526001600160a01b03858116600483015290911692506344f4c16691506024016020604051808303816000875af11580156102f3573d6000803e3d6000fd5b505050506040513d601f19601f820116820180604052508101906103179190610888565b5050565b6040805180820190915260608082526020820152604051806040016040528060008054610347906108a5565b80601f0160208091040260200160405190810160405280929190818152602001828054610373906108a5565b80156103c05780601f10610395576101008083540402835291602001916103c0565b820191906000526020600020905b8154815290600101906020018083116103a357829003601f168201915b50505050508152602001600180546103d7906108a5565b80601f0160208091040260200160405190810160405280929190818152602001828054610403906108a5565b80156104505780601f1061042557610100808354040283529160200191610450565b820191906000526020600020905b81548152906001019060200180831161043357829003601f168201915b5050505050815250905090565b6005546001600160a01b031633146104875760405162461bcd60e51b815260040161023d90610841565b600480546040516367561d9360e01b81526001600160a01b03848116938201939093529116906367561d9390602401600060405180830381600087803b1580156104d057600080fd5b505af11580156104e4573d6000803e3d6000fd5b5050505050565b6005546001600160a01b031633146105155760405162461bcd60e51b815260040161023d90610841565b60045461052b906001600160a01b0316826105ef565b50565b600454600090610546906001600160a01b0316610664565b905090565b6005546001600160a01b031633146105755760405162461bcd60e51b815260040161023d90610841565b60045461052b906001600160a01b0316826106e1565b6005546001600160a01b031633146105b55760405162461bcd60e51b815260040161023d90610841565b600780546001600160a01b0319166001600160a01b0392909216919091179055565b600454600090610546906001600160a01b0316610720565b6040516307aaee0d60e41b81526001600160a01b03831690637aaee0d09061062e906369929e7160e01b9067ffffffffffffffff8616906004016108df565b600060405180830381600087803b15801561064857600080fd5b505af115801561065c573d6000803e3d6000fd5b505050505050565b6040516324eae35560e01b81526000906001600160a01b038316906324eae3559061069a906369929e7160e01b90600401610930565b602060405180830381865afa1580156106b7573d6000803e3d6000fd5b505050506040513d601f19601f820116820180604052508101906106db9190610972565b92915050565b6040516307aaee0d60e41b81526001600160a01b03831690637aaee0d09061062e906369929e7160e01b9067ffffffffffffffff86169060040161098b565b6040516324eae35560e01b81526000906001600160a01b038316906324eae3559061069a906369929e7160e01b906004016109c9565b6001600160a01b038116811461052b57600080fd5b60006020828403121561077d57600080fd5b813561078881610756565b9392505050565b6000815180845260005b818110156107b557602081850181015186830182015201610799565b506000602082860101526020601f19601f83011685010191505092915050565b6020815260008251604060208401526107f1606084018261078f565b90506020840151601f1984830301604085015261080e828261078f565b95945050505050565b60006020828403121561082957600080fd5b813567ffffffffffffffff8116811461078857600080fd5b60208082526027908201527f446f776e73747265616d47616d653a2053656e646572206973206e6f74207468604082015266329037bbb732b960c91b606082015260800190565b60006020828403121561089a57600080fd5b815161078881610756565b600181811c908216806108b957607f821691505b6020821081036108d957634e487b7160e01b600052602260045260246000fd5b50919050565b67ffffffffffffffff1983168152606060208201526000610921606083016011815270756e697454696d656f7574426c6f636b7360781b602082015260400190565b90508260408301529392505050565b67ffffffffffffffff1982168152604060208201526000610788604083016011815270756e697454696d656f7574426c6f636b7360781b602082015260400190565b60006020828403121561098457600080fd5b5051919050565b67ffffffffffffffff198316815260606020820152600061092160608301600d81526c1e9bdb99555b9a5d131a5b5a5d609a1b602082015260400190565b67ffffffffffffffff198216815260406020820152600061078860408301600d81526c1e9bdb99555b9a5d131a5b5a5d609a1b60208201526040019056fea264697066735822122005741cb95e9c42dc42f9a91a6eda68fd2b4dc54e6e0f8eeff843a89ce5cf2ef664736f6c63430008130033608060405234801561001057600080fd5b5060405162002aa638038062002aa68339810160408190526100319161014f565b600080546001600160a01b0319166001600160a01b03831690811782558152600460208181526040808420805460ff191660011790558051808201909152918252631395531360e21b90820152610089919081610101565b3060405161009690610141565b6001600160a01b039091168152602001604051809103906000f0801580156100c2573d6000803e3d6000fd5b50600580546001600160a01b0319166001600160a01b039290921691821790556000908152600460205260409020805460ff1916600117905550610203565b7fbed80c5919aa762c9dc404f9c40660a62258ca74aa60222d9e107b4c07dd59778383836040516101349392919061017f565b60405180910390a1505050565b611b4d8062000f5983390190565b60006020828403121561016157600080fd5b81516001600160a01b038116811461017857600080fd5b9392505050565b63ffffffff60e01b8416815260006020606081840152845180606085015260005b818110156101bc578681018301518582016080015282016101a0565b506000608082860101526080601f19601f83011685010192505050600d83106101f557634e487b7160e01b600052602160045260246000fd5b826040830152949350505050565b610d4680620002136000396000f3fe608060405234801561001057600080fd5b50600436106100cf5760003560e01c80637aaee0d01161008c578063babcc53911610066578063babcc53914610250578063f46021141461028c578063f9776e3b1461029f578063ff271d48146102de57600080fd5b80637aaee0d014610219578063893d20e81461022c5780638c7a9e381461023d57600080fd5b80630bf24542146100d45780630c80d5111461016c57806324eae3551461019157806327d9e1aa146101de57806367561d93146101f357806372efd7ac14610206575b600080fd5b61013d6100e23660046107bb565b67ffffffffffffffff19811660009081526001602090815260408083206001600160e01b031987168452825280832060ff8616845290915290819020549081901b90600160c01b900467ffffffffffffffff16935093915050565b6040805167ffffffffffffffff19909316835267ffffffffffffffff9091166020830152015b60405180910390f35b6005546001600160a01b03165b6040516001600160a01b039091168152602001610163565b6101d061019f3660046108a1565b67ffffffffffffffff1982166000908152600360209081526040808320845185840120845290915290205492915050565b604051908152602001610163565b6101f16101ec3660046108ef565b6102f1565b005b6101f1610201366004610955565b610334565b6101f1610214366004610985565b6103ed565b6101f16102273660046109e0565b610422565b6000546001600160a01b0316610179565b6101f161024b3660046107bb565b6104bf565b61027c61025e366004610955565b6001600160a01b031660009081526004602052604090205460ff1690565b6040519015158152602001610163565b6101f161029a366004610a37565b61056d565b6101d06102ad3660046108a1565b67ffffffffffffffff1982166000908152600260209081526040808320845185840120845290915290205492915050565b6101f16102ec366004610aad565b610664565b6000546001600160a01b031633146103245760405162461bcd60e51b815260040161031b90610b21565b60405180910390fd5b61032f83838361070e565b505050565b6000546001600160a01b0316331461035e5760405162461bcd60e51b815260040161031b90610b21565b6001600160a01b0381166103c95760405162461bcd60e51b815260206004820152602c60248201527f4261736553746174653a2043616e6e6f7420617574686f72697a65207468652060448201526b7a65726f206164647265737360a01b606482015260840161031b565b6001600160a01b03166000908152600460205260409020805460ff19166001179055565b6000546001600160a01b031633146104175760405162461bcd60e51b815260040161031b90610b21565b61032f838383610741565b3360009081526004602052604090205460ff166104515760405162461bcd60e51b815260040161031b90610b63565b67ffffffffffffffff1983166000908152600360209081526040808320855186840120845290915290819020829055517f2a5c5e9f907f04c94740d47644d64436febf791f548ed4cc4d42de0c27967fbb906104b290859085908590610bf2565b60405180910390a1505050565b3360009081526004602052604090205460ff166104ee5760405162461bcd60e51b815260040161031b90610b63565b67ffffffffffffffff19811660008181526001602090815260408083206001600160e01b0319881680855290835281842060ff881680865290845282852094909455815190815291820192909252908101919091527f1e0b44403284c5f71ea7241d483d0e3f7c194af79a5bed65e25c2012dd229c22906060016104b2565b3360009081526004602052604090205460ff1661059c5760405162461bcd60e51b815260040161031b90610b63565b60408051808201825267ffffffffffffffff1984811680835267ffffffffffffffff8581166020808601828152948a166000818152600183528881206001600160e01b03198f1680835290845289822060ff8f16808452908552918a902098519751909516600160c01b0296891c96909617909655865192835282019390935293840192909252606083019190915260808201527fa54dd4022502bfa0d2b33a2acc90999866ede17ec6ca83c8124bbfdc5eac86519060a00160405180910390a15050505050565b3360009081526004602052604090205460ff166106935760405162461bcd60e51b815260040161031b90610b63565b805160208083019190912067ffffffffffffffff19851660009081526002835260408082208651878601208352909352828120829055915190917f79838124986a3a7ac303823ad382114a566cc5168f73baf207b82beab566d4af91610700918791879086908890610c3c565b60405180910390a150505050565b7fdffeac8fd30891d16d4fd6d375e13822f93ea2022cd53fff5807c05379f1426b8383836040516104b293929190610c9a565b7fbed80c5919aa762c9dc404f9c40660a62258ca74aa60222d9e107b4c07dd59778383836040516104b293929190610cdc565b80356001600160e01b03198116811461078c57600080fd5b919050565b803560ff8116811461078c57600080fd5b803567ffffffffffffffff198116811461078c57600080fd5b6000806000606084860312156107d057600080fd5b6107d984610774565b92506107e760208501610791565b91506107f5604085016107a2565b90509250925092565b634e487b7160e01b600052604160045260246000fd5b600082601f83011261082557600080fd5b813567ffffffffffffffff80821115610840576108406107fe565b604051601f8301601f19908116603f01168101908282118183101715610868576108686107fe565b8160405283815286602085880101111561088157600080fd5b836020870160208301376000602085830101528094505050505092915050565b600080604083850312156108b457600080fd5b6108bd836107a2565b9150602083013567ffffffffffffffff8111156108d957600080fd5b6108e585828601610814565b9150509250929050565b60008060006060848603121561090457600080fd5b61090d84610774565b9250602084013567ffffffffffffffff81111561092957600080fd5b61093586828701610814565b92505060408401356004811061094a57600080fd5b809150509250925092565b60006020828403121561096757600080fd5b81356001600160a01b038116811461097e57600080fd5b9392505050565b60008060006060848603121561099a57600080fd5b6109a384610774565b9250602084013567ffffffffffffffff8111156109bf57600080fd5b6109cb86828701610814565b9250506040840135600d811061094a57600080fd5b6000806000606084860312156109f557600080fd5b6109fe846107a2565b9250602084013567ffffffffffffffff811115610a1a57600080fd5b610a2686828701610814565b925050604084013590509250925092565b600080600080600060a08688031215610a4f57600080fd5b610a5886610774565b9450610a6660208701610791565b9350610a74604087016107a2565b9250610a82606087016107a2565b9150608086013567ffffffffffffffff81168114610a9f57600080fd5b809150509295509295909350565b600080600060608486031215610ac257600080fd5b610acb846107a2565b9250602084013567ffffffffffffffff80821115610ae857600080fd5b610af487838801610814565b93506040860135915080821115610b0a57600080fd5b50610b1786828701610814565b9150509250925092565b60208082526022908201527f4261736553746174653a2053656e646572206973206e6f7420746865206f776e60408201526132b960f11b606082015260800190565b60208082526029908201527f4261736553746174653a2053656e646572206973206e6f74206f6e2074686520604082015268185b1b1bdddb1a5cdd60ba1b606082015260800190565b6000815180845260005b81811015610bd257602081850181015186830182015201610bb6565b506000602082860101526020601f19601f83011685010191505092915050565b67ffffffffffffffff1984168152606060208201526000610c166060830185610bac565b9050826040830152949350505050565b634e487b7160e01b600052602160045260246000fd5b67ffffffffffffffff1986168152600060018610610c5c57610c5c610c26565b85602083015260a06040830152610c7660a0830186610bac565b8460608401528281036080840152610c8e8185610bac565b98975050505050505050565b63ffffffff60e01b84168152606060208201526000610cbc6060830185610bac565b905060048310610cce57610cce610c26565b826040830152949350505050565b63ffffffff60e01b84168152606060208201526000610cfe6060830185610bac565b9050600d8310610cce57610cce610c2656fea26469706673582212201702eb1d94f83a8b6989579c9e5e8d613b3b4182af7cd0daf604e2bf655201a664736f6c63430008130033608060405234801561001057600080fd5b50604051611b4d380380611b4d83398101604081905261002f91610054565b600080546001600160a01b0319166001600160a01b0392909216919091179055610084565b60006020828403121561006657600080fd5b81516001600160a01b038116811461007d57600080fd5b9392505050565b611aba806100936000396000f3fe608060405234801561001057600080fd5b50600436106100cf5760003560e01c8063893d20e81161008c578063babcc53911610066578063babcc539146101d7578063dc281aff146101fa578063f460211414610202578063ff271d481461021557600080fd5b8063893d20e8146101845780638c7a9e38146101a45780638eb5e41a146101b757600080fd5b80630bf24542146100d457806324eae3551461011557806327d9e1aa1461013657806367561d931461014b57806372efd7ac1461015e5780637aaee0d014610171575b600080fd5b6100e76100e23660046111b0565b610228565b6040805167ffffffffffffffff1990931683526001600160401b039091166020830152015b60405180910390f35b610128610123366004611299565b6102a9565b60405190815260200161010c565b6101496101443660046112e8565b610326565b005b610149610159366004611357565b610450565b61014961016c36600461137b565b610572565b61014961017f3660046113d5565b610693565b61018c6107ff565b6040516001600160a01b03909116815260200161010c565b6101496101b23660046111b0565b61087c565b6101ca6101c536600461142d565b6109ed565b60405161010c91906114cd565b6101ea6101e5366004611357565b610d15565b604051901515815260200161010c565b600154610128565b6101496102103660046115e5565b610d84565b610149610223366004611652565b610f9f565b600080546040516305f922a160e11b815282916001600160a01b031690630bf245429061025d908890889088906004016116c7565b6040805180830381865afa158015610279573d6000803e3d6000fd5b505050506040513d601f19601f8201168201806040525081019061029d91906116f7565b91509150935093915050565b600080546040516324eae35560e01b81526001600160a01b03909116906324eae355906102dc9086908690600401611731565b602060405180830381865afa1580156102f9573d6000803e3d6000fd5b505050506040513d601f19601f8201168201806040525081019061031d919061175c565b90505b92915050565b60008054906101000a90046001600160a01b03166001600160a01b031663893d20e86040518163ffffffff1660e01b8152600401602060405180830381865afa158015610377573d6000803e3d6000fd5b505050506040513d601f19601f8201168201806040525081019061039b9190611775565b6001600160a01b0316336001600160a01b0316146103d45760405162461bcd60e51b81526004016103cb90611792565b60405180910390fd5b60405162461bcd60e51b815260206004820152604560248201527f53746174654f70735265636f726465723a20726567697374657245646765547960448201527f7065206e6f7420737570706f7274656420666f722053746174654f707352656360648201526437b93232b960d91b608482015260a4016103cb565b60008054906101000a90046001600160a01b03166001600160a01b031663893d20e86040518163ffffffff1660e01b8152600401602060405180830381865afa1580156104a1573d6000803e3d6000fd5b505050506040513d601f19601f820116820180604052508101906104c59190611775565b6001600160a01b0316336001600160a01b0316146104f55760405162461bcd60e51b81526004016103cb90611792565b60405162461bcd60e51b815260206004820152604660248201527f53746174654f70735265636f726465723a20617574686f72697a65436f6e747260448201527f616374206e6f7420737570706f7274656420666f722053746174654f7073526560648201526531b7b93232b960d11b608482015260a4016103cb565b60008054906101000a90046001600160a01b03166001600160a01b031663893d20e86040518163ffffffff1660e01b8152600401602060405180830381865afa1580156105c3573d6000803e3d6000fd5b505050506040513d601f19601f820116820180604052508101906105e79190611775565b6001600160a01b0316336001600160a01b0316146106175760405162461bcd60e51b81526004016103cb90611792565b60405162461bcd60e51b815260206004820152604560248201527f53746174654f70735265636f726465723a2072656769737465724e6f6465547960448201527f7065206e6f7420737570706f7274656420666f722053746174654f707352656360648201526437b93232b960d91b608482015260a4016103cb565b60005460405163babcc53960e01b81523360048201526001600160a01b039091169063babcc53990602401602060405180830381865afa1580156106db573d6000803e3d6000fd5b505050506040513d601f19601f820116820180604052508101906106ff91906117d4565b61071b5760405162461bcd60e51b81526004016103cb906117f6565b6000546040516307aaee0d60e41b81526001600160a01b0390911690637aaee0d09061074f9086908690869060040161183f565b600060405180830381600087803b15801561076957600080fd5b505af115801561077d573d6000803e3d6000fd5b5050600180548082018255600091909152600602600080516020611a6583398151915281018054600365ffffffffff01600160f01b0319909116600160301b60408a901c021717815592507fb10e2d527612073b26eecdfd717e6a320cf44b4afac2b0732d9fcbe2b7fa0cf90190506107f684826118fb565b50600501555050565b60008060009054906101000a90046001600160a01b03166001600160a01b031663893d20e86040518163ffffffff1660e01b8152600401602060405180830381865afa158015610853573d6000803e3d6000fd5b505050506040513d601f19601f820116820180604052508101906108779190611775565b905090565b60005460405163babcc53960e01b81523360048201526001600160a01b039091169063babcc53990602401602060405180830381865afa1580156108c4573d6000803e3d6000fd5b505050506040513d601f19601f820116820180604052508101906108e891906117d4565b6109045760405162461bcd60e51b81526004016103cb906117f6565b60005460405163118f53c760e31b81526001600160a01b0390911690638c7a9e3890610938908690869086906004016116c7565b600060405180830381600087803b15801561095257600080fd5b505af1158015610966573d6000803e3d6000fd5b50506001805480820182556000829052600602600080516020611a6583398151915201805460409590951c600160301b026601000000000000600160f01b031960ff97909716650100000000000265ff00000000001960e09990991c610100029890981665ffffffffffff1990961695909517969096171793909316919091179092555050565b6060818303610a2f576040805160008082526020820190925290610a27565b610a1461111b565b815260200190600190039081610a0c5790505b509050610320565b828211610a765760405162461bcd60e51b8152602060048201526015602482015274544f206d7573742062652061667465722046524f4d60581b60448201526064016103cb565b610a8083836119d0565b6001600160401b03811115610a9757610a976111f7565b604051908082528060200260200182016040528015610ad057816020015b610abd61111b565b815260200190600190039081610ab55790505b50905060005b8151811015610d0e576001610aeb82866119e3565b81548110610afb57610afb6119f6565b600091825260209091206040805161012081019091526006909202018054829060ff166003811115610b2f57610b2f61144f565b6003811115610b4057610b4061144f565b815281546001600160e01b0319610100820460e01b16602083015260ff6501000000000082041660408084019190915267ffffffffffffffff19600160301b909204811b821660608401526001840154901b16608082015260028201546001600160a01b031660a082015260038201805460c090920191610bc090611872565b80601f0160208091040260200160405190810160405280929190818152602001828054610bec90611872565b8015610c395780601f10610c0e57610100808354040283529160200191610c39565b820191906000526020600020905b815481529060010190602001808311610c1c57829003601f168201915b50505050508152602001600482018054610c5290611872565b80601f0160208091040260200160405190810160405280929190818152602001828054610c7e90611872565b8015610ccb5780601f10610ca057610100808354040283529160200191610ccb565b820191906000526020600020905b815481529060010190602001808311610cae57829003601f168201915b50505050508152602001600582015481525050828281518110610cf057610cf06119f6565b60200260200101819052508080610d0690611a0c565b915050610ad6565b5092915050565b6000805460405163babcc53960e01b81526001600160a01b0384811660048301529091169063babcc53990602401602060405180830381865afa158015610d60573d6000803e3d6000fd5b505050506040513d601f19601f8201168201806040525081019061032091906117d4565b60005460405163babcc53960e01b81523360048201526001600160a01b039091169063babcc53990602401602060405180830381865afa158015610dcc573d6000803e3d6000fd5b505050506040513d601f19601f82011682018060405250810190610df091906117d4565b610e0c5760405162461bcd60e51b81526004016103cb906117f6565b600054604051633d18084560e21b81526001600160e01b03198716600482015260ff8616602482015267ffffffffffffffff198086166044830152841660648201526001600160401b03831660848201526001600160a01b039091169063f46021149060a401600060405180830381600087803b158015610e8c57600080fd5b505af1158015610ea0573d6000803e3d6000fd5b5050600180548082018255600091909152600602600080516020611a658339815191528101805465ffffffffffff191661010060e09a909a1c9990990265ff00000000001916989098176501000000000060ff9890981697909702969096176601000000000000600160f01b031916600160301b604096871c0217909655507fb10e2d527612073b26eecdfd717e6a320cf44b4afac2b0732d9fcbe2b7fa0cf7840180546001600160c01b0319169290931c919091179091557fb10e2d527612073b26eecdfd717e6a320cf44b4afac2b0732d9fcbe2b7fa0cf890910180546001600160401b039092166001600160a01b031990921691909117905550565b60005460405163babcc53960e01b81523360048201526001600160a01b039091169063babcc53990602401602060405180830381865afa158015610fe7573d6000803e3d6000fd5b505050506040513d601f19601f8201168201806040525081019061100b91906117d4565b6110275760405162461bcd60e51b81526004016103cb906117f6565b6000546040516001621b1c5760e31b031981526001600160a01b039091169063ff271d489061105e90869086908690600401611a25565b600060405180830381600087803b15801561107857600080fd5b505af115801561108c573d6000803e3d6000fd5b5050600180548082018255600091909152600602600080516020611a6583398151915281018054600265ffffffffff01600160f01b0319909116600160301b60408a901c021717815592507fb10e2d527612073b26eecdfd717e6a320cf44b4afac2b0732d9fcbe2b7fa0cf901905061110584826118fb565b506004810161111483826118fb565b5050505050565b60408051610120810190915280600081526000602082018190526040820181905260608083018290526080830182905260a0830182905260c0830181905260e08301526101009091015290565b80356001600160e01b03198116811461118057600080fd5b919050565b803560ff8116811461118057600080fd5b67ffffffffffffffff19811681146111ad57600080fd5b50565b6000806000606084860312156111c557600080fd5b6111ce84611168565b92506111dc60208501611185565b915060408401356111ec81611196565b809150509250925092565b634e487b7160e01b600052604160045260246000fd5b600082601f83011261121e57600080fd5b81356001600160401b0380821115611238576112386111f7565b604051601f8301601f19908116603f01168101908282118183101715611260576112606111f7565b8160405283815286602085880101111561127957600080fd5b836020870160208301376000602085830101528094505050505092915050565b600080604083850312156112ac57600080fd5b82356112b781611196565b915060208301356001600160401b038111156112d257600080fd5b6112de8582860161120d565b9150509250929050565b6000806000606084860312156112fd57600080fd5b61130684611168565b925060208401356001600160401b0381111561132157600080fd5b61132d8682870161120d565b9250506040840135600481106111ec57600080fd5b6001600160a01b03811681146111ad57600080fd5b60006020828403121561136957600080fd5b813561137481611342565b9392505050565b60008060006060848603121561139057600080fd5b61139984611168565b925060208401356001600160401b038111156113b457600080fd5b6113c08682870161120d565b9250506040840135600d81106111ec57600080fd5b6000806000606084860312156113ea57600080fd5b83356113f581611196565b925060208401356001600160401b0381111561141057600080fd5b61141c8682870161120d565b925050604084013590509250925092565b6000806040838503121561144057600080fd5b50508035926020909101359150565b634e487b7160e01b600052602160045260246000fd5b6004811061148357634e487b7160e01b600052602160045260246000fd5b9052565b6000815180845260005b818110156114ad57602081850181015186830182015201611491565b506000602082860101526020601f19601f83011685010191505092915050565b60006020808301818452808551808352604092508286019150828160051b87010184880160005b838110156115c257603f198984030185528151610120611515858351611465565b888201516001600160e01b031916858a01528782015160ff168886015260608083015167ffffffffffffffff19908116918701919091526080808401519091169086015260a0808301516001600160a01b03169086015260c08083015181870183905261158483880182611487565b9250505060e0808301518683038288015261159f8382611487565b6101009485015197909401969096525050948701949250908601906001016114f4565b509098975050505050505050565b6001600160401b03811681146111ad57600080fd5b600080600080600060a086880312156115fd57600080fd5b61160686611168565b945061161460208701611185565b9350604086013561162481611196565b9250606086013561163481611196565b91506080860135611644816115d0565b809150509295509295909350565b60008060006060848603121561166757600080fd5b833561167281611196565b925060208401356001600160401b038082111561168e57600080fd5b61169a8783880161120d565b935060408601359150808211156116b057600080fd5b506116bd8682870161120d565b9150509250925092565b6001600160e01b031993909316835260ff91909116602083015267ffffffffffffffff1916604082015260600190565b6000806040838503121561170a57600080fd5b825161171581611196565b6020840151909250611726816115d0565b809150509250929050565b6001600160401b0319831681526040602082015260006117546040830184611487565b949350505050565b60006020828403121561176e57600080fd5b5051919050565b60006020828403121561178757600080fd5b815161137481611342565b60208082526022908201527f4261736553746174653a2053656e646572206973206e6f7420746865206f776e60408201526132b960f11b606082015260800190565b6000602082840312156117e657600080fd5b8151801515811461137457600080fd5b60208082526029908201527f4261736553746174653a2053656e646572206973206e6f74206f6e2074686520604082015268185b1b1bdddb1a5cdd60ba1b606082015260800190565b6001600160401b0319841681526060602082015260006118626060830185611487565b9050826040830152949350505050565b600181811c9082168061188657607f821691505b6020821081036118a657634e487b7160e01b600052602260045260246000fd5b50919050565b601f8211156118f657600081815260208120601f850160051c810160208610156118d35750805b601f850160051c820191505b818110156118f2578281556001016118df565b5050505b505050565b81516001600160401b03811115611914576119146111f7565b611928816119228454611872565b846118ac565b602080601f83116001811461195d57600084156119455750858301515b600019600386901b1c1916600185901b1785556118f2565b600085815260208120601f198616915b8281101561198c5788860151825594840194600190910190840161196d565b50858210156119aa5787850151600019600388901b60f8161c191681555b5050505050600190811b01905550565b634e487b7160e01b600052601160045260246000fd5b81810381811115610320576103206119ba565b80820180821115610320576103206119ba565b634e487b7160e01b600052603260045260246000fd5b600060018201611a1e57611a1e6119ba565b5060010190565b6001600160401b031984168152606060208201526000611a486060830185611487565b8281036040840152611a5a8185611487565b969550505050505056feb10e2d527612073b26eecdfd717e6a320cf44b4afac2b0732d9fcbe2b7fa0cf6a26469706673582212208af485e49824495dca42a8ab49521395364c9dbd0929555378235b2a676560c564736f6c63430008130033608060405234801561001057600080fd5b50611a9c806100206000396000f3fe608060405234801561001057600080fd5b506004361061007d5760003560e01c8063431a1b971161005b578063431a1b97146100bd5780636fdc0e1014610146578063ab59f1d014610159578063bb68f5e71461017957600080fd5b806302dd3ed4146100825780633f43ebca14610097578063401870d9146100aa575b600080fd5b610095610090366004610f23565b61018c565b005b6100956100a5366004610fc4565b61019f565b6100956100b8366004611019565b6103ae565b61010a6100cb3660046110a3565b600060208190529081526040902080546001909101546001600160a01b039182169181169063ffffffff600160a01b8204811691600160c01b90041684565b604080516001600160a01b03958616815294909316602085015263ffffffff918216928401929092521660608201526080015b60405180910390f35b6100956101543660046110c0565b610510565b61016c6101673660046110c0565b6107b7565b60405161013d91906111d4565b6100956101873660046110a3565b610a7e565b6101998484848433610b2a565b50505050565b600060016040518060400160405280601a81526020017f19457468657265756d205369676e6564204d6573736167653a0a0000000000008152506102246040518060400160405280602081526020017f596f7520617265207369676e696e67206f7574206f662073657373696f6e3a2081525051601461021f91906112ed565b610c50565b60408051808201825260208082527f596f7520617265207369676e696e67206f7574206f662073657373696f6e3a208183015291516102679493928a910161131c565b6040516020818303038152906040528051906020012084846040906041926102919392919061137b565b61029a916113a5565b60f81c6102ab60206000878961137b565b6102b4916113d5565b6102c260406020888a61137b565b6102cb916113d5565b6040805160008152602081018083529590955260ff909316928401929092526060830152608082015260a0016020604051602081039080840390855afa158015610319573d6000803e3d6000fd5b505060408051601f1901516001600160a01b038088166000908152602081905292909220600181015491945092508116908316146103725760405162461bcd60e51b8152600401610369906113f3565b60405180910390fd5b505050506001600160a01b0316600090815260208190526040902080546001600160a01b031916815560010180546001600160e01b0319169055565b60006103bb868686610c94565b9050600060016040518060400160405280601a81526020017f19457468657265756d205369676e6564204d6573736167653a0a0000000000008152506104018451610c50565b8460405160200161041493929190611420565b60405160208183030381529060405280519060200120858560409060419261043e9392919061137b565b610447916113a5565b60f81c61045860206000888a61137b565b610461916113d5565b61046f60406020898b61137b565b610478916113d5565b6040805160008152602081018083529590955260ff909316928401929092526060830152608082015260a0016020604051602081039080840390855afa1580156104c6573d6000803e3d6000fd5b5050604051601f1901519150506001600160a01b0381166104f95760405162461bcd60e51b8152600401610369906113f3565b6105068888888885610b2a565b5050505050505050565b600082810361052e5750336000908152602081905260409020610666565b600060018787856040516020016105479392919061151e565b60408051601f198184030181529082905280516020918201207f19457468657265756d205369676e6564204d6573736167653a0a33320000000091830191909152603c820152605c016040516020818303038152906040528051906020012086866040906041926105ba9392919061137b565b6105c3916113a5565b60f81c6105d460206000898b61137b565b6105dd916113d5565b6105eb604060208a8c61137b565b6105f4916113d5565b6040805160008152602081018083529590955260ff909316928401929092526060830152608082015260a0016020604051602081039080840390855afa158015610642573d6000803e3d6000fd5b505060408051601f1901516001600160a01b03166000908152602081905220925050505b60018101546001600160a01b03166106905760405162461bcd60e51b8152600401610369906113f3565b6001810154600160a01b900463ffffffff164311156106e25760405162461bcd60e51b815260206004820152600e60248201526d14d95cdcda5bdb915e1c1a5c995960921b6044820152606401610369565b6040805160608101825260018301546001600160a01b038082168352600160c01b90910463ffffffff908116602084015243168284015283549251639340293960e01b815291921690639340293990610743908a908a908690600401611542565b600060405180830381600087803b15801561075d57600080fd5b505af1158015610771573d6000803e3d6000fd5b505050507fc7aa84a2bda9a04dfe50cbdf91bc9f9d2ad0e794a2dd16e7b575887109f77ca085856040516107a692919061158f565b60405180910390a150505050505050565b606060008381036107d7575033600090815260208190526040902061090f565b600060018888866040516020016107f09392919061151e565b60408051601f198184030181529082905280516020918201207f19457468657265756d205369676e6564204d6573736167653a0a33320000000091830191909152603c820152605c016040516020818303038152906040528051906020012087876040906041926108639392919061137b565b61086c916113a5565b60f81c61087d602060008a8c61137b565b610886916113d5565b610894604060208b8d61137b565b61089d916113d5565b6040805160008152602081018083529590955260ff909316928401929092526060830152608082015260a0016020604051602081039080840390855afa1580156108eb573d6000803e3d6000fd5b505060408051601f1901516001600160a01b03166000908152602081905220925050505b60018101546001600160a01b03166109395760405162461bcd60e51b8152600401610369906113f3565b6001810154600160a01b900463ffffffff1643111561098b5760405162461bcd60e51b815260206004820152600e60248201526d14d95cdcda5bdb915e1c1a5c995960921b6044820152606401610369565b6040805160608101825260018301546001600160a01b038082168352600160c01b90910463ffffffff9081166020840152431682840152835492516305395f2d60e21b815291926000929116906314e57cb4906109f0908c908c908790600401611542565b6000604051808303816000875af1158015610a0f573d6000803e3d6000fd5b505050506040513d6000823e601f3d908101601f19168201604052610a3791908101906116dc565b90507fc7aa84a2bda9a04dfe50cbdf91bc9f9d2ad0e794a2dd16e7b575887109f77ca08787604051610a6a92919061158f565b60405180910390a198975050505050505050565b6001600160a01b03808216600090815260208190526040902060018101549091163314610abd5760405162461bcd60e51b8152600401610369906113f3565b6001600160a01b0382166000818152602081815260409182902080546001600160a01b031916815560010180546001600160e01b031916905590519182527fd2dd19770a4e71b8a94a6f9865e6028f2b4d94ae88504113827e9f4979980a0f910160405180910390a15050565b6000610b3585610cd7565b604080516080810182526001600160a01b03808a168252858116602080840191825263ffffffff8087168587019081528b8216606087019081528b861660009081529384905292879020955186549086166001600160a01b0319909116178655925160019095018054935192518216600160c01b0263ffffffff60c01b1993909216600160a01b026001600160c01b031990941695909416949094179190911716919091179055519091507f703437513e11491a538cde074889536a9cb295a07dc2d8de3ec316435737e4c590610c409085908590859089906001600160a01b03948516815292909316602083015263ffffffff908116604083015291909116606082015260800190565b60405180910390a1505050505050565b606060a06040510180604052602081039150506000815280825b600183039250600a81066030018353600a900480610c6a5750819003601f19909101908152919050565b6060610ca58463ffffffff16610c50565b610cae83610d3e565b604051602001610cbf929190611869565b60405160208183030381529060405290509392505050565b6000619c4063ffffffff83161115610d285760405162461bcd60e51b815260206004820152601460248201527353657373696f6e457870697279546f6f4c6f6e6760601b6044820152606401610369565b610d3863ffffffff8316436112ed565b92915050565b6060610d386001600160a01b038316601460606000610d5e836002611a22565b610d699060026112ed565b67ffffffffffffffff811115610d8157610d816115ab565b6040519080825280601f01601f191660200182016040528015610dab576020820181803683370190505b509050600360fc1b81600081518110610dc657610dc6611a39565b60200101906001600160f81b031916908160001a905350600f60fb1b81600181518110610df557610df5611a39565b60200101906001600160f81b031916908160001a9053506000610e19846002611a22565b610e249060016112ed565b90505b6001811115610e9c576f181899199a1a9b1b9c1cb0b131b232b360811b85600f1660108110610e5857610e58611a39565b1a60f81b828281518110610e6e57610e6e611a39565b60200101906001600160f81b031916908160001a90535060049490941c93610e9581611a4f565b9050610e27565b508315610eeb5760405162461bcd60e51b815260206004820181905260248201527f537472696e67733a20686578206c656e67746820696e73756666696369656e746044820152606401610369565b9392505050565b6001600160a01b0381168114610f0757600080fd5b50565b803563ffffffff81168114610f1e57600080fd5b919050565b60008060008060808587031215610f3957600080fd5b8435610f4481610ef2565b9350610f5260208601610f0a565b9250610f6060408601610f0a565b91506060850135610f7081610ef2565b939692955090935050565b60008083601f840112610f8d57600080fd5b50813567ffffffffffffffff811115610fa557600080fd5b602083019150836020828501011115610fbd57600080fd5b9250929050565b600080600060408486031215610fd957600080fd5b8335610fe481610ef2565b9250602084013567ffffffffffffffff81111561100057600080fd5b61100c86828701610f7b565b9497909650939450505050565b60008060008060008060a0878903121561103257600080fd5b863561103d81610ef2565b955061104b60208801610f0a565b945061105960408801610f0a565b9350606087013561106981610ef2565b9250608087013567ffffffffffffffff81111561108557600080fd5b61109189828a01610f7b565b979a9699509497509295939492505050565b6000602082840312156110b557600080fd5b8135610eeb81610ef2565b6000806000806000606086880312156110d857600080fd5b853567ffffffffffffffff808211156110f057600080fd5b818801915088601f83011261110457600080fd5b81358181111561111357600080fd5b8960208260051b850101111561112857600080fd5b60209283019750955090870135908082111561114357600080fd5b5061115088828901610f7b565b96999598509660400135949350505050565b6004811061118057634e487b7160e01b600052602160045260246000fd5b9052565b60005b8381101561119f578181015183820152602001611187565b50506000910152565b600081518084526111c0816020860160208601611184565b601f01601f19169290920160200192915050565b60006020808301818452808551808352604092508286019150828160051b87010184880160005b838110156112c957603f19898403018552815161012061121c858351611162565b888201516001600160e01b031916858a01528782015160ff168886015260608083015167ffffffffffffffff19908116918701919091526080808401519091169086015260a0808301516001600160a01b03169086015260c08083015181870183905261128b838801826111a8565b9250505060e080830151868303828801526112a683826111a8565b6101009485015197909401969096525050948701949250908601906001016111fb565b509098975050505050505050565b634e487b7160e01b600052601160045260246000fd5b80820180821115610d3857610d386112d7565b60008151611312818560208601611184565b9290920192915050565b6000855161132e818460208a01611184565b855190830190611342818360208a01611184565b8551910190611355818360208901611184565b60609490941b6bffffffffffffffffffffffff1916930192835250506014019392505050565b6000808585111561138b57600080fd5b8386111561139857600080fd5b5050820193919092039150565b6001600160f81b031981358181169160018510156113cd5780818660010360031b1b83161692505b505092915050565b80356020831015610d3857600019602084900360031b1b1692915050565b60208082526013908201527214d95cdcda5bdb955b985d5d1a1bdc9a5e9959606a1b604082015260600190565b60008451611432818460208901611184565b845190830190611446818360208901611184565b8451910190611459818360208801611184565b0195945050505050565b81835281816020850137506000828201602090810191909152601f909101601f19169091010190565b81835260006020808501808196508560051b810191508460005b878110156115115782840389528135601e198836030181126114c757600080fd5b8701858101903567ffffffffffffffff8111156114e357600080fd5b8036038213156114f257600080fd5b6114fd868284611463565b9a87019a95505050908401906001016114a6565b5091979650505050505050565b60408152600061153260408301858761148c565b9050826020830152949350505050565b60808152600061155660808301858761148c565b905060018060a01b038351166020830152602083015163ffffffff80821660408501528060408601511660608501525050949350505050565b6020815260006115a3602083018486611463565b949350505050565b634e487b7160e01b600052604160045260246000fd5b604051610120810167ffffffffffffffff811182821017156115e5576115e56115ab565b60405290565b604051601f8201601f1916810167ffffffffffffffff81118282101715611614576116146115ab565b604052919050565b805160048110610f1e57600080fd5b80516001600160e01b031981168114610f1e57600080fd5b805160ff81168114610f1e57600080fd5b805167ffffffffffffffff1981168114610f1e57600080fd5b8051610f1e81610ef2565b600082601f83011261168957600080fd5b815167ffffffffffffffff8111156116a3576116a36115ab565b6116b6601f8201601f19166020016115eb565b8181528460208386010111156116cb57600080fd5b6115a3826020830160208701611184565b600060208083850312156116ef57600080fd5b825167ffffffffffffffff8082111561170757600080fd5b818501915085601f83011261171b57600080fd5b81518181111561172d5761172d6115ab565b8060051b61173c8582016115eb565b918252838101850191858101908984111561175657600080fd5b86860192505b8383101561185c5782518581111561177357600080fd5b8601610120818c03601f190181131561178b57600080fd5b6117936115c1565b61179e8a840161161c565b81526117ac6040840161162b565b8a8201526117bc60608401611643565b60408201526117cd60808401611654565b60608201526117de60a08401611654565b60808201526117ef60c0840161166d565b60a082015260e0830151888111156118075760008081fd5b6118158e8c83870101611678565b60c08301525061010080840151898111156118305760008081fd5b61183e8f8d83880101611678565b60e0840152509190920151908201528252918601919086019061175c565b9998505050505050505050565b7557656c636f6d6520746f20446f776e73747265616d2160501b81527f0a0a5468697320736974652069732072657175657374696e67207065726d697360168201527f73696f6e20746f20696e746572616374207769746820796f757220446f776e7360368201526c3a3932b0b69030b9b9b2ba399760991b60568201527f0a0a5369676e696e672074686973206d6573736167652077696c6c206e6f742060638201526e34b731bab91030b73c903332b2b99760891b60838201527f0a0a596f752063616e207265766f6b652073657373696f6e7320616e6420726560928201527f6164206d6f72652061626f7574207468656d2061742068747470733a2f2f646f60b282015274776e73747265616d2e636f6d2f73657373696f6e7360581b60d28201527f0a0a5065726d697373696f6e733a2073656e642d616374696f6e732c2073706560e7820152686e642d656e6572677960b81b610107820152675052b30b634b21d160bd1b61011082015260006115a3611a1c611a066119f3610119860188611300565b6620626c6f636b7360c81b815260070190565b6950529b2b9b9b4b7b71d160ad1b8152600b0190565b84611300565b8082028115828204841417610d3857610d386112d7565b634e487b7160e01b600052603260045260246000fd5b600081611a5e57611a5e6112d7565b50600019019056fea264697066735822122095a43b8da489a00c9329da1a9653fc9336d0e4e0a4556437d5e164fcc72f2d6a64736f6c63430008130033608060405234801561001057600080fd5b506040516115c33803806115c383398101604081905261002f916100f5565b600080546001600160a01b0319166001600160a01b03831617905561005330610059565b50610125565b6000546001600160a01b031633146100c75760405162461bcd60e51b815260206004820152602760248201527f42617365446973706174636865723a2053656e646572206973206e6f74207468604482015266329037bbb732b960c91b606482015260840160405180910390fd5b6100f2816001600160a01b03166000908152600160208190526040909120805460ff19169091179055565b50565b60006020828403121561010757600080fd5b81516001600160a01b038116811461011e57600080fd5b9392505050565b61148f806101346000396000f3fe608060405234801561001057600080fd5b50600436106100b45760003560e01c80637ae1eddc116100715780637ae1eddc1461015b5780637bec951c1461016e5780638da5cb5b146101815780639340293914610194578063ab7fff18146101a7578063ff70b936146101ba57600080fd5b806314e57cb4146100b957806322b19af7146100e25780633a8f985b146100f75780633c0553981461010a57806344f4c1661461011d5780635853e78114610148575b600080fd5b6100cc6100c7366004610c9f565b6101cd565b6040516100d99190610d66565b60405180910390f35b6100f56100f0366004610e7e565b610387565b005b6100f5610105366004610ee4565b6103e8565b6100f5610118366004610e7e565b610559565b61013061012b366004610e7e565b61058c565b6040516001600160a01b0390911681526020016100d9565b6100cc610156366004610f1c565b61060b565b6100cc610169366004610f5e565b6106a1565b6100cc61017c366004610ee4565b610854565b600054610130906001600160a01b031681565b6100f56101a2366004610c9f565b610a88565b6100f56101b5366004610f1c565b610ad8565b6100f56101c8366004610f5e565b610b55565b60606000600560009054906101000a90046001600160a01b03166001600160a01b031663dc281aff6040518163ffffffff1660e01b8152600401602060405180830381865afa158015610224573d6000803e3d6000fd5b505050506040513d601f19601f820116820180604052508101906102489190610f94565b905060005b848110156102955761028286868381811061026a5761026a610fad565b905060200281019061027c9190610fc3565b86610854565b508061028d8161100a565b91505061024d565b506005546040805163dc281aff60e01b815290516000926001600160a01b03169163dc281aff9160048083019260209291908290030181865afa1580156102e0573d6000803e3d6000fd5b505050506040513d601f19601f820116820180604052508101906103049190610f94565b60055460405163475af20d60e11b815260048101859052602481018390529192506001600160a01b031690638eb5e41a90604401600060405180830381865afa158015610355573d6000803e3d6000fd5b505050506040513d6000823e601f3d908101601f1916820160405261037d9190810190611162565b9695505050505050565b6000546001600160a01b031633146103ba5760405162461bcd60e51b81526004016103b1906112ef565b60405180910390fd5b6103e5816001600160a01b03166000908152600160208190526040909120805460ff19169091179055565b50565b3360009081526001602052604090205460ff166104415760405162461bcd60e51b81526020600482015260176024820152762234b9b830ba31b42ab73a393ab9ba32b229b2b73232b960491b60448201526064016103b1565b60005b6003548110156104fa576003818154811061046157610461610fad565b600091825260209091200154600480546040516331251f6f60e11b81526001600160a01b039384169363624a3ede936104a49390911691899189918991016113bb565b6020604051808303816000875af11580156104c3573d6000803e3d6000fd5b505050506040513d601f19601f820116820180604052508101906104e791906113ef565b50806104f28161100a565b915050610444565b506105086020820182610e7e565b6001600160a01b03167fec2a69e69fdc41310325ceaf306963d8578d060932acd8f2e2c92b4eb5948cad60405161054c90661e3737b731b29f60c91b815260200190565b60405180910390a2505050565b6000546001600160a01b031633146105835760405162461bcd60e51b81526004016103b1906112ef565b6103e581610b9e565b600080546001600160a01b031633146105b75760405162461bcd60e51b81526004016103b1906112ef565b600380546001810182556000919091527fc2575a0e9e593c00f959f8c92f12db2869c3395a3b0502d05e2516446f71f85b0180546001600160a01b0319166001600160a01b0384161790558190505b919050565b604080516060818101835233825261ffff60208301524363ffffffff16828401529151631efb254760e21b81523090637bec951c906106529087908790869060040161140c565b6000604051808303816000875af1158015610671573d6000803e3d6000fd5b505050506040513d6000823e601f3d908101601f191682016040526106999190810190611162565b949350505050565b60606000600560009054906101000a90046001600160a01b03166001600160a01b031663dc281aff6040518163ffffffff1660e01b8152600401602060405180830381865afa1580156106f8573d6000803e3d6000fd5b505050506040513d601f19601f8201168201806040525081019061071c9190610f94565b905060005b838110156107635761075085858381811061073e5761073e610fad565b90506020028101906101569190610fc3565b508061075b8161100a565b915050610721565b506005546040805163dc281aff60e01b815290516000926001600160a01b03169163dc281aff9160048083019260209291908290030181865afa1580156107ae573d6000803e3d6000fd5b505050506040513d601f19601f820116820180604052508101906107d29190610f94565b60055460405163475af20d60e11b815260048101859052602481018390529192506001600160a01b031690638eb5e41a90604401600060405180830381865afa158015610823573d6000803e3d6000fd5b505050506040513d6000823e601f3d908101601f1916820160405261084b9190810190611162565b95945050505050565b60606000600560009054906101000a90046001600160a01b03166001600160a01b031663dc281aff6040518163ffffffff1660e01b8152600401602060405180830381865afa1580156108ab573d6000803e3d6000fd5b505050506040513d601f19601f820116820180604052508101906108cf9190610f94565b3360009081526001602052604090205490915060ff1661092b5760405162461bcd60e51b81526020600482015260176024820152762234b9b830ba31b42ab73a393ab9ba32b229b2b73232b960491b60448201526064016103b1565b60005b6003548110156109e4576003818154811061094b5761094b610fad565b6000918252602090912001546005546040516331251f6f60e11b81526001600160a01b039283169263624a3ede9261098e929116908a908a908a906004016113bb565b6020604051808303816000875af11580156109ad573d6000803e3d6000fd5b505050506040513d601f19601f820116820180604052508101906109d191906113ef565b50806109dc8161100a565b91505061092e565b506109f26020840184610e7e565b6001600160a01b03167fec2a69e69fdc41310325ceaf306963d8578d060932acd8f2e2c92b4eb5948cad604051610a3690661e3737b731b29f60c91b815260200190565b60405180910390a26005546040805163dc281aff60e01b815290516000926001600160a01b03169163dc281aff9160048083019260209291908290030181865afa1580156102e0573d6000803e3d6000fd5b60005b82811015610ad257610ac0848483818110610aa857610aa8610fad565b9050602002810190610aba9190610fc3565b846103e8565b80610aca8161100a565b915050610a8b565b50505050565b6040805160608101825233815261ffff60208201524363ffffffff16818301529051633a8f985b60e01b81523090633a8f985b90610b1e9086908690869060040161140c565b600060405180830381600087803b158015610b3857600080fd5b505af1158015610b4c573d6000803e3d6000fd5b50505050505050565b60005b81811015610b9957610b87838383818110610b7557610b75610fad565b90506020028101906101b59190610fc3565b80610b918161100a565b915050610b58565b505050565b600480546001600160a01b0319166001600160a01b038316908117825560408051630c80d51160e01b815290519192630c80d5119282820192602092908290030181865afa158015610bf4573d6000803e3d6000fd5b505050506040513d601f19601f82011682018060405250810190610c1891906113ef565b600580546001600160a01b0319166001600160a01b039290921691909117905550565b60008083601f840112610c4d57600080fd5b50813567ffffffffffffffff811115610c6557600080fd5b6020830191508360208260051b8501011115610c8057600080fd5b9250929050565b600060608284031215610c9957600080fd5b50919050565b600080600060808486031215610cb457600080fd5b833567ffffffffffffffff811115610ccb57600080fd5b610cd786828701610c3b565b9094509250610ceb90508560208601610c87565b90509250925092565b60048110610d1257634e487b7160e01b600052602160045260246000fd5b9052565b60005b83811015610d31578181015183820152602001610d19565b50506000910152565b60008151808452610d52816020860160208601610d16565b601f01601f19169290920160200192915050565b60006020808301818452808551808352604092508286019150828160051b87010184880160005b83811015610e5b57603f198984030185528151610120610dae858351610cf4565b888201516001600160e01b031916858a01528782015160ff168886015260608083015167ffffffffffffffff19908116918701919091526080808401519091169086015260a0808301516001600160a01b03169086015260c080830151818701839052610e1d83880182610d3a565b9250505060e08083015186830382880152610e388382610d3a565b610100948501519790940196909652505094870194925090860190600101610d8d565b509098975050505050505050565b6001600160a01b03811681146103e557600080fd5b600060208284031215610e9057600080fd5b8135610e9b81610e69565b9392505050565b60008083601f840112610eb457600080fd5b50813567ffffffffffffffff811115610ecc57600080fd5b602083019150836020828501011115610c8057600080fd5b600080600060808486031215610ef957600080fd5b833567ffffffffffffffff811115610f1057600080fd5b610cd786828701610ea2565b60008060208385031215610f2f57600080fd5b823567ffffffffffffffff811115610f4657600080fd5b610f5285828601610ea2565b90969095509350505050565b60008060208385031215610f7157600080fd5b823567ffffffffffffffff811115610f8857600080fd5b610f5285828601610c3b565b600060208284031215610fa657600080fd5b5051919050565b634e487b7160e01b600052603260045260246000fd5b6000808335601e19843603018112610fda57600080fd5b83018035915067ffffffffffffffff821115610ff557600080fd5b602001915036819003821315610c8057600080fd5b60006001820161102a57634e487b7160e01b600052601160045260246000fd5b5060010190565b634e487b7160e01b600052604160045260246000fd5b604051610120810167ffffffffffffffff8111828210171561106b5761106b611031565b60405290565b604051601f8201601f1916810167ffffffffffffffff8111828210171561109a5761109a611031565b604052919050565b80516004811061060657600080fd5b80516001600160e01b03198116811461060657600080fd5b805160ff8116811461060657600080fd5b805167ffffffffffffffff198116811461060657600080fd5b805161060681610e69565b600082601f83011261110f57600080fd5b815167ffffffffffffffff81111561112957611129611031565b61113c601f8201601f1916602001611071565b81815284602083860101111561115157600080fd5b610699826020830160208701610d16565b6000602080838503121561117557600080fd5b825167ffffffffffffffff8082111561118d57600080fd5b818501915085601f8301126111a157600080fd5b8151818111156111b3576111b3611031565b8060051b6111c2858201611071565b91825283810185019185810190898411156111dc57600080fd5b86860192505b838310156112e2578251858111156111f957600080fd5b8601610120818c03601f190181131561121157600080fd5b611219611047565b6112248a84016110a2565b8152611232604084016110b1565b8a820152611242606084016110c9565b6040820152611253608084016110da565b606082015261126460a084016110da565b608082015261127560c084016110f3565b60a082015260e08301518881111561128d5760008081fd5b61129b8e8c838701016110fe565b60c08301525061010080840151898111156112b65760008081fd5b6112c48f8d838801016110fe565b60e084015250919092015190820152825291860191908601906111e2565b9998505050505050505050565b60208082526027908201527f42617365446973706174636865723a2053656e646572206973206e6f74207468604082015266329037bbb732b960c91b606082015260800190565b81835281816020850137506000828201602090810191909152601f909101601f19169091010190565b803563ffffffff8116811461060657600080fd5b803561137e81610e69565b6001600160a01b031682526113956020820161135f565b63ffffffff8082166020850152806113af6040850161135f565b16604085015250505050565b6001600160a01b038516815260a0602082018190526000906113e09083018587611336565b905061084b6040830184611373565b60006020828403121561140157600080fd5b8151610e9b81610e69565b608081526000611420608083018587611336565b905060018060a01b038351166020830152602083015163ffffffff8082166040850152806040860151166060850152505094935050505056fea2646970667358221220e018b9052cf30a30da6a60a74c6d72876d0ec17722f4f8e8a71fdb527977588a64736f6c63430008130033",
    "linkReferences": {}
  },
  "methodIdentifiers": {
    "autorizeStateMutation(address)": "917d669d",
    "getDispatcher()": "ebb3d589",
    "getMetadata()": "7a5b4f59",
    "getRouter()": "b0f479a1",
    "getState()": "1865c57d",
    "getUnitTimeoutBlocks()": "a8680765",
    "getZoneUnitLimit()": "fe9786a3",
    "owner()": "8da5cb5b",
    "registerRule(address)": "44f4c166",
    "registerTokensContract(address)": "d5e7ecc8",
    "setUnitTimeoutBlocks(uint64)": "a7a85f93",
    "setZoneUnitLimit(uint64)": "c5937412",
    "tokens()": "9d63848a",
    "zoneOwnership()": "3a0d8fae"
  },
  "id": 33
}