{
  "abi": [
    {
      "anonymous": false,
      "inputs": [
        {
          "indexed": false,
          "internalType": "bytes",
          "name": "sig",
          "type": "bytes"
        }
      ],
      "name": "SeenOpSet",
      "type": "event"
    },
    {
      "anonymous": false,
      "inputs": [
        {
          "indexed": false,
          "internalType": "address",
          "name": "session",
          "type": "address"
        },
        {
          "indexed": false,
          "internalType": "address",
          "name": "owner",
          "type": "address"
        },
        {
          "indexed": false,
          "internalType": "uint32",
          "name": "exp",
          "type": "uint32"
        },
        {
          "indexed": false,
          "internalType": "uint32",
          "name": "scopes",
          "type": "uint32"
        }
      ],
      "name": "SessionCreate",
      "type": "event"
    },
    {
      "anonymous": false,
      "inputs": [
        {
          "indexed": false,
          "internalType": "address",
          "name": "session",
          "type": "address"
        }
      ],
      "name": "SessionDestroy",
      "type": "event"
    },
    {
      "inputs": [
        {
          "internalType": "contract Dispatcher",
          "name": "dispatcher",
          "type": "address"
        },
        {
          "internalType": "uint32",
          "name": "ttl",
          "type": "uint32"
        },
        {
          "internalType": "uint32",
          "name": "scopes",
          "type": "uint32"
        },
        {
          "internalType": "address",
          "name": "sessionAddr",
          "type": "address"
        }
      ],
      "name": "authorizeAddr",
      "outputs": [],
      "stateMutability": "nonpayable",
      "type": "function"
    },
    {
      "inputs": [
        {
          "internalType": "contract Dispatcher",
          "name": "dispatcher",
          "type": "address"
        },
        {
          "internalType": "uint32",
          "name": "ttl",
          "type": "uint32"
        },
        {
          "internalType": "uint32",
          "name": "scopes",
          "type": "uint32"
        },
        {
          "internalType": "address",
          "name": "sessionAddr",
          "type": "address"
        },
        {
          "internalType": "bytes",
          "name": "sig",
          "type": "bytes"
        }
      ],
      "name": "authorizeAddr",
      "outputs": [],
      "stateMutability": "nonpayable",
      "type": "function"
    },
    {
      "inputs": [
        {
          "internalType": "bytes[]",
          "name": "actions",
          "type": "bytes[]"
        },
        {
          "internalType": "bytes",
          "name": "sig",
          "type": "bytes"
        },
        {
          "internalType": "uint256",
          "name": "nonce",
          "type": "uint256"
        }
      ],
      "name": "dispatch",
      "outputs": [],
      "stateMutability": "nonpayable",
      "type": "function"
    },
    {
      "inputs": [
        {
          "internalType": "bytes[]",
          "name": "actions",
          "type": "bytes[]"
        },
        {
          "internalType": "bytes",
          "name": "sig",
          "type": "bytes"
        },
        {
          "internalType": "uint256",
          "name": "nonce",
          "type": "uint256"
        }
      ],
      "name": "dispatchWithOpsRecorder",
      "outputs": [
        {
          "components": [
            {
              "internalType": "enum OpKind",
              "name": "kind",
              "type": "uint8"
            },
            {
              "internalType": "bytes4",
              "name": "relID",
              "type": "bytes4"
            },
            {
              "internalType": "uint8",
              "name": "relKey",
              "type": "uint8"
            },
            {
              "internalType": "bytes24",
              "name": "srcNodeID",
              "type": "bytes24"
            },
            {
              "internalType": "bytes24",
              "name": "dstNodeID",
              "type": "bytes24"
            },
            {
              "internalType": "uint160",
              "name": "weight",
              "type": "uint160"
            },
            {
              "internalType": "string",
              "name": "annName",
              "type": "string"
            },
            {
              "internalType": "string",
              "name": "annData",
              "type": "string"
            },
            {
              "internalType": "bytes32",
              "name": "nodeData",
              "type": "bytes32"
            }
          ],
          "internalType": "struct Op[]",
          "name": "",
          "type": "tuple[]"
        }
      ],
      "stateMutability": "nonpayable",
      "type": "function"
    },
    {
      "inputs": [
        {
          "internalType": "address",
          "name": "addr",
          "type": "address"
        },
        {
          "internalType": "bytes",
          "name": "sig",
          "type": "bytes"
        }
      ],
      "name": "revokeAddr",
      "outputs": [],
      "stateMutability": "nonpayable",
      "type": "function"
    },
    {
      "inputs": [
        {
          "internalType": "address",
          "name": "addr",
          "type": "address"
        }
      ],
      "name": "revokeAddr",
      "outputs": [],
      "stateMutability": "nonpayable",
      "type": "function"
    },
    {
      "inputs": [
        {
          "internalType": "address",
          "name": "",
          "type": "address"
        }
      ],
      "name": "sessions",
      "outputs": [
        {
          "internalType": "contract Dispatcher",
          "name": "dispatcher",
          "type": "address"
        },
        {
          "internalType": "address",
          "name": "owner",
          "type": "address"
        },
        {
          "internalType": "uint32",
          "name": "exp",
          "type": "uint32"
        },
        {
          "internalType": "uint32",
          "name": "scopes",
          "type": "uint32"
        }
      ],
      "stateMutability": "view",
      "type": "function"
    }
  ],
  "bytecode": {
    "object": "0x608060405234801561001057600080fd5b50611a9c806100206000396000f3fe608060405234801561001057600080fd5b506004361061007d5760003560e01c8063431a1b971161005b578063431a1b97146100bd5780636fdc0e1014610146578063ab59f1d014610159578063bb68f5e71461017957600080fd5b806302dd3ed4146100825780633f43ebca14610097578063401870d9146100aa575b600080fd5b610095610090366004610f23565b61018c565b005b6100956100a5366004610fc4565b61019f565b6100956100b8366004611019565b6103ae565b61010a6100cb3660046110a3565b600060208190529081526040902080546001909101546001600160a01b039182169181169063ffffffff600160a01b8204811691600160c01b90041684565b604080516001600160a01b03958616815294909316602085015263ffffffff918216928401929092521660608201526080015b60405180910390f35b6100956101543660046110c0565b610510565b61016c6101673660046110c0565b6107b7565b60405161013d91906111d4565b6100956101873660046110a3565b610a7e565b6101998484848433610b2a565b50505050565b600060016040518060400160405280601a81526020017f19457468657265756d205369676e6564204d6573736167653a0a0000000000008152506102246040518060400160405280602081526020017f596f7520617265207369676e696e67206f7574206f662073657373696f6e3a2081525051601461021f91906112ed565b610c50565b60408051808201825260208082527f596f7520617265207369676e696e67206f7574206f662073657373696f6e3a208183015291516102679493928a910161131c565b6040516020818303038152906040528051906020012084846040906041926102919392919061137b565b61029a916113a5565b60f81c6102ab60206000878961137b565b6102b4916113d5565b6102c260406020888a61137b565b6102cb916113d5565b6040805160008152602081018083529590955260ff909316928401929092526060830152608082015260a0016020604051602081039080840390855afa158015610319573d6000803e3d6000fd5b505060408051601f1901516001600160a01b038088166000908152602081905292909220600181015491945092508116908316146103725760405162461bcd60e51b8152600401610369906113f3565b60405180910390fd5b505050506001600160a01b0316600090815260208190526040902080546001600160a01b031916815560010180546001600160e01b0319169055565b60006103bb868686610c94565b9050600060016040518060400160405280601a81526020017f19457468657265756d205369676e6564204d6573736167653a0a0000000000008152506104018451610c50565b8460405160200161041493929190611420565b60405160208183030381529060405280519060200120858560409060419261043e9392919061137b565b610447916113a5565b60f81c61045860206000888a61137b565b610461916113d5565b61046f60406020898b61137b565b610478916113d5565b6040805160008152602081018083529590955260ff909316928401929092526060830152608082015260a0016020604051602081039080840390855afa1580156104c6573d6000803e3d6000fd5b5050604051601f1901519150506001600160a01b0381166104f95760405162461bcd60e51b8152600401610369906113f3565b6105068888888885610b2a565b5050505050505050565b600082810361052e5750336000908152602081905260409020610666565b600060018787856040516020016105479392919061151e565b60408051601f198184030181529082905280516020918201207f19457468657265756d205369676e6564204d6573736167653a0a33320000000091830191909152603c820152605c016040516020818303038152906040528051906020012086866040906041926105ba9392919061137b565b6105c3916113a5565b60f81c6105d460206000898b61137b565b6105dd916113d5565b6105eb604060208a8c61137b565b6105f4916113d5565b6040805160008152602081018083529590955260ff909316928401929092526060830152608082015260a0016020604051602081039080840390855afa158015610642573d6000803e3d6000fd5b505060408051601f1901516001600160a01b03166000908152602081905220925050505b60018101546001600160a01b03166106905760405162461bcd60e51b8152600401610369906113f3565b6001810154600160a01b900463ffffffff164311156106e25760405162461bcd60e51b815260206004820152600e60248201526d14d95cdcda5bdb915e1c1a5c995960921b6044820152606401610369565b6040805160608101825260018301546001600160a01b038082168352600160c01b90910463ffffffff908116602084015243168284015283549251639340293960e01b815291921690639340293990610743908a908a908690600401611542565b600060405180830381600087803b15801561075d57600080fd5b505af1158015610771573d6000803e3d6000fd5b505050507fc7aa84a2bda9a04dfe50cbdf91bc9f9d2ad0e794a2dd16e7b575887109f77ca085856040516107a692919061158f565b60405180910390a150505050505050565b606060008381036107d7575033600090815260208190526040902061090f565b600060018888866040516020016107f09392919061151e565b60408051601f198184030181529082905280516020918201207f19457468657265756d205369676e6564204d6573736167653a0a33320000000091830191909152603c820152605c016040516020818303038152906040528051906020012087876040906041926108639392919061137b565b61086c916113a5565b60f81c61087d602060008a8c61137b565b610886916113d5565b610894604060208b8d61137b565b61089d916113d5565b6040805160008152602081018083529590955260ff909316928401929092526060830152608082015260a0016020604051602081039080840390855afa1580156108eb573d6000803e3d6000fd5b505060408051601f1901516001600160a01b03166000908152602081905220925050505b60018101546001600160a01b03166109395760405162461bcd60e51b8152600401610369906113f3565b6001810154600160a01b900463ffffffff1643111561098b5760405162461bcd60e51b815260206004820152600e60248201526d14d95cdcda5bdb915e1c1a5c995960921b6044820152606401610369565b6040805160608101825260018301546001600160a01b038082168352600160c01b90910463ffffffff9081166020840152431682840152835492516305395f2d60e21b815291926000929116906314e57cb4906109f0908c908c908790600401611542565b6000604051808303816000875af1158015610a0f573d6000803e3d6000fd5b505050506040513d6000823e601f3d908101601f19168201604052610a3791908101906116dc565b90507fc7aa84a2bda9a04dfe50cbdf91bc9f9d2ad0e794a2dd16e7b575887109f77ca08787604051610a6a92919061158f565b60405180910390a198975050505050505050565b6001600160a01b03808216600090815260208190526040902060018101549091163314610abd5760405162461bcd60e51b8152600401610369906113f3565b6001600160a01b0382166000818152602081815260409182902080546001600160a01b031916815560010180546001600160e01b031916905590519182527fd2dd19770a4e71b8a94a6f9865e6028f2b4d94ae88504113827e9f4979980a0f910160405180910390a15050565b6000610b3585610cd7565b604080516080810182526001600160a01b03808a168252858116602080840191825263ffffffff8087168587019081528b8216606087019081528b861660009081529384905292879020955186549086166001600160a01b0319909116178655925160019095018054935192518216600160c01b0263ffffffff60c01b1993909216600160a01b026001600160c01b031990941695909416949094179190911716919091179055519091507f703437513e11491a538cde074889536a9cb295a07dc2d8de3ec316435737e4c590610c409085908590859089906001600160a01b03948516815292909316602083015263ffffffff908116604083015291909116606082015260800190565b60405180910390a1505050505050565b606060a06040510180604052602081039150506000815280825b600183039250600a81066030018353600a900480610c6a5750819003601f19909101908152919050565b6060610ca58463ffffffff16610c50565b610cae83610d3e565b604051602001610cbf929190611869565b60405160208183030381529060405290509392505050565b6000619c4063ffffffff83161115610d285760405162461bcd60e51b815260206004820152601460248201527353657373696f6e457870697279546f6f4c6f6e6760601b6044820152606401610369565b610d3863ffffffff8316436112ed565b92915050565b6060610d386001600160a01b038316601460606000610d5e836002611a22565b610d699060026112ed565b67ffffffffffffffff811115610d8157610d816115ab565b6040519080825280601f01601f191660200182016040528015610dab576020820181803683370190505b509050600360fc1b81600081518110610dc657610dc6611a39565b60200101906001600160f81b031916908160001a905350600f60fb1b81600181518110610df557610df5611a39565b60200101906001600160f81b031916908160001a9053506000610e19846002611a22565b610e249060016112ed565b90505b6001811115610e9c576f181899199a1a9b1b9c1cb0b131b232b360811b85600f1660108110610e5857610e58611a39565b1a60f81b828281518110610e6e57610e6e611a39565b60200101906001600160f81b031916908160001a90535060049490941c93610e9581611a4f565b9050610e27565b508315610eeb5760405162461bcd60e51b815260206004820181905260248201527f537472696e67733a20686578206c656e67746820696e73756666696369656e746044820152606401610369565b9392505050565b6001600160a01b0381168114610f0757600080fd5b50565b803563ffffffff81168114610f1e57600080fd5b919050565b60008060008060808587031215610f3957600080fd5b8435610f4481610ef2565b9350610f5260208601610f0a565b9250610f6060408601610f0a565b91506060850135610f7081610ef2565b939692955090935050565b60008083601f840112610f8d57600080fd5b50813567ffffffffffffffff811115610fa557600080fd5b602083019150836020828501011115610fbd57600080fd5b9250929050565b600080600060408486031215610fd957600080fd5b8335610fe481610ef2565b9250602084013567ffffffffffffffff81111561100057600080fd5b61100c86828701610f7b565b9497909650939450505050565b60008060008060008060a0878903121561103257600080fd5b863561103d81610ef2565b955061104b60208801610f0a565b945061105960408801610f0a565b9350606087013561106981610ef2565b9250608087013567ffffffffffffffff81111561108557600080fd5b61109189828a01610f7b565b979a9699509497509295939492505050565b6000602082840312156110b557600080fd5b8135610eeb81610ef2565b6000806000806000606086880312156110d857600080fd5b853567ffffffffffffffff808211156110f057600080fd5b818801915088601f83011261110457600080fd5b81358181111561111357600080fd5b8960208260051b850101111561112857600080fd5b60209283019750955090870135908082111561114357600080fd5b5061115088828901610f7b565b96999598509660400135949350505050565b6004811061118057634e487b7160e01b600052602160045260246000fd5b9052565b60005b8381101561119f578181015183820152602001611187565b50506000910152565b600081518084526111c0816020860160208601611184565b601f01601f19169290920160200192915050565b60006020808301818452808551808352604092508286019150828160051b87010184880160005b838110156112c957603f19898403018552815161012061121c858351611162565b888201516001600160e01b031916858a01528782015160ff168886015260608083015167ffffffffffffffff19908116918701919091526080808401519091169086015260a0808301516001600160a01b03169086015260c08083015181870183905261128b838801826111a8565b9250505060e080830151868303828801526112a683826111a8565b6101009485015197909401969096525050948701949250908601906001016111fb565b509098975050505050505050565b634e487b7160e01b600052601160045260246000fd5b80820180821115610d3857610d386112d7565b60008151611312818560208601611184565b9290920192915050565b6000855161132e818460208a01611184565b855190830190611342818360208a01611184565b8551910190611355818360208901611184565b60609490941b6bffffffffffffffffffffffff1916930192835250506014019392505050565b6000808585111561138b57600080fd5b8386111561139857600080fd5b5050820193919092039150565b6001600160f81b031981358181169160018510156113cd5780818660010360031b1b83161692505b505092915050565b80356020831015610d3857600019602084900360031b1b1692915050565b60208082526013908201527214d95cdcda5bdb955b985d5d1a1bdc9a5e9959606a1b604082015260600190565b60008451611432818460208901611184565b845190830190611446818360208901611184565b8451910190611459818360208801611184565b0195945050505050565b81835281816020850137506000828201602090810191909152601f909101601f19169091010190565b81835260006020808501808196508560051b810191508460005b878110156115115782840389528135601e198836030181126114c757600080fd5b8701858101903567ffffffffffffffff8111156114e357600080fd5b8036038213156114f257600080fd5b6114fd868284611463565b9a87019a95505050908401906001016114a6565b5091979650505050505050565b60408152600061153260408301858761148c565b9050826020830152949350505050565b60808152600061155660808301858761148c565b905060018060a01b038351166020830152602083015163ffffffff80821660408501528060408601511660608501525050949350505050565b6020815260006115a3602083018486611463565b949350505050565b634e487b7160e01b600052604160045260246000fd5b604051610120810167ffffffffffffffff811182821017156115e5576115e56115ab565b60405290565b604051601f8201601f1916810167ffffffffffffffff81118282101715611614576116146115ab565b604052919050565b805160048110610f1e57600080fd5b80516001600160e01b031981168114610f1e57600080fd5b805160ff81168114610f1e57600080fd5b805167ffffffffffffffff1981168114610f1e57600080fd5b8051610f1e81610ef2565b600082601f83011261168957600080fd5b815167ffffffffffffffff8111156116a3576116a36115ab565b6116b6601f8201601f19166020016115eb565b8181528460208386010111156116cb57600080fd5b6115a3826020830160208701611184565b600060208083850312156116ef57600080fd5b825167ffffffffffffffff8082111561170757600080fd5b818501915085601f83011261171b57600080fd5b81518181111561172d5761172d6115ab565b8060051b61173c8582016115eb565b918252838101850191858101908984111561175657600080fd5b86860192505b8383101561185c5782518581111561177357600080fd5b8601610120818c03601f190181131561178b57600080fd5b6117936115c1565b61179e8a840161161c565b81526117ac6040840161162b565b8a8201526117bc60608401611643565b60408201526117cd60808401611654565b60608201526117de60a08401611654565b60808201526117ef60c0840161166d565b60a082015260e0830151888111156118075760008081fd5b6118158e8c83870101611678565b60c08301525061010080840151898111156118305760008081fd5b61183e8f8d83880101611678565b60e0840152509190920151908201528252918601919086019061175c565b9998505050505050505050565b7557656c636f6d6520746f20446f776e73747265616d2160501b81527f0a0a5468697320736974652069732072657175657374696e67207065726d697360168201527f73696f6e20746f20696e746572616374207769746820796f757220446f776e7360368201526c3a3932b0b69030b9b9b2ba399760991b60568201527f0a0a5369676e696e672074686973206d6573736167652077696c6c206e6f742060638201526e34b731bab91030b73c903332b2b99760891b60838201527f0a0a596f752063616e207265766f6b652073657373696f6e7320616e6420726560928201527f6164206d6f72652061626f7574207468656d2061742068747470733a2f2f646f60b282015274776e73747265616d2e636f6d2f73657373696f6e7360581b60d28201527f0a0a5065726d697373696f6e733a2073656e642d616374696f6e732c2073706560e7820152686e642d656e6572677960b81b610107820152675052b30b634b21d160bd1b61011082015260006115a3611a1c611a066119f3610119860188611300565b6620626c6f636b7360c81b815260070190565b6950529b2b9b9b4b7b71d160ad1b8152600b0190565b84611300565b8082028115828204841417610d3857610d386112d7565b634e487b7160e01b600052603260045260246000fd5b600081611a5e57611a5e6112d7565b50600019019056fea264697066735822122095a43b8da489a00c9329da1a9653fc9336d0e4e0a4556437d5e164fcc72f2d6a64736f6c63430008130033",
    "linkReferences": {}
  },
  "methodIdentifiers": {
    "authorizeAddr(address,uint32,uint32,address)": "02dd3ed4",
    "authorizeAddr(address,uint32,uint32,address,bytes)": "401870d9",
    "dispatch(bytes[],bytes,uint256)": "6fdc0e10",
    "dispatchWithOpsRecorder(bytes[],bytes,uint256)": "ab59f1d0",
    "revokeAddr(address)": "bb68f5e7",
    "revokeAddr(address,bytes)": "3f43ebca",
    "sessions(address)": "431a1b97"
  },
  "id": 33
}