{
  "abi": [
    {
      "inputs": [
        {
          "internalType": "bytes24",
          "name": "tile",
          "type": "bytes24"
        }
      ],
      "name": "_getTileCoords",
      "outputs": [
        {
          "internalType": "int16",
          "name": "z",
          "type": "int16"
        },
        {
          "internalType": "int16",
          "name": "q",
          "type": "int16"
        },
        {
          "internalType": "int16",
          "name": "r",
          "type": "int16"
        },
        {
          "internalType": "int16",
          "name": "s",
          "type": "int16"
        }
      ],
      "stateMutability": "pure",
      "type": "function"
    },
    {
      "inputs": [
        {
          "internalType": "contract Game",
          "name": "ds",
          "type": "address"
        },
        {
          "internalType": "bytes24",
          "name": "buildingInstanceID",
          "type": "bytes24"
        },
        {
          "internalType": "bytes24",
          "name": "mobileUnitID",
          "type": "bytes24"
        },
        {
          "internalType": "bytes",
          "name": "payload",
          "type": "bytes"
        }
      ],
      "name": "construct",
      "outputs": [],
      "stateMutability": "nonpayable",
      "type": "function"
    },
    {
      "inputs": [],
      "name": "moveUnitE",
      "outputs": [],
      "stateMutability": "nonpayable",
      "type": "function"
    },
    {
      "inputs": [],
      "name": "moveUnitNE",
      "outputs": [],
      "stateMutability": "nonpayable",
      "type": "function"
    },
    {
      "inputs": [],
      "name": "moveUnitNW",
      "outputs": [],
      "stateMutability": "nonpayable",
      "type": "function"
    },
    {
      "inputs": [],
      "name": "moveUnitSE",
      "outputs": [],
      "stateMutability": "nonpayable",
      "type": "function"
    },
    {
      "inputs": [],
      "name": "moveUnitSW",
      "outputs": [],
      "stateMutability": "nonpayable",
      "type": "function"
    },
    {
      "inputs": [],
      "name": "moveUnitW",
      "outputs": [],
      "stateMutability": "nonpayable",
      "type": "function"
    },
    {
      "inputs": [
        {
          "internalType": "contract Game",
          "name": "ds",
          "type": "address"
        },
        {
          "internalType": "bytes24",
          "name": "buildingInstanceID",
          "type": "bytes24"
        },
        {
          "internalType": "bytes24",
          "name": "mobileUnitID",
          "type": "bytes24"
        }
      ],
      "name": "onUnitArrive",
      "outputs": [],
      "stateMutability": "nonpayable",
      "type": "function"
    },
    {
      "inputs": [
        {
          "internalType": "contract Game",
          "name": "ds",
          "type": "address"
        },
        {
          "internalType": "bytes24",
          "name": "buildingInstanceID",
          "type": "bytes24"
        },
        {
          "internalType": "bytes24",
          "name": "mobileUnitID",
          "type": "bytes24"
        }
      ],
      "name": "onUnitLeave",
      "outputs": [],
      "stateMutability": "nonpayable",
      "type": "function"
    },
    {
      "inputs": [],
      "name": "spawnUnit",
      "outputs": [],
      "stateMutability": "nonpayable",
      "type": "function"
    },
    {
      "inputs": [
        {
          "internalType": "contract Game",
          "name": "ds",
          "type": "address"
        },
        {
          "internalType": "bytes24",
          "name": "buildingInstance",
          "type": "bytes24"
        },
        {
          "internalType": "bytes24",
          "name": "",
          "type": "bytes24"
        },
        {
          "internalType": "bytes",
          "name": "payload",
          "type": "bytes"
        }
      ],
      "name": "use",
      "outputs": [],
      "stateMutability": "nonpayable",
      "type": "function"
    }
  ],
  "bytecode": {
    "object": "0x608060405234801561001057600080fd5b50610c88806100206000396000f3fe608060405234801561001057600080fd5b50600436106100b45760003560e01c806370477b621161007157806370477b62146100b957806391d83c57146100bb57806396c0095a146100b95780639bf743df146100b9578063f0255b01146100b9578063f03ad92f1461013857600080fd5b80631e5e2c2e146100b957806323fa9027146100b957806324fd46e8146100bb57806341b9deb2146100ce5780634fd172da146100b957806367cace0714610125575b600080fd5b005b6100b96100c93660046108cd565b505050565b6100f76100dc366004610918565b607081901c91606082901c91605081901c9160409190911c90565b60408051600195860b815293850b602085015291840b8383015290920b606082015290519081900360800190f35b6100b9610133366004610935565b61014c565b6100b96101463660046109f3565b50505050565b633823bdb160e11b61015e8284610adc565b6001600160e01b0319160361017c576101778585610345565b61033e565b63f0255b0160e01b61018e8284610adc565b6001600160e01b031916036101c757604080516060810182526000815260016020820152600019918101919091526101779086906105eb565b6323fa902760e01b6101d98284610adc565b6001600160e01b0319160361021257604080516060810182526001815260006020820152600019918101919091526101779086906105eb565b639bf743df60e01b6102248284610adc565b6001600160e01b0319160361025d57604080516060810182526001815260001960208201526000918101919091526101779086906105eb565b630f2f161760e11b61026f8284610adc565b6001600160e01b031916036102a857604080516060810182526000815260001960208201526001918101919091526101779086906105eb565b6327e8b96d60e11b6102ba8284610adc565b6001600160e01b031916036102f357604080516060810182526000198152600060208201526001918101919091526101779086906105eb565b634b6004ad60e11b6103058284610adc565b6001600160e01b0319160361033e576040805160608101825260001981526001602082015260009181019190915261033e9086906105eb565b5050505050565b816001600160a01b031663ebb3d5896040518163ffffffff1660e01b81526004016020604051808303816000875af1158015610385573d6000803e3d6000fd5b505050506040513d601f19601f820116820180604052508101906103a99190610b0c565b6040805160048082526024820183526020820180516001600160e01b031663203d3a7760e11b179052915163156fffe360e31b81526001600160a01b03939093169263ab7fff18926103fc929101610b29565b600060405180830381600087803b15801561041657600080fd5b505af115801561042a573d6000803e3d6000fd5b505050506000806000806104ae6100dc86886001600160a01b0316631865c57d6040518163ffffffff1660e01b81526004016020604051808303816000875af115801561047b573d6000803e3d6000fd5b505050506040513d601f19601f8201168201806040525081019061049f9190610b0c565b6001600160a01b0316906106a5565b9350935093509350856001600160a01b031663ebb3d5896040518163ffffffff1660e01b81526004016020604051808303816000875af11580156104f6573d6000803e3d6000fd5b505050506040513d601f19601f8201168201806040525081019061051a9190610b0c565b6001600160a01b031663ab7fff1885610534866001610b8d565b85610540600187610bb0565b604051600194850b602482015292840b604484015290830b606483015290910b608482015260a40160408051601f198184030181529181526020820180516001600160e01b0316630b7e92bd60e11b179052516001600160e01b031960e084901b1681526105b19190600401610b29565b600060405180830381600087803b1580156105cb57600080fd5b505af11580156105df573d6000803e3d6000fd5b50505050505050505050565b6000806000806105fa86610747565b9350935093509350856001600160a01b031663ebb3d5896040518163ffffffff1660e01b81526004016020604051808303816000875af1158015610642573d6000803e3d6000fd5b505050506040513d601f19601f820116820180604052508101906106669190610b0c565b6001600160a01b031663ab7fff188587600060200201516106879087610b8d565b60208901516106969087610b8d565b60408a01516105409087610b8d565b6000806001600160a01b038416630bf2454263ec0be13d60e01b60025b6040516001600160e01b031960e085901b8116825292909216600483015260ff16602482015267ffffffffffffffff19861660448201526064016040805180830381865afa158015610718573d6000803e3d6000fd5b505050506040513d601f19601f8201168201806040525081019061073c9190610bd3565b509150505b92915050565b6000806000806000610758306107fc565b90506000866001600160a01b0316631865c57d6040518163ffffffff1660e01b81526004016020604051808303816000875af115801561079c573d6000803e3d6000fd5b505050506040513d601f19601f820116820180604052508101906107c09190610b0c565b905060006107d86001600160a01b038316844361080f565b607081901c99606082901c9950605082901c985060409190911c9650945050505050565b6000610741630128bd0d60e31b8361082c565b60006108246001600160a01b0385168461087d565b949350505050565b6040516001600160e01b0319831660208201526bffffffffffffffffffffffff19606083901b16602482015260009060380160405160208183030381529060405261087690610c1a565b9392505050565b6000806001600160a01b038416630bf2454263ec0be13d60e01b60016106c2565b6001600160a01b03811681146108b357600080fd5b50565b67ffffffffffffffff19811681146108b357600080fd5b6000806000606084860312156108e257600080fd5b83356108ed8161089e565b925060208401356108fd816108b6565b9150604084013561090d816108b6565b809150509250925092565b60006020828403121561092a57600080fd5b8135610876816108b6565b60008060008060006080868803121561094d57600080fd5b85356109588161089e565b94506020860135610968816108b6565b93506040860135610978816108b6565b9250606086013567ffffffffffffffff8082111561099557600080fd5b818801915088601f8301126109a957600080fd5b8135818111156109b857600080fd5b8960208285010111156109ca57600080fd5b9699959850939650602001949392505050565b634e487b7160e01b600052604160045260246000fd5b60008060008060808587031215610a0957600080fd5b8435610a148161089e565b93506020850135610a24816108b6565b92506040850135610a34816108b6565b9150606085013567ffffffffffffffff80821115610a5157600080fd5b818701915087601f830112610a6557600080fd5b813581811115610a7757610a776109dd565b604051601f8201601f19908116603f01168101908382118183101715610a9f57610a9f6109dd565b816040528281528a6020848701011115610ab857600080fd5b82602086016020830137600060208483010152809550505050505092959194509250565b6001600160e01b03198135818116916004851015610b045780818660040360031b1b83161692505b505092915050565b600060208284031215610b1e57600080fd5b81516108768161089e565b600060208083528351808285015260005b81811015610b5657858101830151858201604001528201610b3a565b506000604082860101526040601f19601f8301168501019250505092915050565b634e487b7160e01b600052601160045260246000fd5b600181810b9083900b01617fff8113617fff198212171561074157610741610b77565b600182810b9082900b03617fff198112617fff8213171561074157610741610b77565b60008060408385031215610be657600080fd5b8251610bf1816108b6565b602084015190925067ffffffffffffffff81168114610c0f57600080fd5b809150509250929050565b8051602082015167ffffffffffffffff198082169291906018831015610c4a5780818460180360031b1b83161693505b50505091905056fea26469706673582212208e878d247d84a2bd9c0e3ab8fe13dce38a9eb97bda6a59e30bfd74e40c937aa764736f6c63430008130033",
    "linkReferences": {}
  },
  "methodIdentifiers": {
    "_getTileCoords(bytes24)": "41b9deb2",
    "construct(address,bytes24,bytes24,bytes)": "f03ad92f",
    "moveUnitE()": "23fa9027",
    "moveUnitNE()": "f0255b01",
    "moveUnitNW()": "96c0095a",
    "moveUnitSE()": "9bf743df",
    "moveUnitSW()": "1e5e2c2e",
    "moveUnitW()": "4fd172da",
    "onUnitArrive(address,bytes24,bytes24)": "91d83c57",
    "onUnitLeave(address,bytes24,bytes24)": "24fd46e8",
    "spawnUnit()": "70477b62",
    "use(address,bytes24,bytes24,bytes)": "67cace07"
  },
  "id": 162
}