{
  "abi": [
    {
      "inputs": [
        {
          "internalType": "contract State",
          "name": "state",
          "type": "State"
        },
        {
          "internalType": "bytes24",
          "name": "sessionID",
          "type": "bytes24"
        }
      ],
      "name": "getAttackTile",
      "outputs": [
        {
          "internalType": "bytes24",
          "name": "tileID",
          "type": "bytes24"
        },
        {
          "internalType": "uint64",
          "name": "startBlock",
          "type": "uint64"
        }
      ],
      "stateMutability": "view",
      "type": "function"
    },
    {
      "inputs": [
        {
          "internalType": "contract State",
          "name": "state",
          "type": "State"
        },
        {
          "internalType": "bytes24",
          "name": "sessionID",
          "type": "bytes24"
        },
        {
          "internalType": "uint8",
          "name": "index",
          "type": "uint8"
        }
      ],
      "name": "getAttacker",
      "outputs": [
        {
          "internalType": "bytes24",
          "name": "",
          "type": "bytes24"
        }
      ],
      "stateMutability": "view",
      "type": "function"
    },
    {
      "inputs": [
        {
          "internalType": "contract State",
          "name": "state",
          "type": "State"
        },
        {
          "internalType": "bytes24",
          "name": "nodeID",
          "type": "bytes24"
        },
        {
          "internalType": "string",
          "name": "key",
          "type": "string"
        }
      ],
      "name": "getDataBool",
      "outputs": [
        {
          "internalType": "bool",
          "name": "",
          "type": "bool"
        }
      ],
      "stateMutability": "view",
      "type": "function"
    },
    {
      "inputs": [
        {
          "internalType": "contract State",
          "name": "state",
          "type": "State"
        },
        {
          "internalType": "bytes24",
          "name": "nodeID",
          "type": "bytes24"
        },
        {
          "internalType": "string",
          "name": "key",
          "type": "string"
        }
      ],
      "name": "getDataString",
      "outputs": [
        {
          "internalType": "string",
          "name": "",
          "type": "string"
        }
      ],
      "stateMutability": "view",
      "type": "function"
    },
    {
      "inputs": [
        {
          "internalType": "contract State",
          "name": "state",
          "type": "State"
        },
        {
          "internalType": "bytes24",
          "name": "nodeID",
          "type": "bytes24"
        },
        {
          "internalType": "string",
          "name": "key",
          "type": "string"
        }
      ],
      "name": "getDataUint256",
      "outputs": [
        {
          "internalType": "uint256",
          "name": "",
          "type": "uint256"
        }
      ],
      "stateMutability": "view",
      "type": "function"
    },
    {
      "inputs": [
        {
          "internalType": "contract State",
          "name": "state",
          "type": "State"
        },
        {
          "internalType": "bytes24",
          "name": "sessionID",
          "type": "bytes24"
        },
        {
          "internalType": "uint8",
          "name": "index",
          "type": "uint8"
        }
      ],
      "name": "getDefender",
      "outputs": [
        {
          "internalType": "bytes24",
          "name": "",
          "type": "bytes24"
        }
      ],
      "stateMutability": "view",
      "type": "function"
    },
    {
      "inputs": [
        {
          "internalType": "contract State",
          "name": "",
          "type": "State"
        },
        {
          "internalType": "bytes24",
          "name": "tile",
          "type": "bytes24"
        }
      ],
      "name": "getTileCoords",
      "outputs": [
        {
          "internalType": "int16",
          "name": "z",
          "type": "int16"
        },
        {
          "internalType": "int16",
          "name": "q",
          "type": "int16"
        },
        {
          "internalType": "int16",
          "name": "r",
          "type": "int16"
        },
        {
          "internalType": "int16",
          "name": "s",
          "type": "int16"
        }
      ],
      "stateMutability": "pure",
      "type": "function"
    },
    {
      "inputs": [
        {
          "internalType": "contract State",
          "name": "",
          "type": "State"
        },
        {
          "internalType": "bytes24",
          "name": "tile",
          "type": "bytes24"
        }
      ],
      "name": "getTileZone",
      "outputs": [
        {
          "internalType": "int16",
          "name": "z",
          "type": "int16"
        }
      ],
      "stateMutability": "pure",
      "type": "function"
    }
  ],
  "bytecode": {
    "object": "0x610b6e61003a600b82828239805160001a60731461002d57634e487b7160e01b600052600060045260246000fd5b30600052607381538281f3fe73000000000000000000000000000000000000000030146080604052600436106100a85760003560e01c8063a9ece48d11610070578063a9ece48d14610181578063b384eedf14610194578063b44661c3146101b5578063dfbd30b6146101db578063f20912db146101fb57600080fd5b80630e25ff6d146100ad57806317d5f79d146100ef5780632243c5d91461011c57806334d906831461013c5780638ef2d2bc1461015f575b600080fd5b6100c06100bb3660046107b8565b61023b565b6040805167ffffffffffffffff19909316835267ffffffffffffffff9091166020830152015b60405180910390f35b6101026100fd366004610800565b6102c0565b60405167ffffffffffffffff1990911681526020016100e6565b61012f61012a36600461085b565b610349565b6040516100e69190610975565b61014f61014a36600461085b565b6104f6565b60405190151581526020016100e6565b81801561016b57600080fd5b5061017f61017a3660046109a5565b610573565b005b61010261018f366004610800565b6105e7565b6101a76101a236600461085b565b610623565b6040519081526020016100e6565b6101c86101c33660046107b8565b61069d565b60405160019190910b81526020016100e6565b8180156101e757600080fd5b5061017f6101f63660046109a5565b6106b2565b61020e6102093660046107b8565b6106f0565b60408051600195860b815293850b602085015291840b9183019190915290910b60608201526080016100e6565b6000806001600160a01b038416630bf245426305ffdd5360e01b83866040518463ffffffff1660e01b815260040161027593929190610a12565b6040805180830381865afa158015610291573d6000803e3d6000fd5b505050506040513d601f19601f820116820180604052508101906102b59190610a42565b915091509250929050565b6040516305f922a160e11b815260009081906001600160a01b03861690630bf24542906102ff90600162043def60e41b03199087908990600401610a12565b6040805180830381865afa15801561031b573d6000803e3d6000fd5b505050506040513d601f19601f8201168201806040525081019061033f9190610a42565b5095945050505050565b60606000846001600160a01b03166324eae35585856040518363ffffffff1660e01b815260040161037b929190610a71565b602060405180830381865afa158015610398573d6000803e3d6000fd5b505050506040513d601f19601f820116820180604052508101906103bc9190610a95565b905060005b60208160ff161080156103f55750818160ff16602081106103e4576103e4610aae565b1a60f81b6001600160f81b03191615155b1561040c578061040481610ac4565b9150506103c1565b60008160ff1667ffffffffffffffff81111561042a5761042a610845565b6040519080825280601f01601f191660200182016040528015610454576020820181803683370190505b509050600091505b60208260ff161080156104905750828260ff166020811061047f5761047f610aae565b1a60f81b6001600160f81b03191615155b156104ec57828260ff16602081106104aa576104aa610aae565b1a60f81b818360ff16815181106104c3576104c3610aae565b60200101906001600160f81b031916908160001a905350816104e481610ac4565b92505061045c565b9695505050505050565b6040516324eae35560e01b81526000906001600160a01b038516906324eae355906105279086908690600401610a71565b602060405180830381865afa158015610544573d6000803e3d6000fd5b505050506040513d601f19601f820116820180604052508101906105689190610a95565b600114949350505050565b604051633d18084560e21b81526001600160a01b0386169063f4602114906105ae90636b6c1f0360e01b908790899088908890600401610af1565b600060405180830381600087803b1580156105c857600080fd5b505af11580156105dc573d6000803e3d6000fd5b505050505050505050565b6040516305f922a160e11b815260009081906001600160a01b03861690630bf24542906102ff90636b6c1f0360e01b9087908990600401610a12565b6040516324eae35560e01b81526000906001600160a01b038516906324eae355906106549086908690600401610a71565b602060405180830381865afa158015610671573d6000803e3d6000fd5b505050506040513d601f19601f820116820180604052508101906106959190610a95565b949350505050565b6000806106a983610724565b51949350505050565b604051633d18084560e21b81526001600160a01b0386169063f4602114906105ae90600162043def60e41b0319908790899088908890600401610af1565b600080600080600061070186610724565b805160208201516040830151606090930151919a90995091975095509350505050565b61072c610764565b607082901c600190810b8252606083811c820b6020840152605084901c820b6040808501919091529390931c900b9181019190915290565b60405180608001604052806004906020820280368337509192915050565b80356001600160a01b038116811461079957600080fd5b919050565b67ffffffffffffffff19811681146107b557600080fd5b50565b600080604083850312156107cb57600080fd5b6107d483610782565b915060208301356107e48161079e565b809150509250929050565b803560ff8116811461079957600080fd5b60008060006060848603121561081557600080fd5b61081e84610782565b9250602084013561082e8161079e565b915061083c604085016107ef565b90509250925092565b634e487b7160e01b600052604160045260246000fd5b60008060006060848603121561087057600080fd5b61087984610782565b925060208401356108898161079e565b9150604084013567ffffffffffffffff808211156108a657600080fd5b818601915086601f8301126108ba57600080fd5b8135818111156108cc576108cc610845565b604051601f8201601f19908116603f011681019083821181831017156108f4576108f4610845565b8160405282815289602084870101111561090d57600080fd5b8260208601602083013760006020848301015280955050505050509250925092565b6000815180845260005b8181101561095557602081850181015186830182015201610939565b506000602082860101526020601f19601f83011685010191505092915050565b602081526000610988602083018461092f565b9392505050565b67ffffffffffffffff811681146107b557600080fd5b600080600080600060a086880312156109bd57600080fd5b6109c686610782565b945060208601356109d68161079e565b93506109e4604087016107ef565b925060608601356109f48161079e565b91506080860135610a048161098f565b809150509295509295909350565b6001600160e01b031993909316835260ff91909116602083015267ffffffffffffffff1916604082015260600190565b60008060408385031215610a5557600080fd5b8251610a608161079e565b60208401519092506107e48161098f565b67ffffffffffffffff1983168152604060208201526000610695604083018461092f565b600060208284031215610aa757600080fd5b5051919050565b634e487b7160e01b600052603260045260246000fd5b600060ff821660ff8103610ae857634e487b7160e01b600052601160045260246000fd5b60010192915050565b6001600160e01b031995909516855260ff93909316602085015267ffffffffffffffff19918216604085015216606083015267ffffffffffffffff16608082015260a0019056fea2646970667358221220a7e868ec384e523c701cd6beb48feba8675b5c02d00ab24e2bc53cda29f7c19464736f6c63430008130033",
    "linkReferences": {}
  },
  "methodIdentifiers": {
    "getAttackTile(State,bytes24)": "0e25ff6d",
    "getAttacker(State,bytes24,uint8)": "a9ece48d",
    "getDataBool(State,bytes24,string)": "34d90683",
    "getDataString(State,bytes24,string)": "2243c5d9",
    "getDataUint256(State,bytes24,string)": "b384eedf",
    "getDefender(State,bytes24,uint8)": "17d5f79d",
    "getTileCoords(State,bytes24)": "f20912db",
    "getTileZone(State,bytes24)": "b44661c3",
    "setAttacker(State,bytes24,uint8,bytes24,uint64)": "8ef2d2bc",
    "setDefender(State,bytes24,uint8,bytes24,uint64)": "dfbd30b6"
  },
  "id": 175
}