{
  "abi": [
    {
      "inputs": [
        {
          "internalType": "contract State",
          "name": "state",
          "type": "address"
        },
        {
          "internalType": "bytes",
          "name": "action",
          "type": "bytes"
        },
        {
          "components": [
            {
              "internalType": "address",
              "name": "sender",
              "type": "address"
            },
            {
              "internalType": "uint32",
              "name": "scopes",
              "type": "uint32"
            },
            {
              "internalType": "uint32",
              "name": "clock",
              "type": "uint32"
            }
          ],
          "internalType": "struct Context",
          "name": "ctx",
          "type": "tuple"
        }
      ],
      "name": "reduce",
      "outputs": [
        {
          "internalType": "contract State",
          "name": "",
          "type": "address"
        }
      ],
      "stateMutability": "nonpayable",
      "type": "function"
    }
  ],
  "bytecode": {
    "object": "0x608060405234801561001057600080fd5b5061201e806100206000396000f3fe608060405234801561001057600080fd5b506004361061002b5760003560e01c8063624a3ede14610030575b600080fd5b61004361003e36600461179f565b61005f565b6040516001600160a01b03909116815260200160405180910390f35b600063067cde7560e41b610073848661183f565b6001600160e01b031916036100c0576000808080610094876004818b61186f565b8101906100a191906118b8565b93509350935093506100b7898786868686610301565b505050506102f8565b63c0ee3f7d60e01b6100d2848661183f565b6001600160e01b0319160361012e5760008080808080806100f68a6004818e61186f565b8101906101039190611a30565b96509650965096509650965096506101228c8a8989898989898961040d565b505050505050506102f8565b635008dc6f60e01b610140848661183f565b6001600160e01b031916036101975760008080808080610163896004818d61186f565b8101906101709190611b4e565b95509550955095509550955061018c8b8988888888888861065e565b5050505050506102f8565b6302eb542160e31b6101a9848661183f565b6001600160e01b031916036101ed5760008080806101ca876004818b61186f565b8101906101d791906118b8565b93509350935093506100b7898786868686610885565b63a850b0d960e01b6101ff848661183f565b6001600160e01b03191603610243576000808080610220876004818b61186f565b81019061022d91906118b8565b93509350935093506100b7898786868686610948565b6387af175b60e01b610255848661183f565b6001600160e01b031916036102a757600080808080610277886004818c61186f565b8101906102849190611bd4565b9450945094509450945061029d8a888787878787610a18565b50505050506102f8565b634df46e4d60e01b6102b9848661183f565b6001600160e01b031916036102f8576000806102d8856004818961186f565b8101906102e59190611c5a565b915091506102f587858484610bd5565b50505b50929392505050565b600061030c85610c60565b9050610319848484610cc0565b61033e5760405162461bcd60e51b815260040161033590611d00565b60405180910390fd5b61035361034e6020880188611d2e565b610cfc565b6001600160401b0319166103706001600160a01b03891683610d0f565b6001600160401b031916146103975760405162461bcd60e51b815260040161033590611d4b565b60006103a586868686610d94565b90506103bb6001600160a01b0389168284610e36565b6103d06001600160a01b038916826001610ea0565b6040805160608101825260ff8082526020820181905291810191909152610403906001600160a01b038a16908390610f26565b5050505050505050565b610418868686610cc0565b6104345760405162461bcd60e51b815260040161033590611d00565b6040805160c060208201819052600660e08301526564657662616760d01b61010083015260018a810b9383019390935288830b606083015287830b60808301529186900b60a082015260ff8516918101919091526000906104b290610120015b6040516020818303038152906040528051906020012060001c61106e565b905060005b83518160ff16101561052f5761051d8282868460ff16815181106104dd576104dd611d6f565b6020026020010151868560ff16815181106104fa576104fa611d6f565b60200260200101518f6001600160a01b031661108190949392919063ffffffff16565b8061052781611d9b565b9150506104b7565b50600061053b89610c60565b905061054d61034e60208c018c611d2e565b6001600160401b03191661056a6001600160a01b038d1683610d0f565b6001600160401b031916146105915760405162461bcd60e51b815260040161033590611d4b565b600061059f8a8a8a8a610d94565b905060016105b66001600160a01b038e16836110f5565b60018111156105c7576105c7611dba565b146106145760405162461bcd60e51b815260206004820152601760248201527f74696c65206d75737420626520646973636f76657265640000000000000000006044820152606401610335565b6106296001600160a01b038d1682888661119b565b61063d6001600160a01b038d168484610e36565b6106506001600160a01b038d1684611205565b505050505050505050505050565b600061066986610c60565b9050610676858585610cc0565b6106925760405162461bcd60e51b815260040161033590611d00565b6106a261034e60208a018a611d2e565b6001600160401b0319166106bf6001600160a01b038b1683610d0f565b6001600160401b031916146106e65760405162461bcd60e51b815260040161033590611d4b565b60006106f48787878761126b565b905061070a6001600160a01b038b16828a6112ac565b61071e6001600160a01b038b168284610e36565b61073c8161072b33610cfc565b6001600160a01b038d1691906112e8565b61075d8161074c89898989610d94565b6001600160a01b038d169190611324565b604080516001600160401b0319831660208201528082019190915260056060820152641a5b9c1d5d60da1b608082015260009061079c9060a001610494565b604080516001600160401b0319851660208201528082019190915260066060820152651bdd5d1c1d5d60d21b60808201529091506000906107df9060a001610494565b90506107f76001600160a01b038d168460008561119b565b61080d6001600160a01b038d168460018461119b565b6108216001600160a01b038d168487611361565b60006108366001600160a01b038e168c61138e565b91506002905081600681111561084e5761084e611dba565b03610876576108768d858e604001602081019061086b9190611dd0565b63ffffffff166113c2565b50505050505050505050505050565b610890838383610cc0565b6108ac5760405162461bcd60e51b815260040161033590611d00565b6108bc61034e6020870187611d2e565b6001600160401b0319166108e26108d286610c60565b6001600160a01b03891690610d0f565b6001600160401b031916146109095760405162461bcd60e51b815260040161033590611d4b565b600061091785858585610d94565b905061092c6001600160a01b03881682611411565b61093f6001600160a01b03881682611449565b50505050505050565b610953838383610cc0565b61096f5760405162461bcd60e51b815260040161033590611d00565b61097f61034e6020870187611d2e565b6001600160401b0319166109956108d286610c60565b6001600160401b031916146109bc5760405162461bcd60e51b815260040161033590611d4b565b60006109ca8585858561126b565b90506109df6001600160a01b03881682611481565b6109f26001600160a01b03881682611205565b610a056001600160a01b03881682611449565b61093f6001600160a01b038816826114b9565b630696740160e21b6001600160e01b0319841601610b565760405163f20912db60e01b81526001600160a01b03881660048201526001600160401b03198416602482015260009081908190819073__$1464ab981357a848ad3ff04f4dd3359feb$__9063f20912db90604401608060405180830381865af4158015610aa1573d6000803e3d6000fd5b505050506040513d601f19601f82011682018060405250810190610ac59190611df6565b9350935093509350610ad8838383610cc0565b610af45760405162461bcd60e51b815260040161033590611d00565b610b0461034e60208c018c611d2e565b6001600160401b031916610b2a610b1a86610c60565b6001600160a01b038e1690610d0f565b6001600160401b03191614610b515760405162461bcd60e51b815260040161033590611d4b565b505050505b60005b81518160ff161015610b8b57610b796001600160a01b03891687836114f1565b80610b8381611d9b565b915050610b59565b506001600160a01b03841615610bae57610bae6001600160a01b03881686611205565b610bc26001600160a01b0388168484611528565b61093f6001600160a01b03881686611449565b6000610be082610c60565b9050610bf261034e6020860186611d2e565b6001600160401b031916610c0f6001600160a01b03871683610d0f565b6001600160401b03191614610c365760405162461bcd60e51b815260040161033590611d4b565b6000610c42838561155f565b9050610c586001600160a01b0387168284610e36565b505050505050565b6000808260010b1215610ca55760405162461bcd60e51b815260206004820152600d60248201526c125b9d985b1a59169bdb995251609a1b6044820152606401610335565b610cba6386fc4f3760e01b61ffff84166115e9565b92915050565b600080610ce9610ccf8661163d565b610ce4610cdb8761163d565b610ce48761163d565b61165c565b602860019190910b131595945050505050565b6000610cba63045820b360e01b83611679565b6040516305f922a160e11b815260009081906001600160a01b03851690630bf2454290610d4b90635a54cd2760e11b9085908890600401611e4a565b6040805180830381865afa158015610d67573d6000803e3d6000fd5b505050506040513d601f19601f82011682018060405250810190610d8b9190611e79565b50949350505050565b600081610da18486611eb3565b610dab9190611eb3565b60010b15610def5760405162461bcd60e51b8152602060048201526011602482015270496e76616c696454696c65436f6f72647360781b6044820152606401610335565b60408051608081018252600187810b825286810b602083015285810b928201929092529083900b6060820152610e2d906339698bff60e21b906116ab565b95945050505050565b604051633d18084560e21b81526001600160a01b0384169063f460211490610e729063d3c8dd6960e01b90600090879087908390600401611ed6565b600060405180830381600087803b158015610e8c57600080fd5b505af115801561093f573d6000803e3d6000fd5b6001600160a01b03831663f4602114633442702960e21b60008581866001811115610ecd57610ecd611dba565b604080516001600160e01b031960e089901b8116825296909616600487015260ff90941660248601526001600160401b03199283166044860152921b16606483015267ffffffffffffffff16608482015260a401610e72565b6001600160a01b03831663f4602114630ef6788760e01b600085610f4982611704565b86516040516001600160e01b031960e088901b168152610f70959493929190600401611ed6565b600060405180830381600087803b158015610f8a57600080fd5b505af1158015610f9e573d6000803e3d6000fd5b5050506001600160a01b038416905063f4602114630ef6788760e01b600185610fc682611704565b60208701516040516001600160e01b031960e088901b168152610ff0959493929190600401611ed6565b600060405180830381600087803b15801561100a57600080fd5b505af115801561101e573d6000803e3d6000fd5b5050506001600160a01b038416905063f4602114630ef6788760e01b60028561104682611704565b86600260200201516040518663ffffffff1660e01b8152600401610e72959493929190611ed6565b6000610cba63b1c93f0960e01b836115e9565b604051633d18084560e21b81526001600160a01b0386169063f4602114906110bc90630ef6788760e01b908790899088908890600401611ed6565b600060405180830381600087803b1580156110d657600080fd5b505af11580156110ea573d6000803e3d6000fd5b505050505050505050565b6040516305f922a160e11b815260009081906001600160a01b03851690630bf245429061113190633442702960e21b9085908890600401611e4a565b6040805180830381865afa15801561114d573d6000803e3d6000fd5b505050506040513d601f19601f820116820180604052508101906111719190611e79565b67ffffffffffffffff169150508060ff16600181111561119357611193611dba565b949350505050565b604051633d18084560e21b81526001600160a01b0385169063f4602114906111d790633d604d0560e21b90869088908790600190600401611ed6565b600060405180830381600087803b1580156111f157600080fd5b505af1158015610403573d6000803e3d6000fd5b60405163118f53c760e31b81526001600160a01b03831690638c7a9e389061123d90635a54cd2760e11b906000908690600401611e4a565b600060405180830381600087803b15801561125757600080fd5b505af1158015610c58573d6000803e3d6000fd5b60408051608081018252600186810b825285810b602083015284810b928201929092529082900b6060820152600090610e2d90631a67c53f60e11b906116ab565b604051633d18084560e21b81526001600160a01b0384169063f460211490610e729063eb70afe760e01b90600090879087908390600401611ed6565b604051633d18084560e21b81526001600160a01b0384169063f460211490610e7290635a54cd2760e11b90600090879087908390600401611ed6565b604051633d18084560e21b81526001600160a01b0384169063f460211490610e729063ec0be13d60e01b9060029087908790600090600401611ed6565b6001600160a01b03831663f460211463a1afe03b60e01b60008581866001811115610ecd57610ecd611dba565b67ffffffffffffffff608082901c811690600090604084901c1660068111156113b9576113b9611dba565b90509250929050565b6113d86001600160a01b03841683600184611717565b604080516060810182526101f3808252602082018190529181019190915261140c906001600160a01b038516908490610f26565b505050565b60405163118f53c760e31b81526001600160a01b03831690638c7a9e389061123d90633442702960e21b906000908690600401611e4a565b60405163118f53c760e31b81526001600160a01b03831690638c7a9e389061123d9063d3c8dd6960e01b906000908690600401611e4a565b60405163118f53c760e31b81526001600160a01b03831690638c7a9e389061123d9063eb70afe760e01b906000908690600401611e4a565b60405163118f53c760e31b81526001600160a01b03831690638c7a9e389061123d9063ec0be13d60e01b906002908690600401611e4a565b60405163118f53c760e31b81526001600160a01b03841690638c7a9e3890610e7290630ef6788760e01b9085908790600401611e4a565b60405163118f53c760e31b81526001600160a01b03841690638c7a9e3890610e7290633d604d0560e21b9085908790600401611e4a565b600080826040516020016115739190611f1c565b60408051808303601f1901815290829052805160209182012061ffff60e01b60e088901b16918301919091526000602483015260c081901b6001600160c01b031916602c8301529150611193906356dd99e760e11b906034016040516020818303038152906040526115e490611f5d565b611759565b6040516001600160e01b0319831660208201526000602482018190526001600160c01b031960c084901b166030830152906038015b60405160208183030381529060405261163690611f94565b9392505050565b6000808260010b12156116585761165382611fc7565b610cba565b5090565b60008160010b8360010b12156116725781611636565b5090919050565b6040516001600160e01b0319831660208201526001600160601b0319606083901b16602482015260009060380161161e565b8051602080830151604080850151606086015191516001600160e01b031988169481019490945260006024850181905260f095861b603086015292851b6032850152841b603484015290921b603682015260380161161e565b6000610cba63a453ff8760e01b836115e9565b604051633d18084560e21b81526001600160a01b0385169063f4602114906111d790633be0527f60e21b9086908890631983c3a760e31b908890600401611ed6565b6040516001600160e01b0319831660208201526001600160601b03198216602482015260009060380161161e565b6001600160a01b038116811461179c57600080fd5b50565b60008060008084860360a08112156117b657600080fd5b85356117c181611787565b9450602086013567ffffffffffffffff808211156117de57600080fd5b818801915088601f8301126117f257600080fd5b81358181111561180157600080fd5b89602082850101111561181357600080fd5b6020929092019550909350506060603f198201121561183157600080fd5b509295919450926040019150565b6001600160e01b031981358181169160048510156118675780818660040360031b1b83161692505b505092915050565b6000808585111561187f57600080fd5b8386111561188c57600080fd5b5050820193919092039150565b8060010b811461179c57600080fd5b80356118b381611899565b919050565b600080600080608085870312156118ce57600080fd5b84356118d981611899565b935060208501356118e981611899565b925060408501356118f981611899565b9150606085013561190981611899565b939692955090935050565b803560ff811681146118b357600080fd5b634e487b7160e01b600052604160045260246000fd5b604051601f8201601f1916810167ffffffffffffffff8111828210171561196457611964611925565b604052919050565b600067ffffffffffffffff82111561198657611986611925565b5060051b60200190565b6001600160401b03198116811461179c57600080fd5b600082601f8301126119b757600080fd5b813560206119cc6119c78361196c565b61193b565b82815260059290921b840181019181810190868411156119eb57600080fd5b8286015b84811015611a0f578035611a0281611990565b83529183019183016119ef565b509695505050505050565b67ffffffffffffffff8116811461179c57600080fd5b600080600080600080600060e0888a031215611a4b57600080fd5b8735611a5681611899565b9650602088810135611a6781611899565b96506040890135611a7781611899565b95506060890135611a8781611899565b9450611a9560808a01611914565b935060a089013567ffffffffffffffff80821115611ab257600080fd5b611abe8c838d016119a6565b945060c08b0135915080821115611ad457600080fd5b508901601f81018b13611ae657600080fd5b8035611af46119c78261196c565b81815260059190911b8201830190838101908d831115611b1357600080fd5b928401925b82841015611b3a578335611b2b81611a1a565b82529284019290840190611b18565b809550505050505092959891949750929550565b60008060008060008060c08789031215611b6757600080fd5b8635611b7281611990565b95506020870135611b8281611899565b94506040870135611b9281611899565b93506060870135611ba281611899565b92506080870135611bb281611899565b915060a087013560028110611bc657600080fd5b809150509295509295509295565b600080600080600060a08688031215611bec57600080fd5b8535611bf781611990565b94506020860135611c0781611787565b93506040860135611c1781611990565b9250611c2560608701611914565b9150608086013567ffffffffffffffff811115611c4157600080fd5b611c4d888289016119a6565b9150509295509295909350565b60008060408385031215611c6d57600080fd5b823567ffffffffffffffff80821115611c8557600080fd5b818501915085601f830112611c9957600080fd5b8135602082821115611cad57611cad611925565b611cbf601f8301601f1916820161193b565b92508183528781838601011115611cd557600080fd5b81818501828501376000818385010152829550611cf38188016118a8565b9450505050509250929050565b602080825260149082015273636f6f726473206f7574206f6620626f756e647360601b604082015260600190565b600060208284031215611d4057600080fd5b813561163681611787565b6020808252600a90820152696f776e6572206f6e6c7960b01b604082015260600190565b634e487b7160e01b600052603260045260246000fd5b634e487b7160e01b600052601160045260246000fd5b600060ff821660ff8103611db157611db1611d85565b60010192915050565b634e487b7160e01b600052602160045260246000fd5b600060208284031215611de257600080fd5b813563ffffffff8116811461163657600080fd5b60008060008060808587031215611e0c57600080fd5b8451611e1781611899565b6020860151909450611e2881611899565b6040860151909350611e3981611899565b606086015190925061190981611899565b6001600160e01b031993909316835260ff9190911660208301526001600160401b031916604082015260600190565b60008060408385031215611e8c57600080fd5b8251611e9781611990565b6020840151909250611ea881611a1a565b809150509250929050565b600181810b9083900b01617fff8113617fff1982121715610cba57610cba611d85565b6001600160e01b031995909516855260ff9390931660208501526001600160401b0319918216604085015216606083015267ffffffffffffffff16608082015260a00190565b6571756573742f60d01b81526000825160005b81811015611f4c5760208186018101516006868401015201611f2f565b506000920160060191825250919050565b805160208201516001600160601b03198082169291906014831015611f8c5780818460140360031b1b83161693505b505050919050565b805160208201516001600160401b03198082169291906018831015611f8c5760189290920360031b82901b161692915050565b60008160010b617fff198103611fdf57611fdf611d85565b6000039291505056fea26469706673582212205c6c76e3dbc655953272c1b2ad9adfa5925df46d3f7d379dcefbc30c8b1b976264736f6c63430008130033",
    "linkReferences": {
      "src/schema/Schema.sol": {
        "Schema": [
          {
            "start": 2695,
            "length": 20
          }
        ]
      }
    }
  },
  "methodIdentifiers": {
    "reduce(address,bytes,(address,uint32,uint32))": "624a3ede"
  },
  "id": 165
}