{
  "abi": [
    {
      "inputs": [
        {
          "internalType": "contract Game",
          "name": "ds",
          "type": "address"
        },
        {
          "internalType": "bytes24",
          "name": "buildingInstanceID",
          "type": "bytes24"
        },
        {
          "internalType": "bytes24",
          "name": "mobileUnitID",
          "type": "bytes24"
        },
        {
          "internalType": "bytes",
          "name": "payload",
          "type": "bytes"
        }
      ],
      "name": "construct",
      "outputs": [],
      "stateMutability": "nonpayable",
      "type": "function"
    },
    {
      "inputs": [
        {
          "internalType": "contract Game",
          "name": "ds",
          "type": "address"
        },
        {
          "internalType": "bytes24",
          "name": "buildingInstanceID",
          "type": "bytes24"
        },
        {
          "internalType": "bytes24",
          "name": "mobileUnitID",
          "type": "bytes24"
        }
      ],
      "name": "onUnitArrive",
      "outputs": [],
      "stateMutability": "nonpayable",
      "type": "function"
    },
    {
      "inputs": [
        {
          "internalType": "contract Game",
          "name": "ds",
          "type": "address"
        },
        {
          "internalType": "bytes24",
          "name": "buildingInstanceID",
          "type": "bytes24"
        },
        {
          "internalType": "bytes24",
          "name": "mobileUnitID",
          "type": "bytes24"
        }
      ],
      "name": "onUnitLeave",
      "outputs": [],
      "stateMutability": "nonpayable",
      "type": "function"
    },
    {
      "inputs": [
        {
          "internalType": "contract Game",
          "name": "ds",
          "type": "address"
        },
        {
          "internalType": "bytes24",
          "name": "coreBuildingInstance",
          "type": "bytes24"
        }
      ],
      "name": "reset",
      "outputs": [],
      "stateMutability": "nonpayable",
      "type": "function"
    },
    {
      "inputs": [
        {
          "internalType": "contract Game",
          "name": "ds",
          "type": "address"
        },
        {
          "internalType": "bytes24",
          "name": "buildingInstance",
          "type": "bytes24"
        },
        {
          "internalType": "bytes24",
          "name": "",
          "type": "bytes24"
        },
        {
          "internalType": "bytes",
          "name": "",
          "type": "bytes"
        }
      ],
      "name": "use",
      "outputs": [],
      "stateMutability": "nonpayable",
      "type": "function"
    }
  ],
  "bytecode": {
    "object": "0x608060405234801561001057600080fd5b506112a8806100206000396000f3fe608060405234801561001057600080fd5b50600436106100575760003560e01c806324fd46e81461005c5780632be1b83c1461007157806367cace071461008457806391d83c571461005c578063f03ad92f14610097575b600080fd5b61006f61006a366004610e8f565b505050565b005b61006f61007f366004610eda565b6100ab565b61006f610092366004610f29565b6101c7565b61006f6100a5366004610f29565b50505050565b6000826001600160a01b0316631865c57d6040518163ffffffff1660e01b81526004016020604051808303816000875af11580156100ed573d6000803e3d6000fd5b505050506040513d601f19601f820116820180604052508101906101119190611011565b90506101466001600160a01b0382167fbe92755c0000000000000000f1e6d10a000000000000000400000000000000006102da565b6001600160a01b0316336001600160a01b0316146101bd5760405162461bcd60e51b815260206004820152602a60248201527f4f6e6c792074686520726573657420746f7765722063616e2063616c6c207075604482015269189b1a58c81c995cd95d60b21b606482015260840160405180910390fd5b61006a8383610364565b836001600160a01b031663ebb3d5896040518163ffffffff1660e01b81526004016020604051808303816000875af1158015610207573d6000803e3d6000fd5b505050506040513d601f19601f8201168201806040525081019061022b9190611011565b60405167ffffffffffffffff19851660248201526001600160a01b03919091169063ab7fff189060440160408051601f198184030181529181526020820180516001600160e01b031663119645df60e31b179052516001600160e01b031960e084901b16815261029e9190600401611035565b600060405180830381600087803b1580156102b857600080fd5b505af11580156102cc573d6000803e3d6000fd5b505050506100a58484610364565b6040516305f922a160e11b815260009081906001600160a01b03851690630bf24542906103169063e6a8ee4f60e01b9085908890600401611083565b6040805180830381865afa158015610332573d6000803e3d6000fd5b505050506040513d601f19601f8201168201806040525081019061035691906110b3565b5060401c9150505b92915050565b6000826001600160a01b0316631865c57d6040518163ffffffff1660e01b81526004016020604051808303816000875af11580156103a6573d6000803e3d6000fd5b505050506040513d601f19601f820116820180604052508101906103ca9190611011565b905060006103e16001600160a01b03831684610ddc565b6040805163ebb3d58960e01b81528151929350607084901c92606085901c92605086901c929086901c916001600160a01b038a169163ebb3d58991600480830192602092919082900301816000875af1158015610442573d6000803e3d6000fd5b505050506040513d601f19601f820116820180604052508101906104669190611011565b6001600160a01b031663ab7fff186bd4c1c688000000000000000160401b632fa49d5760e21b01866104998760056110ee565b6104a5876003196110ee565b6104b1876000196110ee565b60006040516024016104c89695949392919061111f565b60408051601f198184030181529181526020820180516001600160e01b0316635008dc6f60e01b179052516001600160e01b031960e084901b1681526105119190600401611035565b600060405180830381600087803b15801561052b57600080fd5b505af115801561053f573d6000803e3d6000fd5b50505050876001600160a01b031663ebb3d5896040518163ffffffff1660e01b81526004016020604051808303816000875af1158015610583573d6000803e3d6000fd5b505050506040513d601f19601f820116820180604052508101906105a79190611011565b6001600160a01b031663ab7fff186bd4c1c688000000000000000160401b632fa49d5760e21b01866105da8760076110ee565b6105e6876005196110ee565b6105f2876000196110ee565b60006040516024016106099695949392919061111f565b60408051601f198184030181529181526020820180516001600160e01b0316635008dc6f60e01b179052516001600160e01b031960e084901b1681526106529190600401611035565b600060405180830381600087803b15801561066c57600080fd5b505af1158015610680573d6000803e3d6000fd5b50505050876001600160a01b031663ebb3d5896040518163ffffffff1660e01b81526004016020604051808303816000875af11580156106c4573d6000803e3d6000fd5b505050506040513d601f19601f820116820180604052508101906106e89190611011565b6001600160a01b031663ab7fff186bd4c1c688000000000000000160401b632fa49d5760e21b018661071b8760076110ee565b610727876007196110ee565b6107328760016110ee565b60006040516024016107499695949392919061111f565b60408051601f198184030181529181526020820180516001600160e01b0316635008dc6f60e01b179052516001600160e01b031960e084901b1681526107929190600401611035565b600060405180830381600087803b1580156107ac57600080fd5b505af11580156107c0573d6000803e3d6000fd5b50505050876001600160a01b031663ebb3d5896040518163ffffffff1660e01b81526004016020604051808303816000875af1158015610804573d6000803e3d6000fd5b505050506040513d601f19601f820116820180604052508101906108289190611011565b6001600160a01b031663ab7fff186bd4c1c688000000000000000160401b632fa49d5760e21b018661085b8760056110ee565b610867876005196110ee565b6108728760016110ee565b60006040516024016108899695949392919061111f565b60408051601f198184030181529181526020820180516001600160e01b0316635008dc6f60e01b179052516001600160e01b031960e084901b1681526108d29190600401611035565b600060405180830381600087803b1580156108ec57600080fd5b505af1158015610900573d6000803e3d6000fd5b50505050876001600160a01b031663ebb3d5896040518163ffffffff1660e01b81526004016020604051808303816000875af1158015610944573d6000803e3d6000fd5b505050506040513d601f19601f820116820180604052508101906109689190611011565b6001600160a01b031663ab7fff187fbe92755c0000000000000000e92c4edd00000000000000010000000000000000866109a38760006110ee565b6109af876005196110ee565b6109ba8760066110ee565b60006040516024016109d19695949392919061111f565b60408051601f198184030181529181526020820180516001600160e01b0316635008dc6f60e01b179052516001600160e01b031960e084901b168152610a1a9190600401611035565b600060405180830381600087803b158015610a3457600080fd5b505af1158015610a48573d6000803e3d6000fd5b5086925060009150610a5d90508560086110ee565b90506000610a6d856000196110ee565b90506000610a7d856006196110ee565b60408051600480825260a082019092529192506000919060208201608080368337505060408051600480825260a08201909252929350600092915060208201608080368337019050509050776a7a67f01df41ea10000000000000001000000010000001e60401b82600081518110610af757610af7611182565b67ffffffffffffffff199092166020928302919091019091015281517f6a7a67f0ab4f7a160000000000000014000000280000000a00000000000000009083906001908110610b4857610b48611182565b67ffffffffffffffff199092166020928302919091019091015281517f6a7a67f06a60bb99000000000000001e000000140000000100000000000000009083906002908110610b9957610b99611182565b67ffffffffffffffff1990921660209283029190910190910152815160009083906003908110610bcb57610bcb611182565b60200260200101906001600160401b03191690816001600160401b03191681525050600181600081518110610c0257610c02611182565b60200260200101906001600160401b031690816001600160401b031681525050600181600181518110610c3757610c37611182565b60200260200101906001600160401b031690816001600160401b031681525050600181600281518110610c6c57610c6c611182565b60200260200101906001600160401b031690816001600160401b031681525050600081600381518110610ca157610ca1611182565b60200260200101906001600160401b031690816001600160401b0316815250508d6001600160a01b031663ebb3d5896040518163ffffffff1660e01b81526004016020604051808303816000875af1158015610d01573d6000803e3d6000fd5b505050506040513d601f19601f82011682018060405250810190610d259190611011565b6001600160a01b031663ab7fff188787878760008888604051602401610d5197969594939291906111dc565b60408051601f198184030181529181526020820180516001600160e01b031663c0ee3f7d60e01b179052516001600160e01b031960e084901b168152610d9a9190600401611035565b600060405180830381600087803b158015610db457600080fd5b505af1158015610dc8573d6000803e3d6000fd5b505050505050505050505050505050505050565b6000806001600160a01b038416630bf2454263ec0be13d60e01b6002866040518463ffffffff1660e01b8152600401610e1793929190611083565b6040805180830381865afa158015610e33573d6000803e3d6000fd5b505050506040513d601f19601f82011682018060405250810190610e5791906110b3565b50949350505050565b6001600160a01b0381168114610e7557600080fd5b50565b67ffffffffffffffff1981168114610e7557600080fd5b600080600060608486031215610ea457600080fd5b8335610eaf81610e60565b92506020840135610ebf81610e78565b91506040840135610ecf81610e78565b809150509250925092565b60008060408385031215610eed57600080fd5b8235610ef881610e60565b91506020830135610f0881610e78565b809150509250929050565b634e487b7160e01b600052604160045260246000fd5b60008060008060808587031215610f3f57600080fd5b8435610f4a81610e60565b93506020850135610f5a81610e78565b92506040850135610f6a81610e78565b915060608501356001600160401b0380821115610f8657600080fd5b818701915087601f830112610f9a57600080fd5b813581811115610fac57610fac610f13565b604051601f8201601f19908116603f01168101908382118183101715610fd457610fd4610f13565b816040528281528a6020848701011115610fed57600080fd5b82602086016020830137600060208483010152809550505050505092959194509250565b60006020828403121561102357600080fd5b815161102e81610e60565b9392505050565b600060208083528351808285015260005b8181101561106257858101830151858201604001528201611046565b506000604082860101526040601f19601f8301168501019250505092915050565b6001600160e01b031993909316835260ff91909116602083015267ffffffffffffffff1916604082015260600190565b600080604083850312156110c657600080fd5b82516110d181610e78565b60208401519092506001600160401b0381168114610f0857600080fd5b600181810b9083900b01617fff8113617fff198212171561035e57634e487b7160e01b600052601160045260246000fd5b67ffffffffffffffff1987168152600186810b602083015285810b604083015284810b606083015283900b608082015260c081016002831061117157634e487b7160e01b600052602160045260246000fd5b8260a0830152979650505050505050565b634e487b7160e01b600052603260045260246000fd5b600081518084526020808501945080840160005b838110156111d15781516001600160401b0316875295820195908201906001016111ac565b509495945050505050565b600060e0820160018a810b845260208a820b8186015289820b604086015288820b606086015260ff8816608086015260e060a086015282875180855261010087019150828901945060005b8181101561124d57855167ffffffffffffffff1916835294830194918301918401611227565b505085810360c08701526112618188611198565b9d9c5050505050505050505050505056fea2646970667358221220d4d48e62ecce12595f4740a51dacb368157b5643ccc14a7b44963193b8ec11d364736f6c63430008130033",
    "linkReferences": {}
  },
  "methodIdentifiers": {
    "construct(address,bytes24,bytes24,bytes)": "f03ad92f",
    "onUnitArrive(address,bytes24,bytes24)": "91d83c57",
    "onUnitLeave(address,bytes24,bytes24)": "24fd46e8",
    "reset(address,bytes24)": "2be1b83c",
    "use(address,bytes24,bytes24,bytes)": "67cace07"
  },
  "id": 72
}